:020000022000DC
:106000000000042059220400992204009B2204006D
:106010009D2204009F220400A12204000000000031
:10602000000000000000000000000000E12004006B
:10603000A52204000000000001210400A9220400A0
:10604000B5240400AB220400D1F20300AB2204000B
:10605000AB220400AB2204005DF60300AB22040077
:10606000AB220400AB220400AB220400AB220400EC
:10607000AB220400AB220400AB220400AB220400DC
:10608000AB220400311E0400AB220400AB2204004A
:10609000AB220400AB220400418B0300AB220400BE
:1060A000AB220400AB220400AB220400AB220400AC
:1060B000AB220400AB22040000000000000000003E
:1060C000AB220400AB220400AB2204009D2A040092
:1060D000AB220400AB220400AB2204006D170300C6
:1060E000AB220400AB220400AB220400000000003D
:1060F00000000000AB22040000000000152B04008B
:10610000000000000000000000000000000000008F
:10611000000000000000000000000000000000007F
:10612000000000000000000000000000000000006F
:10613000000000000000000000000000000000005F
:10614000000000000000000000000000000000004F
:10615000000000000000000000000000000000003F
:10616000000000000000000000000000000000002F
:10617000000000000000000000000000000000001F
:10618000000000000000000000000000000000000F
:1061900000000000000000000000000000000000FF
:1061A00000000000000000000000000000000000EF
:1061B00000000000000000000000000000000000DF
:1061C00000000000000000000000000000000000CF
:1061D00000000000000000000000000000000000BF
:1061E00000000000000000000000000000000000AF
:1061F000000000000000000000000000000000009F
:10620000F1EE103A43F08073E1EE103A704700BFB0
:1062100010B5054C237833B9044B13B10448AFF3E0
:1062200000800123237010BD2464002000000000C2
:10623000FC23050008B5034B1BB103490348AFF32A
:10624000008008BD0000000028640020FC23050039
:10625000154B002B08BF134B9D46A3F5803A002138
:106260008B460F461348144A121A23F0F5FC0F4BC5
:10627000002B00D098470E4B002B00D098470020F1
:10628000002104000D000D48002802D00C48AFF397
:10629000008023F077FC200029001CF035F823F063
:1062A0004BFC00BF000008000000042000000000BC
:1062B0000000000024640020D4A50020000000009D
:1062C0000000000033DF7047014B01221A70704755
:1062D00000710020014B01221A70704700700020ED
:1062E000014B01221A707047746B0020014B012290
:1062F0001A707047EC700020014B01221A70704731
:10630000F666002038B5054CA4F5A875204619F0AE
:10631000C1FAAC42A4F10C04F8D138BD686B00207E
:10632000054B064A1B78013B0021012B117000D957
:10633000704703201DF080B954640020F5660020EA
:1063400010B5134B88B001461248198012F0F0FBCB
:1063500011490124002320220C706946CDE9003345
:10636000CDE90333CDE905330293079310F0D0FC58
:106370000A4B0B4A1B78013B0221A342117001D941
:1063800008B010BD214603201DF056F908B010BD1D
:10639000DC6B0020E88E0020F566002054640020AD
:1063A000B06E002010B5664C6649204618F0A8F87B
:1063B000654B0A221978204618F01CFA63492046DA
:1063C00018F09EF8624B0A221978204618F038FA25
:1063D0006049204618F094F85F4B0A22197820464D
:1063E00018F008FA5D49204618F08AF85C4B0A223A
:1063F0001978204618F0FEF95A49204618F080F81E
:10640000594B0A221978204618F01AFA57492046A3
:1064100018F076F8564B186822F034FE41EC100B59
:106420002046022118F030F95249204618F068F849
:10643000514B0A221988204618F0DCF94F492046B2
:1064400018F05EF84E4B186822F01CFE41EC100B61
:106450002046022118F018F94A49204618F050F851
:10646000494B0A221978204618F0EAF94749204694
:1064700018F046F8464B0A221978204618F0E0F941
:106480004449204618F03CF8434B0A22197820462C
:1064900018F0D6F94149204618F032F8404B0A224C
:1064A0001978204618F0CCF93E49204618F028F813
:1064B0003D4B0A221978204618F0C2F93B49204684
:1064C00018F01EF83A4B0A221978204618F0B8F94D
:1064D0003849204618F014F8374B0A22197820461C
:1064E00018F088F93549204618F00AF8344B0A228A
:1064F0001978204618F0A4F93249204618F000F81F
:10650000314B0A221978204618F074F92F49204699
:1065100017F0F6FF2E4B0A221978204618F06AF978
:106520002C49204617F0ECFF2B4B204619780A2205
:1065300018F060F92046BDE8104004F085BF00BFA8
:10654000786B0020D4E2040005600020DCE2040047
:1065500004600020E4E2040041640020ECE2040056
:1065600010600020F4E2040018600020F8E204004B
:106570001460002000E304001A60002004E304001B
:106580000860002008E304001F6000200CE3040002
:106590000C60002010E304002060002014E30400DD
:1065A0001D6000201CE304001E60002024E30400A2
:1065B000426400202CE304004064002034E3040023
:1065C000546400203CE304000E60002044E3040017
:1065D0000F60002050E304000D6000202DE9F04121
:1065E000DFF8C48098F814C09CB0BCF1000F4BD009
:1065F00005460C4617461E461FF0FEFA00284CD1F1
:106600003946D8F81830324609A81EF017FF244B37
:1066100003931027D8F81C10049709A8082303AA8D
:106620001EF04CFF002835D1D8F808309E4222D108
:1066300028686968AA68EB68002605AD0FC5266062
:1066400023466660A660E66005A9102209A81EF030
:1066500071FF0346D8B902A90191009405AA09A8BF
:1066600019461EF0A5FF00280CBF10206FF0050092
:106670001CB0BDE8F0810B4909A81EF043FF0028BB
:10668000D6D06FF00600F3E74FF0FF30F0E76FF081
:106690000400EDE76FF00300EAE76FF00100E7E7C1
:1066A0005864002044640020B864002008B50C49F8
:1066B0000C4804F051FC0A490B48012204F00AFE80
:1066C00048B90A4B1B7803B908BDBDE80840084922
:1066D000084817F089BFBDE80840FFF763BE00BF58
:1066E0005CE3040004710020786B0020F466002055
:1066F00064E30400AC810020F0B5174F174D184E2D
:1067000099B00446384613F0EFFC0221284613F0F6
:10671000BBFD204624F0D0F921460246284613F05E
:10672000C7FD08AC08A9284613F0CAFD0FCC6D467A
:106730000FC594E80F0085E80F006B460FCB86E885
:106740000F0095E80F00074C84E80F00384613F05F
:10675000DFFC19B0F0BD00BF7C960020E06B00208C
:1067600044640020586400202DE9F04173497448C6
:10677000DFF87C82734E744F82B004F0FDFC7348E6
:1067800013F07EFD724B7348002501220321C3E9FB
:10679000065519611D609D601D755A60DA6013F021
:1067A00099FD30201BF0F0FD0F230E2204460093CC
:1067B0000C210D2313F068FF21466748674C14F045
:1067C000F7F9404612F026FB32466549404623F071
:1067D00073F9384612F0B8FB32466249384623F066
:1067E0006BF9614F20464FF4807113F003F8324685
:1067F0005E49204623F060F95D4C384612F0F2F90C
:1068000032465C49384623F057F95B49204618F078
:1068100067FF5A4904F10C0018F062FF584904F16F
:10682000180018F05DFF574904F1240018F058FFD4
:10683000554904F1300018F053FF544904F13C006D
:1068400018F04EFF524904F1480018F049FF514931
:1068500004F1540018F044FF4F4904F1600018F0AF
:106860003FFF4E4904F16C0018F03AFF4C4904F127
:10687000780018F035FF4B4904F1840018F030FF20
:10688000494904F1900018F02BFF484904F19C009D
:1068900018F026FF464904F1A80018F021FF4549E9
:1068A00004F1B40018F01CFF434904F1C00018F0D3
:1068B00017FF424904F1CC0018F012FF404904F1DF
:1068C000D80018F00DFF3F4904F1E40018F008FF6C
:1068D0003D4904F1F00018F003FF3C4904F1FC00CD
:1068E00018F0FEFE3A4904F5847018F0F9FE3949B3
:1068F00004F58A7018F0F4FE374904F5907018F02A
:10690000EFFE364904F5967018F0EAFE344904F5B6
:106910009C7018F0E5FE334904F5A27018F0E0FE13
:10692000314904F5A87018F0DBFE3049324628469C
:1069300002B0BDE8F04123F0BFB800BF04710020F1
:10694000786B002000600020B8650020E06B00201C
:10695000B864002004700020B46E0020006600209F
:10696000859B02006D9B0200D8640020899803007B
:10697000186A0020459B020084E304008CE30400B5
:106980009CE30400ACE30400C8E30400D8E3040083
:10699000E4E30400F0E3040000E4040014E4040071
:1069A00030E4040044E4040058E404006CE404000F
:1069B00084E4040098E40400A8E40400BCE40400B7
:1069C000D4E40400F0E4040000E504000CE5040055
:1069D00020E5040034E5040048E504005CE504001B
:1069E00068E5040078E5040090E504000563020012
:1069F0004865002030B5B748B74985B00022044645
:106A000004F068FC204604F057FB3D28FAD1B14958
:106A1000B24DB34C0A2201A817F098FF01A819F053
:106A200057F8031E18BF012301A82B7018F032FF7E
:106A30002378002B40F0E281A64D284604F03CFB71
:106A40003D28FAD1A349A74D0A2201A817F07EFFDD
:106A500001A819F03DF8034601A82B7018F01AFFA1
:106A60002378002B40F08A829A4D284604F024FBBC
:106A70003D28FAD197499C4D0A2201A817F066FFDC
:106A800001A819F025F8031E18BF012301A82B70D7
:106A900018F000FF2378002B40F066828D4D2846C9
:106AA00004F00AFB3D28FAD18A49904D0A2201A838
:106AB00017F04CFF01A819F00BF8031E18BF0123B3
:106AC00001A82B7018F0E6FE2378002B40F04282DC
:106AD000804D284604F0F0FA3D28FAD17D49844DD6
:106AE0000A2201A817F032FF01A818F0F1FF0346AF
:106AF00001A82B7018F0CEFE2378002B40F02082E6
:106B0000744D284604F0D8FA3D28FAD17149794DE0
:106B10000A2201A817F01AFF01A818F0DFFF01A848
:106B200085ED000A18F0B6FE2378002B40F0FA81BC
:106B3000684D284604F0C0FA3D28FAD165496E4DEB
:106B40000A2201A817F002FF01A818F0C1FF0346AE
:106B500001A82B8018F09EFE2378002B40F0D881EE
:106B60005C4D284604F0A8FA3D28FAD15949634DF6
:106B70000A2201A817F0EAFE01A818F0AFFF01A849
:106B800085ED000A18F086FE2378002B40F0B281D4
:106B9000504D284604F090FA3D28FAD14D49584D01
:106BA0000A2201A817F0D2FE01A818F091FF0346AF
:106BB00001A82B7018F06EFE2378002B40F0908116
:106BC000444D284604F078FA3D28FAD141494D4D0C
:106BD0000A2201A817F0BAFE01A818F079FF0346AF
:106BE00001A82B7018F056FE2378002B40F06E8120
:106BF000384D284604F060FA3D28FAD13549424D17
:106C00000A2201A817F0A2FE01A818F061FF0346AE
:106C100001A82B7018F03EFE2378002B40F04C8129
:106C20002C4D284604F048FA3D28FAD12949374D21
:106C30000A2201A817F08AFE01A818F049FF0346AE
:106C400001A82B7018F026FE2378002B40F02A8133
:106C5000204D284604F030FA3D28FAD11D492C4D2C
:106C60000A2201A817F072FE01A818F031FF0346AE
:106C700001A82B7018F00EFE2378002B40F008813D
:106C8000144D284604F018FA3D28FAD11149214D37
:106C90000A2201A817F05AFE01A818F019FF0346AE
:106CA00001A82B7018F0F6FD2378002B40F0E68049
:106CB000084D284604F000FA3D28FAD10549164D42
:106CC0000A2201A817F042FE01A818F001FF031ED6
:106CD00024E000BF786B00205CE304000560002026
:106CE000F466002004600020416400201060002051
:106CF00018600020146000201A6000200860002046
:106D00001F6000200C600020206000201D6000201B
:106D10001E600020426400204064002018BF012350
:106D200001A82B7018F0B6FD2378002B40F09C8052
:106D3000974D284604F0C0F93D28FAD19449954D65
:106D40000A2201A817F002FE01A818F0C1FE0346AE
:106D500001A82B7018F09EFD2378002B7AD18C4D62
:106D6000284604F0A9F93D28FAD189498A4D0A221A
:106D700001A817F0EBFD01A818F0AAFE031E18BF2A
:106D8000012301A82B7018F085FD2378002B57D123
:106D90007F4D284604F090F93D28FAD17C497F4D7B
:106DA0000A2201A817F0D2FD01A818F091FE031ED7
:106DB00018BF012301A82B7018F06CFD2378002B5D
:106DC00034D1734D284604F077F93D28FAD1704943
:106DD000734D0A2201A817F0B9FD01A818F078FE3A
:106DE000031E18BF012301A82B7018F053FD237850
:106DF00073B9674804F028FB05B030BD69496A489B
:106E000017F07EFB297868480A2217F0F3FC13E696
:106E10006649654817F074FB297863480A2217F021
:106E2000E9FC5B4804F010FB05B030BD60495E48EA
:106E300017F066FB29785C480A2217F0DBFCC0E7F4
:106E40005C49594817F05CFB297857480A2217F02B
:106E5000D1FC9DE75849544817F052FB2978524815
:106E60000A2217F0EDFC7AE754494F4817F048FB27
:106E700029784D480A2217F0BDFC59E750494A4885
:106E800017F03EFB297848480A2217F0D9FC0FE793
:106E90004C49454817F034FB297843480A2217F03B
:106EA000CFFCEDE64849404817F02AFB29783E48D8
:106EB0000A2217F0C5FCCBE644493B4817F020FBFB
:106EC000297839480A2217F0BBFCA9E64049364820
:106ED00017F016FB297834480A2217F0B1FC87E630
:106EE0003C49314817F00CFB29782F480A2217F04B
:106EF000A7FC65E638492C4817F002FB286822F009
:106F0000C1F841EC100B0221274817F0BDFB3FE60A
:106F10003249254817F0F4FA298823480A2217F045
:106F200069FC1DE62E49204817F0EAFA286822F08D
:106F3000A9F841EC100B02211B4817F0A5FBF7E55F
:106F40002849194817F0DCFA297817480A2217F05F
:106F500077FCD5E52449144817F0D2FA297812486D
:106F60000A2217F047FCB3E520490F4817F0C8FA8A
:106F700029780D480A2217F03DFC8FE51C490A4884
:106F800017F0BEFA297808480A2217F059FC6BE579
:106F9000786B0020546400200E6000200F600020F9
:106FA0000D600020D4E20400AC81002050E3040016
:106FB00044E304003CE3040034E304002CE3040055
:106FC00024E304001CE3040014E3040010E30400C1
:106FD0000CE3040008E3040004E3040000E30400FD
:106FE000F8E20400F4E20400ECE20400E4E204004D
:106FF000DCE2040070B545F21F2288B0B64841F6C5
:1070000015110AF0D3F8B549B3480AF0D3F8B449DA
:10701000B1480AF0D3F8032001211CF00DFBB14860
:1070200009F0F0FF002800F087824FF47A7018F022
:107030008BFDAC4809F0E6FF002800F07A82AA48F0
:1070400009F034FCA949AA48002204F043F9A848F1
:1070500004F026FA002800F05C82A649A448002229
:1070600004F038F9A24804F01BFA002800F041822D
:10707000A1499F48002204F02DF99D4804F010FA20
:10708000002800F002829D4B994D0022C3E90022A6
:10709000C3E902221C4603F1100602E00134A642B5
:1070A0000CD0284603F0CCFF0028F7D0284604F087
:1070B00003F8013404F8010CA642F2D18C4804F024
:1070C000C3F98F498A48002204F004F9884804F083
:1070D000E7F9002800F0ED818A4C854D04F1400667
:1070E00002E00134A6420CD0284603F0A9FF002894
:1070F000F7D0284603F0E0FF013404F8010CA64263
:10710000F2D17B4804F0A0F97E48FFF7F5FA7E49FA
:107110007748002204F0DEF8754804F0C1F980B920
:107120007949714803F018FF77497148012204F04A
:10713000D1F8002840F00682744B1B78002B40F0F9
:107140000482FFF757FC0A24012585F00105294632
:1071500003201CF071FA642018F0F6FC631E13F093
:10716000FF04F2D16A4A6B4B12786B4853F8221035
:1071700017F0B8FE142485F00105294603201CF001
:107180005BFA642018F0E0FC631E13F0FF04F2D1F8
:10719000624D2B78002B00F04C81614B614A1E78C8
:1071A0006149624B12781B7891F900106048029394
:1071B000019200915F4C604B604A6149D4ED000A36
:1071C0001B781278097800EB860090ED000A5D4884
:1071D00013F0F8FC0446002C00F048815A4B297843
:1071E00000221A60002940F0718104225749554855
:1071F0003C4C16F083F9534815F03CFC54480021F0
:1072000011F02CFC5248042111F0ECF9002201216C
:107210004F4811F017FA08214D4811F0D1FB002218
:107220003249334804F056F805A8314917F05AFBA3
:107230000599484810F032FB05A818F02BFB0022F6
:107240002C492B4804F046F805A8294917F04AFBB9
:1072500005993F4811F08CFB05A818F01BFB3E492F
:107260003B480FF0A1FF3D4939480FF09FFF1B49F4
:107270003B48102211F064FE19493948082211F0E8
:107280005BFE374811F096FE31221146354810F06A
:10729000B9FE344812F03CFB062133480EF09EFC48
:1072A00031480EF083FC2F492F480EF03BFC2F484D
:1072B0000EF04EFC2C4801210EF0C4FCF4222A48AA
:1072C00020210EF0BBFC28481E210EF0B5FC002149
:1072D00025480EF023FD4DE0CC810020A0E5040000
:1072E000B4E50400AC8100200471002074E50400C2
:1072F000786B0020C8E50400D0E504006864002035
:10730000E4E50400786400205CE30400F4660020F7
:107310000460002024600020889700201060002076
:10732000186000201D6000201E60002042640020C4
:1073300030ED040008600020206000200C60002078
:107340001F600020B46E0020D46C0020D5620200C3
:10735000E88E0020088F00204163020021630200B4
:10736000B865002000660020289500206C9500205C
:1073700009F028FD204609F0FFFC03462046002BBB
:10738000F6D1804C01E017F03BFD204617F030FDB0
:1073900003462046002BF6D17B4C01E011F0CAFEDB
:1073A000204611F077FE03462046002BF6D1774C9D
:1073B0002378013B012B37D8754B1B78002B33D03A
:1073C000012102201CF0B4F82378724C012B8CBFF1
:1073D0000121002102201CF02FF91EF00DFC237D5D
:1073E000002B5FD000246C4812F078FF6B490094AA
:1073F00001234FF480626A481BF078FD01234FF4AB
:1074000080626849009466481BF070FD02210420E8
:107410001CF08EF86449654817F0E6F8624959484F
:1074200017F0E2F808B070BD002103201CF004F949
:10743000C6E75F495F4C60480978247890F90000FE
:107440000090029101945D485D4C5E4B5E4A5F493D
:10745000D4ED000A90ED000A1B78127809785C4898
:1074600013F0B0FB0446002C7FF4B8AE594B5848DB
:107470001978224614F0CCF900287FF4AFAE2B78AF
:10748000002B79D1544B1C60AFE65449544801227B
:1074900003F020FF00283FF414AE5249504817F083
:1074A0002FF80BE61EF0A8FB00289BD101232375C3
:1074B00098E74D494A48012203F00CFF00283FF4A9
:1074C00023AE4A49464817F01BF81AE6484A494B8A
:1074D00012783F4803EB820393ED000A13F042FB5E
:1074E0000446002836D144493948042216F01CF8D5
:1074F0007BE642493A48012203F0ECFE00283FF4C3
:10750000B7AD3F49364816F0FBFF354803F09CFF06
:10751000AEE53C493248012203F0DCFE00283FF48E
:107520009CAD39492E4816F0EBFF2D4803F08CFF37
:1075300093E51BF0F7FC82E51C484FF4E13109F0BC
:1075400039FD72E5FEF72EFFFBE53049174817F0CD
:107550004BF8F6E52E49154816F0A4FF84EAE473CB
:10756000A3EBE4732B4911489BB203EB430301EBFC
:10757000830116F0F3FFB6E7274B1548197816F08C
:1075800039FD2BE688970020006600205464002017
:10759000F5660020B8640020047000201D9C0200E5
:1075A000509C0020417B020024E60400AC810020B6
:1075B000426400201D6000201E6000201460002036
:1075C00008600020206000200C6000201F60002068
:1075D000B46E002040640020D46C0020D0E504008C
:1075E000786B0020D8E50400E4E50400ECE5040035
:1075F0001860002030ED0400E1620200C8E50400DC
:10760000B4E5040074E50400C0E5040064E304008C
:10761000F8E50400186A00201A6000201F4B204A79
:107620001B7870B5002604460D46166093B91D49B7
:107630001D48042215F062FF18F07AFA1B4B02462F
:107640001A60194800232A46214615F003FB184BFF
:10765000186070BD174A184B1278134803EB820369
:1076600093ED000A13F07EFA064628B913490E4836
:10767000042215F059FFDAE71149124816F012FFFB
:10768000002EB8BF764210490E48B6B206EB460649
:1076900001EB860116F062FFE8E700BF10600020F2
:1076A000D46C0020C9620200B46E0020F470002087
:1076B000FC7000201860002030ED0400E162020040
:1076C000F8E50400AC810020186A00202DE9F04F95
:1076D0002DED028BCDB000AF15469B468946064680
:1076E00023F0EAF94FF0000A04465146F22207F16E
:1076F0003C00D7F8608122F0AFFADBF80030404858
:1077000087F83950C7F83A3093FA83FCE4B287F827
:1077100038904546534650F8042FD9B2954203F1AC
:10772000010384BF8A461546642BF4D1354A364B93
:1077300042F82A80D02C43F82AC059D8B9F1010F59
:1077400072D0324823F0B8F95FFA80FC0CF10602DF
:107750005FFA82FE58B12D4D002307F59872D118BB
:107760005A1CEB5C01F8F23CD3B29842F5D807F50D
:1077700098710CF1070307F5987251FA83F372447C
:107780003A2020210CF1080502F8F80CEDB203F8BC
:10779000F81C94B104F108006044013EC0B22B46CD
:1077A00007F598721A440133DBB216F8011F02F88C
:1077B000F81C8342F4D12C44E5B2154B154A1B78D2
:1077C00000211160002B40F0558113491348042219
:1077D00015F094FE18F0ACF9114B02461A600F48F0
:1077E00000232A4607F1380115F034FA0D4B1860D2
:1077F00007F59A77BD46BDEC028BBDE8F08F00BF60
:107800008468002088680020F866002068640020F2
:1078100010600020D46C0020C9620200B46E002009
:10782000F4700020FC70002014F00F0818BF4FF017
:10783000010808EB1418DFF804A308F1020C6946EC
:10784000A1EB0C116B464FF0000B8D464FEA0C1567
:10785000DAF80020C7F814B007F1080108EE103A72
:1078600007F12800DAF80C30C7E9015BC7E903BB70
:10787000C7E90ABBC7E90CBBFEF7B0FE07F1080C6D
:10788000BCE80F000090019102920393DAF8002007
:10789000DAF80C309C48C7F808B007F10801C7E9CE
:1078A00003BBC7F814B0FEF799FE07F1080CBCE85B
:1078B0000F00E9460490059106920793B8F1000F76
:1078C00000F0A480D84697F804B02025A5F1200345
:1078D000DBB29C4288BF3378C7E9068888BF3B7615
:1078E000A5F11F03DBB2A3423CBF73787B76A5F101
:1078F0001E03DBB2A3423CBFB378BB76A5F11D03E8
:10790000DBB2A3423CBFF378FB76A5F11C03DBB2EC
:10791000A3423CBF33793B77A5F11B03DBB2A34203
:107920003CBF73797B77A5F11A03DBB2A3423CBF5E
:10793000B379BB77A5F11903DBB2A3423CBFF3795E
:10794000FB77A5F11803DBB2A34238BF337AC7E94E
:10795000088838BF87F82030A5F11703DBB2A342AF
:107960003CBF737A87F82130A5F11603DBB2A3423E
:107970003CBFB37A87F82230A5F11503DBB2A342EE
:107980003CBFF37A87F82330A5F11403DBB2A3429E
:107990003CBF337B87F82430A5F11303DBB29C4254
:1079A00084BF737B87F82530A5F11203DBB29C42BC
:1079B00084BFB37B87F82630A5F11103DBB29C426C
:1079C00084BFF37B87F82730DAF80020DAF80C3030
:1079D000C7F8088007F1080107F11800C7E9038814
:1079E000C7F81480FEF7FAFDBB6849F80530D7E9FF
:1079F000030109EB05031035EDB27A695860AB4518
:107A000006F110069960DA607FF460AF7B68B3F529
:107A1000807F65D0980807F13E020023013359F8B2
:107A2000041B42F8041B9842F8D8384B384A1B789C
:107A300000211160002B41D136493748042215F04E
:107A40005DFD18F075F8354B02461A607A683248C9
:107A500007F138010632002315F0FCF8304B1860AE
:107A600018EE103A07F59A779D46BD46BDEC028B9D
:107A7000BDE8F08F2B4A2C4B1278274803EB82038A
:107A800093ED000A13F06EF8044628B927492248FE
:107A9000042215F049FD98E62549264816F002FD16
:107AA00084EAE473A3EBE473234922489BB203EB1B
:107AB000430301EB830116F051FDE7E7194A1A4B26
:107AC0001278154803EB820393ED000A13F04AF88D
:107AD000044630B915491048042215F025FDABE7DE
:107AE000FEE71349134816F0DDFC84EAE473A3EBC8
:107AF000E47311490F489BB203EB430301EB83018D
:107B000016F02CFDE6E700BF68640020106000203E
:107B1000D46C0020C9620200B46E0020F470002012
:107B2000FC7000201860002030ED0400E1620200CB
:107B3000F8E50400AC810020186A0020B864002039
:107B400010B582B017F0F4FF204B1A68904222D88B
:107B50001F4B20491A780AB90A789AB11A7802F0AC
:107B6000FF004ABB1C4A08701870137863B11B49A8
:107B70001B4B09681B4A0091197812781A4B1B4855
:107B8000FFF7A4FD02B010BD1948F72102B0BDE80F
:107B90001040FFF743BD174917484FF0FF34042248
:107BA0001C6015F0ABFC15491348042215F0BCFC11
:107BB000114814F0ADFDCBE70F4800220A701A708F
:107BC00002B0BDE8104014F0A3BD00BF94600020D7
:107BD000F6660020EC70002001700020AC6E0020E2
:107BE000DD6C0020DC6C0020E06C0020E46C0020E8
:107BF000B46D0020ED620200B46E0020F962020054
:107C00002DE9F047C0B002AF0C460546B94907F16F
:107C10000800904617F064FDB74920460A2222F07A
:107C200053FF002849D0B5490822204622F04CFFD6
:107C30000646D0B1B2490622204622F045FF002870
:107C40005BD1B04B1B78002B00F03C81012B00F086
:107C50002182022B00F027824FF08043572100221F
:107C6000C3F81C150123009206E0A74907F108009C
:107C700017F03EFE00960123A449A5484FF4806208
:107C80001BF034F907F1EC0407F10801204617F066
:107C900041FDA049204617F0A3FE0146284617F0F3
:107CA00039FD204617F0F6FD07F1080017F0F2FD48
:107CB0002846F837BD46BDE8F08707F1EC04964941
:107CC000204617F00DFD954B07F1E00093ED000AFB
:107CD000022117F0A1FD07F1E001204617F054FE44
:107CE000014607F1080017F0DDFD07F1E00017F08D
:107CF000D1FD204617F0CEFDC6E789490B2220466C
:107D000022F0E2FE002842D1A8F1030323F007038A
:107D10006E46B8F10A08ADEB030D02A914D0034674
:107D200042F2014E22180133D27A0D2ADBB22EFA2A
:107D300002FC02D81CF0010F04D100F1010C0A541E
:107D40005FFA8CF09845EDD807F1EC04204617F067
:107D5000C7FC204617F0BCFE8046204617F09AFD6F
:107D6000B8F1000F00F0B7806E4803F04DF8664997
:107D700007F1080017F0BCFD002300936349644835
:107D800001234FF480621BF0B1F8B5467CE76649E9
:107D90000A22204622F098FE002800F0A3806349C2
:107DA0000922204622F090FE002800F0F58060496C
:107DB0000822204622F088FE002800F093805D49CA
:107DC0000C22204622F080FE002840F07C81A8F1A1
:107DD000040323F007036E46B8F10B02ADEB030D6D
:107DE00002A917D08446034642F2014804EB0C0076
:107DF0000133007B0D28DBB228FA00FE02D81EF00A
:107E0000010F05D10CF1010E01F80C005FFA8EFC98
:107E10009A42EBD807F1EC04204617F061FC2046AB
:107E200017F056FE8046204617F034FD5FFA88F3BF
:107E3000052B00F2AA81404A40494148DFF850C171
:107E400030F813001CF803C002EB83024FF0010866
:107E500012680A603B4A3C491080C85C3B4A3C4976
:107E600082F800C008703B4A3B493C4BDFF824C114
:107E70003B48C1F800C082F800803A4940224FF0E8
:107E8000DD0C1A7080F800C0374A384B06200870A5
:107E9000142111702348364900221A7003F05CF84F
:107EA00033493448424603F015FA002840F017825F
:107EB000314B1B78002B3FF45AAF3049304816F055
:107EC00093FB54E710492E4816F08EFB2D492C48A1
:107ED00016F08AFBC0E62C4907F1080017F008FDF0
:107EE000B546D1E6294907F1080017F001FD07F171
:107EF000EC04C9E600FE040034E604004CE604008D
:107F000060E60400B06E002058E6040099AC020060
:107F1000509C002060FD040040E60400A0600020AA
:107F200078E6040004710020A0E60400C8E604001E
:107F300010E704001CE704006860002008600020CF
:107F4000846000201A6000207C6000201F600020F8
:107F50000C600020106000201460002018600020D9
:107F6000206000201D6000201E6000204264002070
:107F70005CE30400786B0020F466002064E30400F6
:107F8000AC81002068E6040084E60400ACE604004E
:107F90009860002000C0644408F1FF3323F0070319
:107FA0006E46B8F10802ADEB030D02A918D00346E6
:107FB00042F2014804EB000C01339CF809C0BCF10B
:107FC0000D0FDBB228FA0CFE02D81EF0010F05D10E
:107FD00000F1010E01F800C05FFA8EF09A42E9D874
:107FE00007F1EC04204617F07BFB204617F070FDEC
:107FF0008046204617F04EFCB8F1000F5CD0C44814
:1080000000210DF01FFEC34810F052FD1FFA80F949
:10801000B9F1000F0DD04FF00008DFF8F8A241468B
:1080200008F10108504610F061FD1FFA88F149453A
:10803000F6D3B7480DF0E4FEB74813F091FF4FF0C8
:10804000060803201BF038FB642017F07DFD08F1C3
:10805000FF3313F0FF08F4D1B04B1B78002B00F076
:108060009B80012B00F03881022B7FF48EAEAC494F
:10807000AC4816F0B9FAFA2017F066FD0521042085
:108080001BF056FA404604211BF052FAFEF71AF98B
:10809000B546F9E5A249A44816F0A6FAA349A248B4
:1080A00016F0A2FAD8E59E499E4816F09DFA9F491F
:1080B0009C4816F099FACFE59D4907F1080017F0A2
:1080C00017FCB546E0E59B490B22204622F0FCFC5C
:1080D00000283FF407AF98490822204622F0F4FC1C
:1080E000002860D108F0F8036E46B8F10702ADEB46
:1080F000030D02A918D04FF0000C634642F201486C
:1081000004EB0C000133007A0D28DBB228FA00FEE4
:1081100002D81EF0010F05D10CF1010E01F80C0080
:108120005FFA8EFC9A42EBD807F1EC04204617F078
:10813000D7FA204617F0CCFC804A031E18BF012353
:108140002046137017F0A6FB7D497E4802F004FF1D
:108150007B497D48012203F0BDF8002840F0D08023
:108160007A4B1B78002B40F0CE806D4907F1080058
:1081700017F0BEFB002300937549764801234FF4A6
:1081800080621AF0B3FEB5467EE5734907F1080038
:1081900017F0AEFBB54677E5704907F1080017F018
:1081A000A7FBB54670E56E490722204622F08CFCFD
:1081B000002800F097806B490822204622F084FCBA
:1081C0008246002800F0E48007226749204622F01A
:1081D0007BFC0246002800F00E81644909222046FB
:1081E00022F072FC8246002800F0368160490822A5
:1081F000204622F069FC002800F085815D490722B5
:10820000204622F061FC8146002800F0D181062240
:108210005949204622F058FC0246002800F0B78158
:1082200056490822204622F04FFC002840F06F817A
:1082300008F0F8026E46ADEB020D0346A8F1070206
:1082400002A942F2014E10E09CF808C0BCF10D0FEB
:108250002EFA0CF802D818F0010F05D100F1010830
:1082600001F800C05FFA88F001335FFA83F84245F5
:1082700004EB000CE8D807F1EC042046796017F015
:108280002FFA204617F024FC8046204617F002FB08
:10829000B8F1100F01F3E0837968DFF8F080204631
:1082A00017F01EFA204617F013FC0346204688F804
:1082B000003017F0EFFAFEF7F9F998F80020304B8C
:1082C000194853F8221016F00DFE154907F1080061
:1082D00017F00EFBB546D7E411491348C9E6FEF77F
:1082E00061F844E507F1EC041349204617F0F8F96A
:1082F000124B197807F1E0000A2217F059FAEAE464
:10830000FEF750F831E71F491F4816F06DF92CE7CA
:1083100028950020E88E0020B46E0020B06E00206A
:1083200058E60400186600208897002068E60400DC
:10833000F4E6040048E7040054E704000560002068
:108340005CE3040004710020786B0020F4660020D8
:1083500099AC0200509C00202CE70400D4E60400F5
:1083600060E7040068E70400BCE70400C4E7040019
:10837000DCE70400E8E7040010E8040018E8040063
:108380002460002064E30400AC810020046000202D
:1083900008F0F8036E46ADEB030DA8F107080DF1E8
:1083A000080948464246514621F056FCB8F1000FF4
:1083B00031D05246534642F20140A1180133097AA6
:1083C0000D29DBB220FA01FC02D81CF0010F05D107
:1083D00002F1010C09F802105FFA8CF29845ECD812
:1083E000202A18D9C14907F1080017F081FA07F1CE
:1083F000EC04B54648E4BE49BE4807F1EC0402F07F
:1084000069FFBD49204617F06BF9BA4907F1E00052
:1084100016F068FA5FE4B649B84802F09DFDB44929
:10842000B448012202F056FF002861D04946B14805
:1084300016F066F8AF4803F007F8B14907F10800F5
:1084400017F056FA00230093AE49AF4801234FF4CA
:1084500080621AF04BFDCAE708F1FF3323F00703EF
:108460006E46ADEB030DA8F108080DF1080948466A
:108470004246514621F0F0FBB8F1000F18D05246A9
:10848000534642F20140A1180133497A0D29DBB26B
:1084900020FA01FC02D81CF0010F05D102F1010CF9
:1084A00009F802105FFA8CF29845ECD8102A9ED891
:1084B0008F49924802F050FD8D498E48012202F00A
:1084C00009FFA8B191498B4816F01AF84946894826
:1084D00016F016F8874802F0B7FF8D49874802F07A
:1084E0003BFD8B498348012202F0F4FE00289DD118
:1084F000884907F1080017F0FBF978E7864907F18A
:10850000080017F0F5F907F1EC04FFF7BDBB83494C
:108510000722204622F0D8FA002801F07A8280490A
:108520000922204622F0D0FA002840F0818008F18C
:10853000FF3323F007036E46ADEB030DA8F10802ED
:1085400002A9034642F2014E10E09CF809C0BCF1BA
:108550000D0F2EFA0CF802D818F0010F05D103F117
:10856000010801F803C05FFA88F301305FFA80F870
:10857000424504EB030CE8D807F1EC04204617F061
:10858000AFF8204617F0A4FA664A00F0A3BD66498A
:10859000584807F1EC0402F09DFE6449204617F0AC
:1085A0009FF8544907F1E00016F09CF9FFF793BBE0
:1085B00008F1010303F4FC736E46ADEB030DA8F163
:1085C00006080DF1080A50464246494621F044FB90
:1085D000B8F1000F18D04B4642F2014104EB0902FA
:1085E0000133D2790D2ADBB221FA02F001D8C0079B
:1085F00005D409F101000AF809205FFA80F99845CD
:10860000ECD8B9F1060F05D0494907F1080017F079
:108610006FF9ECE64449394802F09EFC424935487E
:10862000012202F057FE00283FF462AF5146FEE6F9
:1086300040490822204622F047FA002801F0D7815D
:108640003D490822204622F03FFA002840F082806F
:1086500008F0F802E946ADEB020D0346A8F1070267
:1086600002A942F2014C0DE0367A0D2E2CFA06FEDC
:1086700002D81EF0010F04D100F1010E0E545FFA72
:108680008EF001335FFA83FE724504EB0006EBD8EF
:1086900007F1EC04204617F023F8204617F018FAEB
:1086A0000646204617F0F6F8002E01F0C181234B54
:1086B0002348197815F09EFC0646002840F0638197
:1086C000204A214B1178214A03EB81031968204B82
:1086D000116001221A70FDF7E9FF094907F108004E
:1086E00017F006F9CD46FFF7CFBA00BF90E70400B8
:1086F000C8E50400786B002068E7040004710020DE
:1087000058E6040099AC0200509C0020D0E7040019
:10871000D0E5040074E7040038EA04003CE80400F3
:1087200044E804004164002074E50400E8E7040024
:10873000F0E7040050E804005CE804001A60002040
:10874000B46E00201860002030ED0400146000209A
:1087500010600020CA490722204622F0B5F90028FF
:1087600001F04E81C7490622204622F0ADF9C8BB70
:1087700008F1020202F4FC72E946ADEB020D034679
:10878000A8F1050202A942F2014C0DE0B6790D2EC6
:108790002CFA06FE02D81EF0010F04D100F1010EE2
:1087A0000E545FFA8EF001335FFA83FE724504EBDC
:1087B0000006EBD807F1EC04204616F091FF2046A6
:1087C00017F086F9B04B024620461A7017F062F88F
:1087D000FDF76CFFAD4907F1080017F089F8CD46A9
:1087E000FFF752BAAA490522204622F06DF9002867
:1087F00001F0EE80A7490822204622F065F960BB0F
:1088000008F0F802E946ADEB020D0346A8F10702B5
:1088100002A942F2014C0DE0367A0D2E2CFA06FE2A
:1088200002D81EF0010F04D100F1010E0E545FFAC0
:108830008EF001335FFA83FE724504EB0006EBD83D
:10884000954B1B78E3B1954907F1080017F050F8F4
:1088500007F1EC04CD46FFF717BA914907222046ED
:1088600022F032F9002842D18B4B1B787BB38B4925
:1088700007F1080017F03CF807F1EC04FFF704BA21
:1088800007F1EC042046796016F02AFF204617F025
:1088900025F9844812F066F90646204616F0FAFFDC
:1088A000002E70D17968204616F01AFF204617F086
:1088B00015F97D4B204683ED000A16F0EBFF734956
:1088C00007F1080017F014F8CD46FFF7DDB907F1FE
:1088D000EC047049204616F003FF734B07F1E000EB
:1088E00093ED000A022116F097FFFFF7F4B96F49E4
:1088F0000622204622F0E8F800285FD108F10202A3
:1089000002F4FC72E946ADEB020D0346A8F1050244
:1089100002A942F2014C0DE0B6790D2E2CFA06FEAA
:1089200002D81EF0010F04D100F1010E0E545FFABF
:108930008EF001335FFA83FE724504EB0006EBD83C
:1089400007F1EC04204616F0CBFE204617F0C0F8E5
:108950008046204616F09EFF52485FFA88F115F0D7
:1089600049FB064678B94C4A514B01211170A3F8D6
:108970000080FDF79BFE454907F1080016F0B8FF9F
:10898000CD46FFF781B94B49204616F0A9FE86EA8D
:10899000E673494AA3EBE6739BB20C2101FB03216A
:1089A000204616F0F1FF014607F1080016F07AFFA5
:1089B000204616F06FFFCD46FFF766B93F49052206
:1089C000204622F081F8002851D03D490622204659
:1089D00022F07AF8002877D108F1020303F4FC733F
:1089E000E946ADEB030DA8F1050202A9034642F2E8
:1089F000014C0DE0B6790D2E2CFA06FE02D81EF0C1
:108A0000010F04D103F1010ECE545FFA8EF3013051
:108A10005FFA80FE724504EB0306EBD807F1EC0425
:108A20002046796016F05CFE204617F057F81D4886
:108A300012F0F2FC0646204616F02CFF002EA2D1C2
:108A40007968204616F04CFE204617F047F81D4B7B
:108A5000204683ED000A16F01DFFFDF727FE0B49A7
:108A600007F1080016F044FFCD46FFF70DB907F1F6
:108A7000EC040E49204616F033FE0D4B198839E4FC
:108A800074E804007CE804001860002058E6040044
:108A900084E804008CE804001060002098E80400DA
:108AA000BCE80400B46E002014600020C4E8040098
:108AB0001A60002068E80400186A0020CCE804006E
:108AC000D4E8040008600020D3490522204621F0A4
:108AD000FBFF00284AD0D1490622204621F0F4FFAE
:108AE000002853D108F1020202F4FC72E946ADEB12
:108AF000020D0346A8F1050202A942F2014C0DE065
:108B0000B6790D2E2CFA06FE02D81EF0010F04D104
:108B100000F1010E0E545FFA8EF001335FFA83FE0E
:108B2000724504EB0006EBD807F1EC04204616F082
:108B3000D7FD204616F0CCFF5FFA80F8204616F0ED
:108B4000A9FEB748414612F039FF064600287FF4D7
:108B50001AAFB44B83F80080FDF7A8FDB24907F1C6
:108B6000080016F0C5FECD46FFF78EB807F1EC04FD
:108B7000AE49204616F0B4FDAD4B07F1E00093ED91
:108B8000000A022116F048FEFFF7A5B8A949052200
:108B9000204621F099FF002850D0A74907222046FF
:108BA00021F092FF002858D108F1010202F4FC7272
:108BB000E946ADEB020D0346A8F106020DF1080AE5
:108BC000014642F201460EE0C0790D2826FA00FC6B
:108BD00002D81CF0010F05D101F1010C0AF80100C7
:108BE0005FFA8CF101335FFA83FC624504EB01000C
:108BF000EAD807F1EC045146204616F071FD2046F4
:108C000016F066FF011E18BF01218548002212F0F0
:108C1000FFFD0646204616F03DFE002E7FF4B3AE63
:108C20005146204616F05CFD204616F051FF834A5F
:108C3000031E18BF0123204613700CE707F1EC0454
:108C40007649204616F04CFD764B07F1E000197886
:108C50000A2216F079FDFFF73EB879490622204630
:108C600021F032FF00284FD076490622204621F01D
:108C70002BFF002851D108F1020202F4FC72E946F0
:108C8000ADEB020D0346A8F105020DF1080A0146FD
:108C900042F201460EE080790D2826FA00FC02D847
:108CA0001CF0010F05D101F1010C0AF801005FFA77
:108CB0008CF101335FFA83FC624504EB0100EAD8D2
:108CC00007F1EC045146204616F00AFD204616F046
:108CD00005FFFCEEC07A5248C7ED017A397912F0EF
:108CE000D1FC0646204616F0D5FD002E7FF44BAE93
:108CF0005146204616F0F4FC204616F0E9FE524B91
:108D0000024620461A70A6E607F1EC044A492046BE
:108D100016F0E6FC494BFFF7ECBA4C490522204619
:108D200021F0D2FE002849D049490622204621F0F0
:108D3000CBFE002851D108F1020202F4FC72E94690
:108D4000ADEB020D0346A8F105020DF1080A01463C
:108D500042F201460EE080790D2826FA00FC02D886
:108D60001CF0010F05D101F1010C0AF801005FFAB6
:108D70008CF101335FFA83FC624504EB0100EAD811
:108D800007F1EC045146204616F0AAFC204616F0E6
:108D90009FFEC1B2224814F0E1FB0646204616F0C1
:108DA00079FD002E7FF4EFAD5146204616F098FC79
:108DB000204616F08DFE274B0246A2E707F1EC0491
:108DC0002049204616F08CFC1F4B07F1E000197873
:108DD0000A2216F0B9FCFEF77EBF1F490522204685
:108DE00021F072FE00286ED01C490722204621F097
:108DF0006BFE002876D108F1010303F4FC73E94609
:108E00000021ADEB030DA8F106020DF1080A0B4697
:108E100042F2014633E000BFDCE80400E4E804006D
:108E2000B46E00201F60002058E60400D4E804005F
:108E300008600020ECE80400F4E80400406400202E
:108E4000FCE8040004E904000C6000200CE90400C4
:108E500014E90400206000201CE9040024E9040057
:108E6000C0790D2826FA00FC02D81CF0010F05D1AC
:108E700003F1010C0AF803005FFA8CF301315FFA89
:108E800081FC624504EB0300EAD807F1EC0451468B
:108E9000204616F025FC204616F01AFE0146CC4866
:108EA00013F09AF80646204616F0F4FC002E7FF4E4
:108EB0006AAD5146204616F013FC204616F008FE17
:108EC000C44B02461DE707F1EC04C349204616F0E7
:108ED00007FCC24B07F1E00019780A2216F034FCB7
:108EE000FEF7F9BEBE490622204621F0EDFD00281E
:108EF00049D0BC490722204621F0E6FD002851D187
:108F000008F1010202F4FC72E946ADEB020D0346E2
:108F1000A8F106020DF1080A014642F201465FFA85
:108F200083FC624504EB01000FD9C0790D2826FAB5
:108F300000FC02D81CF0010F05D101F1010C0AF868
:108F400001005FFA8CF10133E9E707F1EC045146C7
:108F5000204616F0C5FB204616F0BAFD41B29C48EB
:108F600012F0DCF90646204616F094FC002E7FF441
:108F70000AAD5146204616F0B3FB204616F0A8FD78
:108F8000994B0246BDE607F1EC049849204616F0DD
:108F9000A7FB904B07F1E00019780A2216F0D4FBEA
:108FA000FEF799BE92490622204621F08DFD002849
:108FB00047D090490822204621F086FD00284FD155
:108FC00008F0F802E946ADEB020D0346A8F10702EE
:108FD0000DF1080A014642F201465FFA83FC624540
:108FE00004EB01000FD9007A0D2826FA00FC02D804
:108FF0001CF0010F05D101F1010C0AF801005FFA24
:109000008CF10133E9E707F1EC045146204616F0F4
:1090100067FB204616F05CFDC1B26D4812F062FBA2
:109020000646204616F036FC002E7FF4ACAC5146C6
:10903000204616F055FB204616F04AFD6E4B0246C0
:109040005FE607F1EC046749204616F049FB664BE2
:1090500007F1E00019780A2216F076FBFEF73BBE16
:1090600066490722204621F02FFD002843D064499D
:109070000822204621F028FD00284BD108F0F802F4
:109080006E46ADEB020D0346A8F1070202A942F2BB
:10909000014E5FFA83F8904504EB000C11D29CF866
:1090A00008C0BCF10D0F2EFA0CF802D818F0010F11
:1090B00005D100F1010801F800C05FFA88F0013322
:1090C000E7E707F1EC04204616F00AFB204616F00D
:1090D000FFFC4C4A031E18BF01231370204616F0F4
:1090E000D9FBFDF7E3FA484907F1080016F000FC48
:1090F000B546FEF7C9BD07F1EC043E49204616F01F
:10910000EFFA3D4B07F1E00019780A2216F01CFB3C
:10911000FEF7E1BD3D490722204621F0D5FC00289D
:109120004DD03B490722204621F0CEFC002873D1C8
:1091300008F1010202F4FC726E46ADEB020D03462B
:10914000A8F1060202A942F2014E5FFA83F89045A7
:1091500004EB000C11D29CF807C0BCF10D0F2EFAE5
:109160000CF802D818F0010F05D100F1010801F840
:1091700000C05FFA88F00133E7E707F1EC0420460E
:10918000796016F0ADFA204616F0A2FC8046204623
:1091900016F080FBB8F1030F00F3AD837968204629
:1091A00016F09EFA204616F093FC1A4B0246204613
:1091B0001A7016F06FFBFDF779FAFEF7D8BD07F1CC
:1091C000EC040F49204616F08BFA0E4BFFF791B8CE
:1091D000B46E00201D60002014E90400206000200F
:1091E0002CE9040034E904001E60002024E9040096
:1091F0003CE9040044E904004264002050E9040012
:1092000058E904000E60002058E6040064E90400F8
:109210006CE904005464002081490622204621F0B4
:1092200053FC002800F06F837E490C22204621F079
:109230004BFC70BBA8F1040323F007036E46ADEBB3
:10924000030DA8F10B0202A9034642F2014E5FFA98
:1092500080F8904504EB030C11D29CF80CC0BCF1D3
:109260000D0F2EFA0CF802D818F0010F05D103F1FA
:10927000010801F803C05FFA88F30130E7E707F15E
:10928000EC04204616F02CFA204616F021FC664A23
:1092900020E766490B22204621F016FC002800F04A
:1092A000F48263490B22204621F00EFC70BBA8F12A
:1092B000030222F007026E46ADEB020D0346A8F151
:1092C0000A0202A942F2014E5FFA83F8904504EBCC
:1092D000000C11D29CF80BC0BCF10D0F2EFA0CF84B
:1092E00002D818F0010F05D100F1010801F800C003
:1092F0005FFA88F00133E7E707F1EC04204616F047
:10930000EFF9204616F0E4FB4A4AE3E64A490A220E
:10931000204621F0D9FB002800F04B834749082262
:10932000204621F0D1FB0646002800F001830722E9
:109330004349204621F0C8FB0246002800F0308354
:1093400040490B22204621F0BFFB0646002800F0D2
:109350006F820A223C49204621F0B6FB02460028D3
:1093600000F0178209223949204621F0ADFB024660
:10937000002800F0858036492046062221F0A4FB13
:1093800000287FF4BBA8334B1B78002B42D0012B65
:1093900003D13149314815F0B3F8314812F0E0FDFE
:1093A00003201AF067F90121064603201AF0C0F8DD
:1093B0003C2403201AF080F9013C4FF4FA7016F0B7
:1093C000C3FB14F0FF04F4D1311E18BF01210320A8
:1093D0001AF032F9234B244A1B78146073B1234AE4
:1093E000234B12781E4803EB820393ED000A11F021
:1093F000B9FB20491A48042214F096F81E4918486F
:10940000042214F07BF8164813F034FB07F1EC0447
:10941000FEF73ABC1049194815F072F8BDE700BFD5
:1094200094E904009CE904000D600020ACE904000C
:10943000B8E904000F600020C4E90400D0E904008A
:10944000DCE90400E4E904000CEA040018EA040082
:1094500030EA0400B06E002058E60400889700202F
:10946000B46E002010600020D46C00201860002032
:1094700030ED0400E1620200D5620200AC81002000
:109480007860D649D64801F025FFD54907F1140088
:1094900015F028FAD24801F0D7FF7A68D149D048B0
:1094A00001F018FFCE4907F1200015F01BFACC4857
:1094B00001F0CAFF7A68CC49C94801F00BFFC849DE
:1094C00007F12C0015F00EFAC54801F0BDFF7A68CF
:1094D000C649C34801F0FEFEC14907F1380015F046
:1094E00001FABF4801F0B0FFC14907F1440016F08E
:1094F000F7F807F1140107F1440016F045FA2C21A2
:1095000016F09EFABB4B044693ED000A07F150009B
:10951000022116F081F907F15001204616F034FAC5
:109520002C2116F08DFAB44B0A221978044607F163
:109530005C0016F03DF907F15C01204616F024FAB4
:109540002C2116F07DFAAD4B0A221978044607F15A
:10955000680016F0F9F807F16801204616F014FAD1
:109560002C2116F06DFAA64B044693ED000A07F184
:109570007400022116F050F907F17401204616F02C
:1095800003FA2C2116F05CFA9E4B0A221988044635
:1095900007F1800016F00CF907F18001204616F063
:1095A000F3F92C2116F04CFA974B044693ED000A80
:1095B00007F18C00022116F02FF907F18C012046EB
:1095C00016F0E2F92C2116F03BFA904B0A2219789A
:1095D000044607F1980016F0B7F807F19801204605
:1095E00016F0D2F92C2116F02BFA894B0A221978A1
:1095F000044607F1A40016F0A7F807F1A4012046DD
:1096000016F0C2F92C2116F01BFA824B0A221978A7
:10961000044607F1B00016F097F807F1B0012046B4
:1096200016F0B2F92C2116F00BFA7B4B0A221978AE
:10963000044607F1BC0016F087F807F1BC0120468C
:1096400016F0A2F92C2116F0FBF9744B0A221978B6
:10965000044607F1C80016F077F807F1C801204664
:1096600016F092F92C2116F0EBF96D4B0A221978BD
:10967000044607F1D40016F067F807F1D40120463C
:1096800016F082F92C2116F0DBF9664B0A221978C4
:10969000044607F1E00016F08BF807F1E0012046E0
:1096A00016F072F92C2116F0CBF95F4B07F1EC04A0
:1096B00019780A220646204616F046F8214630461A
:1096C00016F062F92C2116F0BBF907F1200116F013
:1096D0005BF92C2116F0B4F907F12C0116F054F9BE
:1096E0002C2116F0ADF907F1380116F04DF90146BD
:1096F00007F1080016F0D6F8204616F0CBF807F16F
:10970000E00016F0C7F807F1D40016F0C3F807F12F
:10971000C80016F0BFF807F1BC0016F0BBF807F15F
:10972000B00016F0B7F807F1A40016F0B3F807F18F
:10973000980016F0AFF807F18C0016F0ABF807F1BF
:10974000800016F0A7F807F1740016F0A3F807F1EF
:10975000680016F09FF807F15C0016F09BF807F11F
:10976000500016F097F807F1440016F093F807F14F
:10977000380016F08FF807F12C0016F08BF807F17F
:10978000200016F087F807F1140016F083F8FEF7B2
:109790007BBA1549124801F09DFD07F1EC042349FD
:1097A000204615F09DFF07F1E0000D4915F09AF8ED
:1097B00007F1E001204616F0E7F8014607F108003E
:1097C00016F070F807F1E00016F064F8204616F085
:1097D00061F8034801F038FEFEF756BAC8E5040008
:1097E000786B0020D0E50400E4E5040074E5040093
:1097F00024EA0400A060002010600020186000200F
:10980000146000201A600020086000201F60002003
:109810000C600020206000201D6000201E600020E1
:10982000426400204064002054640020E4E9040005
:10983000A8F1030323F00703E946ADEB030DA8F1FC
:109840000A080DF1080A42465046314620F004FA53
:109850003346324642F20140DEB2B04504EB02012B
:109860000CD9C97A0D2920FA01F601D8F60703D4DC
:10987000561C0AF80210F2B20133EDE7402A0DD966
:1098800007F1EC04CD46FEF7FFB907F1EC04764989
:10989000204615F025FF754BFEF72BBD7449754822
:1098A00001F05AFB40220021734820F0D5F94246CE
:1098B0005146714820F0A8F96D497048012201F025
:1098C00009FD78B351466D4814F01AFE6B4801F05B
:1098D000BBFD5046FCF710FF694907F1080016F080
:1098E00007F8002300936749674801234FF480621B
:1098F00019F0FCFAC4E7654907F1080015F0F8FF14
:10990000B546FEF7C1B907F1EC046149204615F0F0
:10991000E7FE604B07F1E00019780A2215F014FF0A
:10992000FEF7D9B95C4907F1080015F0E1FFA7E798
:1099300008F0F803E946ADEB030DA8F107080DF1B7
:10994000080A42463146504620F086F933463146F1
:1099500042F20142DEB2464504EB01000CD2007A2D
:109960000D2822FA00F601D8F60703D44E1C0AF897
:109970000100F1B20133EDE7102981D847493D4894
:1099800001F0EAFA45493D48012201F0A3FCC8B1C3
:1099900051463A4814F0B4FD384801F055FD9BE7B4
:1099A0003E49364807F1EC0401F094FC3C4920465E
:1099B000F7E607F1EC043B49204615F091FE3A4BDF
:1099C000FEF797BC394907F1080015F091FF57E7FA
:1099D00007F1EC043649204615F082FE354B07F1BD
:1099E000E00019780A2215F0AFFEFEF774B907F10E
:1099F000EC043149204615F073FE304BFEF779BC7C
:109A000007F1EC042E49204615F06AFE2D4BFEF7B7
:109A100070BC07F1EC042C49204615F061FE2B4B7D
:109A200007F1E00019780A2215F08EFEFEF753B90F
:109A3000244B1E70FCF73AFE114907F1080015F09F
:109A400057FF00960F49104801234FF4806219F028
:109A50004DFACD46FEF718B91D4907F1080015F07B
:109A600047FFB546FEF710B99CE904000D600020E1
:109A7000E4E504000471002078640020786B002085
:109A800058E6040099AC0200509C002074E90400E0
:109A90006CE9040054640020F0E90400D0E50400FF
:109AA000D0E90400B8E904000F60002074E7040066
:109AB0007CE804001860002044E8040041640020B1
:109AC0005CE804001060002018E804000460002036
:109AD00024E8040038B5164B1B7804460D4673B9CC
:109AE000144B1B7823B1012B1AD0022B11D038BD97
:109AF0000A46BDE8384001460F4807F087B90A46D4
:109B000001460D4807F082F90C482A46214615F017
:109B1000BFF921460A48BDE83840F7220FF0E4BCFF
:109B20000A46BDE838400146044815F0B1B900BF07
:109B30000E600020B06E0020AC81002088970020CD
:109B40000066002010B5074B044640F8183B0CF0A7
:109B500059FA2046044B40F8083B0EF061FA2046C3
:109B600010BD00BFA0F404000CF4040010B5044BB9
:109B7000044640F8083B0EF053FA204610BD00BFE3
:109B80000CF4040010B5074B044640F8183B0CF0E9
:109B900039FA2046044B40F8083B0EF041FA2046C3
:109BA00010BD00BFF4F404000CF4040038B5164BEB
:109BB0001B7804460D4673B9144B1B7823B1012B57
:109BC0001AD0022B11D038BD0A46BDE838400146F4
:109BD0000F4807F01BB90A4601460D4807F016F971
:109BE0000C482A46214615F053F921460A48BDE89B
:109BF0003840F7220FF0EEBA0A46BDE83840014679
:109C0000044815F045B900BF0E600020B06E00207A
:109C1000AC81002088970020186600202DE9F041D3
:109C2000C148F8B007F0A8F890B9C04815F0E0F8BE
:109C3000002857D1BE480FF02DFA002840F09C8034
:109C4000BC4B1B78002B40F0E98078B0BDE8F08178
:109C500038AEFF22002130461FF0FEFFB24DB64B5A
:109C6000002464201C7015F06FFF284607F084F86C
:109C7000D022C3B2934204AF28BF134621463846D0
:109C800098461FF0E9FF3946D022284614F008FE16
:109C900001E007F097F8284607F06EF804462846DA
:109CA000002CF6D13A8845F241439A4200F0DE8119
:109CB000A24B1B78002B40F09381A14B1B78002B0B
:109CC00040F0588141463846FDF7A8FC304620F068
:109CD000F3FEC1B23046FFF769FF944815F088F8EB
:109CE0000028A7D038AE00213046FF221FF0B4FF75
:109CF0008E4D914B012264201A7015F025FF2846E5
:109D000015F076F8D022C3B2934204AF28BF1346B1
:109D10003846002198461FF09FFF3946D02228463A
:109D200014F0BEFD01E015F06BF8284615F060F860
:109D300004462846002CF6D13A8845F241439A421F
:109D400000F081817D4B1B78002B40F06B817C4BB8
:109D50001B78002B7CD141463846FDF75FFC30462E
:109D600020F0AAFEC1B23046FFF720FF70480FF086
:109D700091F900283FF464AF38AD0021FF22284656
:109D80001FF06AFF6A4E6C4B02224FF47A701A7011
:109D900015F0DAFE30460FF07DF904AF5FFA80F877
:109DA000D022904538464FF0000128BF90461FF062
:109DB00053FF3C4630460FF0BDF9C0B2FF2818BF34
:109DC00020700134A542F5D1594E01E00FF0B2F9EF
:109DD00030460FF05FF904463046002CF6D13A8841
:109DE00045F241439A4200F05481544B1B78002BBA
:109DF00040F00781524B1B78002B5FD1414638461B
:109E0000FDF70CFC284620F057FEC1B22846FFF7AC
:109E1000CDFE484B1B78002B3FF417AF494C15F093
:109E200087FE226842F20F73801A98427FF60DAFC8
:109E3000454A464B1278464803EB820393ED000AED
:109E400010F090FE15F074FE206078B0BDE8F0814F
:109E5000404B3F4801221A7012F026FA03463C4854
:109E60008DF8043012F020FA034639488DF8053099
:109E700012F01AFA034636488DF8063012F014FA3A
:109E8000354B8DF8070093F8008015F051FE04461D
:109E900015F04EFE314B02461A603946D02230484A
:109EA0001FF0B2FE2F4A30483049314B019D82F8F5
:109EB0000080002205600C601A7050E7254B244892
:109EC00001221A7012F0F0F9034621488DF804308F
:109ED00012F0EAF903461E488DF8053012F0E4F955
:109EE00003461B488DF8063012F0DEF91A4B8DF848
:109EF000070093F8008015F01BFE044615F018FECD
:109F0000164B02461A603946D02215481FF07CFED7
:109F1000144A15481549164B019E82F8008000220C
:109F200006600C601A706DE7AC81002088970020F5
:109F30000066002010600020B06E00204164002008
:109F40000D600020D86C00201860002030ED040067
:109F5000B46E0020017000200F600020946000208B
:109F6000E46C0020DD6C0020E06C0020AC6E002072
:109F7000DC6C0020504B514801221A7012F094F909
:109F800003464E488DF8043012F08EF903464B48D4
:109F90008DF8053012F088F9034648488DF80630F0
:109FA00012F082F9464B8DF8070093F8008015F007
:109FB000BFFD044615F0BCFD424B02461A6039460F
:109FC000D02241481FF020FE404A41484149424BBF
:109FD000019D82F80080002205600C601A7075E611
:109FE000304620F069FD3D4C84460FCC06EB0C0555
:109FF00046F80C00696003CCAA60EB6028616961D7
:10A000005BE6284620F058FD344C84460FCC05EB27
:10A010000C0645F80C00716003CCB260F36030614F
:10A020007161E7E6304620F047FD2C4C84460FCCAA
:10A0300006EB0C0546F80C00696003CCAA60EB60E7
:10A040002861696183E6BB782B2B7FF47BAE4246A7
:10A05000394601A8FDF7D4FD01A82346FF22314669
:10A0600015F01CFD01A815F015FC78E6BB782B2B2C
:10A070007FF41EAE4246394601A8FDF7C1FD01A896
:10A080002346FF22314615F009FD01A815F002FC18
:10A090001CE6BB782B2B7FF4A8AE4246394601A8BC
:10A0A000FDF7AEFD01A82346FF22294615F0F6FC78
:10A0B00001A815F0EFFBA5E601700020B46E0020AA
:10A0C0000F60002094600020E46C0020DD6C002014
:10A0D000E06C0020AC6E0020DC6C002058EA04002C
:10A0E0002DE9F04F954E3378ADF5677D4FF0000BBD
:10A0F0009BB9934A1378002B35D1924A1378002BE1
:10A1000040F0B380042019F0B5FA0446002800F0AE
:10A11000DB800DF5677DBDE8F08F8B488B4C13F02D
:10A1200079FF8B4B1B6890FBF3F202FB1303894A08
:10A13000854802EB830393ED000A10F013FD2368BA
:10A14000012B00F0B5820133236015F0F1FC824B46
:10A1500002467D481A6013F067FF0023784A337087
:10A160001378002BC9D00027774817702CAD13F057
:10A170005BFF3946F722284637701FF06DFD3946E0
:10A18000F7226AA81FF068FD6F483A46294612F088
:10A1900079F9002840F0EA81704B1C78002C00F01F
:10A1A000FB802B78002B40F08C82F1220DF1B60160
:10A1B0006AA81FF029FD6A4B95F801801B78D5F835
:10A1C000027043453FBA40D92646664B03F5C87135
:10A1D00053F8042FBA4208BF00248B42F8D18CB345
:10A1E000002E40F0C1832946F722A8A81FF00CFDDD
:10A1F0005D4B00241C7015F09BFC0546524812F084
:10A2000053F85A4A03B25B001360A8A9584808F1F2
:10A210000108F7228DF8A1821FF0F6FC554923466C
:10A22000284651F8042FDCB2824203F101033CBFFF
:10A23000A3461046642BF4D14F4A504B42F82B50A2
:10A2400043F82B70002E40F0B380404C4C4B1B78F1
:10A2500000222260002B40F020823B4812F00AFCD2
:10A26000384A1378002B3FF44DAF0026167015F0D6
:10A270005FFC444A444D034607CAA8AF3C4603C4AA
:10A28000314622800DF2AA20ED222B601FF0E4FC63
:10A29000354B1B78002B40F0AB812C4C384B1B7896
:10A2A00000222260002B40F0E88138492648042231
:10A2B00013F024F9244812F0DDFB042019F0DAF938
:10A2C000044600287FF425AF014631480BF0BAFC64
:10A2D00030480EF0EDFB85B245B12E4E21460134DB
:10A2E00030460EF003FCA1B28D42F8D828480BF09E
:10A2F00087FD154811F034FE0624032019F0DCF91F
:10A30000013C642015F020FC14F0FF04F5D1214637
:10A31000032019F00DF92146022019F009F9052151
:10A32000042019F005F92046042119F001F9FBF782
:10A33000C9FF0DF5677DBDE8F08F00BF746B00208D
:10A340000070002000710020B46E0020D46C00204A
:10A350009060002030ED0400D86C00200D600020DB
:10A360001C600020F4660020017000209460002032
:10A37000B46D00208468002088680020F866002002
:10A380001060002040EB0400F8700020D56202004D
:10A3900028950020E88E00202946F7226AA81FF0A1
:10A3A00033FC6AA820F088FBC1B26AA8FFF792FBD1
:10A3B000CB4B1B78002B3FF448AFCA4B93F800906F
:10A3C000B9F1000F7FF441AFA8AFF72249463846F4
:10A3D0001FF042FC384620F06FFBDFF844C3C24C4C
:10A3E0008646BCE80F000EF101050A2607F80E604C
:10A3F00078513D44BCF804E0DCF800009CF806C04D
:10A40000A5F814E00DF1300885F816C0EB6069601E
:10A41000AA6028614946202240461FF01DFC2068A2
:10A4200032464146023017F0E1FE384620F044FB48
:10A430004146384420F002FBDFF8E8C20670451CB4
:10A440000CF1200E66460FCE764528606960AA6042
:10A45000EB60B44605F11005F4D1BCE80300BCF88C
:10A4600000302B81286069602022002140461FF0C7
:10A47000F3FB9E480022012111F0B8F9FDEEC07AED
:10A480000A2217EE900A414617F0B0FE384620F037
:10A4900013FB4146384420F0D1FA954ADFF888C2D0
:10A4A0000346106818601E1D0CF1200E65460FCD86
:10A4B000754530607160B260F360AC4606F110061D
:10A4C000F4D12B7928683371306020220021404676
:10A4D0001FF0C2FB8548874D11F05CFCFDEEC07A91
:10A4E0000A2217EE900A414617F080FE384620F007
:10A4F000E3FA4146384420F0A1FA06460FCDA6EB18
:10A50000070C0CF1010C4FF00A0986F8009007EBDC
:10A510000C0647F80C00716003CD2D78F360B26033
:10A520003061716120220021404635761FF094FB96
:10A530006E48002113F044F8FDEEC07A4A4617EE4B
:10A54000900A414617F052FE384620F0B5FA4146CF
:10A55000384420F073FA68490346C21B0332086886
:10A560001860D1B23846FFF721FB6FE6634B5E4CB3
:10A5700093E80700A8AB03C339461A800DF2AA205E
:10A58000ED221FF069FB802239460CA81FF064FB06
:10A590005B4B5C491B68002BB8BF5B4203EB43037A
:10A5A00001EB830108A815F0B5F8574908A815F084
:10A5B00017FA014605A815F0ADF808A815F06AF9D4
:10A5C000079A3B460132A8AD0CA905A815F066FA1A
:10A5D000284620F071FA0CA9284420F02FFA401BDD
:10A5E000C1B22846FFF7E2FA05A815F053F92DE6A7
:10A5F000434C802231466AA81FF02EFB2368414954
:10A60000002BB8BF5B4203EB430301EB83012CA893
:10A6100015F080F83C492CA815F0E2F90DF130084E
:10A620000146404615F076F82CA815F033F9D8F815
:10A630000820334601326AA9404615F02FFA384601
:10A6400020F03AFA6AA9384420F0F8F9D4F80090DA
:10A650000646B9F1000F04D1214B1B78002B40F0C6
:10A66000DE80214C384620F027FAC1B23846FFF789
:10A670009DFA404615F00EF910E6244A244B127854
:10A680001A4803EB820393ED000A10F06BFA21499C
:10A690001648042212F048FF07E61C4A1C4B1278A9
:10A6A000124803EB820393ED000A10F05BFAD4E545
:10A6B00015F03EFA184B194A1B68C01A106023683F
:10A6C00041E5012B02D0F722294671E5CDE901B41D
:10A6D000024601462B4610260DF13008A8AF2BE0AC
:10A6E000416400200D600020D46C0020B46E002076
:10A6F000B4EA0400E4EA040000EB040040EB0400C8
:10A70000FC700020186A002060FD04001860002022
:10A7100030ED0400E1620200F4700020F0700020CF
:10A7200070EA040088EA0400BCEA04000132D2B2F4
:10A7300016F0FF0600F0068106F1020CF01C5FFA2D
:10A740008CFCC0B215F80CC015F800E093F80EB000
:10A7500093F80A90C8F8001000206CF3070006F187
:10A76000040C6EF30F205FFA8CFC06F1050E5FFA05
:10A770008EFE15F80CC015F80EA093F806E0C8F888
:10A7800004106CF317406AF31F60AB9093F80FA0AE
:10A79000C8F80810002006F1010C6BF307006AF3FB
:10A7A0000F205FFA8CFC15F806A015F80CC0C8F84D
:10A7B0000C106AF317404FF0000A69F3070A93F888
:10A7C0000B906CF31F60002493F80CC0AA906EF3FA
:10A7D0000704587B93F807E069F30F2A6CF3174AD4
:10A7E00093F808C060F31F6A6EF30F24587ACDF80F
:10A7F000A4A26CF3174460F31F64A8943868103661
:10A800001033002892D10D9882458FD10E98AA9CC2
:10A8100084428BD10F98AB9C844287D188E76F4BE1
:10A820006F4ADFF8D4C1D3F800B02B68D2F800E04B
:10A830000193BCE80F00F360019BBCF804A03060FA
:10A84000DE44DCF800007160664C9CF80610B260D3
:10A85000A3EB0E033061A6F814A0B175202249467F
:10A860002CA801931FF0F8F90A222CA92068DFF820
:10A870008CB117F0BBFC384620F01EF92CA93844E7
:10A8800020F0DCF8DFF878C18646BCE80F00AEEBBC
:10A89000070601364FF00A0A8EF800A0B8513E4470
:10A8A000DCF800009CF804C086F814C07160B26047
:10A8B0003061F360202249462CA81FF0CDF9484AA8
:10A8C00028681368484D5246C01A2CA917F08EFC10
:10A8D000384620F0F1F82CA9384420F0AFF80646AD
:10A8E000DBF8000030600FCDF61B033607EB060CDB
:10A8F000B851CCF80410CCF8082007CD2D88CCF83E
:10A900001000CCF81410CCF81820CCF80C30ACF8AF
:10A910001C50494620222CA81FF09EF9019B20685C
:10A92000B3FBF0F052462CA917F060FC384620F03B
:10A93000C3F82CA9384420F081F80346DBF8000066
:10A9400018608FE6023A12F0FF03DDE901B40393C9
:10A9500014D1264B95F801801B78D5F80270434539
:10A960003FBA3FF632AC70E46AA820F0A5F8C1B255
:10A970006AA8FFF7AFF895F8018034E4DDF8B60077
:10A98000DDF8BA10DDF8BE20DDF8C230A8960DF172
:10A99000200CACE80F00164B7E601A46C7E9026631
:10A9A000DB68526808A84146FBF718FED8F800207B
:10A9B000A89B9A4226D00F4B1B78002B3FF445AC46
:10A9C0000A4B95F801801B78D5F8027043453FBAD1
:10A9D0007FF63BAC0026FFF7F8BB00BFF07000200D
:10A9E000F4700020D46C002020EB04001C600020D8
:10A9F000B86400200D60002070EA04001CEB040025
:10AA000004EB0400A99A0D9B9342D4D1AA9A0E9B01
:10AA10009342D0D1AB9A0F9B9342CCD1DDF8C600C4
:10AA2000DDF8CA10DDF8CE20DDF8D23008AF0FC750
:10AA3000964B1A4641465268DB6808A8FBF7CEFDE4
:10AA4000404620F039F831460746F7226AA8FEB2A0
:10AA50001FF002F937B1721ED2B2013241466AA824
:10AA60001FF0D2F86AAB6AA93A223B44CDE901B49F
:10AA7000CA55023620225FFA86FA5A7000264FF035
:10AA8000260909F10C0109F10D0209F10903C9B206
:10AA9000DBB2D2B2695C15F803E0AA5C15F8097064
:10AAA000002361F3070362F30F2309F10E02D2B210
:10AAB00009F10400AA5CC0B262F3174309F10F0266
:10AAC00015F800C009F1080409F1050009F10101B8
:10AAD000D2B2E4B2C0B2C9B2AA5C15F804B02C5C20
:10AAE000685C09F10A0162F31F63C9B20B9300238A
:10AAF000695C6BF307036EF30F2361F3174309F1EE
:10AB00000B01C9B209F1020E695C61F31F630021F8
:10AB10000A936CF3070109F103035FFA8EFE64F3F5
:10AB20000F21DBB2002415F80EE0EB5C09F1060200
:10AB300067F3070409F1070B60F30F24D2B26EF339
:10AB400017445FFA8BFBAA5C15F80BC063F31F6414
:10AB50004E4B089462F317411A466CF31F61DB6891
:10AB60005268099108A84146FBF738FD0AF1010433
:10AB70000DF5D47C98F800700CF80A700AF1020008
:10AB8000E4B298F801700CF804700AF10301C0B245
:10AB900098F802700CF800700AF10402C9B298F833
:10ABA00003700CF80170D2B20AF1050398F8047032
:10ABB0000CF80270DBB20AF1060498F805700CF884
:10ABC0000370E4B20AF1070098F806700CF80470FC
:10ABD000C0B20AF1080198F807700CF80070C9B209
:10ABE0000AF1090298F808700CF80170D2B20AF163
:10ABF0000A0398F809700CF80270DBB20AF10B0432
:10AC000098F80A700CF80370E4B20AF10C0098F896
:10AC10000B700CF80470C0B20AF10D0198F80C40EA
:10AC20000CF80040C9B20AF10E020AF10F0398F8BD
:10AC30000D400CF80140D2B2DBB298F80E0098F843
:10AC40000F100CF8020001360CF80310039BF2B24F
:10AC500009F110090AF1100A93425FFA89F95FFAC3
:10AC60008AFA3FF60EAF0A4B1E78DDE901B4002EDA
:10AC70003FF497AB074B95F801801B78D5F802702D
:10AC800043453FBA7FF694ABFFF79FBAB864002004
:10AC90000D6000201C60002000B5234B1B78BFB066
:10ACA0003BB3012B3BD0022B28D0322014F04CFFB9
:10ACB0001E4B1F4819880DF019FF1E4806F098F822
:10ACC0001D4814F0ABF81B4806F08CF91A4814F034
:10ACD00045F81A4800F080F8BFF34F8F1849194B18
:10ACE000CA6802F4E0621343CB60BFF34F8F00BF2A
:10ACF000FDE715490F4813F077FCD6E7134B0FCB50
:10AD00006C4607C4EA2200210DF10D0023701EF0ED
:10AD1000A3FFF72269460E480EF05CFAC5E70A4920
:10AD2000054813F061FCC0E7B06E0020DC6B00202A
:10AD3000E88E0020AC81002088970020047100205C
:10AD400000ED00E00400FA0568E6040038EC0400B9
:10AD500018660020704700BF10B5044617F018FBB6
:10AD6000204610BD38B50A4B04460D46442240F833
:10AD70000C3B00211EF070FF0023A560237104F13D
:10AD80005401012015F0C2F92065204638BD00BFEE
:10AD900038EF040070B504460E46006D4FF0FF31E9
:10ADA00015F02CFC257955B98EB1A660314604F119
:10ADB0000C0005F0D5FBB0FA80F56D092571002374
:10ADC000206D1A46194614F0F1FF284670BDA6689A
:10ADD000002EF4D0EAE700BF10B504464FF0FF3173
:10ADE000006D15F00BFC23793BB90023206D1A464A
:10ADF000BDE81040194614F0D9BF0023237104F1B7
:10AE00000C0005F0C1FCF0E770B505464FF0FF31CE
:10AE1000006D15F0F3FB2B7993B1002305F10C06BF
:10AE20002B71304605F0B0FC044680B10023286D3C
:10AE30001A46194614F0BAFFB4FA84F0400970BDFE
:10AE4000A96805F10C0004F02BFF0446EEE7A968A1
:10AE5000304604F025FF04460028E7D1A9683046B3
:10AE600005F07EFB04460028E0D101232B71DDE7CD
:10AE700030B5044695B00D46006D4FF0FF3115F02A
:10AE8000BDFB294601AA04F10C0004F0DDFC0023FF
:10AE900002461946206D14461A4614F087FFB4FA8C
:10AEA00084F0400915B030BD2DE9F04F83B00B7828
:10AEB00000AF2F2B78600CBF4C1C0C4606460D468D
:10AEC000006D4FF0FF3115F099FB06F10C084FF0C3
:10AED000000917E0ADEB030D68468B4500F8019BB8
:10AEE000EA4601DD1EF0B8FE29465A4650461EF0DD
:10AEF0008BFE5146404603F00DFD08B1113028D1BC
:10AF00000134B54620462F211FF0B0FDA0EB050B04
:10AF10000BF108036E460021044623F007035A464E
:10AF20000028D7D12946404603F0F4FC60B901243B
:10AF30007A680023106D19461A4614F037FF204630
:10AF40000C37BD46BDE8F08F113014BF002401243A
:10AF5000EEE70024B546EBE738B504460D46006D34
:10AF60004FF0FF3115F04AFB294604F10C0004F0C4
:10AF7000C3FC002302461946206D14461A4614F0FD
:10AF800015FFB4FA84F0400938BD00BF00207047B7
:10AF9000036970B504460D46186D4FF0FF31164633
:10AFA00015F02CFB237D4BB1002522690023106D89
:10AFB00019461A4614F0FAFE284670BD2069A169A8
:10AFC0002A4633460C3003F0F3FF20EAE075ECE745
:10AFD00070B50369044682B0186D4FF0FF3115F06B
:10AFE0000DFB267D4EBB2069A1690C3004F01EFCD0
:10AFF00005462069A1698DF8076001230DF107025C
:10B000000C3004F05FFB00282069A169C8BF9DF8DF
:10B0100007602A4600F10C004FF00003D8BF4FF044
:10B02000FF3604F0D3FB22690023106D19461A463F
:10B0300014F0BCFE304602B070BD4FF0FF36F2E7B0
:10B0400038B5036904464FF0FF31186D15F0D6FA94
:10B05000237D4BB1002522690023106D19461A4645
:10B0600014F0A4FE284638BD2069A1690C3004F014
:10B07000DFFB05462069A1690C3004F0D7FB2D1ACF
:10B08000E9E700BF036910B504464FF0FF31186DC2
:10B0900015F0B4FA237D43B122690023106DBDE899
:10B0A00010401A46194614F081BE2069A1690C307F
:10B0B00004F0E4F9F0E700BF30B50369044683B05B
:10B0C000186D4FF0FF3115F099FA257D55B12269C1
:10B0D0000023106D19461A4614F068FE4FF0FF3039
:10B0E00003B030BD2069A1690DF1070201230C30C6
:10B0F00004F0E8FA23692A4604462946186D2B46CF
:10B1000014F054FE002CCCBF9DF807004FF0FF3028
:10B1100003B030BD30B50368164A5B6883B0934214
:10B120008DF807101ED1036904464FF0FF31186DEA
:10B1300015F064FA237D53B1002522690023106DB8
:10B1400019461A4614F032FE284603B030BD206975
:10B15000A1690C3001230DF1070203F029FF20EA59
:10B16000E075EAE701220DF10701984705462846F8
:10B1700003B030BD91AF020030B4074C0161002232
:10B180004FF47A75C0E900428560C0E9062230BC00
:10B19000027580F82020704754EF0400F0B58369F1
:10B1A00097B004460D46164693B1077D00691946CF
:10B1B0000C30002F45D003F0ADFDA06914F0FAFC6F
:10B1C000E0690023A36108B114F0F4FC0023E361FB
:10B1D000206903AA0C30294604F036FB98B99DF883
:10B1E0000C30112B34D02C2014F0CAFC0146A06185
:10B1F00030B120692A460C3003F064FD002839D0B4
:10B20000002017B0F0BD0230FAD1012EF8D138205D
:10B2100014F0B6FC0146A0610028F1D0206940F28C
:10B2200003130C302A4603F011FE06460028E7D12E
:10B230002069A1690C300223324604F0C7FA267552
:10B2400009E004F09DF9A06914F0B4FCA761BFE720
:10B25000EEB1012E3AD02F2128461FF05AFC20349F
:10B2600000B1451C2946204640221FF03FFC01202A
:10B2700017B0F0BD0123237528461FF01DFC0130D7
:10B2800014F07EFC2946E0611FF0FDFBE3E701239B
:10B290003820019314F074FC019BA0610146002842
:10B2A000AED020692A460C3003F0D0FD0028A7D18B
:10B2B000012E02D000232375CDE72369A169024640
:10B2C00003F10C00022304F081FAF3E740F20313C8
:10B2D000DEE700BF30B5036983B004460D46186D44
:10B2E00001924FF0FF3115F089F9019A2946204665
:10B2F000FFF754FF2169002302461446086D1A46E1
:10B30000194614F053FD204603B030BD70B5044615
:10B310000025C4E906551048236182B0206084F8F6
:10B3200020504FF47A700E46A0604FF0FF31186D38
:10B3300065602575019215F061F9019A3146204644
:10B34000FFF72CFF22692B46106D29462A4614F080
:10B350002DFD204602B070BD54EF0400036970B5A6
:10B3600004460D46186D4FF0FF31164615F046F9AC
:10B37000237D4BB1002522690023106D19461A4622
:10B3800014F014FD284670BD2069A1692A46334691
:10B390000C3004F097F90546EDE700BF38B50369B6
:10B3A00004460D46186D4FF0FF3115F027F9237D47
:10B3B0004BB1002522690023106D19461A4614F07E
:10B3C000F5FC284638BD2069A1692A460C3004F0F6
:10B3D000FDF9C543ED0FEDE738B5036904464FF0BD
:10B3E000FF31186D15F00AF9237D4BB10025226954
:10B3F0000023106D19461A4614F0D8FC284638BDB3
:10B400002069A1690C3004F011FA0546EFE700BF8E
:10B4100038B5036904464FF0FF31186D15F0EEF8AA
:10B42000237D4BB1002522690023106D19461A4671
:10B4300014F0BCFC284638BD2069A1690C3004F02A
:10B44000F7F90546EFE700BF036970B504464FF012
:10B45000FF31186D15F0D2F8A16981B12069257D01
:10B460000C30ADB103F056FCA06914F0A3FBE06909
:10B470000023A36108B114F09DFB0023E36122695E
:10B480000023106DBDE870401A46194614F08EBCBA
:10B4900004F076F8A06914F08DFBA561EFE700BF1A
:10B4A0008069003818BF0120704700BF2DE9F04FB8
:10B4B00095B00B6906460C46186D4FF0FF3100AF92
:10B4C000904615F09BF800232069337586F82030EC
:10B4D000227D2B4930614FF47A70C6E90013C6E92A
:10B4E0000633B060DAB342F62E652069A1690C30EC
:10B4F0003A1D03F023FC012831D1BB892E2BF4D057
:10B50000AB4238D0D4F81C9048461FF0D5FA054617
:10B5100007F10C001FF0D0FA2B18093323F00703B2
:10B52000EA46ADEB030D68466A1C49461EF06CFB0B
:10B5300099F800302F2BEB4602D199F801301BB15E
:10B54000104B1B882BF8053007F10C0158461FF0F3
:10B550007EFA424659463046FFF720FED54622691C
:10B560000023106D19461A4614F020FC304654375B
:10B57000BD46BDE8F08FBB7B002BB6D0C2E700BF55
:10B5800054EF040048EF04002DE9F04F85B0DDE9E9
:10B590000E4B109F81460D4690461E46002F63D0ED
:10B5A000B8F1000F03D0D8F80030B34249D0D9F831
:10B5B00000002B689E422BD04369B4FBF3F203FBDF
:10B5C0001242BAB9BB4215D8B7FBF3F203FB127AA9
:10B5D000A7EB0A0300930393436822461F463146B4
:10B5E0005B46B84788B9039B57469B441C44002FD1
:10B5F000D6D139E00093A21AC5E90062D0F804A0C0
:10B60000AB683146D0470028CAD005B0BDE8F08FFE
:10B6100069684369A142D0D8CA18A242CDD9A2EB29
:10B62000040ABA45AB6828BFBA46611A5246584662
:10B630001944BF1A54441EF0E7FAD344002FAFD187
:10B6400012E0D8F80430A342B1D8D9F800008269DA
:10B650001A44A242ADD9A2EB040ABA45D8F80810A0
:10B6600028BFBA46E31AE1E7002005B0BDE8F08F35
:10B670002DE9F04F074687B00D4672B30368D1F845
:10B6800000B090469A69D1E901104AB3013A01F13C
:10B6900001098618A9EB0009441E4FF0010A08E0D1
:10B6A00014F8012F9DF817309A4223D1A6423B6827
:10B6B00014D01A6A934509EB040320D20DF1170246
:10B6C000CDE90032CDF808A05B460022414638465D
:10B6D000FFF75AFF0028E3D009DB3B68A8689A69A6
:10B6E000FF211EF0B9FA4FF0FF332B60002007B0A6
:10B6F000BDE8F08F6FF0330007B0BDE8F08F034B6B
:10B70000034A044812211EF0DDF900BF70EF040067
:10B7100098F1040090EF04002DE9F04F87B0DDF8B8
:10B7200040A00592002B64D0D0F800908B46D9F849
:10B730001C105C1EA1F108084445074651D3B4FB18
:10B74000F8F001381EF040F8D04500F10200A4EBFB
:10B750008003B3FBF8F560D8BAFBF8F001381EF0AF
:10B7600033F8861CAAEB8606B6FBF8F630461EF0C8
:10B770002BF8AAEB800006FB180AB54243D9D9F88A
:10B780002020059B4FF004090DF114080BE0012B5C
:10B7900045D93A68126A934241D8012101FA04F46A
:10B7A0002D1BB54230D9AC1BB4FA84F495FAA5F13F
:10B7B000C4F11F04B1FA81F18C4228BF0C469342B8
:10B7C0004FEA840132D20091CDE901890022594625
:10B7D0003846FFF7D9FE059B0028D8D007B0BDE852
:10B7E000F08FD04588BF1346BAFBF8F00CD800257F
:10B7F000B4E711994FF0FF320A60129A18461360AD
:10B8000007B0BDE8F08F059B119A1360129B0020D2
:10B81000C3F800A007B0BDE8F08F0026ADE7064BE7
:10B82000064A07484FF48F611EF04CF9054B064A53
:10B83000034812211EF046F90CF00400B8F1040090
:10B8400090EF040070EF040098F104002DE9F04F30
:10B8500089B00746149C129D8B4692461E46002CCA
:10B8600055D0DBF80030B3425CD0013340F0A1800A
:10B8700038688269B5FBF2F302FB1353002B4AD1FF
:10B88000A24248D8B4FBF2F302FB13430593E31A38
:10B89000009304938468139B2A463146A0470028EE
:10B8A0007ED1BAF1000F29D0049B3BB3139B5C1EE1
:10B8B000049B04EB0309139B05F10108A8EB0308A3
:10B8C00007E014F8012F9DF81F309A4266D14C45CD
:10B8D00014D03B681A6A964208EB040363D2012233
:10B8E00002920DF11F02CDE900325146334600228B
:10B8F0003846FFF749FE0028E3D051DB139A049B3A
:10B90000059C1146194413911D44002CA9D1002017
:10B9100009B0BDE8F08FEB1ACBE90063DBF800302B
:10B92000B342A2D1DBF80410A9429ED83A689269CA
:10B930000A44AA4299D9A2EB0508A045DBF8080001
:10B9400028BFA046691A0844424613991EF05CF9C4
:10B9500038681399826945444144B5FBF2F302FB10
:10B960001353A4EB08041391002B7FF478AFDBF89A
:10B9700000104B1C3FF473AF0092DBE90123D0F8B9
:10B980000880C04760B9524659463846FFF770FEF6
:10B9900000283FF464AF09B0BDE8F08F6FF03300CA
:10B9A00009B0BDE8F08F064B064A074812211EF089
:10B9B00089F8064B064A0448B7211EF083F800BFF9
:10B9C00070EF040098F1040090EF040038F00400D8
:10B9D000A8F104002DE9F04F0446D2E9003091B0FF
:10B9E0004FF0010B0A9300230B90069104F1140809
:10B9F0000DF128090593236859F8045B1B6A9D42E1
:10BA00007BD210230DF1300A0022CDE901A3009270
:10BA10002B4641462046FFF7B7FD002839D1059B4C
:10BA2000002B60D10D9B23F00043132B4FD92268CC
:10BA3000D26993424BD84FF0FF3309A810225146E8
:10BA4000099304F0BFFE0D9B23F00043102B28D078
:10BA5000CDF81C9010260DF12307994607E001361A
:10BA60000122394609A804F0ADFEB14517D023687C
:10BA70001B6A9D4241D20123CDE9017300962B46FA
:10BA8000002241462046FFF77FFD0028E7D0DDF881
:10BA90001C9010F1340F1AD011B0BDE8F08FDDF812
:10BAA0001C90099B9BB99AE80F000BF0010610AFA0
:10BAB00007EB860C069F1026FE603E467D601C3616
:10BAC0005CF8185CBD6086E80F0001230593BBF1AC
:10BAD000020F0FD1059B002B14BF00206FF0330025
