:020000022000DC
:106000000000042091E00300D1E00300D3E003008E
:10601000D5E00300D7E00300D9E003000000000052
:10602000000000000000000000000000D50904008E
:10603000DDE0030000000000F5090400E1E00300DA
:10604000490B0400E3E00300D1290400E3E003006E
:10605000E3E00300E3E00300A1E30300E3E0030067
:10606000E3E00300E3E00300E3E00300E3E0030018
:10607000E3E00300E3E00300E3E00300E3E0030008
:10608000E3E0030025070400E3E00300E3E003008E
:10609000E3E00300E3E0030059870300E3E00300CB
:1060A000E3E00300E3E00300E3E00300E3E00300D8
:1060B000E3E00300E3E00300000000000000000054
:1060C000E3E00300E3E00300E3E003003111040038
:1060D000E3E00300E3E00300E3E00300B91403009E
:1060E000E3E00300E3E00300E3E00300000000005E
:1060F00000000000E3E0030000000000A91104001C
:10610000000000000000000000000000000000008F
:10611000000000000000000000000000000000007F
:10612000000000000000000000000000000000006F
:10613000000000000000000000000000000000005F
:10614000000000000000000000000000000000004F
:10615000000000000000000000000000000000003F
:10616000000000000000000000000000000000002F
:10617000000000000000000000000000000000001F
:10618000000000000000000000000000000000000F
:1061900000000000000000000000000000000000FF
:1061A00000000000000000000000000000000000EF
:1061B00000000000000000000000000000000000DF
:1061C00000000000000000000000000000000000CF
:1061D00000000000000000000000000000000000BF
:1061E00000000000000000000000000000000000AF
:1061F000000000000000000000000000000000009F
:10620000F1EE103A43F08073E1EE103A704700BFB0
:1062100010B5054C237833B9044B13B10448AFF3E0
:1062200000800123237010BD2064002000000000C6
:10623000BC1F050008B5034B1BB103490348AFF36E
:10624000008008BD0000000024640020BC1F050081
:10625000154B002B08BF134B9D46A3F5803A002138
:106260008B460F461348144A121A23F08BFB0F4B30
:10627000002B00D098470E4B002B00D098470020F1
:10628000002104000D000D48002802D00C48AFF397
:10629000008023F00DFB200029001CF075FE23F088
:1062A000E1FA00BF00000800000004200000000028
:1062B0000000000020640020D0A0002000000000AA
:1062C0000000000033DF7047014B01221A70704755
:1062D000FC6B0020014B01221A707047006B0020FC
:1062E000014B01221A7070474C68002038B5054CEC
:1062F000A4F5A87520461CF0E1FCAC42A4F10C0406
:10630000F8D138BD40680020054B064A1B78013B98
:106310000021012B117000D9704703201BF07ABBBC
:1063200018600020ED66002010B5014688B01148C5
:1063300012F00AFA10490124002320220C70694649
:10634000CDE90033CDE90333CDE90533029307935B
:1063500010F0EAFA094B0A4A1B78013B0221A342DA
:10636000117001D908B010BD214603201BF052FB6B
:1063700008B010BDE4890020ED6600201860002000
:10638000B069002010B5614C614920461BF038FC13
:10639000604B0A22197820461BF0ACFD5E4920466E
:1063A0001BF02EFC5D4B0A22197820461BF0C8FD1D
:1063B0005B4920461BF024FC5A4B0A2219782046E0
:1063C0001BF098FD584920461BF01AFC574B0A2237
:1063D000197820461BF08EFD554920461BF010FC15
:1063E000544B0A22197820461BF0AAFD5249204638
:1063F0001BF006FC514B186822F0DAFC41EC100B44
:10640000204602211BF0C0FC4D4920461BF0F8FB42
:106410004C4B0A22198820461BF06CFD4A49204645
:106420001BF0EEFB494B186822F0C2FC41EC100B4C
:10643000204602211BF0A8FC454920461BF0E0FB4A
:10644000444B0A22197820461BF07AFD4249204627
:106450001BF0D6FB414B0A22197820461BF070FD39
:106460003F4920461BF0CCFB3E4B0A2219782046C0
:106470001BF066FD3C4920461BF0C2FB3B4B0A2249
:10648000197820461BF05CFD394920461BF0B8FB0B
:10649000384B0A22197820461BF052FD3649204617
:1064A0001BF0AEFB354B0A22197820461BF048FD45
:1064B000334920461BF0A4FB324B0A2219782046B0
:1064C0001BF018FD304920461BF09AFB2F4B0A2287
:1064D000197820461BF034FD2D4920461BF090FB17
:1064E0002C4B0A22197820461BF004FD2A4920462D
:1064F0001BF086FB294B204619780A221BF0FAFC78
:106500002046BDE8104004F0B3BD00BF5068002035
:10651000F4DF040005600020FCDF040004600020BC
:1065200004E004003D6400200CE004000D60002045
:1065300014E004001460002018E004001060002043
:1065400020E004001660002024E004000860002021
:1065500028E004001C6000202CE004000C600020F7
:1065600030E004001D60002034E004001A600020C8
:106570003CE004001B60002044E004003F64002075
:106580004CE004003C64002054E00400186000204B
:106590005CE004001960002068E004003E64002014
:1065A00008B50C490C4804F0EBFA0A490B480122E3
:1065B00004F0A4FC48B90A4B1B7803B908BDBDE838
:1065C0000840084908481BF08FBBBDE80840FFF7AA
:1065D000D9BE00BF74E00400006C002050680020A9
:1065E000EC6600207CE00400A87C0020F0B5174F8A
:1065F000174D184E99B00446384613F081FB02211E
:10660000284613F0B1FB204624F0E3F82146024669
:10661000284613F0BDFB08AC08A9284613F0C0FBC0
:106620000FCC6D460FC594E80F0085E80F006B4650
:106630000FCB86E80F0095E80F00074C84E80F00A9
:10664000384613F071FB19B0F0BD00BF78910020FF
:10665000B468002040640020506400202DE9F0411F
:1066600074497548DFF88082744F82B004F098FB5B
:10667000734813F075FB734B734800240025C3E97E
:1066800006450322002600240125C3E90045C3E98D
:1066900002451A611E7513F08DFB30201CF0B4FC0E
:1066A0000F230E22044600930C210D2313F0F8FD56
:1066B000664D6748214614F087F8404612F0B6F957
:1066C0002A466449644C404623F08CF8384612F060
:1066D00047FA2A466149384623F084F8604F20463D
:1066E0004FF4807112F092FE2A465E49204623F054
:1066F00079F85D4C384612F081F82A465B493846F5
:1067000023F070F85A4920461CF0CAF9594904F19F
:106710000C001CF0C5F9584904F118001CF0C0F930
:10672000564904F124001CF0BBF9554904F130002E
:106730001CF0B6F9534904F13C001CF0B1F9524980
:1067400004F148001CF0ACF9504904F154001CF06D
:10675000A7F94F4904F160001CF0A2F94D4904F17A
:106760006C001CF09DF94C4904F178001CF098F97C
:106770004A4904F184001CF093F9494904F190005E
:106780001CF08EF9474904F19C001CF089F9464938
:1067900004F1A8001CF084F9444904F1B4001CF091
:1067A0007FF9434904F1C0001CF07AF9414904F132
:1067B000CC001CF075F9404904F1D8001CF070F9C8
:1067C0003E4904F1E4001CF06BF93D4904F1F0008E
:1067D0001CF066F93B4904F1FC001CF061F93A49F0
:1067E00004F584701CF05CF9384904F58A701CF0DB
:1067F00057F9374904F590701CF052F9354904F502
:1068000096701CF04DF9344904F59C701CF048F961
:10681000324904F5A2701CF043F9314904F5A8701F
:106820001CF03EF92F492A46304602B0BDE8F0413F
:1068300022F0D8BF006C002050680020B065002016
:10684000B4680020B0640020046B002000600020C9
:10685000B4690020A9960200F86500209196020014
:10686000D0640020A1940300F06600206996020025
:106870009CE00400A4E00400B4E00400C4E00400D0
:10688000E0E00400F0E00400FCE0040008E10400A3
:1068900018E104002CE1040048E104005CE104007C
:1068A00070E1040084E104009CE10400B0E1040014
:1068B000C0E10400D4E10400ECE1040008E20400BB
:1068C00018E2040024E2040038E204004CE2040070
:1068D00060E2040074E2040080E2040090E204003C
:1068E000A8E20400ED6202004065002070B5B748E0
:1068F000B74984B00022044604F000FB204604F0AF
:10690000EFF93D28FAD1B149B24DB34C0A2201A8A2
:106910001BF09CFB01A81CF0EFFA031E18BF01231B
:1069200001A82B701CF0CAF92378002B40F0C78116
:10693000A64D284604F0D4F93D28FAD1A349A74D25
:106940000A2201A81BF082FB01A81CF0D5FA03461D
:1069500001A82B701CF0B2F92378002B40F066825E
:106960009A4D284604F0BCF93D28FAD197499C4D30
:106970000A2201A81BF06AFB01A81CF0BDFA031E45
:1069800018BF012301A82B701CF098F92378002B65
:1069900040F042828D4D284604F0A2F93D28FAD1FC
:1069A0008A49904D0A2201A81BF050FB01A81CF057
:1069B000A3FA031E18BF012301A82B701CF07EF957
:1069C0002378002B40F01E82804D284604F088F981
:1069D0003D28FAD17D49844D0A2201A81BF036FBDF
:1069E00001A81CF089FA034601A82B701CF066F977
:1069F0002378002B40F0FC81744D284604F070F998
:106A00003D28FAD17149794D0A2201A81BF01EFBDD
:106A100001A81CF077FA01A885ED000A1CF04EF9D8
:106A20002378002B40F0D681684D284604F058F9B1
:106A30003D28FAD165496E4D0A2201A81BF006FBDC
:106A400001A81CF059FA034601A82B801CF036F966
:106A50002378002B40F0B4815C4D284604F040F9C7
:106A60003D28FAD15949634D0A2201A81BF0EEFADC
:106A700001A81CF047FA01A885ED000A1CF01EF9D8
:106A80002378002B40F08E81504D284604F028F9E1
:106A90003D28FAD14D49584D0A2201A81BF0D6FADB
:106AA00001A81CF029FA034601A82B701CF006F976
:106AB0002378002B40F06C81444D284604F010F9F7
:106AC0003D28FAD141494D4D0A2201A81BF0BEFADA
:106AD00001A81CF011FA034601A82B701CF0EEF877
:106AE0002378002B40F04A81384D284604F0F8F80E
:106AF0003D28FAD13549424D0A2201A81BF0A6FAD9
:106B000001A81CF0F9F9034601A82B701CF0D6F877
:106B10002378002B40F028812C4D284604F0E0F823
:106B20003D28FAD12949374D0A2201A81BF08EFAD7
:106B300001A81CF0E1F9034601A82B701CF0BEF877
:106B40002378002B40F00681204D284604F0C8F839
:106B50003D28FAD11D492C4D0A2201A81BF076FAD6
:106B600001A81CF0C9F9034601A82B701CF0A6F877
:106B70002378002B40F0E480144D284604F0B0F850
:106B80003D28FAD11149214D0A2201A81BF05EFAD5
:106B900001A81CF0B1F9034601A82B701CF08EF877
:106BA0002378002B40F0C280084D284604F098F866
:106BB0003D28FAD10549164D0A2201A81BF046FAD4
:106BC00001A81CF099F9031E24E000BF50680020C2
:106BD00074E0040005600020EC66002004600020E2
:106BE0003D6400200D600020146000201060002033
:106BF00016600020086000201C6000200C6000204F
:106C00001D6000201A6000201B6000203F640020EF
:106C10003C64002018BF012301A82B701CF04EF823
:106C20002378002B78D1864D284604F059F83D286A
:106C3000FAD18349834D0A2201A81BF007FA01A863
:106C40001CF05AF9034601A82B701CF037F8237882
:106C5000002B57D17A4D284604F042F83D28FAD14E
:106C60007749794E0A2201A81BF0F0F901A81CF01F
:106C700043F9031E18BF012301A833701CF01EF84E
:106C80002378002B33D16E4D284604F029F83D2897
:106C9000FAD16B490A2201A81BF0D8F901A81CF00F
:106CA0002BF9031E18BF012301A833701CF006F84E
:106CB000237873B9624804F0DBF904B070BD63490E
:106CC00063481AF09DFF297861480A221BF012F9E7
:106CD0002EE660495E481AF093FF31785C480A223C
:106CE0001BF008F9564804F0C3F904B070BD5A49C6
:106CF00057481AF085FF594B554819780A221BF05E
:106D0000F9F8C0E7564952481AF07AFF29785048F6
:106D10000A221BF015F99DE752494D481AF070FF01
:106D200029784B480A221BF0E5F87CE74E49484891
:106D30001AF066FF297846480A221BF001F933E76A
:106D40004A4943481AF05CFF297841480A221BF05F
:106D5000F7F811E746493E481AF052FF29783C48B7
:106D60000A221BF0EDF8EFE6424939481AF048FFD5
:106D7000297837480A221BF0E3F8CDE63E4934482B
:106D80001AF03EFF297832480A221BF0D9F8ABE608
:106D90003A492F481AF034FF29782D480A221BF06F
:106DA000CFF889E636492A481AF02AFF286821F0E8
:106DB000FFFF41EC100B022125481AF0E5FF63E6C6
:106DC000304923481AF01CFF298821480A221BF069
:106DD00091F841E62C491E481AF012FF286821F06C
:106DE000E7FF41EC100B022119481AF0CDFF1BE61A
:106DF000264917481AF004FF297815480A221BF083
:106E00009FF8F9E5224912481AF0FAFE297810484D
:106E10000A221BF06FF8D7E51E490D481AF0F0FE64
:106E200029780B480A221BF065F8B3E51A4908488F
:106E30001AF0E6FE297806480A221BF081F88FE551
:106E400050680020186000203E640020F4DF040039
:106E5000A87C002068E004005CE0040019600020C9
:106E600054E004004CE0040044E004003CE0040072
:106E700034E0040030E004002CE0040028E00400CA
:106E800024E0040020E0040018E0040014E0040002
:106E90000CE0040004E00400FCDF040070B5B64818
:106EA00088B045F21F2241F615110AF02DF8032093
:106EB00001211AF0AFFDB14809F052FF002800F09F
:106EC0002D824FF47A7017F0B9FAAC4809F048FFF8
:106ED000002800F02082AA4809F0FCFAA949AA4833
:106EE000002204F00BF8A84804F0EEF8002800F0A7
:106EF0004582A649A448002204F000F8A24804F004
:106F0000E3F8002800F02A82A1499F48002203F0FC
:106F1000F5FF9D4804F0D8F8002800F012829D4C3F
:106F2000994D04F1100602E00134A6420CD0284627
:106F300003F09AFE0028F7D0284603F0D1FE013472
:106F400004F8010CA642F2D18F4804F091F892495E
:106F50008D48002203F0D2FF8B4804F0B5F80028DA
:106F600000F0E2818D4C884D04F1400602E00134CE
:106F7000A6420CD0284603F077FE0028F7D028461A
:106F800003F0AEFE013404F8010CA642F2D17E48B3
:106F900004F06EF88148FFF729FB81497A48002206
:106FA00003F0ACFF784804F08FF880B97C4974484E
:106FB00003F0E6FD7A497448012203F09FFF0028A0
:106FC00040F0EC81774B1B78002B40F0EA81FFF713
:106FD0008DFC0A24012585F00105294603201AF0BD
:106FE00019FD642017F02AFA631E13F0FF04F2D192
:106FF0006D4A6E4B12786E4853F822101BF0F2FA6D
:10700000142485F00105294603201AF003FD6420AD
:1070100017F014FA631E13F0FF04F2D1654C2378C5
:10702000002B00F04281644B644A1E786449654B32
:1070300012781B7891F90010634802930192009135
:10704000624B634A6349644D12781B780978D5ED29
:10705000000A00EB860090ED000A604813F0BEFBCA
:107060000246002A00F03E815D495C48434C042200
:1070700016F050F804225B49584816F061F857485A
:1070800015F004FB5848002111F0F4FA5648042189
:1070900011F0B4F800220121534811F0DFF8082163
:1070A000514811F099FA00223649374803F026FF7B
:1070B00005A835491AF096FF05994C4810F0FAF9E1
:1070C00005A81BF0FBFD002230492F4803F016FFF6
:1070D00005A82D491AF086FF0599434811F054FA86
:1070E00005A81BF0EBFD42493F480FF069FE4149FE
:1070F0003D480FF067FE40494048102211F02CFD3A
:107100003F493E48082211F023FD3C4811F05EFD46
:10711000312211463B4810F081FD3A4812F004FA42
:10712000062139480EF066FB37480EF04BFB354917
:1071300035480EF003FB35480EF016FB32480121AE
:107140000EF08CFBF422304820210EF083FB2E48F9
:107150001E210EF07DFB00212B480EF0EBFB01E021
:1071600009F0DEFC204609F0B5FC03462046002B62
:10717000F6D10F4C4EE000BFC87C0020A87C002058
:10718000006C00208CE2040050680020C0E2040083
:10719000D4E2040060640020E8E20400706400208F
:1071A00074E00400EC6600200460002020600020F1
:1071B000E89600200D600020146000201A60002076
:1071C0001B6000203F640020FCE804001D600020DC
:1071D0000C6000201C60002008600020B4690020C2
:1071E000D5620200E1620200E4890020048A0020E6
:1071F0002963020009630200FCE20400B06500207C
:10720000C8E20400F8650020249000206890002067
:107210001BF076F920461BF06BF903462046002B45
:10722000F6D1624C01E011F091FD204611F03EFDD7
:1072300003462046002BF6D15D4C2378013B012B01
:107240002ED85C4B1B785BB3012102201AF05EFB49
:107250002378594C012B8CBF0121002102201AF008
:10726000D9FB1EF05FFB237D002B4DD0534812F05D
:10727000A5FD00234FF4806200935149514801233A
:107280001BF0F2FE022104201AF040FB4E494F4849
:107290001AF02AFD4C494E481AF026FD08B070BD80
:1072A000002103201AF0B6FBCEE74A494A4D4B486D
:1072B00009782D7890F900000090029101954848D6
:1072C000484B494A49494A4D127890ED000A1B78CB
:1072D0000978D5ED000A474813F080FA0246002AE3
:1072E0007FF4C2AE444B4348197814F09DF800284F
:1072F0007FF4BAAE2378002B3FF4B6AE3F4B3D4847
:10730000197816F083FCAFE61EF00CFB0028ADD117
:1073100001232375AAE71BF0C3FEDCE52B484FF4DD
:10732000E13109F0F5FCCCE535493648012203F09E
:10733000E5FD00283FF42EAE334932481AF060FCD8
:1073400025E632492F48012203F0D8FD00283FF4FA
:10735000FEAD2F492B481AF053FCF5E52D4929487D
:10736000012203F0CBFD00283FF4CEAD2A49254889
:107370001AF046FC234803F07BFEC5E52749214867
:10738000012203F0BBFD00283FF4B3AD24491D48A2
:107390001AF036FC1B4803F06BFEAAE5FEF7F2FF7D
:1073A00015E6204909481AF09FFC10E6F865002010
:1073B00018600020ED660020B0640020046B0020FF
:1073C0001DA602009497002010E30400A87C002072
:1073D000E89600203F6400201A6000201B60002017
:1073E000106000201D6000200C6000201C60002048
:1073F00008600020B46900203C6400201660002072
:10740000E8E2040050680020F0E20400D4E2040046
:10741000DCE20400C0E20400C8E204008CE20400E4
:10742000B8E204007CE004002DE9F04F2DED028B62
:10743000EDB002AF06460846796123F0CAF9F122A1
:10744000C4B2002107F1B40022F09CFAD02C87F8D6
:10745000B46056D8002E67D12D4823F0BAF9C6B2D1
:1074600006F101085FFA88F8B8F1010F07D0721E23
:10747000D2B22749013207F1B50022F05BFA07F5D5
:10748000D4729044B31C52FA83F33A2208F8F42CD5
:10749000202206F1030803F8F42C5FFA88F8A4B15F
:1074A0007D69E11C3144C9B26A1E434607F5D470B8
:1074B00018440133DBB212F8016F00F8F46C8B4210
:1074C000F4D1A0447D615FFA88F812491248042281
:1074D00015F020FE11491048042215F031FE16F077
:1074E000A1FF0F4B024678691A6023F072F900235E
:1074F00008EB000207F1B401074815F0B7F9094B92
:10750000186007F5D677BD46BDEC028BBDE8F08F5D
:1075100060640020C9620200B4690020E1620200D8
:10752000F06B0020F86B0020012EEAD114F00F035D
:10753000DFF84CA318BF012303EB1413981CDAF8EF
:10754000001038606E46B9600146A6EB00103B6142
:107550009AF81420DAF80C506B46854607F1480972
:1075600008EE903A02A800230901C7E90A33C7E9E7
:107570000C33C9E90033C9E90233F860EB4679609E
:10758000002A43D01EF0CEF900283FD107F1680849
:10759000B968DAF818302A4640461DF0E5FDB54BCB
:1075A000BB6307F138061023FB63DAF81C10404672
:1075B000324608231DF018FE40BBDAF808309D4221
:1075C00004D0AD4940461DF033FEF8B999E80F00EC
:1075D00007F1580686E80F004FF0000C07F128036A
:1075E000314610224046C7E90ACCC7E90CCC1DF051
:1075F00037FE034650B907F1200107F12802009237
:1076000001913246404619461DF068FE07F12806F2
:107610000FCEFD689AF814C0286069600020DAF87F
:107620000010DAF80C90AA60C7E90A00C7E90C005C
:10763000DD46EB60B960BCF1000F43D01EF072F97B
:1076400000283FD107F16808B968DAF818304A46CF
:1076500040461DF089FD874BBB6307F138061023B8
:10766000FB63DAF81C104046324608231DF0BCFDCF
:1076700040BBDAF80830994504D07F4940461DF0F8
:10768000D7FDF8B97D4B0FCB07F1580686E80F0000
:107690004FF0000C07F12803314610224046C7E99D
:1076A0000ACCC7E90CCC1DF0DBFD034650B907F14D
:1076B000200107F128020092019132464046194606
:1076C0001DF00CFE07F128060FCEFE68F3613B6942
:1076D0003061DD467161B261002B00F007813B68CB
:1076E000D7F814B01B01DBB2BB60202507F13806C8
:1076F0004FF00008D946A5F12003DBB2A34238BF02
:1077000099F80030C6E9008838BF3370A5F11F032F
:10771000DBB29C4284BF99F801307370A5F11E035F
:10772000DBB29C4284BF99F80230B370A5F11D030F
:10773000DBB29C4284BF99F80330F370A5F11C03BF
:10774000DBB29C4284BF99F804303371A5F11B036E
:10775000DBB29C4284BF99F805307371A5F11A031E
:10776000DBB29C4284BF99F80630B371A5F11903CE
:10777000DBB29C4284BF99F80730F371A5F118037E
:10778000DBB29C4288BF99F80830C6E9028888BFFE
:107790003372A5F11703DBB29C4284BF99F809301C
:1077A0007372A5F11603DBB29C4284BF99F80A30CC
:1077B000B372A5F11503DBB29C4284BF99F80B307C
:1077C000F372A5F11403DBB2A3423CBF99F80C306D
:1077D0003373A5F11303DBB2A3423CBF99F80D301C
:1077E0007373A5F11203DBB2A3423CBF99F80E30CC
:1077F000B373A5F11103DBB2A34238BF99F80F3080
:10780000DAF80C2038BFF3739AF81430DAF8001065
:107810007A616A46C7E90A88C7E90C8808EE102A27
:107820003961002B4DD01EF07DF8002849D107F1B9
:10783000680B3969DAF818307A6958461DF094FCFB
:107840000C4907F120034FF0100CC7E9081C1A4639
:10785000DAF81C10584608231DF0C6FC88BBDAF87D
:1078600008307A699A420DD0034958461DF0E0FC71
:1078700038BB07E0506400204064002060640020B2
:10788000B064002096E80F0007F1580C8CE80F0058
:1078900007F12803614610225846C7E90A88C7E95C
:1078A0000C881DF0DDFC034658B907F11C0107F1F7
:1078B00028020092019107F15802584619461DF01E
:1078C0000DFDF968BA6A4A514B19FA6A5A603A6B67
:1078D0009A607A6BDA6018EE103A10359D46BB68F4
:1078E000EDB2AB4209F110097FF405AF7B68B3F547
:1078F000807F29D01A46FB68940807F1B501002261
:10790000013253F8040B41F8040B9442F8D80F49A4
:107910000F48042215F0FEFB0E490D48042215F015
:107920000FFC16F07FFD0C4B02461A607A6808487F
:107930000023013207F1B40114F098FF074B1860DF
:1079400018EE903A9D46DCE5FEE700BFC9620200F2
:10795000B4690020E1620200F06B0020F86B0020A7
:1079600008B5FA2016F06AFD1A4B1B7813B3012BE9
:107970002AD0022B23D0FA2016F060FD164809F019
:10798000E5F816481AF0CAFD134809F0D9F913486A
:107990001AF064FD124803F033F8BFF34F8F11491A
:1079A000114BCA6802F4E0621343CB60BFF34F8F00
:1079B00000BFFDE70D4908481AF096F9DBE70B49CF
:1079C0000B481AF091F9D6E7084904481AF08CF9E7
:1079D000D1E700BFB0690020A87C0020E896002015
:1079E000006C002000ED00E00400FA0520E3040034
:1079F000106600202DE9F047C0B002AF0C460546E6
:107A0000B94907F1080090461BF04AF8B7492046EB
:107A10000A2222F0E6FE002800F08D80B4490822F8
:107A2000204622F0DEFE064600285CD0B149062240
:107A3000204622F0D6FE0646002800F03881AE49E6
:107A40000622204622F0CDFE0646002800F03C81AA
:107A5000AA490B22204622F0C4FE002840F08B8069
:107A6000A8F1040323F007036E46B8F10B08ADEB51
:107A7000030D02A914D0034642F2014E221801332D
:107A8000D27A0D2ADBB22EFA02FC02D81CF0010FCA
:107A900004D100F1010C0A545FFA8CF09845EDD83E
:107AA00007F1EC0420461AF0FBFF20461BF024FAF5
:107AB000804620461BF002F9B8F1000F00F00D815E
:107AC0008F4802F0B5FF8F4907F108001BF024F939
:107AD000002300938C498D4801234FF480621BF0F2
:107AE000C3FAB5460EE0874907F108001BF014F908
:107AF00000960123844985484FF480621BF0B4FA54
:107B000007F1EC0407F1080120461AF0E3FF804971
:107B100020461BF079F9014628461AF0DBFF204683
:107B20001BF0CCF807F108001BF0C8F82846F8371E
:107B3000BD46BDE8F08707F1EC04764920461AF00F
:107B4000AFFF754B07F1E00093ED000A02211BF037
:107B500077F807F1E00120461BF02AF9014607F10A
:107B600008001BF0B3F807F1E0001BF0A7F820466F
:107B70001BF0A4F8C6E769490A22204622F031FE2C
:107B8000002800F07C8166490922204622F029FE67
:107B9000002800F0F78063490822204622F021FEE9
:107BA000002800F06C8160490C22204622F019FE6A
:107BB000002840F07381A8F1050323F007036E4607
:107BC000B8F10C02ADEB030D02A918D04FF0000C78
:107BD000634642F2014804EB0C000133007B0D28A0
:107BE000DBB228FA00FE02D81EF0010F05D10CF11D
:107BF000010E01F80C005FFA8EFC9A42EBD807F1F7
:107C0000EC0420461AF04CFF20461BF075F9804624
:107C100020461BF053F85FFA88F3042B00F2A08192
:107C2000424A43494348DFF854C130F813001CF876
:107C300003C002EB83024FF0010812680A603E4A5B
:107C40003E491080C85C3E4A3E4982F800C0087038
:107C50003D4A3E493E4BDFF828C13E48C1F800C0CE
:107C600082F800803C4940224FF0DD0C1A7080F809
:107C700000C03A4A3A4B062008701421117020487F
:107C8000384900221A7002F07BFF364936484246D6
:107C900003F034F9002840F0DD81344B1B78002BD1
:107CA0003FF411AF324933481AF01EF80BE715497B
:107CB00007F108001BF030F84FF08043A822C3F80A
:107CC0001C250123009615E70E4907F108001BF05B
:107CD00023F84FF080435722F1E7274907F10800C6
:107CE0001BF01AF8B5460DE7C0F9040030E30400B4
:107CF00048E304005CE3040064E304006CE3040074
:107D0000006C002054E30400617902009497002085
:107D100020F904003CE304009C60002094E304008C
:107D2000BCE3040004E4040010E4040064600020E8
:107D30000860002084600020166000207C60002025
:107D40001C6000200C6000200D60002010600020EE
:107D5000146000201D6000201A6000201B600020BD
:107D60003F64002074E0040050680020EC660020AE
:107D70007CE00400A87C002078E3040094600020EC
:107D800000C06444A8F1020323F007036E46B8F173
:107D90000902ADEB030D02A917D08446034642F257
:107DA000014804EB0C000133407A0D28DBB228FABD
:107DB00000FE02D81EF0010F05D10CF1010E01F8F2
:107DC0000C005FFA8EFC9A42EBD807F1EC042046D7
:107DD0001AF066FE20461BF08FF8804620461AF007
:107DE0006DFFB8F1000F52D0C44800210DF036FDF0
:107DF000C34810F069FC1FFA80F9B9F1000F0DD0EB
:107E00004FF00008DFF8F8A2414608F1010850469B
:107E100010F078FC1FFA88F18945F6D8B7480DF0C4
:107E2000FBFDB84813F0A8FE4FF00608032019F038
:107E300031FE642016F002FB08F1FF3313F0FF0857
:107E4000F4D1B14B1B78002B00F09180012B00F096
:107E5000FE80022B7FF445AEAC49AD4819F044FFDB
:107E6000FA2016F0EBFA0521042019F04FFD4046E8
:107E7000042119F04BFDFEF725FAB54642E6A54967
:107E800007F108001AF048FF07F1EC043AE6A249AE
:107E900007F108001AF040FFB54633E69F490B2270
:107EA000204622F09EFC0028E9D09D490822204669
:107EB00022F097FC002861D108F1FF3323F007037B
:107EC0006E46B8F10802ADEB030D02A917D0844647
:107ED000034642F2014904EB0C000133007A0D28FD
:107EE000DBB229FA00FE02D81EF0010F05D10CF119
:107EF000010E01F80C005FFA8EFC9A42EBD807F1F4
:107F0000EC0420461AF0CCFD20461AF0F5FF854A15
:107F1000031E18BF0123204613701AF0CFFE8249BA
:107F2000824802F02DFE80498148012202F0E6FFDE
:107F3000002840F0A0807F4B1B78002B40F09E80F3
:107F4000724907F108001AF0E7FE002300937A490E
:107F50007A4801234FF480621BF086F8B546D1E5DC
:107F6000774907F108001AF0D7FEB546CAE575490A
:107F700007F108001AF0D0FEB546C3E572490722A2
:107F8000204622F02EFC002867D0704908222046A7
:107F900022F027FC8246002875D007226C49204633
:107FA00022F01FFC0246002800F0E2806949072207
:107FB000204622F016FC002840F0EA8008F0F80382
:107FC0006E46B8F10702ADEB030D0DF1080900F0A4
:107FD0004481034642F2014C21180133C9790D292D
:107FE000DBB22CFA01FE02D81EF0010F05D100F120
:107FF000010E09F800105FFA8EF09A42ECD8031FC8
:10800000022B00F22A815449484802F0B9FD524936
:108010004748012202F072FF002869D049464448CF
:1080200019F0EEFD424803F023F8384907F1080043
:108030001AF072FE002300933F49404801234FF499
:1080400080621BF011F807F1EC04B5465AE52F49A0
:10805000424803E7FEF796F935E507F1EC043049AD
:1080600020461AF01DFD2F4B197807F1E0000A2277
:108070001AF07EFD6DE5FEF785F961E7384939486C
:1080800019F032FE5CE708F1FF3323F007036E4678
:10809000ADEB030DA8F108080DF10809484642466A
:1080A000514621F06FFCB8F1000F16D052465346EE
:1080B00042F20140A1180133097A0D29DBB220FAFE
:1080C00001FC02D81CF0010F05D102F1010C09F8E6
:1080D00002105FFA8CF29845ECD82349134802F05D
:1080E0004FFD21491248012202F008FF002895D1D6
:1080F0001E4907F108001AF00FFEA4E724900020A3
:10810000E4890020B4690020B069002054E3040031
:1081100010660020A0E30400E8E304003CE404004F
:1081200048E404000560002074E00400006C0020B6
:1081300050680020EC6600206179020094970020CE
:1081400020E40400C8E3040054E404005CE40400F8
:1081500084E404008CE404008CE20400E89600202F
:108160007CE00400A87C0020C0E2040068E4040075
:10817000CD49CE4807F1EC0402F0C0FECC492046C0
:108180001AF08EFCC94907F1E00019F02BFFE0E47A
:108190000622C849204622F024FB0246002800F0AF
:1081A000AE80C5490822204622F01BFB00285AD188
:1081B00008F1FF3323F007036E46B8F10802ADEB78
:1081C000030D02A918D0034642F2014E04EB000C45
:1081D00001339CF808C0BCF10D0FDBB22EFA0CF88D
:1081E00002D818F0010F05D100F1010801F800C014
:1081F0005FFA88F09A42E9D807F1EC0420467960EA
:108200001AF04EFC20461AF077FE804620461AF0FF
:1082100055FDB8F1100F00F382807968DFF8C48251
:1082200020461AF03DFC20461AF066FE0346204622
:1082300088F800301AF042FDFEF7B2F998F80020F5
:108240009E4B9F4853F822101AF0CCF99D4907F134
:1082500008001AF061FDB54654E49B4907F1080097
:108260001AF05AFDEFE699490722204622F0B9FAA2
:1082700000285CD096490922204622F0B2FA002854
:1082800063D1A8F1020323F007036E46ADEB030DA3
:10829000A8F1090202A9034642F2014E10E09CF83F
:1082A00009C0BCF10D0F2EFA0CF802D818F0010F1E
:1082B00005D103F1010801F803C05FFA88F301302A
:1082C0005FFA80F8424504EB030CE8D807F1EC04B0
:1082D00020461AF0E5FB20461AF00EFE7D4A031EEA
:1082E00018BF0123137020461AF0E8FCFEF758F976
:1082F000744907F108001AF00FFDB54602E476490B
:108300006A4807F1EC0402F0F9FD744920461AF0BE
:10831000C7FB664907F1E00019F064FE19E47049F3
:1083200007F108001AF0F8FCB546FFF7EBBB07F1C0
:10833000EC04614920461AF0B3FB6A4B07F1E000F8
:1083400019780A221AF0E0FB03E467490822204664
:1083500022F047FA002855D064490822204622F02E
:1083600040FA002856D108F1FF3323F00703E9460D
:10837000ADEB030DA8F1080202A9034642F2014C3D
:108380000DE0367A0D2E2CFA06FE02D81EF0010FF3
:1083900004D103F1010ECE545FFA8EF301305FFA7F
:1083A00080FE724504EB0306EBD807F1EC0420468F
:1083B0001AF076FB20461AF09FFD064620461AF07A
:1083C0007DFC002E01F0FF80494B4A48197815F0DA
:1083D0001DFC0646002841F0DB80474A474B1178D8
:1083E000474A03EB81031968464B116001221A705A
:1083F000FEF7D6F8334907F108001AF08DFCCD4698
:10840000FFF780BB07F1EC04314920461AF048FB26
:10841000304B29E63C490722204622F0E2F90028A9
:1084200000F0C78039490622204622F0DAF90028F8
:108430006ED108F1010303F4FC73E946ADEB030DC3
:10844000A8F1060202A9034642F2014C0DE0B679FA
:108450000D2E2CFA06FE02D81EF0010F04D103F1F6
:10846000010ECE545FFA8EF301305FFA80FE724542
:1084700004EB0306EBD807F1EC0420461AF010FBDE
:1084800020461AF039FD1C4B024620461A701AF09D
:1084900015FCFEF785F80B4907F108001AF03CFCC3
:1084A000CD46FFF72FBB00BFC0E20400506800209C
:1084B0005CE40400ACE40400B4E4040020600020A8
:1084C000E896002054E3040094E40400D8E4040097
:1084D000E0E404003D6400208CE204008CE404002D
:1084E000C0E4040004600020ECE40400F8E40400AC
:1084F00016600020B469002014600020FCE804002D
:10850000106000200D60002010E5040018E5040054
:10851000C7490522204622F064F9002800F033877D
:10852000C4490822204622F05CF980BB08F1FF33E1
:1085300023F00703E946ADEB030DA8F1080202A9F9
:10854000034642F2014C0DE0367A0D2E2CFA06FE5F
:1085500002D81EF0010F04D103F1010ECE545FFAD0
:108560008EF301305FFA80FE724504EB0306EBD810
:10857000B14B1B78002B00F01587B04907F10800BC
:108580001AF0CAFB07F1EC04CD46FFF7BBBAAC49C1
:108590000722204622F025F918BBA74B1B7883B190
:1085A000A64907F108001AF0B7FB07F1EC04FFF742
:1085B000A9BA07F1EC04A34920461AF071FA9E4BC0
:1085C00052E507F1EC049B4920461AF069FA9E4BEC
:1085D00007F1E00093ED000A02211AF031FBFFF7EA
:1085E000B8BA9A490622204622F0FBF8002851D159
:1085F00008F1010303F4FC73E946ADEB030DA8F1A8
:1086000006020DF1080A034642F201460EE089799E
:108610000D2926FA01FC02D81CF0010F05D103F147
:10862000010C0AF803105FFA8CF301305FFA80FC4A
:10863000624504EB0301EAD807F1EC0451462046F9
:108640001AF02EFA20461AF057FCC1B2804815F0F5
:10865000DDFA064620461AF031FB002E40F09887DE
:10866000754B0122514620461A701AF019FA20461D
:108670001AF042FC774B02461A8020461AF01EFB85
:10868000FDF78EFF744907F108001AF045FBCD464F
:10869000FFF738BA71490522204622F0A2F80028D7
:1086A00000F067866E490622204622F09AF80028DC
:1086B00040D108F1010303F4FC73E946ADEB030D6F
:1086C000A8F1060202A9034642F2014C0DE0B67978
:1086D0000D2E2CFA06FE02D81EF0010F04D103F174
:1086E000010ECE545FFA8EF301305FFA80FE7245C0
:1086F00004EB0306EBD807F1EC04204679601AF08E
:10870000CFF920461AF0FEFB514812F091FC0646C4
:1087100020461AF0D3FA002E40F03A8779682046B6
:108720001AF0BEF920461AF0EDFB4E4B204683EDC1
:10873000000AA3E74C490522204622F052F80028FF
:108740004AD04A490622204622F04BF8002853D14D
:1087500008F1010303F4FC73E946ADEB030DA8F146
:1087600006020DF1080A034642F201460EE089793D
:108770000D2926FA01FC02D81CF0010F05D103F1E6
:10878000010C0AF803105FFA8CF301305FFA80FCE9
:10879000624504EB0301EAD807F1EC045146204698
:1087A0001AF07EF920461AF0A7FBC1B2284812F051
:1087B00011FF064620461AF081FA002E40F0E886A6
:1087C000514620461AF06CF920461AF095FB284BCA
:1087D000024620461A7051E707F1EC042049204672
:1087E0001AF05EF91F4B07F1E00093ED000A022139
:1087F0001AF026FAFFF7ADB91E490522204621F0EE
:10880000F0FF002874D01C490722204621F0E9FF20
:1088100000287CD108F0F803E946ADEB030DA8F180
:1088200007020DF1080A034642F2014635E000BF97
:1088300020E5040028E504000D60002034E5040074
:1088400058E50400F8E404001060002060E504002E
:10885000B46900201660002054E3040068E50400B9
:1088600070E504000860002078E5040080E504005D
:108870001C60002088E5040090E50400C9790D29FA
:1088800026FA01FC02D81CF0010F05D103F1010CFE
:108890000AF803105FFA8CF301305FFA80FC62453E
:1088A00004EB0301EAD807F1EC04514620461AF024
:1088B000F7F820461AF020FB011E18BF0121CF480F
:1088C000002212F0B1FD064620461AF0F7F9002EFC
:1088D00040F05E86514620461AF0E2F820461AF033
:1088E0000BFBC74A031E18BF012320461370C5E6C1
:1088F00007F1EC04C34920461AF0D2F8C24B07F145
:10890000E00019780A221AF0FFF8FFF722B9BF49F0
:108910000622204621F065FF00284CD0BC490622E3
:10892000204621F05EFF00284ED108F1010303F438
:10893000FC73E946ADEB030DA8F106020DF1080A40
:10894000034642F201460EE089790D2926FA01FC20
:1089500002D81CF0010F05D103F1010C0AF8031035
:108960005FFA8CF301305FFA80FC624504EB03018F
:10897000EAD807F1EC04514620461AF091F8204657
:108980001AF0C0FAFCEEC07A9C48C7ED017A39793A
:1089900012F084FC064620461AF090F9002E40F0B2
:1089A000F785514620461AF07BF820461AF0A4FAC3
:1089B000984B02460DE707F1EC04974920461AF060
:1089C0006FF88F4BFFF750BB94490522204621F0EA
:1089D00008FF002848D092490622204621F001FFD6
:1089E000002850D108F1010303F4FC73E946ADEB14
:1089F000030DA8F106020DF1080A034642F20146F2
:108A00000EE089790D2926FA01FC02D81CF0010F2D
:108A100005D103F1010C0AF803105FFA8CF3013061
:108A20005FFA80FC624504EB0301EAD807F1EC042D
:108A3000514620461AF034F820461AF05DFAC1B2C9
:108A40006E4814F097FB064620461AF037F9002EC0
:108A500040F09E85514620461AF022F820461AF032
:108A60004BFA704B0246B4E607F1EC046849204625
:108A70001AF016F8674B07F1E00019780A221AF08D
:108A800043F8FFF766B868490522204621F0A9FEA1
:108A9000002846D065490722204621F0A2FE002882
:108AA0004ED108F0F803E946ADEB030DA8F107023B
:108AB0000DF1080A034642F201460EE0C9790D297C
:108AC00026FA01FC02D81CF0010F05D103F1010CBC
:108AD0000AF803105FFA8CF301305FFA80FC6245FC
:108AE00004EB0301EAD807F1EC045146204619F0E3
:108AF000D7FF20461AF000FA0146404813F078F8F4
:108B0000064620461AF0DAF8002E40F0418551461C
:108B1000204619F0C5FF20461AF0EEF9444B0246F4
:108B200057E607F1EC043E49204619F0B9FF3D4BEA
:108B300007F1E00019780A2219F0E6FFFFF709B8FB
:108B40003C490622204621F04CFE002846D03A49F6
:108B50000722204621F045FE002871D108F0F803D5
:108B6000E946ADEB030DA8F107020DF1080A034633
:108B700042F201465FFA80FC624504EB03010FD923
:108B8000C9790D2926FA01FC02D81CF0010F05D184
:108B900003F1010C0AF803105FFA8CF30130E9E7E6
:108BA00007F1EC045146204619F07AFF20461AF0EE
:108BB000A3F941B2114812F0BDF9064620461AF059
:108BC0007DF8002E40F0E4845146204619F068FFFD
:108BD00020461AF091F9194B0246FAE507F1EC0428
:108BE0001249204619F05CFF114B07F1E00019789B
:108BF0000A2219F089FFFEF7ACBF00BFB46900205C
:108C00003C64002080E504001C60002098E504001E
:108C1000A0E504000C60002090E50400A8E5040035
:108C2000B0E504001D600020B8E50400C0E50400C4
:108C30001A600020C8E50400D0E504001B60002095
:108C40009E490622204621F0CCFD002848D09C49B0
:108C50000822204621F0C5FD002850D108F1FF333D
:108C600023F00703E946ADEB030DA8F108020DF16F
:108C7000080A034642F201465FFA80FC944504EB81
:108C800003010FD2097A0D2926FA01FC02D81CF043
:108C9000010F05D103F1010C0AF803105FFA8CF300
:108CA0000130E9E707F1EC045146204619F0F8FEDF
:108CB00020461AF021F9C1B2824812F01FFB064685
:108CC000204619F0FBFF002E40F0628451462046FA
:108CD00019F0E6FE20461AF00FF97B4B024678E5C4
:108CE00007F1EC047949204619F0DAFE784B07F1D8
:108CF000E00019780A2219F007FFFEF72ABF75492C
:108D00000722204621F06DFD00284BD07249072232
:108D1000204621F066FD002853D108F0F8036E4686
:108D2000ADEB030DA8F1070202A9034642F2014E82
:108D30005FFA80F8904504EB030C11D29CF807C051
:108D4000BCF10D0F2EFA0CF802D818F0010F05D166
:108D500003F1010801F803C05FFA88F30130E7E787
:108D600007F1EC042046796019F09AFE20461AF0CB
:108D7000C3F88046204619F0A1FFB8F1030F00F3B5
:108D800078827968204619F08BFE20461AF0B4F8F4
:108D9000524B024620461A7019F090FFFDF700FC76
:108DA000FEF791BE07F1EC044549204619F078FE24
:108DB000454B07F1E00019780A2219F0A5FEFEF7ED
:108DC000C8BE47490622204621F00BFD002800F0CE
:108DD000938244490C22204621F003FD78BBA8F180
:108DE000050323F007036E46ADEB030DA8F10C025B
:108DF00002A9034642F2014E5FFA80F8904504EB67
:108E0000030C11D29CF80CC0BCF10D0F2EFA0CF81B
:108E100002D818F0010F05D103F1010801F803C0D1
:108E20005FFA88F30130E7E707F1EC04204619F018
:108E300037FE20461AF060F82B4AFFF750BA2B494C
:108E40000B22204621F0CDFC002800F009822849A1
:108E50000B22204621F0C5FC00284DD1A8F10403C7
:108E600023F007036E46ADEB030DA8F10B0202A938
:108E7000034642F2014E5FFA80F8904504EB030C82
:108E800011D29CF80BC0BCF10D0F2EFA0CF802D8D1
:108E900018F0010F05D103F1010801F803C05FFAD2
:108EA00088F30130E7E707F1EC04204619F0F8FDFC
:108EB00020461AF021F80F4AFFF711BAD8E504004E
:108EC000E0E50400B46900203F640020D0E5040020
:108ED0001B600020ECE50400F4E5040018600020AD
:108EE0001CE6040024E604001960002034E60400B7
:108EF00040E604003E640020E2490A22204621F0B8
:108F000070FC002800F03B83DF490822204621F056
:108F100068FC8146002800F0BD820722DB4920461C
:108F200021F05FFC0246002800F02083D8490B2284
:108F3000204621F056FC0646002800F05B820A22FB
:108F4000D449204621F04DFC0246002800F0EC8177
:108F50000922D149204621F044FC0246002840F075
:108F6000DA817860CD49CE4801F0C8FFCC4907F1DD
:108F7000140019F037F8CA4802F07AF87A68C9493B
:108F8000C74801F0BBFFC64907F1200019F02AF8D5
:108F9000C34802F06DF8C44907F12C0019F080FDB8
:108FA00007F1140107F12C0019F002FF2C2119F030
:108FB0005BFFBE4B044693ED000A07F13800022127
:108FC00019F03EFE07F13801204619F0F1FE2C2180
:108FD00019F04AFFB64B0A221978044607F14400FB
:108FE00019F0C6FD07F14401204619F0E1FE2C21DD
:108FF00019F03AFFAF4B0A221978044607F15000E6
:1090000019F082FD07F15001204619F0D1FE2C2104
:1090100019F02AFFA84B044693ED000A07F15C0003
:10902000022119F00DFE07F15C01204619F0C0FE87
:109030002C2119F019FFA14B0A221988044607F1C7
:10904000680019F095FD07F16801204619F0B0FE9F
:109050002C2119F009FF9A4B044693ED000A07F101
:109060007400022119F0ECFD07F17401204619F09B
:109070009FFE2C2119F0F8FE924B0A221978044623
:1090800007F1800019F040FD07F18001204619F03A
:109090008FFE2C2119F0E8FE8B4B0A22197804462A
:1090A00007F18C0019F030FD07F18C01204619F012
:1090B0007FFE2C2119F0D8FE844B0A221978044631
:1090C00007F1980019F020FD07F19801204619F0EA
:1090D0006FFE2C2119F0C8FE7D4B0A221978044638
:1090E00007F1A40019F010FD07F1A401204619F0C2
:1090F0005FFE2C2119F0B8FE764B0A22197804463F
:1091000007F1B00019F000FD07F1B001204619F099
:109110004FFE2C2119F0A8FE6F4B0A221978044645
:1091200007F1BC0019F0F0FC07F1BC01204619F072
:109130003FFE2C2119F098FE684B0A22197804464C
:1091400007F1C80019F014FD07F1C801204619F015
:109150002FFE2C2119F088FE614B0A221978044653
:1091600007F1D40019F0D0FC07F1D401204619F022
:109170001FFE2C2119F078FE5A4B0A22197804465A
:1091800007F1E00019F0F4FC07F1E001204619F0C6
:109190000FFE2C2119F068FE07F1EC040646524937
:1091A000204619F07DFC2146304619F001FE2C21A5
:1091B00019F05AFE07F1200119F0FAFD014607F1F6
:1091C000080019F083FD204619F078FD07F1E00052
:1091D00019F074FD07F1D40019F070FD07F1C80013
:1091E00019F06CFD07F1BC0019F068FD07F1B00043
:1091F00019F064FD07F1A40019F060FD07F1980073
:1092000019F05CFD07F18C0019F058FD07F18000A2
:1092100019F054FD07F1740019F050FD07F16800D2
:1092200019F04CFD07F15C0019F048FD07F1500002
:1092300019F044FD07F1440019F040FD07F1380032
:1092400019F03CFD07F12C0019F038FD07F1200062
:1092500019F034FD07F1140019F030FDFEF752BC8F
:1092600007F1EC042149204619F01AFC204BFEF7C7
:10927000FBBE204907F1080019F04EFDB546FEF788
:1092800041BC00BF4CE6040058E604007CE6040044
:1092900084E60400ACE60400B8E60400C0E2040082
:1092A00050680020E8E20400C4E604009C6000204E
:1092B0000D60002014600020106000201660002067
:1092C000086000201C6000200C6000201D60002051
:1092D0001A6000201B6000203F6400203C640020D6
:1092E000186000203E6400206064002024E6040032
:1092F00019600020FCE5040007F1EC04BF4920469A
:1093000019F0CEFBBE4B07F1E00019780A2219F0E4
:10931000FBFBFEF71EBCBB4907F1080019F0FCFC83
:1093200007F1EC04FEF7EEBBB749B84801F0E6FDE3
:1093300007F1EC04B649204619F0B2FB07F1E00052
:10934000B24918F04FFE07F1E001204619F030FD58
:10935000014607F1080019F0B9FC07F1E00019F027
:10936000ADFC204619F0AAFCA84801F081FEFEF7EA
:10937000C9BB07F1EC04A749204619F091FBA64BA5
:109380001988FEF772BE07F1EC04A449204619F0D3
:1093900087FBA34B07F1E00019780A2219F0B4FB10
:1093A000FEF7D7BB07F1EC042046796019F078FB93
:1093B000204619F0A7FD9B4811F0E0F9064620462B
:1093C00019F07CFC002E40F0E3807968204619F00B
:1093D00067FB204619F096FD934B204683ED000A6B
:1093E00019F06CFC914907F1080019F095FCCD4685
:1093F000FEF788BBA8F1040323F00703E946ADEBB1
:10940000030DA8F10B080DF1080A424650463146FB
:1094100020F0B8FA3346324642F20140DEB2B0459F
:1094200004EB02010CD9C97A0D2920FA01F601D802
:10943000F60703D4561C0AF80210F2B20133EDE726
:1094400071497B4801F09CFB40220021794820F0C3
:1094500099FA42465146774820F06CFA6A496B48BF
:10946000012201F04BFD002800F0C1805146674801
:1094700018F0C6FB654801F0FBFD5046FDF7B6F855
:109480006A4907F1080019F047FC07F1EC04CD46E2
:10949000FEF738BB08F1FF3323F007036E46ADEB50
:1094A000030DA8F108080DF1080A42464946504646
:1094B00020F068FA4B46494642F201425FFA83FCCB
:1094C000C44504EB01000FD2007A0D2822FA00FCFB
:1094D00002D81CF0010F05D101F1010C0AF80100BE
:1094E0005FFA8CF10133E9E7DFF87881524950489F
:1094F0000024C8E90044C8E9024401F041FB4E4998
:109500004248012201F0FAFC00283EF4F1AD514638
:109510003E4818F075FB3D4801F0AAFD46493B481E
:10952000224601F0EBFC394801F0CEFDB8B1DFF87E
:10953000DC90484601F098FB20B1484601F0D0FB92
:1095400008F804000134102CF3D1304801F090FDEC
:10955000364907F1080019F0DFFBFEF774BD374903
:1095600007F1080019F0D8FBFEF76DBD3249274816
:1095700007F1EC0401F0C2FC31492046DCE607F1BA
:10958000EC043049204619F08BFA2F4BFEF76CBDE6
:109590002E49204619F084FA86EAE6732C4AA3EB9A
:1095A000E6739BB20C2101FB0321204619F000FC5D
:1095B000014607F1080019F089FB204619F07EFBEF
:1095C000CD46FEF79FBA234B1E70FCF7E9FF174903
:1095D00007F1080019F0A0FB00961F491F4801235E
:1095E0004FF4806219F040FDCD46FEF78BBA1C495E
:1095F00007F1080019F090FB47E700BFF4E504000D
:1096000018600020D0E60400E8E204005068002062
:1096100084E6040060E504001660002018E50400FC
:1096200014600020B46900201060002054E304009E
:10963000006C002070640020D4E2040064E60400A2
:1096400058E6040040E604003E64002004E50400FF
:10965000F06600200D6000206179020094970020E0
:1096600090E604006064002010B5074B044640F803
:10967000183B0CF0D3FA2046044B40F8083B0EF0A0
:10968000DBFA204610BD00BF68F00400D4EF0400F0
:1096900010B5044B044640F8083B0EF0CDFA2046C6
:1096A00010BD00BFD4EF040010B5074B044640F8CE
:1096B000183B0CF0B3FA2046044B40F8083B0EF080
:1096C000BBFA204610BD00BFBCF00400D4EF04007C
:1096D0002DE9F04F2DED028BBF4EADF5737D337844
:1096E00002AFABB9BD4B1B78002B37D1BC4A137806
:1096F000002B6BD1042018F0ABF90446002800F0D1
:10970000B08007F57177BD46BDEC028BBDE8F08FE8
:10971000B448B54D14F08AFAB44BB54A1B6890FBB7
:10972000F3F101FB130302EB830393ED000AAD4851
:1097300011F024F82B68012B00F07B8201332B60A1
:1097400014F070FEAB4B0246A6481A6014F078FA8B
:1097500000233370A14B1B78002BC7D0A14807F121
:10976000DC0514F06DFA4FF000030021F1222846C9
:10977000337020F007F90021F72207F5E87020F098
:1097800001F998480022294612F088FC0646002874
:1097900000F0A380984B1B78002B00F05382012B24
:1097A00000F0A383022B00F0C4838F4D934B8B49B1
:1097B0001A7800230B702B60002A40F02F82894812
:1097C00012F064FF864A1378002B93D04FF0000309
:1097D000137014F027FE8A4E8A4A306007CA07F5D4
:1097E000327A554603C5DFF810822A80002107F23D
:1097F000D220ED2220F0C6F898F80030DFF8209251
:10980000002B00F0EF81012B00F0F682022B00F01C
:109810003783D9F800301C4623B97B4B1B78002BCB
:1098200040F02D82704D7948F72251460FF0DEFA54
:10983000724B1B7800222A60002B40F0B381674CEA
:109840007349684800230422237013F063FC6548C1
:1098500012F01CFF042018F0FBF8044600287FF4E7
:1098600050AF01466B480BF0F9FF6B480EF02CFF30
:1098700085B245B1684E2146013430460EF042FFB4
:10988000A1B28D42F8D863480CF0C6F8554812F0E2
:1098900073F90624032018F0FDF8013C642014F04D
:1098A000CDFD14F0FF04F5D12146032018F02EF869
:1098B0002146022018F02AF80521042018F026F885
:1098C0002046042118F022F8FCF7FCFC07F571771C
:1098D000BD46BDEC028BBDE8F08F504B1B78002BD2
:1098E00000F0A0802B78002B00F0A282012B40F02A
:1098F0009980C5F1100102462B46796107F5327A4D
:1099000006E00132D2B207F5E671994200F07A839F
:10991000597B93F80EC093F8099093F80A8093F856
:1099200005E0F8650E46002166F307015E783866AB
:1099300034466CF30F217E6993F80FC078666CF3A0
:10994000174106EB030C5FFA8CFCDE7915F80CB0BE
:1099500093F806C0B8666BF31F61C7F8D4120021F4
:1099600069F3070168F30F2193F80B8093F80290D5
:1099700068F3174193F80C8068F31F614FF00008FB
:109980006EF307086CF30F28C7F8D0124FF0000CE5
:10999000197A66F3174864F3070CDE7861F31F68E1
:1099A00069F30F2C1979C7F8CC8266F3174C61F371
:1099B0001F6CC7F8C8C2DAF8001010330029A0D114
:1099C00080459ED1D7F8D04284429AD1D7F8D4426C
:1099D000844296D197E700BF4C680020006B0020BE
:1099E000FC6B0020B4690020A86900209060002072
:1099F000FCE80400AC690020B06900200D60002084
:109A0000F46B002004E804003D6400201066002090
:109A1000D562020024900020E48900201960002013
:109A2000F86B00202946F12207F5E8701FF082FF4D
:109A3000DFF8C08398F80030002B00F0AC81012BD8
:109A400000F07082022B00F0C182D64BD64D1B78FD
:109A5000002B3FF4ABAED54907F5327019F020F872
:109A60000A22296807F15C0019F082F807F15C010D
:109A700007F5327019F09CF907F1200901464846B4
:109A800019F028F807F15C0019F018F907F53270A1
:109A900019F014F9C64907F5327019F001F80022DF
:109AA000C448012111F0AEFC022107F15C0019F05D
:109AB000C7F807F15C0107F5327019F079F9BE4972
:109AC00019F0A2F907F12C030146184608EE103AE6
:109AD00019F000F807F15C0019F0F0F807F53270A2
:109AE00019F0ECF8B54907F5327018F0D9FFB14814
:109AF00011F05CFF022107F15C0019F0A1F807F1F9
:109B00005C0107F5327019F053F907F13C0B01467F
:109B1000584618F0DFFF07F15C0019F0CFF807F5A1
:109B2000327019F0CBF8A64907F5327018F0B8FF7B
:109B3000A048002113F050FB022107F15C0019F04E
:109B40007FF807F15C0107F5327019F031F99D4992
:109B500019F05AF907F14C03014618461E4618F051
:109B6000B9FF07F15C0019F0A9F807F5327019F098
:109B7000A5F898F80030002B00F07081012B00F060
:109B8000A084022B00F02B85304619F097F8584638
:109B900019F094F818EE100A19F090F8484619F0E8
:109BA0008DF803E6884A894B1278824803EB8203DA
:109BB00093ED000A10F0E2FD054600283FF43FAEA9
:109BC0008349844817F0CAFF85EAE573A3EBE57380
:109BD000814980489BB203EB430301EB830118F0FA
:109BE0003DF82CE67D4907F5E87018F059FFD9F8E3
:109BF00000307949002BB8BF5B4203EB430301EB14
:109C0000830107F5E87019F0D3F80146714818F0A0
:109C100025F807F5E87019F051F8FAE56A4A6B4B38
:109C20001278644803EB820393ED000A10F0A6FD5E
:109C3000C5E514F0F7FB6A4B6A4A19682B68401AAD
:109C400010607BE56549584D07F5327018F028FF24
:109C500086EAE673A3EBE6735F499BB203EB43032B
:109C600001EB830107F5327019F0A2F8014659485B
:109C700017F0F4FF07F5327019F020F896E5DFF8D9
:109C800060B1584BDBF8002018683368464D4749EF
:109C900002449B1A07F5E8707B6118F001FF296800
:109CA0000A22013107F1DC0018F062FF07F1DC0144
:109CB00007F5E87019F07CF807F1200901464846DD
:109CC00018F008FF07F1DC0018F0F8FF07F5E8705E
:109CD00018F0F4FF444907F5E87018F0E1FEDBF8EE
:109CE000003031680A22C91A07F1DC0018F074FF4D
:109CF00007F1DC0107F5E87019F05AF83B4919F053
:109D000083F807F12C020146104608EE102A18F0DD
:109D1000E1FE07F1DC0018F0D1FF07F5E87018F05C
:109D2000CDFF334907F5E87018F0BAFE7B69296862
:109D3000B3FBF1F10A2207F1DC0018F04DFF07F147
:109D4000DC0107F5E87019F033F8284919F05CF8E0
:109D500007F13C0B0146584618F0BCFE07F1DC0049
:109D600018F0ACFF07F5E87018F0A8FF98F800307D
:109D7000002B65D0012B00F09683022B00F0B483FA
:109D8000584618F09BFF18EE100A18F097FF484647
:109D900018F094FF47E507F5E871F7220D4806F043
:109DA000E3FE52E63D640020A8690020ECE60400D2
:109DB00008E70400B469002034E7040038E7040031
:109DC00060E704007CE7040014600020FCE8040065
:109DD000BCE70400A87C0020F066002004E5040035
:109DE000F06B0020EC6B002080E7040098E7040093
:109DF0009CE70400B0690020784907F5E87018F086
:109E00004FFED9F800307649002BB8BF5B4203EB18
:109E1000430301EB830107F5E87018F0C9FF014621
:109E2000704817F01BFF07F5E87018F047FFF0E4E3
:109E3000F02207F1DD0107F5E8701FF07BFDF7E583
:109E40004946694817F00AFF18EE101A664817F0DD
:109E500005FF5946644817F001FF91E749466248FB
:109E600017F0FCFE18EE101A5F4817F0F7FE59467F
:109E70005D4817F0F3FE31465B4817F0EFFE83E6CE
:109E8000802207F5E87000211FF07CFDD9F8003032
:109E90005349002BB8BF5B4203EB430301EB830143
:109EA00007F1DC0018F016FE504907F1DC0018F04D
:109EB000ABFF014607F15C0018F00CFE07F1DC0077
:109EC00018F0FCFE7A6E0023013207F5E87107F105
:109ED0005C0018F0F7FF07F5E871504620F044FCED
:109EE00007F15C0018F0EAFE93E43C49404D07F5A9
:109EF000327018F0D5FD86EAE673A3EBE6733849B5
:109F00009BB203EB430301EB830107F5327018F0BA
:109F10004FFF0146334817F0A1FE07F5327018F0E5
:109F2000CDFE43E407F5E871F7222E4818F030FB28
:109F30008BE5304BDFF8C8902D4D93E8070007F50F
:109F4000327303C300211A8007F2D220ED221FF0E2
:109F500019FD802207F15C0000211FF013FDD9F8E4
:109F600000301F49002BB8BF5B4203EB430301EBFA
:109F7000830107F14C0018F0ADFD1C4907F14C00BE
:109F800018F042FF014607F13C0018F0A3FD07F16D
:109F90004C0018F093FE7A6C0023013207F15C014B
:109FA00007F13C0018F08EFF07F15C0107F53270F5
:109FB00020F0DAFB07F53271F7220F480EF016FF9A
:109FC00007F13C0018F07AFEFFF7F0BB07F5E871E7
:109FD000F7220A480FF094F837E500BF04E50400C3
:109FE000F0660020E8960020A87C002020F90400FC
:109FF000A869002004E8040010660020F86500202D
:10A00000F86B0020023A12F0FF033B603FF4CDAB47
:10A01000CA4CD7F8E110D7F8E520D7F8E930D7F8DF
:10A02000DD0094F814C0D4F80C9007F12C0608EE6B
:10A03000106A0FC6002307F14C02C7E91333C7E9C2
:10A04000153361681646E846BCF1000F00F0DA826D
:10A0500079611BF067FC7969002840F0D382B74C26
:10A060004A46A36950461BF07FF8B54B3B6210206F
:10A070007862E16907F12002082350461BF0B4F82A
:10A08000002840F0BF82AD4B9B68994506D0AD4992
:10A0900050461BF0CDF8002840F0B48218EE103A7C
:10A0A0000FCB07F13C0B4FF0000C07F15C0484E888
:10A0B0000F00CBE900CC5B46CBE902CC1022214655
:10A0C00050461BF0CDF8034648B907F11C02CDE914
:10A0D00000B2014607F15C0250461BF0FFF83368FE
:10A0E000DBF800209A42C5467FF45FAB3A6C3B6DCB
:10A0F0009A427FF45AAB7A6C7B6D9A427FF455ABEF
:10A10000BA6CBB6D9A427FF450AB8C4CD7F8F1100F
:10A11000D7F8F930D7F8ED00D7F8F52094F814C047
:10A1200018EE106A0FC6E36861681E46E846BCF187
:10A13000000F3DD079611BF0F5FB002838D17F4C32
:10A140007969A369324650461BF00EF87C4B3B629E
:10A1500010207862E16907F12002082350461BF0C5
:10A1600043F828BBA3689E4204D0764950461BF0B2
:10A170005FF8E8B918EE103A0FCB07F15C0484E8F9
:10A180000F00214600245B46CBE90044CBE90244A2
:10A19000102250461BF064F8034648B907F11C0230
:10A1A000CDE900B2014607F15C0250461BF096F87B
:10A1B0005846C54620F00DFB80465FFA88F3F7222B
:10A1C000002107F5E8701C461FF0DCFBB8F1000F1A
:10A1D00007D0621ED2B20132594607F5E8701FF06F
:10A1E000A9FB22460232104607F5E8735FFA80F9B0
:10A1F00007F5E87043443A2100F8081020220021B6
:10A2000039615A704FF02108C7F814B008F10C02F8
:10A2100008F10903DBB2D2B215F803E0AA5C15F825
:10A220000830BB60002362F3070308F10102D2B2D9
:10A2300008F10D01AA5C7A60C9B208F10E02D2B22F
:10A24000695CAA5C61F30F2362F3174308F10F0204
:10A25000D2B208F1080CAA5C5FFA8CFC18EE106A06
:10A2600008F10A0115F80C4062F31F63C9B2F360EC
:10A27000002315F801C064F307036EF30F2308F100
:10A2800004006CF3174308F10B0CC0B25FFA8CFCAE
:10A2900008F1060115F800B015F80CC008F105002A
:10A2A000C9B2C0B26CF31F63695CF960285CB3602B
:10A2B0000023F9686BF3070360F30F23B86808F114
:10A2C000020261F31743002108F1070E60F3070152
:10A2D000D2B27868AA5C08F1030C5FFA8EFE60F3D4
:10A2E0000F215FFA8CFC154815F80EE015F80CC02C
:10A2F000C46862F31741027DFA606EF31F636CF36A
:10A300001F617360FB68316008F110084168B96033
:10A310005FFA88F80646EB46002B4AD01BF002FB9A
:10A32000002846D1B968B369224650461AF01CFF8E
:10A33000034838624FF0100C06E000BFB064002004
:10A340005064002040640020F169C7F824C008234D
:10A3500007F1200250461AF047FF50BBB3689C42F9
:10A3600004D0AA4950461AF063FF10BB18EE103A09
:10A370000FCB7E694FF0000C07F15C0484E80F00FE
:10A38000C6E900CC3346102221465046C6F808C024
:10A39000C6F80CC01AF064FF58B97A6907F11C03BB
:10A3A000CDE900230146034607F15C0250461AF04E
:10A3B00095FF09F104037E693C6996F800C05FFAD5
:10A3C00083FE07F5E87309F1010003F809C0C0B284
:10A3D00007F5E87396F801C003F800C009F102021E
:10A3E000D2B207F5E873B078985409F10301C9B205
:10A3F00007F5E873F078585409F1050207F5E8739A
:10A4000007F5E87C307903F80E00D2B209F10601B5
:10A4100070790CF80200C9B209F10703B0790CF8A1
:10A420000100DBB209F10802F0790CF80300D2B2A6
:10A4300009F10901307A0CF80200C9B209F10A03E6
:10A44000707A0CF80100DBB209F10B02B07A0CF85B
:10A450000300D2B209F10C01F07A0CF80200C9B283
:10A4600009F10D03307B0CF80100DBB2717B013484
:10A4700009F10E02D2B23C610CF8031009F10F038E
:10A48000DBB2B17B0CF80210F27B0CF803203A68C7
:10A49000E3B209F110099A42DD465FFA89F93FF605
:10A4A000B5AEFFF7C5BA4946594817F0D7FB18EEC5
:10A4B000101A574817F0D2FB5946554817F0CEFBF3
:10A4C0005EE44946524817F0C9FB18EE101A50488E
:10A4D00017F0C4FB59464E4817F0C0FB31464C48B4
:10A4E00017F0BCFBFFF750BB8022214607F15C0050
:10A4F0001FF048FA494607F5E87018F0EBFA4549AD
:10A5000007F5E87018F080FC0146484618F0DEFBBD
:10A5100007F5E87018F0D2FBD9F80820234607F1B8
:10A520005C010132484618F0CDFC07F15C01504651
:10A5300020F01AF98022214607F1DC001FF022FAF0
:10A5400007F5E87318EE101A184618F0C3FA07F565
:10A55000E87318462F4918F057FC014618EE100A08
:10A5600018F0B4FB18EE106A07F5E873184618F0F7
:10A57000A5FBB268234618EE100A013207F1DC0190
:10A5800018F0A0FC07F1DC01504620F0EDF8802225
:10A59000214607F5E8701FF0F5F9594607F14C0020
:10A5A00018F098FA1B4907F14C0018F02DFC0146F1
:10A5B000584618F08BFB07F14C0018F07FFBDBF8D6
:10A5C000082007F5E87158462346013218F07AFC56
:10A5D00007F5E871504620F0C7F8FFF7D1BB4946B0
:10A5E0000D4817F03BFB18EE101A0B4817F036FB1E
:10A5F0005946094817F032FB3146074817F02EFB41
:10A60000FFF7C2BA07F13C0B69E500BF40640020C8
:10A61000E896002020F9040010660020F0B5B54847
:10A62000F7B006F057FA88B9B34817F061FF002871
:10A630004BD1B2480EF03AFB002840F08580B04B79
:10A640001B78002B40F0C18077B0F0BDAD4BA94C1A
:10A65000002664201E7013F0F1FE204606F03AFA40
:10A66000D022C3B2934238AD28BF134631462846A4
:10A670001E461FF087F92946D022204617F090FC8D
:10A6800001E006F04DFA204606F024FA0346204683
:10A69000002BF6D1BDF8E02045F241439A4200F08C
:10A6A0001881994B1B78002B40F0F380974B1C7856
:10A6B000002C00F0D680964B29461878FCF7B4FEA3
:10A6C0008D4817F015FF0028B3D08E4B8A4C01221D
:10A6D00064201A7013F0B2FE204617F009FFD02252
:10A6E000C3B2934238AD28BF1346284600211E4608
:10A6F0001FF048F92946D022204617F051FC01E00E
:10A7000017F0FEFE204617F0F3FE03462046002B0E
:10A71000F6D1BDF8E02045F241439A4200F0C880EE
:10A72000794B1B78002B40F0BE80784B1C78002CB6
:10A7300064D0774B29461878FCF776FE6F480EF008
:10A74000B5FA00283FF47BAF6E4B6C4E02224FF4FB
:10A750007A701A7013F072FE30460EF0A7FAD0220B
:10A760000746002104A81FF00DF904AC38AD3046AF
:10A770000EF0ECFAC0B2FF2818BF20700134AC42D2
:10A78000F5D15E4E01E00EF0E1FA30460EF08EFAA1
:10A7900004463046002CF6D1BDF8102045F2414366
:10A7A0009A4200F0CB80584B1B78002B76D1574B48
:10A7B0001C78002C3AD0564B04A91878FCF734FECC
:10A7C0004F4B1B78002B3FF43FAF524C13F02AFE47
:10A7D000226842F20F73801A98427FF635AF4E4AD4
:10A7E0004E4B12784E4803EB820393ED000A0FF0B4
:10A7F000C5FF13F017FE206077B0F0BD4949484807
:10A80000042212F087FC48494548042212F098FCC3
:10A8100013F008FE454B02461A6041482346324673
:10A82000294612F023F8424B186002E73D493C48A4
:10A83000042212F06FFC3C493948042212F080FCDB
:10A8400013F0F0FDFAB2394B0146D02A19603448B2
:10A85000234628BFD02204A912F008F8344B186010
:10A86000EDE630492E48042212F054FC2E492C48C3
:10A87000042212F065FC13F0D5FD2C4B02461A6041
:10A88000274823463246294611F0F0FF284B18602E
:10A89000CAE62849174817F027FA07E72549264846
:10A8A00017F022FA83E72349134817F01DFA3CE713
:10A8B000AB782B2B7FF434AF3246294604A8FDF742
:10A8C00099F804A90C4817F077F904A818F0F6F9DC
:10A8D000AFE6AB782B2B7FF4E4AE3246294604A8D2
:10A8E000FDF788F804A9034817F066F904A818F0E2
:10A8F000E5F999E6A87C0020E8960020F86500209C
:10A900000D600020B06900203D6400201960002027
:10A910003E640020AC69002014600020FCE80400C4
:10A92000B4690020C9620200E1620200F06B0020FD
:10A93000F86B0020ECE70400106600209DF8123050
:10A940002B2B7FF430AF2146F72228461FF01AF850
:10A9500004A901A8D022FDF74DF82946234601A8F5
:10A96000F72218F0AFFA01A818F0A8F92946F72243
:10A9700001480EF03BFA62E610660020704700BF07
:10A9800010B5044618F044FB204610BD38B50A4BFC
:10A9900004460D46442240F80C3B00211EF0F2FF15
:10A9A0000023A560237104F15401012014F028F85C
:10A9B0002065204638BD00BF04EB040070B5044696
:10A9C0000E46006D4FF0FF3114F092FA257955B91B
:10A9D0008EB1A660314604F10C0005F0D5FBB0FA4B
:10A9E00080F56D0925710023206D1A46194613F074
:10A9F00057FE284670BDA668002EF4D0EAE700BFD7
:10AA000010B504464FF0FF31006D14F071FA237950
:10AA10003BB90023206D1A46BDE81040194613F0DB
:10AA20003FBE0023237104F10C0005F0C1FCF0E7E8
:10AA300070B505464FF0FF31006D14F059FA2B79CF
:10AA400093B1002305F10C062B71304605F0B0FCE4
:10AA5000044680B10023286D1A46194613F020FEE3
:10AA6000B4FA84F0400970BDA96805F10C0004F047
:10AA70002BFF0446EEE7A968304604F025FF0446A4
:10AA80000028E7D1A968304605F07EFB044600287F
:10AA9000E0D101232B71DDE730B5044695B00D46BA
:10AAA000006D4FF0FF3114F023FA294601AA04F19A
:10AAB0000C0004F0DDFC002302461946206D14460C
:10AAC0001A4613F0EDFDB4FA84F0400915B030BD1C
:10AAD0002DE9F04F83B00B7800AF2F2B78600CBFBF
:10AAE0004C1C0C4606460D46006D4FF0FF3114F02D
:10AAF000FFF906F10C084FF0000917E0ADEB030D6C
:10AB000068468B4500F8019BEA4601DD1EF03AFFDE
:10AB100029465A4650461EF00DFF5146404603F066
:10AB20000DFD08B1113028D10134B54620462F2142
:10AB30001FF029FEA0EB050B0BF108036E46002168
:10AB4000044623F007035A460028D7D12946404639
:10AB500003F0F4FC60B901247A680023106D1946F3
:10AB60001A4613F09DFD20460C37BD46BDE8F08F18
:10AB7000113014BF00240124EEE70024B546EBE7B2
:10AB800038B504460D46006D4FF0FF3114F0B0F9B2
:10AB9000294604F10C0004F0C3FC002302461946C8
:10ABA000206D14461A4613F07BFDB4FA84F0400978
:10ABB00038BD00BF00207047036970B504460D46DC
:10ABC000186D4FF0FF31164614F092F9237D4BB10A
:10ABD000002522690023106D19461A4613F060FD06
:10ABE000284670BD2069A1692A4633460C3003F01F
:10ABF000F3FF20EAE075ECE770B50369044682B024
:10AC0000186D4FF0FF3114F073F9267D4EBB2069AB
:10AC1000A1690C3004F01EFC05462069A1698DF87D
:10AC2000076001230DF107020C3004F05FFB0028E0
:10AC30002069A169C8BF9DF807602A4600F10C0091
:10AC40004FF00003D8BF4FF0FF3604F0D3FB22696A
:10AC50000023106D19461A4613F022FD304602B04B
:10AC600070BD4FF0FF36F2E738B5036904464FF088
:10AC7000FF31186D14F03CF9237D4BB1002522699A
:10AC80000023106D19461A4613F00AFD284638BDF8
:10AC90002069A1690C3004F0DFFB05462069A16939
:10ACA0000C3004F0D7FB2D1AE9E700BF036910B59B
:10ACB00004464FF0FF31186D14F01AF9237D43B1AB
:10ACC00022690023106DBDE810401A46194613F0A2
:10ACD000E7BC2069A1690C3004F0E4F9F0E700BF9B
:10ACE00030B50369044683B0186D4FF0FF3114F09E
:10ACF000FFF8257D55B122690023106D19461A46CB
:10AD000013F0CEFC4FF0FF3003B030BD2069A169D5
:10AD10000DF1070201230C3004F0E8FA23692A46FA
:10AD200004462946186D2B4613F0BAFC002CCCBF04
:10AD30009DF807004FF0FF3003B030BD30B5036819
:10AD4000164A5B6883B093428DF807101ED10369E1
:10AD500004464FF0FF31186D14F0CAF8237D53B14B
:10AD6000002522690023106D19461A4613F098FC3D
:10AD7000284603B030BD2069A1690C3001230DF1D4
:10AD8000070203F029FF20EAE075EAE701220DF14E
:10AD9000070198470546284603B030BDB9AB02000D
:10ADA00030B4074C016100224FF47A75C0E90042CB
:10ADB0008560C0E9062230BC027580F8202070470B
:10ADC0001CEB0400F0B5836997B004460D461646A7
:10ADD00093B1077D006919460C30002F45D003F070
:10ADE000ADFDA06913F060FBE0690023A36108B129
:10ADF00013F05AFB0023E361206903AA0C302946B3
:10AE000004F036FB98B99DF80C30112B34D02C206F
:10AE100013F030FB0146A06130B120692A460C30A6
:10AE200003F064FD002839D0002017B0F0BD0230D7
:10AE3000FAD1012EF8D1382013F01CFB0146A06195
:10AE40000028F1D0206940F203130C302A4603F0A9
:10AE500011FE06460028E7D12069A1690C300223C3
:10AE6000324604F0C7FA267509E004F09DF9A0699E
:10AE700013F01AFBA761BFE7EEB1012E3AD02F21E4
:10AE800028461FF0D3FC203400B1451C294620463B
:10AE900040221FF0B8FC012017B0F0BD012323753C
:10AEA00028461FF096FC013013F0E4FA2946E061D1
:10AEB0001FF076FCE3E701233820019313F0DAFA60
:10AEC000019BA06101460028AED020692A460C30C3
:10AED00003F0D0FD0028A7D1012E02D00023237556
:10AEE000CDE72369A169024603F10C00022304F0B7
:10AEF00081FAF3E740F20313DEE700BF30B50369E0
:10AF000083B004460D46186D01924FF0FF3113F0E7
:10AF1000EFFF019A29462046FFF754FF21690023DD
:10AF200002461446086D1A46194613F0B9FB20462E
:10AF300003B030BD70B504460025C4E9065510487D
:10AF4000236182B0206084F820504FF47A700E465E
:10AF5000A0604FF0FF31186D65602575019213F008
:10AF6000C7FF019A31462046FFF72CFF22692B4686
:10AF7000106D29462A4613F093FB204602B070BD9F
:10AF80001CEB0400036970B504460D46186D4FF0C4
:10AF9000FF31164613F0ACFF237D4BB1002522692B
:10AFA0000023106D19461A4613F07AFB284670BD2F
:10AFB0002069A1692A4633460C3004F097F905460A
:10AFC000EDE700BF38B5036904460D46186D4FF034
:10AFD000FF3113F08DFF237D4BB100252269002343
:10AFE000106D19461A4613F05BFB284638BD2069E0
:10AFF000A1692A460C3004F0FDF9C543ED0FEDE7D9
:10B0000038B5036904464FF0FF31186D13F070FF37
:10B01000237D4BB1002522690023106D19461A4685
:10B0200013F03EFB284638BD2069A1690C3004F0BE
:10B0300011FA0546EFE700BF38B5036904464FF043
:10B04000FF31186D13F054FF237D4BB100252269A9
:10B050000023106D19461A4613F022FB284638BD0E
:10B060002069A1690C3004F0F7F90546EFE700BF4D
:10B07000036970B504464FF0FF31186D13F038FFC7
:10B08000A16981B12069257D0C30ADB103F056FC7A
:10B09000A06913F009FAE0690023A36108B113F075
:10B0A00003FA0023E36122690023106DBDE87040BC
:10B0B0001A46194613F0F4BA04F076F8A06913F0B2
:10B0C000F3F9A561EFE700BF8069003818BF0120E0
:10B0D000704700BF2DE9F04F95B00B6906460C464E
:10B0E000186D4FF0FF3100AF904613F001FF0023C1
:10B0F0002069337586F82030227D2B4930614FF46A
:10B100007A70C6E90013C6E90633B060DAB342F6D6
:10B110002E652069A1690C303A1D03F023FC01283B
:10B1200031D1BB892E2BF4D0AB4238D0D4F81C904F
:10B1300048461FF04EFB054607F10C001FF049FB87
:10B140002B18093323F00703EA46ADEB030D6846DD
:10B150006A1C49461EF0EEFB99F800302F2BEB4697
:10B1600002D199F801301BB1104B1B882BF8053028
:10B1700007F10C0158461FF0F7FA4246594630468F
:10B18000FFF720FED54622690023106D19461A46A6
:10B1900013F086FA30465437BD46BDE8F08FBB7BCE
:10B1A000002BB6D0C2E700BF1CEB040010EB04007C
:10B1B0002DE9F04F85B0DDE90E4B109F81460D461D
:10B1C00090461E46002F63D0B8F1000F03D0D8F888
:10B1D0000030B34249D0D9F800002B689E422BD0F2
:10B1E0004369B4FBF3F203FB1242BAB9BB4215D870
:10B1F000B7FBF3F203FB127AA7EB0A030093039366
:10B20000436822461F4631465B46B84788B9039BD0
:10B2100057469B441C44002FD6D139E00093A21A14
:10B22000C5E90062D0F804A0AB683146D0470028D9
:10B23000CAD005B0BDE8F08F69684369A142D0D893
:10B24000CA18A242CDD9A2EB040ABA45AB6828BFFE
:10B25000BA46611A524658461944BF1A54441EF061
:10B2600069FBD344002FAFD112E0D8F80430A342D9
:10B27000B1D8D9F8000082691A44A242ADD9A2EB34
:10B28000040ABA45D8F8081028BFBA46E31AE1E71D
:10B29000002005B0BDE8F08F2DE9F04F074687B0DC
:10B2A0000D4672B30368D1F800B090469A69D1E9AF
:10B2B00001104AB3013A01F101098618A9EB00090E
:10B2C000441E4FF0010A08E014F8012F9DF81730D2
:10B2D0009A4223D1A6423B6814D01A6A934509EBDF
:10B2E000040320D20DF11702CDE90032CDF808A0F9
:10B2F0005B46002241463846FFF75AFF0028E3D05C
:10B3000009DB3B68A8689A69FF211EF03BFB4FF000
:10B31000FF332B60002007B0BDE8F08F6FF03300E3
:10B3200007B0BDE8F08F034B034A044812211EF01A
:10B330005FFA00BF38EB040060ED040058EB040036
:10B340002DE9F04F87B0DDF840A00592002B64D0C6
:10B35000D0F800908B46D9F81C105C1EA1F10808AB
:10B360004445074651D3B4FBF8F001381EF0C2F84B
:10B37000D04500F10200A4EB8003B3FBF8F560D8E0
:10B38000BAFBF8F001381EF0B5F8861CAAEB860669
:10B39000B6FBF8F630461EF0ADF8AAEB800006FBCF
:10B3A000180AB54243D9D9F82020059B4FF004096B
:10B3B0000DF114080BE0012B45D93A68126A93424B
:10B3C00041D8012101FA04F42D1BB54230D9AC1B40
:10B3D000B4FA84F495FAA5F1C4F11F04B1FA81F12D
:10B3E0008C4228BF0C4693424FEA840132D200912E
:10B3F000CDE90189002259463846FFF7D9FE059B61
:10B400000028D8D007B0BDE8F08FD04588BF1346DC
:10B41000BAFBF8F00CD80025B4E711994FF0FF32D1
:10B420000A60129A1846136007B0BDE8F08F059BBA
:10B43000119A1360129B0020C3F800A007B0BDE86A
:10B44000F08F0026ADE7064B064A07484FF48F61A0
:10B450001EF0CEF9054B064A034812211EF0C8F92A
:10B46000D4EB040080ED040058EB040038EB04003A
:10B4700060ED04002DE9F04F89B00746149C129D41
:10B480008B4692461E46002C55D0DBF80030B34266
:10B490005CD0013340F0A18038688269B5FBF2F3DB
:10B4A00002FB1353002B4AD1A24248D8B4FBF2F35B
:10B4B00002FB13430593E31A009304938468139BE0
:10B4C0002A463146A04700287ED1BAF1000F29D084
:10B4D000049B3BB3139B5C1E049B04EB0309139B6F
:10B4E00005F10108A8EB030807E014F8012F9DF807
:10B4F0001F309A4266D14C4514D03B681A6A964276
:10B5000008EB040363D2012202920DF11F02CDE980
:10B5100000325146334600223846FFF749FE0028E4
:10B52000E3D051DB139A049B059C114619441391F7
:10B530001D44002CA9D1002009B0BDE8F08FEB1A02
:10B54000CBE90063DBF80030B342A2D1DBF8041092
:10B55000A9429ED83A6892690A44AA4299D9A2EBB4
:10B560000508A045DBF8080028BFA046691A084472
:10B57000424613991EF0DEF93868139982694544F2
:10B580004144B5FBF2F302FB1353A4EB08041391FF
:10B59000002B7FF478AFDBF800104B1C3FF473AF47
:10B5A0000092DBE90123D0F80880C04760B9524619
:10B5B00059463846FFF770FE00283FF464AF09B0E3
:10B5C000BDE8F08F6FF0330009B0BDE8F08F064B97
:10B5D000064A074812211EF00BF9064B064A04489A
:10B5E000B7211EF005F900BF38EB040060ED040040
:10B5F00058EB040000EC040070ED04002DE9F04F5E
:10B600000446D2E9003091B04FF0010B0A930023B9
:10B610000B90069104F114080DF128090593236895
:10B6200059F8045B1B6A9D427BD210230DF1300A4E
:10B630000022CDE901A300922B4641462046FFF7A8
:10B64000B7FD002839D1059B002B60D10D9B23F05D
:10B650000043132B4FD92268D26993424BD84FF045
:10B66000FF3309A810225146099304F0BFFE0D9B39
:10B6700023F00043102B28D0CDF81C9010260DF19C
:10B680002307994607E001360122394609A804F04C
:10B69000ADFEB14517D023681B6A9D4241D20123FC
:10B6A000CDE9017300962B46002241462046FFF764
:10B6B0007FFD0028E7D0DDF81C9010F1340F1AD080
:10B6C00011B0BDE8F08FDDF81C90099B9BB99AE89A
:10B6D0000F000BF0010610AF07EB860C069F10263B
:10B6E000FE603E467D601C365CF8185CBD6086E8F6
:10B6F0000F0001230593BBF1020F0FD1059B002B17
:10B7000014BF00206FF0330011B0BDE8F08F069A2F
:10B710000C9BD2699B1A002B98DAECE74FF0020BD6
:10B720007DE7034B034A044812211EF061F800BF75
:10B7300038EB040060ED040058EB0400436801336B
:10B7400037D02DE9F0438368013383B0044628D015
:10B7500015460E464FF000084FF001096A4629468B
:10B76000CDE90089FFF74AFFE0B905F124086B6ACB
:10B77000591C16D0AF6A7A1C13D0D6F800C09C456D
:10B7800013D0D6F804E0BE450FD073454246294693
:10B7900020460AD0BC4508D0FFF730FF0028E6D08D
:10B7A00000E0002003B0BDE8F083012003B0BDE855
:10B7B000F0830020704700BF2DE9F041D1F820C090
:10B7C0000C46C9682CF00043043B01F10C069E4274
:10B7D00084B0054617461FD904F12408102612E04C
:10B7E000424621462846FFF709FF90B9D4F820C009
:10B7F000A169E6602CF00043043B14311B2BA161CE
:10B800004FF0100108D8BCF1000FE9DB39606FF090
:10B81000010004B0BDE8F0812A46636852F8140BB9
:10B82000066AB34207F104001AD20C26CDE90010D3
:10B830000296114628460022FFF7BAFC0028E8D1FC
:10B840007B79BA79FD79A16904331344E2683A60DF
:10B850002B441A440B44E260A36104B0BDE8F081BC
:10B86000024B034A034812211DF0C2FF38EB0400CB
:10B8700060ED040058EB0400F0B593B000260D46CF
:10B88000012707A96A46CDE900670446FFF7B6FE1F
:10B89000064610B121E0831C22D1109B01331CD03D
:10B8A000119B013319D010AA07A92046FFF7A6FE65
:10B8B000B0B903AA07A92046FFF77EFF0028EAD106
:10B8C0009DF91030002B4FF00802294605A8F0DB47
:10B8D0001EF022F80028ECD10126304613B0F0BD4E
:10B8E0000646304613B0F0BD2DE9F0471646002459
:10B8F0000122C6E90942824688461D4606F124090E
:10B900004A4631465046FFF779FE074668B92A464F
:10B9100031465046FFF750FF50B1831C1FD1736A68
:10B92000013302D0B36A0133EAD13846BDE8F0876B
:10B930002C7904F07004202CE9D1AB68D8F80020F1
:10B94000934208D0E868D8F80410884203D08B42AC
:10B9500001D08242DBD101273846BDE8F087074697
:10B96000E3E700BF2DE9F04F2DED028B8DB090463F
:10B970001C46099340F622032268C8F80430089256
:10B98000D0E90123724EC8F8082082468946C8F8DB
:10B990000C3000F1140B089D314628461EF05AFF6A
:10B9A0002B46034404463146184605931EF000FF1B
:10B9B0000128049000F0B080022804D1059B1B7878
:10B9C0002E2B00F0B280DDE90423134408931F46B8
:10B9D0000124314638461EF03DFF074438463146C3
:10B9E0001EF0E6FE78B1022802D001340744F0E7E9
:10B9F0003B782E2BF9D17B782E2BF6D1013CF5D15B
:10BA0000BB1C0893C7E7059C207800285FD0099BE2
:10BA10001C6098F80430222B40F08D8008F1080358
:10BA20001A464946504608EE103AFFF7E7FD00284F
:10BA30004DD1049B013B234407934246494650465F
:10BA4000FFF7BAFE002842D198F8042002F07F03E5
:10BA5000112B01D0222BF0D198F8073004998B429A
:10BA6000EBD1D8F8003098F8051098F80650D9F8BE
:10BA7000047004330B441D44049BA3B3059BCDF811
:10BA800018800135DDF81C80ED1A5C1E07E014F803
:10BA9000012F9DF82F309A421ED144451FD0DAF86D
:10BAA00000301A6A974205EB040347D20122029242
:10BAB0000DF12F02CDE9003259463B460022504697
:10BAC000FFF776FB0028E2D0DDF8188009DA0DB028
:10BAD000BDEC028BBDE8F08FDDF81880ADE7DDF836
