:020000022000DC
:1060000000000420A1E00300E1E00300E3E003005E
:10601000E5E00300E7E00300E9E003000000000022
:10602000000000000000000000000000E50904007E
:10603000EDE0030000000000050A0400F1E00300A9
:10604000590B0400F3E00300E1290400F3E003002E
:10605000F3E00300F3E00300B1E30300F3E0030027
:10606000F3E00300F3E00300F3E00300F3E00300D8
:10607000F3E00300F3E00300F3E00300F3E00300C8
:10608000F3E0030035070400F3E00300F3E003004E
:10609000F3E00300F3E0030069870300F3E003008B
:1060A000F3E00300F3E00300F3E00300F3E0030098
:1060B000F3E00300F3E00300000000000000000034
:1060C000F3E00300F3E00300F3E0030041110400F8
:1060D000F3E00300F3E00300F3E00300C91403005E
:1060E000F3E00300F3E00300F3E00300000000002E
:1060F00000000000F3E0030000000000B9110400FC
:10610000000000000000000000000000000000008F
:10611000000000000000000000000000000000007F
:10612000000000000000000000000000000000006F
:10613000000000000000000000000000000000005F
:10614000000000000000000000000000000000004F
:10615000000000000000000000000000000000003F
:10616000000000000000000000000000000000002F
:10617000000000000000000000000000000000001F
:10618000000000000000000000000000000000000F
:1061900000000000000000000000000000000000FF
:1061A00000000000000000000000000000000000EF
:1061B00000000000000000000000000000000000DF
:1061C00000000000000000000000000000000000CF
:1061D00000000000000000000000000000000000BF
:1061E00000000000000000000000000000000000AF
:1061F000000000000000000000000000000000009F
:10620000F1EE103A43F08073E1EE103A704700BFB0
:1062100010B5054C237833B9044B13B10448AFF3E0
:1062200000800123237010BD2064002000000000C6
:10623000BC1F050008B5034B1BB103490348AFF36E
:10624000008008BD0000000024640020BC1F050081
:10625000154B002B08BF134B9D46A3F5803A002138
:106260008B460F461348144A121A23F093FB0F4B28
:10627000002B00D098470E4B002B00D098470020F1
:10628000002104000D000D48002802D00C48AFF397
:10629000008023F015FB200029001CF07DFE23F078
:1062A000E9FA00BF00000800000004200000000020
:1062B0000000000020640020D0A0002000000000AA
:1062C0000000000033DF7047014B01221A70704755
:1062D000FC6B0020014B01221A707047006B0020FC
:1062E000014B01221A7070474C68002038B5054CEC
:1062F000A4F5A87520461CF0E9FCAC42A4F10C04FE
:10630000F8D138BD40680020054B064A1B78013B98
:106310000021012B117000D9704703201BF082BBB4
:1063200018600020ED66002010B5014688B01148C5
:1063300012F012FA10490124002320220C70694641
:10634000CDE90033CDE90333CDE90533029307935B
:1063500010F0F2FA094B0A4A1B78013B0221A342D2
:10636000117001D908B010BD214603201BF05AFB63
:1063700008B010BDE4890020ED6600201860002000
:10638000B069002010B5614C614920461BF040FC0B
:10639000604B0A22197820461BF0B4FD5E49204666
:1063A0001BF036FC5D4B0A22197820461BF0D0FD0D
:1063B0005B4920461BF02CFC5A4B0A2219782046D8
:1063C0001BF0A0FD584920461BF022FC574B0A2227
:1063D000197820461BF096FD554920461BF018FC05
:1063E000544B0A22197820461BF0B2FD5249204630
:1063F0001BF00EFC514B186822F0E2FC41EC100B34
:10640000204602211BF0C8FC4D4920461BF000FC31
:106410004C4B0A22198820461BF074FD4A4920463D
:106420001BF0F6FB494B186822F0CAFC41EC100B3C
:10643000204602211BF0B0FC454920461BF0E8FB3A
:10644000444B0A22197820461BF082FD424920461F
:106450001BF0DEFB414B0A22197820461BF078FD29
:106460003F4920461BF0D4FB3E4B0A2219782046B8
:106470001BF06EFD3C4920461BF0CAFB3B4B0A2239
:10648000197820461BF064FD394920461BF0C0FBFB
:10649000384B0A22197820461BF05AFD364920460F
:1064A0001BF0B6FB354B0A22197820461BF050FD35
:1064B000334920461BF0ACFB324B0A2219782046A8
:1064C0001BF020FD304920461BF0A2FB2F4B0A2277
:1064D000197820461BF03CFD2D4920461BF098FB07
:1064E0002C4B0A22197820461BF00CFD2A49204625
:1064F0001BF08EFB294B204619780A221BF002FD67
:106500002046BDE8104004F0BBBD00BF506800202D
:1065100004E00400056000200CE00400046000209A
:1065200014E004003D6400201CE004000D60002025
:1065300024E004001460002028E004001060002023
:1065400030E004001660002034E004000860002001
:1065500038E004001C6000203CE004000C600020D7
:1065600040E004001D60002044E004001A600020A8
:106570004CE004001B60002054E004003F64002055
:106580005CE004003C64002064E00400186000202B
:106590006CE004001960002078E004003E640020F4
:1065A00008B50C490C4804F0F3FA0A490B480122DB
:1065B00004F0ACFC48B90A4B1B7803B908BDBDE830
:1065C0000840084908481BF097BBBDE80840FFF7A2
:1065D000D9BE00BF84E00400006C00205068002099
:1065E000EC6600208CE00400A87C0020F0B5174F7A
:1065F000174D184E99B00446384613F089FB022116
:10660000284613F0B9FB204624F0EBF82146024659
:10661000284613F0C5FB08AC08A9284613F0C8FBB0
:106620000FCC6D460FC594E80F0085E80F006B4650
:106630000FCB86E80F0095E80F00074C84E80F00A9
:10664000384613F079FB19B0F0BD00BF78910020F7
:10665000B468002040640020506400202DE9F0411F
:1066600074497548DFF88082744F82B004F0A0FB53
:10667000734813F07DFB734B734800240025C3E976
:1066800006450322002600240125C3E90045C3E98D
:1066900002451A611E7513F095FB30201CF0BCFCFE
:1066A0000F230E22044600930C210D2313F000FE4D
:1066B000664D6748214614F08FF8404612F0BEF947
:1066C0002A466449644C404623F094F8384612F058
:1066D0004FFA2A466149384623F08CF8604F20462D
:1066E0004FF4807112F09AFE2A465E49204623F04C
:1066F00081F85D4C384612F089F82A465B493846E5
:1067000023F078F85A4920461CF0D2F9594904F18F
:106710000C001CF0CDF9584904F118001CF0C8F920
:10672000564904F124001CF0C3F9554904F1300026
:106730001CF0BEF9534904F13C001CF0B9F9524970
:1067400004F148001CF0B4F9504904F154001CF065
:10675000AFF94F4904F160001CF0AAF94D4904F16A
:106760006C001CF0A5F94C4904F178001CF0A0F96C
:106770004A4904F184001CF09BF9494904F1900056
:106780001CF096F9474904F19C001CF091F9464928
:1067900004F1A8001CF08CF9444904F1B4001CF089
:1067A00087F9434904F1C0001CF082F9414904F122
:1067B000CC001CF07DF9404904F1D8001CF078F9B8
:1067C0003E4904F1E4001CF073F93D4904F1F00086
:1067D0001CF06EF93B4904F1FC001CF069F93A49E0
:1067E00004F584701CF064F9384904F58A701CF0D3
:1067F0005FF9374904F590701CF05AF9354904F5F2
:1068000096701CF055F9344904F59C701CF050F951
:10681000324904F5A2701CF04BF9314904F5A87017
:106820001CF046F92F492A46304602B0BDE8F04137
:1068300022F0E0BF006C002050680020B06500200E
:10684000B4680020B0640020046B002000600020C9
:10685000B4690020B9960200F8650020A1960200F4
:10686000D0640020B1940300F06600207996020005
:10687000ACE00400B4E00400C4E00400D4E0040090
:10688000F0E0040000E104000CE1040018E1040061
:1068900028E104003CE1040058E104006CE104003C
:1068A00080E1040094E10400ACE10400C0E10400D4
:1068B000D0E10400E4E10400FCE1040018E204007B
:1068C00028E2040034E2040048E204005CE2040030
:1068D00070E2040084E2040090E20400A0E20400FC
:1068E000B8E20400ED6202004065002070B5B748D0
:1068F000B74984B00022044604F008FB204604F0A7
:10690000F7F93D28FAD1B149B24DB34C0A2201A89A
:106910001BF0A4FB01A81CF0F7FA031E18BF01230B
:1069200001A82B701CF0D2F92378002B40F0C7810E
:10693000A64D284604F0DCF93D28FAD1A349A74D1D
:106940000A2201A81BF08AFB01A81CF0DDFA03460D
:1069500001A82B701CF0BAF92378002B40F0668256
:106960009A4D284604F0C4F93D28FAD197499C4D28
:106970000A2201A81BF072FB01A81CF0C5FA031E35
:1069800018BF012301A82B701CF0A0F92378002B5D
:1069900040F042828D4D284604F0AAF93D28FAD1F4
:1069A0008A49904D0A2201A81BF058FB01A81CF04F
:1069B000ABFA031E18BF012301A82B701CF086F947
:1069C0002378002B40F01E82804D284604F090F979
:1069D0003D28FAD17D49844D0A2201A81BF03EFBD7
:1069E00001A81CF091FA034601A82B701CF06EF967
:1069F0002378002B40F0FC81744D284604F078F990
:106A00003D28FAD17149794D0A2201A81BF026FBD5
:106A100001A81CF07FFA01A885ED000A1CF056F9C8
:106A20002378002B40F0D681684D284604F060F9A9
:106A30003D28FAD165496E4D0A2201A81BF00EFBD4
:106A400001A81CF061FA034601A82B801CF03EF956
:106A50002378002B40F0B4815C4D284604F048F9BF
:106A60003D28FAD15949634D0A2201A81BF0F6FAD4
:106A700001A81CF04FFA01A885ED000A1CF026F9C8
:106A80002378002B40F08E81504D284604F030F9D9
:106A90003D28FAD14D49584D0A2201A81BF0DEFAD3
:106AA00001A81CF031FA034601A82B701CF00EF966
:106AB0002378002B40F06C81444D284604F018F9EF
:106AC0003D28FAD141494D4D0A2201A81BF0C6FAD2
:106AD00001A81CF019FA034601A82B701CF0F6F867
:106AE0002378002B40F04A81384D284604F000F905
:106AF0003D28FAD13549424D0A2201A81BF0AEFAD1
:106B000001A81CF001FA034601A82B701CF0DEF866
:106B10002378002B40F028812C4D284604F0E8F81B
:106B20003D28FAD12949374D0A2201A81BF096FACF
:106B300001A81CF0E9F9034601A82B701CF0C6F867
:106B40002378002B40F00681204D284604F0D0F831
:106B50003D28FAD11D492C4D0A2201A81BF07EFACE
:106B600001A81CF0D1F9034601A82B701CF0AEF867
:106B70002378002B40F0E480144D284604F0B8F848
:106B80003D28FAD11149214D0A2201A81BF066FACD
:106B900001A81CF0B9F9034601A82B701CF096F867
:106BA0002378002B40F0C280084D284604F0A0F85E
:106BB0003D28FAD10549164D0A2201A81BF04EFACC
:106BC00001A81CF0A1F9031E24E000BF50680020BA
:106BD00084E0040005600020EC66002004600020D2
:106BE0003D6400200D600020146000201060002033
:106BF00016600020086000201C6000200C6000204F
:106C00001D6000201A6000201B6000203F640020EF
:106C10003C64002018BF012301A82B701CF056F81B
:106C20002378002B78D1864D284604F061F83D2862
:106C3000FAD18349834D0A2201A81BF00FFA01A85B
:106C40001CF062F9034601A82B701CF03FF8237872
:106C5000002B57D17A4D284604F04AF83D28FAD146
:106C60007749794E0A2201A81BF0F8F901A81CF017
:106C70004BF9031E18BF012301A833701CF026F83E
:106C80002378002B33D16E4D284604F031F83D288F
:106C9000FAD16B490A2201A81BF0E0F901A81CF007
:106CA00033F9031E18BF012301A833701CF00EF83E
:106CB000237873B9624804F0E3F904B070BD634906
:106CC00063481AF0A5FF297861480A221BF01AF9D7
:106CD0002EE660495E481AF09BFF31785C480A2234
:106CE0001BF010F9564804F0CBF904B070BD5A49B6
:106CF00057481AF08DFF594B554819780A221BF056
:106D000001F9C0E7564952481AF082FF29785048E5
:106D10000A221BF01DF99DE752494D481AF078FFF1
:106D200029784B480A221BF0EDF87CE74E49484889
:106D30001AF06EFF297846480A221BF009F933E75A
:106D40004A4943481AF064FF297841480A221BF057
:106D5000FFF811E746493E481AF05AFF29783C48A7
:106D60000A221BF0F5F8EFE6424939481AF050FFC5
:106D7000297837480A221BF0EBF8CDE63E49344823
:106D80001AF046FF297832480A221BF0E1F8ABE6F8
:106D90003A492F481AF03CFF29782D480A221BF067
:106DA000D7F889E636492A481AF032FF286822F0D7
:106DB00007F841EC100B022125481AF0EDFF63E6BD
:106DC000304923481AF024FF298821480A221BF061
:106DD00099F841E62C491E481AF01AFF286821F05C
:106DE000EFFF41EC100B022119481AF0D5FF1BE60A
:106DF000264917481AF00CFF297815480A221BF07B
:106E0000A7F8F9E5224912481AF002FF297810483C
:106E10000A221BF077F8D7E51E490D481AF0F8FE54
:106E200029780B480A221BF06DF8B3E51A49084887
:106E30001AF0EEFE297806480A221BF089F88FE541
:106E400050680020186000203E64002004E0040028
:106E5000A87C002078E004006CE0040019600020A9
:106E600064E004005CE0040054E004004CE0040032
:106E700044E0040040E004003CE0040038E004008A
:106E800034E0040030E0040028E0040024E00400C2
:106E90001CE0040014E004000CE0040070B5B648E7
:106EA00088B045F21F2241F615110AF035F803208B
:106EB00001211AF0B7FDB14809F05AFF002800F08F
:106EC0002D824FF47A7017F0C1FAAC4809F050FFE8
:106ED000002800F02082AA4809F004FBA949AA482A
:106EE000002204F013F8A84804F0F6F8002800F097
:106EF0004582A649A448002204F008F8A24804F0FC
:106F0000EBF8002800F02A82A1499F48002203F0F4
:106F1000FDFF9D4804F0E0F8002800F012829D4C2F
:106F2000994D04F1100602E00134A6420CD0284627
:106F300003F0A2FE0028F7D0284603F0D9FE013462
:106F400004F8010CA642F2D18F4804F099F8924956
:106F50008D48002203F0DAFF8B4804F0BDF80028CA
:106F600000F0E2818D4C884D04F1400602E00134CE
:106F7000A6420CD0284603F07FFE0028F7D0284612
:106F800003F0B6FE013404F8010CA642F2D17E48AB
:106F900004F076F88148FFF729FB81497A480022FE
:106FA00003F0B4FF784804F097F880B97C4974483E
:106FB00003F0EEFD7A497448012203F0A7FF002890
:106FC00040F0EC81774B1B78002B40F0EA81FFF713
:106FD0008DFC0A24012585F00105294603201AF0BD
:106FE00021FD642017F032FA631E13F0FF04F2D182
:106FF0006D4A6E4B12786E4853F822101BF0FAFA65
:10700000142485F00105294603201AF00BFD6420A5
:1070100017F01CFA631E13F0FF04F2D1654C2378BD
:10702000002B00F04281644B644A1E786449654B32
:1070300012781B7891F90010634802930192009135
:10704000624B634A6349644D12781B780978D5ED29
:10705000000A00EB860090ED000A604813F0C6FBC2
:107060000246002A00F03E815D495C48434C042200
:1070700016F058F804225B49584816F069F857484A
:1070800015F00CFB5848002111F0FCFA5648042179
:1070900011F0BCF800220121534811F0E7F8082153
:1070A000514811F0A1FA00223649374803F02EFF6B
:1070B00005A835491AF09EFF05994C4810F002FAD0
:1070C00005A81BF003FE002230492F4803F01EFFE5
:1070D00005A82D491AF08EFF0599434811F05CFA76
:1070E00005A81BF0F3FD42493F480FF071FE4149EE
:1070F0003D480FF06FFE40494048102211F034FD2A
:107100003F493E48082211F02BFD3C4811F066FD36
:10711000312211463B4810F089FD3A4812F00CFA32
:10712000062139480EF06EFB37480EF053FB354907
:1071300035480EF00BFB35480EF01EFB324801219E
:107140000EF094FBF422304820210EF08BFB2E48E9
:107150001E210EF085FB00212B480EF0F3FB01E011
:1071600009F0E6FC204609F0BDFC03462046002B52
:10717000F6D10F4C4EE000BFC87C0020A87C002058
:10718000006C00209CE2040050680020D0E2040063
:10719000E4E2040060640020F8E20400706400206F
:1071A00084E00400EC6600200460002020600020E1
:1071B000E89600200D600020146000201A60002076
:1071C0001B6000203F6400200CE904001D600020CB
:1071D0000C6000201C60002008600020B4690020C2
:1071E000D5620200E1620200E4890020048A0020E6
:1071F00029630200096302000CE30400B06500206B
:10720000D8E20400F8650020249000206890002057
:107210001BF07EF920461BF073F903462046002B35
:10722000F6D1624C01E011F099FD204611F046FDC7
:1072300003462046002BF6D15D4C2378013B012B01
:107240002ED85C4B1B785BB3012102201AF066FB41
:107250002378594C012B8CBF0121002102201AF008
:10726000E1FB1EF067FB237D002B4DD0534812F04D
:10727000ADFD00234FF48062009351495148012332
:107280001BF0FAFE022104201AF048FB4E494F4839
:107290001AF032FD4C494E481AF02EFD08B070BD70
:1072A000002103201AF0BEFBCEE74A494A4D4B4865
:1072B00009782D7890F900000090029101954848D6
:1072C000484B494A49494A4D127890ED000A1B78CB
:1072D0000978D5ED000A474813F088FA0246002ADB
:1072E0007FF4C2AE444B4348197814F0A5F8002847
:1072F0007FF4BAAE2378002B3FF4B6AE3F4B3D4847
:10730000197816F08BFCAFE61EF014FB0028ADD107
:1073100001232375AAE71BF0CBFEDCE52B484FF4D5
:10732000E13109F0FDFCCCE535493648012203F096
:10733000EDFD00283FF42EAE334932481AF068FCC8
:1073400025E632492F48012203F0E0FD00283FF4F2
:10735000FEAD2F492B481AF05BFCF5E52D49294875
:10736000012203F0D3FD00283FF4CEAD2A49254881
:107370001AF04EFC234803F083FEC5E52749214857
:10738000012203F0C3FD00283FF4B3AD24491D489A
:107390001AF03EFC1B4803F073FEAAE5FEF7F2FF6D
:1073A00015E6204909481AF0A7FC10E6F865002008
:1073B00018600020ED660020B0640020046B0020FF
:1073C0002DA602009497002020E30400A87C002052
:1073D000E89600203F6400201A6000201B60002017
:1073E000106000201D6000200C6000201C60002048
:1073F00008600020B46900203C6400201660002072
:10740000F8E204005068002000E30400E4E2040015
:10741000ECE20400D0E20400D8E204009CE20400A4
:10742000C8E204008CE004002DE9F04F2DED028B42
:10743000EDB002AF06460846796123F0D2F9F12299
:10744000C4B2002107F1B40022F0A4FAD02C87F8CE
:10745000B46056D8002E67D12D4823F0C2F9C6B2C9
:1074600006F101085FFA88F8B8F1010F07D0721E23
:10747000D2B22749013207F1B50022F063FA07F5CD
:10748000D4729044B31C52FA83F33A2208F8F42CD5
:10749000202206F1030803F8F42C5FFA88F8A4B15F
:1074A0007D69E11C3144C9B26A1E434607F5D470B8
:1074B00018440133DBB212F8016F00F8F46C8B4210
:1074C000F4D1A0447D615FFA88F812491248042281
:1074D00015F028FE11491048042215F039FE16F067
:1074E000A9FF0F4B024678691A6023F07AF900234E
:1074F00008EB000207F1B401074815F0BFF9094B8A
:10750000186007F5D677BD46BDEC028BBDE8F08F5D
:1075100060640020C9620200B4690020E1620200D8
:10752000F06B0020F86B0020012EEAD114F00F035D
:10753000DFF84CA318BF012303EB1413981CDAF8EF
:10754000001038606E46B9600146A6EB00103B6142
:107550009AF81420DAF80C506B46854607F1480972
:1075600008EE903A02A800230901C7E90A33C7E9E7
:107570000C33C9E90033C9E90233F860EB4679609E
:10758000002A43D01EF0D6F900283FD107F1680841
:10759000B968DAF818302A4640461DF0EDFDB54BC3
:1075A000BB6307F138061023FB63DAF81C10404672
:1075B000324608231DF020FE40BBDAF808309D4219
:1075C00004D0AD4940461DF03BFEF8B999E80F00E4
:1075D00007F1580686E80F004FF0000C07F128036A
:1075E000314610224046C7E90ACCC7E90CCC1DF051
:1075F0003FFE034650B907F1200107F1280200922F
:1076000001913246404619461DF070FE07F12806EA
:107610000FCEFD689AF814C0286069600020DAF87F
:107620000010DAF80C90AA60C7E90A00C7E90C005C
:10763000DD46EB60B960BCF1000F43D01EF07AF973
:1076400000283FD107F16808B968DAF818304A46CF
:1076500040461DF091FD874BBB6307F138061023B0
:10766000FB63DAF81C104046324608231DF0C4FDC7
:1076700040BBDAF80830994504D07F4940461DF0F8
:10768000DFFDF8B97D4B0FCB07F1580686E80F00F8
:107690004FF0000C07F12803314610224046C7E99D
:1076A0000ACCC7E90CCC1DF0E3FD034650B907F145
:1076B000200107F128020092019132464046194606
:1076C0001DF014FE07F128060FCEFE68F3613B693A
:1076D0003061DD467161B261002B00F007813B68CB
:1076E000D7F814B01B01DBB2BB60202507F13806C8
:1076F0004FF00008D946A5F12003DBB2A34238BF02
:1077000099F80030C6E9008838BF3370A5F11F032F
:10771000DBB29C4284BF99F801307370A5F11E035F
:10772000DBB29C4284BF99F80230B370A5F11D030F
:10773000DBB29C4284BF99F80330F370A5F11C03BF
:10774000DBB29C4284BF99F804303371A5F11B036E
:10775000DBB29C4284BF99F805307371A5F11A031E
:10776000DBB29C4284BF99F80630B371A5F11903CE
:10777000DBB29C4284BF99F80730F371A5F118037E
:10778000DBB29C4288BF99F80830C6E9028888BFFE
:107790003372A5F11703DBB29C4284BF99F809301C
:1077A0007372A5F11603DBB29C4284BF99F80A30CC
:1077B000B372A5F11503DBB29C4284BF99F80B307C
:1077C000F372A5F11403DBB2A3423CBF99F80C306D
:1077D0003373A5F11303DBB2A3423CBF99F80D301C
:1077E0007373A5F11203DBB2A3423CBF99F80E30CC
:1077F000B373A5F11103DBB2A34238BF99F80F3080
:10780000DAF80C2038BFF3739AF81430DAF8001065
:107810007A616A46C7E90A88C7E90C8808EE102A27
:107820003961002B4DD01EF085F8002849D107F1B1
:10783000680B3969DAF818307A6958461DF09CFCF3
:107840000C4907F120034FF0100CC7E9081C1A4639
:10785000DAF81C10584608231DF0CEFC88BBDAF875
:1078600008307A699A420DD0034958461DF0E8FC69
:1078700038BB07E0506400204064002060640020B2
:10788000B064002096E80F0007F1580C8CE80F0058
:1078900007F12803614610225846C7E90A88C7E95C
:1078A0000C881DF0E5FC034658B907F11C0107F1EF
:1078B00028020092019107F15802584619461DF01E
:1078C00015FDF968BA6A4A514B19FA6A5A603A6B5F
:1078D0009A607A6BDA6018EE103A10359D46BB68F4
:1078E000EDB2AB4209F110097FF405AF7B68B3F547
:1078F000807F29D01A46FB68940807F1B501002261
:10790000013253F8040B41F8040B9442F8D80F49A4
:107910000F48042215F006FC0E490D48042215F00C
:1079200017FC16F087FD0C4B02461A607A6808486F
:107930000023013207F1B40114F0A0FF074B1860D7
:1079400018EE903A9D46DCE5FEE700BFC9620200F2
:10795000B4690020E1620200F06B0020F86B0020A7
:1079600008B5FA2016F072FD1A4B1B7813B3012BE1
:107970002AD0022B23D0FA2016F068FD164809F011
:10798000EDF816481AF0D2FD134809F0E1F9134852
:107990001AF06CFD124803F03BF8BFF34F8F11490A
:1079A000114BCA6802F4E0621343CB60BFF34F8F00
:1079B00000BFFDE70D4908481AF09EF9DBE70B49C7
:1079C0000B481AF099F9D6E7084904481AF094F9D7
:1079D000D1E700BFB0690020A87C0020E896002015
:1079E000006C002000ED00E00400FA0530E3040024
:1079F000106600202DE9F047C0B002AF0C460546E6
:107A0000B94907F1080090461BF052F8B7492046E3
:107A10000A2222F0EEFE002800F08D80B4490822F0
:107A2000204622F0E6FE064600285CD0B149062238
:107A3000204622F0DEFE0646002800F03881AE49DE
:107A40000622204622F0D5FE0646002800F03C81A2
:107A5000AA490B22204622F0CCFE002840F08B8061
:107A6000A8F1040323F007036E46B8F10B08ADEB51
:107A7000030D02A914D0034642F2014E221801332D
:107A8000D27A0D2ADBB22EFA02FC02D81CF0010FCA
:107A900004D100F1010C0A545FFA8CF09845EDD83E
:107AA00007F1EC0420461BF003F820461BF02CFAEB
:107AB000804620461BF00AF9B8F1000F00F00D8156
:107AC0008F4802F0BDFF8F4907F108001BF02CF929
:107AD000002300938C498D4801234FF480621BF0F2
:107AE000CBFAB5460EE0874907F108001BF01CF9F8
:107AF00000960123844985484FF480621BF0BCFA4C
:107B000007F1EC0407F1080120461AF0EBFF804969
:107B100020461BF081F9014628461AF0E3FF204673
:107B20001BF0D4F807F108001BF0D0F82846F8370E
:107B3000BD46BDE8F08707F1EC04764920461AF00F
:107B4000B7FF754B07F1E00093ED000A02211BF02F
:107B50007FF807F1E00120461BF032F9014607F1FA
:107B600008001BF0BBF807F1E0001BF0AFF820465F
:107B70001BF0ACF8C6E769490A22204622F039FE1C
:107B8000002800F07C8166490922204622F031FE5F
:107B9000002800F0F78063490822204622F029FEE1
:107BA000002800F06C8160490C22204622F021FE62
:107BB000002840F07381A8F1050323F007036E4607
:107BC000B8F10C02ADEB030D02A918D04FF0000C78
:107BD000634642F2014804EB0C000133007B0D28A0
:107BE000DBB228FA00FE02D81EF0010F05D10CF11D
:107BF000010E01F80C005FFA8EFC9A42EBD807F1F7
:107C0000EC0420461AF054FF20461BF07DF9804614
:107C100020461BF05BF85FFA88F3042B00F2A0818A
:107C2000424A43494348DFF854C130F813001CF876
:107C300003C002EB83024FF0010812680A603E4A5B
:107C40003E491080C85C3E4A3E4982F800C0087038
:107C50003D4A3E493E4BDFF828C13E48C1F800C0CE
:107C600082F800803C4940224FF0DD0C1A7080F809
:107C700000C03A4A3A4B062008701421117020487F
:107C8000384900221A7002F083FF364936484246CE
:107C900003F03CF9002840F0DD81344B1B78002BC9
:107CA0003FF411AF324933481AF026F80BE7154973
:107CB00007F108001BF038F84FF08043A822C3F802
:107CC0001C250123009615E70E4907F108001BF05B
:107CD0002BF84FF080435722F1E7274907F10800BE
:107CE0001BF022F8B5460DE7C0F9040040E304009C
:107CF00058E304006CE3040074E304007CE3040034
:107D0000006C002064E30400617902009497002075
:107D100020F904004CE304009C600020A4E304006C
:107D2000CCE3040014E4040020E4040064600020B8
:107D30000860002084600020166000207C60002025
:107D40001C6000200C6000200D60002010600020EE
:107D5000146000201D6000201A6000201B600020BD
:107D60003F64002084E0040050680020EC6600209E
:107D70008CE00400A87C002088E3040094600020CC
:107D800000C06444A8F1020323F007036E46B8F173
:107D90000902ADEB030D02A917D08446034642F257
:107DA000014804EB0C000133407A0D28DBB228FABD
:107DB00000FE02D81EF0010F05D10CF1010E01F8F2
:107DC0000C005FFA8EFC9A42EBD807F1EC042046D7
:107DD0001AF06EFE20461BF097F8804620461AF0F7
:107DE00075FFB8F1000F52D0C44800210DF03EFDE0
:107DF000C34810F071FC1FFA80F9B9F1000F0DD0E3
:107E00004FF00008DFF8F8A2414608F1010850469B
:107E100010F080FC1FFA88F18945F6D8B7480DF0BC
:107E200003FEB84813F0B0FE4FF00608032019F027
:107E300039FE642016F00AFB08F1FF3313F0FF0847
:107E4000F4D1B14B1B78002B00F09180012B00F096
:107E5000FE80022B7FF445AEAC49AD4819F04CFFD3
:107E6000FA2016F0F3FA0521042019F057FD4046D8
:107E7000042119F053FDFEF725FAB54642E6A5495F
:107E800007F108001AF050FF07F1EC043AE6A249A6
:107E900007F108001AF048FFB54633E69F490B2268
:107EA000204622F0A6FC0028E9D09D490822204661
:107EB00022F09FFC002861D108F1FF3323F0070373
:107EC0006E46B8F10802ADEB030D02A917D0844647
:107ED000034642F2014904EB0C000133007A0D28FD
:107EE000DBB229FA00FE02D81EF0010F05D10CF119
:107EF000010E01F80C005FFA8EFC9A42EBD807F1F4
:107F0000EC0420461AF0D4FD20461AF0FDFF854A05
:107F1000031E18BF0123204613701AF0D7FE8249B2
:107F2000824802F035FE80498148012202F0EEFFCE
:107F3000002840F0A0807F4B1B78002B40F09E80F3
:107F4000724907F108001AF0EFFE002300937A4906
:107F50007A4801234FF480621BF08EF8B546D1E5D4
:107F6000774907F108001AF0DFFEB546CAE5754902
:107F700007F108001AF0D8FEB546C3E5724907229A
:107F8000204622F036FC002867D07049082220469F
:107F900022F02FFC8246002875D007226C4920462B
:107FA00022F027FC0246002800F0E28069490722FF
:107FB000204622F01EFC002840F0EA8008F0F8037A
:107FC0006E46B8F10702ADEB030D0DF1080900F0A4
:107FD0004481034642F2014C21180133C9790D292D
:107FE000DBB22CFA01FE02D81EF0010F05D100F120
:107FF000010E09F800105FFA8EF09A42ECD8031FC8
:10800000022B00F22A815449484802F0C1FD52492E
:108010004748012202F07AFF002869D049464448C7
:1080200019F0F6FD424803F02BF8384907F1080033
:108030001AF07AFE002300933F49404801234FF491
:1080400080621BF019F807F1EC04B5465AE52F4998
:10805000424803E7FEF796F935E507F1EC043049AD
:1080600020461AF025FD2F4B197807F1E0000A226F
:108070001AF086FD6DE5FEF785F961E73849394864
:1080800019F03AFE5CE708F1FF3323F007036E4670
:10809000ADEB030DA8F108080DF10809484642466A
:1080A000514621F077FCB8F1000F16D052465346E6
:1080B00042F20140A1180133097A0D29DBB220FAFE
:1080C00001FC02D81CF0010F05D102F1010C09F8E6
:1080D00002105FFA8CF29845ECD82349134802F05D
:1080E00057FD21491248012202F010FF002895D1C6
:1080F0001E4907F108001AF017FEA4E7249000209B
:10810000E4890020B4690020B069002064E3040021
:1081100010660020B0E30400F8E304004CE404001F
:1081200058E404000560002084E00400006C002096
:1081300050680020EC6600206179020094970020CE
:1081400030E40400D8E3040064E404006CE40400B8
:1081500094E404009CE404009CE20400E8960020FF
:108160008CE00400A87C0020D0E2040078E4040045
:10817000CD49CE4807F1EC0402F0C8FECC492046B8
:108180001AF096FCC94907F1E00019F033FFE0E46A
:108190000622C849204622F02CFB0246002800F0A7
:1081A000AE80C5490822204622F023FB00285AD180
:1081B00008F1FF3323F007036E46B8F10802ADEB78
:1081C000030D02A918D0034642F2014E04EB000C45
:1081D00001339CF808C0BCF10D0FDBB22EFA0CF88D
:1081E00002D818F0010F05D100F1010801F800C014
:1081F0005FFA88F09A42E9D807F1EC0420467960EA
:108200001AF056FC20461AF07FFE804620461AF0EF
:108210005DFDB8F1100F00F382807968DFF8C48249
:1082200020461AF045FC20461AF06EFE0346204612
:1082300088F800301AF04AFDFEF7B2F998F80020ED
:108240009E4B9F4853F822101AF0D4F99D4907F12C
:1082500008001AF069FDB54654E49B4907F108008F
:108260001AF062FDEFE699490722204622F0C1FA92
:1082700000285CD096490922204622F0BAFA00284C
:1082800063D1A8F1020323F007036E46ADEB030DA3
:10829000A8F1090202A9034642F2014E10E09CF83F
:1082A00009C0BCF10D0F2EFA0CF802D818F0010F1E
:1082B00005D103F1010801F803C05FFA88F301302A
:1082C0005FFA80F8424504EB030CE8D807F1EC04B0
:1082D00020461AF0EDFB20461AF016FE7D4A031EDA
:1082E00018BF0123137020461AF0F0FCFEF758F96E
:1082F000744907F108001AF017FDB54602E4764903
:108300006A4807F1EC0402F001FE744920461AF0B5
:10831000CFFB664907F1E00019F06CFE19E47049E3
:1083200007F108001AF000FDB546FFF7EBBB07F1B7
:10833000EC04614920461AF0BBFB6A4B07F1E000F0
:1083400019780A221AF0E8FB03E46749082220465C
:1083500022F04FFA002855D064490822204622F026
:1083600048FA002856D108F1FF3323F00703E94605
:10837000ADEB030DA8F1080202A9034642F2014C3D
:108380000DE0367A0D2E2CFA06FE02D81EF0010FF3
:1083900004D103F1010ECE545FFA8EF301305FFA7F
:1083A00080FE724504EB0306EBD807F1EC0420468F
:1083B0001AF07EFB20461AF0A7FD064620461AF06A
:1083C00085FC002E01F00881494B4A48197815F0C8
:1083D00025FC0646002841F0E480474A474B1178C7
:1083E000474A03EB81031968464B116001221A705A
:1083F000FEF7D6F8334907F108001AF095FCCD4690
:10840000FFF780BB07F1EC04314920461AF050FB1E
:10841000304B29E63C490722204622F0EAF90028A1
:1084200000F0C78039490622204622F0E2F90028F0
:108430006ED108F1010303F4FC73E946ADEB030DC3
:10844000A8F1060202A9034642F2014C0DE0B679FA
:108450000D2E2CFA06FE02D81EF0010F04D103F1F6
:10846000010ECE545FFA8EF301305FFA80FE724542
:1084700004EB0306EBD807F1EC0420461AF018FBD6
:1084800020461AF041FD1C4B024620461A701AF095
:108490001DFCFEF785F80B4907F108001AF044FCB3
:1084A000CD46FFF72FBB00BFD0E20400506800208C
:1084B0006CE40400BCE40400C4E404002060002078
:1084C000E896002064E30400A4E40400E8E4040067
:1084D000F0E404003D6400209CE204009CE40400FD
:1084E000D0E4040004600020FCE4040008E504007B
:1084F00016600020B4690020146000200CE904001C
:10850000106000200D60002020E5040028E5040034
:10851000C7490522204622F06CF9002800F0338775
:10852000C4490822204622F064F980BB08F1FF33D9
:1085300023F00703E946ADEB030DA8F1080202A9F9
:10854000034642F2014C0DE0367A0D2E2CFA06FE5F
:1085500002D81EF0010F04D103F1010ECE545FFAD0
:108560008EF301305FFA80FE724504EB0306EBD810
:10857000B14B1B78002B00F01587B04907F10800BC
:108580001AF0D2FB07F1EC04CD46FFF7BBBAAC49B9
:108590000722204622F02DF918BBA74B1B7883B188
:1085A000A64907F108001AF0BFFB07F1EC04FFF73A
:1085B000A9BA07F1EC04A34920461AF079FA9E4BB8
:1085C00052E507F1EC049B4920461AF071FA9E4BE4
:1085D00007F1E00093ED000A02211AF039FBFFF7E2
:1085E000B8BA9A490622204622F003F9002851D150
:1085F00008F1010303F4FC73E946ADEB030DA8F1A8
:1086000006020DF1080A034642F201460EE089799E
:108610000D2926FA01FC02D81CF0010F05D103F147
:10862000010C0AF803105FFA8CF301305FFA80FC4A
:10863000624504EB0301EAD807F1EC0451462046F9
:108640001AF036FA20461AF05FFCC1B2804815F0E5
:10865000E5FA064620461AF039FB002E40F0A187C5
:10866000754B0122514620461A701AF021FA204615
:108670001AF04AFC774B02461A8020461AF026FB75
:10868000FDF78EFF744907F108001AF04DFBCD4647
:10869000FFF738BA71490522204622F0AAF80028CF
:1086A00000F067866E490622204622F0A2F80028D4
:1086B00040D108F1010303F4FC73E946ADEB030D6F
:1086C000A8F1060202A9034642F2014C0DE0B67978
:1086D0000D2E2CFA06FE02D81EF0010F04D103F174
:1086E000010ECE545FFA8EF301305FFA80FE7245C0
:1086F00004EB0306EBD807F1EC04204679601AF08E
:10870000D7F920461AF006FC514812F099FC0646AB
:1087100020461AF0DBFA002E40F0438779682046A5
:108720001AF0C6F920461AF0F5FB4E4B204683EDB1
:10873000000AA3E74C490522204622F05AF80028F7
:108740004AD04A490622204622F053F8002853D145
:1087500008F1010303F4FC73E946ADEB030DA8F146
:1087600006020DF1080A034642F201460EE089793D
:108770000D2926FA01FC02D81CF0010F05D103F1E6
:10878000010C0AF803105FFA8CF301305FFA80FCE9
:10879000624504EB0301EAD807F1EC045146204698
:1087A0001AF086F920461AF0AFFBC1B2284812F041
:1087B00019FF064620461AF089FA002E40F0F1868D
:1087C000514620461AF074F920461AF09DFB284BBA
:1087D000024620461A7051E707F1EC042049204672
:1087E0001AF066F91F4B07F1E00093ED000A022131
:1087F0001AF02EFAFFF7ADB91E490522204621F0E6
:10880000F8FF002874D01C490722204621F0F1FF10
:1088100000287CD108F0F803E946ADEB030DA8F180
:1088200007020DF1080A034642F2014635E000BF97
:1088300030E5040038E504000D60002044E5040044
:1088400068E5040008E504001060002070E50400FD
:10885000B46900201660002064E3040078E5040099
:1088600080E504000860002088E5040090E504002D
:108870001C60002098E50400A0E50400C9790D29DA
:1088800026FA01FC02D81CF0010F05D103F1010CFE
:108890000AF803105FFA8CF301305FFA80FC62453E
:1088A00004EB0301EAD807F1EC04514620461AF024
:1088B000FFF820461AF028FB011E18BF0121CF48FF
:1088C000002212F0B9FD064620461AF0FFF9002EEC
:1088D00040F06786514620461AF0EAF820461AF022
:1088E00013FBC74A031E18BF012320461370C5E6B9
:1088F00007F1EC04C34920461AF0DAF8C24B07F13D
:10890000E00019780A221AF007F9FFF722B9BF49E7
:108910000622204621F06DFF00284CD0BC490622DB
:10892000204621F066FF00284ED108F1010303F430
:10893000FC73E946ADEB030DA8F106020DF1080A40
:10894000034642F201460EE089790D2926FA01FC20
:1089500002D81CF0010F05D103F1010C0AF8031035
:108960005FFA8CF301305FFA80FC624504EB03018F
:10897000EAD807F1EC04514620461AF099F820464F
:108980001AF0C8FAFCEEC07A9C48C7ED017A397932
:1089900012F08CFC064620461AF098F9002E40F0A2
:1089A0000086514620461AF083F820461AF0ACFAA9
:1089B000984B02460DE707F1EC04974920461AF060
:1089C00077F88F4BFFF750BB94490522204621F0E2
:1089D00010FF002848D092490622204621F009FFC6
:1089E000002850D108F1010303F4FC73E946ADEB14
:1089F000030DA8F106020DF1080A034642F20146F2
:108A00000EE089790D2926FA01FC02D81CF0010F2D
:108A100005D103F1010C0AF803105FFA8CF3013061
:108A20005FFA80FC624504EB0301EAD807F1EC042D
:108A3000514620461AF03CF820461AF065FAC1B2B9
:108A40006E4814F09FFB064620461AF03FF9002EB0
:108A500040F0A785514620461AF02AF820461AF021
:108A600053FA704B0246B4E607F1EC04684920461D
:108A70001AF01EF8674B07F1E00019780A221AF085
:108A80004BF8FFF766B868490522204621F0B1FE91
:108A9000002846D065490722204621F0AAFE00287A
:108AA0004ED108F0F803E946ADEB030DA8F107023B
:108AB0000DF1080A034642F201460EE0C9790D297C
:108AC00026FA01FC02D81CF0010F05D103F1010CBC
:108AD0000AF803105FFA8CF301305FFA80FC6245FC
:108AE00004EB0301EAD807F1EC045146204619F0E3
:108AF000DFFF20461AF008FA0146404813F080F8DC
:108B0000064620461AF0E2F8002E40F04A8551460B
:108B1000204619F0CDFF20461AF0F6F9444B0246E4
:108B200057E607F1EC043E49204619F0C1FF3D4BE2
:108B300007F1E00019780A2219F0EEFFFFF709B8F3
:108B40003C490622204621F054FE002846D03A49EE
:108B50000722204621F04DFE002871D108F0F803CD
:108B6000E946ADEB030DA8F107020DF1080A034633
:108B700042F201465FFA80FC624504EB03010FD923
:108B8000C9790D2926FA01FC02D81CF0010F05D184
:108B900003F1010C0AF803105FFA8CF30130E9E7E6
:108BA00007F1EC045146204619F082FF20461AF0E6
:108BB000ABF941B2114812F0C5F9064620461AF049
:108BC00085F8002E40F0ED845146204619F070FFE4
:108BD00020461AF099F9194B0246FAE507F1EC0420
:108BE0001249204619F064FF114B07F1E000197893
:108BF0000A2219F091FFFEF7ACBF00BFB469002054
:108C00003C64002090E504001C600020A8E50400FE
:108C1000B0E504000C600020A0E50400B8E5040005
:108C2000C0E504001D600020C8E50400D0E5040094
:108C30001A600020D8E50400E0E504001B60002075
:108C40009E490622204621F0D4FD002848D09C49A8
:108C50000822204621F0CDFD002850D108F1FF3335
:108C600023F00703E946ADEB030DA8F108020DF16F
:108C7000080A034642F201465FFA80FC944504EB81
:108C800003010FD2097A0D2926FA01FC02D81CF043
:108C9000010F05D103F1010C0AF803105FFA8CF300
:108CA0000130E9E707F1EC045146204619F000FFD6
:108CB00020461AF029F9C1B2824812F027FB064675
:108CC00020461AF003F8002E40F06B8451462046EF
:108CD00019F0EEFE20461AF017F97B4B024678E5B4
:108CE00007F1EC047949204619F0E2FE784B07F1D0
:108CF000E00019780A2219F00FFFFEF72ABF754924
:108D00000722204621F075FD00284BD0724907222A
:108D1000204621F06EFD002853D108F0F8036E467E
:108D2000ADEB030DA8F1070202A9034642F2014E82
:108D30005FFA80F8904504EB030C11D29CF807C051
:108D4000BCF10D0F2EFA0CF802D818F0010F05D166
:108D500003F1010801F803C05FFA88F30130E7E787
:108D600007F1EC042046796019F0A2FE20461AF0C3
:108D7000CBF88046204619F0A9FFB8F1030F00F3A5
:108D800078827968204619F093FE20461AF0BCF8E4
:108D9000524B024620461A7019F098FFFDF700FC6E
:108DA000FEF791BE07F1EC044549204619F080FE1C
:108DB000454B07F1E00019780A2219F0ADFEFEF7E5
:108DC000C8BE47490622204621F013FD002800F0C6
:108DD000938244490C22204621F00BFD78BBA8F178
:108DE000050323F007036E46ADEB030DA8F10C025B
:108DF00002A9034642F2014E5FFA80F8904504EB67
:108E0000030C11D29CF80CC0BCF10D0F2EFA0CF81B
:108E100002D818F0010F05D103F1010801F803C0D1
:108E20005FFA88F30130E7E707F1EC04204619F018
:108E30003FFE20461AF068F82B4AFFF750BA2B493C
:108E40000B22204621F0D5FC002800F00982284999
:108E50000B22204621F0CDFC00284DD1A8F10403BF
:108E600023F007036E46ADEB030DA8F10B0202A938
:108E7000034642F2014E5FFA80F8904504EB030C82
:108E800011D29CF80BC0BCF10D0F2EFA0CF802D8D1
:108E900018F0010F05D103F1010801F803C05FFAD2
:108EA00088F30130E7E707F1EC04204619F000FEF3
:108EB00020461AF029F80F4AFFF711BAE8E5040036
:108EC000F0E50400B46900203F640020E0E5040000
:108ED0001B600020FCE5040004E60400186000208C
:108EE0002CE6040034E604001960002044E6040087
:108EF00050E604003E640020E2490A22204621F0A8
:108F000078FC002800F04483DF490822204621F045
:108F100070FC8146002800F0C6820722DB4920460B
:108F200021F067FC0246002800F02983D8490B2273
:108F3000204621F05EFC0646002800F05B820A22F3
:108F4000D449204621F055FC0246002800F0EC816F
:108F50000922D149204621F04CFC0246002840F06D
:108F6000DA817860CD49CE4801F0D0FFCC4907F1D5
:108F7000140019F03FF8CA4802F082F87A68C9492B
:108F8000C74801F0C3FFC64907F1200019F032F8C5
:108F9000C34802F075F8C44907F12C0019F088FDA8
:108FA00007F1140107F12C0019F00AFF2C2119F028
:108FB00063FFBE4B044693ED000A07F1380002211F
:108FC00019F046FE07F13801204619F0F9FE2C2170
:108FD00019F052FFB64B0A221978044607F14400F3
:108FE00019F0CEFD07F14401204619F0E9FE2C21CD
:108FF00019F042FFAF4B0A221978044607F15000DE
:1090000019F08AFD07F15001204619F0D9FE2C21F4
:1090100019F032FFA84B044693ED000A07F15C00FB
:10902000022119F015FE07F15C01204619F0C8FE77
:109030002C2119F021FFA14B0A221988044607F1BF
:10904000680019F09DFD07F16801204619F0B8FE8F
:109050002C2119F011FF9A4B044693ED000A07F1F9
:109060007400022119F0F4FD07F17401204619F093
:10907000A7FE2C2119F000FF924B0A221978044612
:1090800007F1800019F048FD07F18001204619F032
:1090900097FE2C2119F0F0FE8B4B0A22197804461A
:1090A00007F18C0019F038FD07F18C01204619F00A
:1090B00087FE2C2119F0E0FE844B0A221978044621
:1090C00007F1980019F028FD07F19801204619F0E2
:1090D00077FE2C2119F0D0FE7D4B0A221978044628
:1090E00007F1A40019F018FD07F1A401204619F0BA
:1090F00067FE2C2119F0C0FE764B0A22197804462F
:1091000007F1B00019F008FD07F1B001204619F091
:1091100057FE2C2119F0B0FE6F4B0A221978044635
:1091200007F1BC0019F0F8FC07F1BC01204619F06A
:1091300047FE2C2119F0A0FE684B0A22197804463C
:1091400007F1C80019F01CFD07F1C801204619F00D
:1091500037FE2C2119F090FE614B0A221978044643
:1091600007F1D40019F0D8FC07F1D401204619F01A
:1091700027FE2C2119F080FE5A4B0A22197804464A
:1091800007F1E00019F0FCFC07F1E001204619F0BE
:1091900017FE2C2119F070FE07F1EC040646524927
:1091A000204619F085FC2146304619F009FE2C2195
:1091B00019F062FE07F1200119F002FE014607F1E5
:1091C000080019F08BFD204619F080FD07F1E00042
:1091D00019F07CFD07F1D40019F078FD07F1C80003
:1091E00019F074FD07F1BC0019F070FD07F1B00033
:1091F00019F06CFD07F1A40019F068FD07F1980063
:1092000019F064FD07F18C0019F060FD07F1800092
:1092100019F05CFD07F1740019F058FD07F16800C2
:1092200019F054FD07F15C0019F050FD07F15000F2
:1092300019F04CFD07F1440019F048FD07F1380022
:1092400019F044FD07F12C0019F040FD07F1200052
:1092500019F03CFD07F1140019F038FDFEF752BC7F
:1092600007F1EC042149204619F022FC204BFEF7BF
:10927000FBBE204907F1080019F056FDB546FEF780
:1092800041BC00BF5CE6040068E604008CE6040014
:1092900094E60400BCE60400C8E60400D0E2040042
:1092A00050680020F8E20400D4E604009C6000202E
:1092B0000D60002014600020106000201660002067
:1092C000086000201C6000200C6000201D60002051
:1092D0001A6000201B6000203F6400203C640020D6
:1092E000186000203E6400206064002034E6040022
:1092F000196000200CE6040007F1EC04C349204685
:1093000019F0D6FBC24B07F1E00019780A2219F0D8
:1093100003FCFEF71EBCBF4907F1080019F004FD6D
:1093200007F1EC04FEF7EEBBBB49BC4801F0EEFDD3
:1093300007F1EC04BA49204619F0BAFB07F1E00046
:10934000B64918F057FE07F1E001204619F038FD44
:10935000014607F1080019F0C1FC07F1E00019F01F
:10936000B5FC204619F0B2FCAC4801F089FEFEF7CE
:10937000C9BB07F1EC04AB49204619F099FBAA4B95
:109380001988FEF772BE07F1EC04A849204619F0CF
:109390008FFBA74B07F1E00019780A2219F0BCFBFC
:1093A000FEF7D7BB07F1EC042046796019F080FB8B
:1093B000204619F0AFFD9F4811F0E8F90646204617
:1093C00019F084FC002E40F0EC807968204619F0FA
:1093D0006FFB204619F09EFD974B204683ED000A57
:1093E00019F074FC954907F1080019F09DFCCD4671
:1093F000FEF788BBA8F1040323F00703E946ADEBB1
:10940000030DA8F10B080DF1080A424650463146FB
:1094100020F0C0FA3346324642F20140DEB2B04597
:1094200004EB02010CD9C97A0D2920FA01F601D802
:10943000F60703D4561C0AF80210F2B20133EDE726
:1094400075497F4801F0A4FB402200217D4820F0AF
:10945000A1FA424651467B4820F074FA6E496F48A3
:10946000012201F053FD002800F0CA8051466B48EC
:1094700018F0CEFB694801F003FE5046FDF7B6F840
:109480006E4907F1080019F04FFC002300936E4964
:109490006E4801234FF4806219F0EEFD07F1EC04F1
:1094A000CD46FEF72FBB08F1FF3323F007036E46CE
:1094B000ADEB030DA8F108080DF1080A4246494634
:1094C000504620F067FA4B46494642F201425FFAA5
:1094D00083FCC44504EB01000FD2007A0D2822FA68
:1094E00000FC02D81CF0010F05D101F1010C0AF8B3
:1094F00001005FFA8CF10133E9E7DFF87881544924
:109500004F480024C8E90044C8E9024401F040FB88
:109510004F494248012201F0F9FC00283EF4E8AD31
:1095200051463E4818F074FB3C4801F0A9FD4849FB
:109530003A48224601F0EAFC384801F0CDFDB8B1C6
:10954000DFF8D890484601F097FB20B1484601F07B
:10955000CFFB08F804000134102CF3D12F4801F0A0
:109560008FFD364907F1080019F0DEFBFEF76BBDF1
:10957000384907F1080019F0D7FBFEF764BD3449FC
:10958000264807F1EC0401F0C1FC33492046D3E63C
:1095900007F1EC043149204619F08AFA304BFEF706
:1095A00063BD3049204619F083FA86EAE6732E4AF5
:1095B000A3EBE6739BB20C2101FB0321204619F0BB
:1095C000FFFB014607F1080019F088FB204619F05F
:1095D0007DFBCD46FEF796BA244B1E70FCF7E0FFEC
:1095E000164907F1080019F09FFB00961649174825
:1095F00001234FF4806219F03FFDCD46FEF782BA99
:109600001B4907F1080019F08FFB47E704E6040047
:1096100018600020E0E60400F8E204005068002032
:1096200094E6040070E504001660002028E50400BC
:1096300014600020B46900201060002064E304007E
:10964000006C002070640020617902009497002073
:10965000E4E2040074E6040068E6040050E6040056
:109660003E64002014E50400F06600200D60002038
:10967000A0E604006064002010B5074B044640F8E3
:10968000183B0CF0D3FA2046044B40F8083B0EF090
:10969000DBFA204610BD00BF68F00400D4EF0400E0
:1096A00010B5044B044640F8083B0EF0CDFA2046B6
:1096B00010BD00BFD4EF040010B5074B044640F8BE
:1096C000183B0CF0B3FA2046044B40F8083B0EF070
:1096D000BBFA204610BD00BFBCF00400D4EF04006C
:1096E0002DE9F04F2DED028BBF4EADF5737D337834
:1096F00002AFABB9BD4B1B78002B37D1BC4A1378F6
:10970000002B6BD1042018F0ABF90446002800F0C0
:10971000B08007F57177BD46BDEC028BBDE8F08FD8
:10972000B448B54D14F08AFAB44BB54A1B6890FBA7
:10973000F3F101FB130302EB830393ED000AAD4841
:1097400011F024F82B68012B00F07B8201332B6091
:1097500014F070FEAB4B0246A6481A6014F078FA7B
:1097600000233370A14B1B78002BC7D0A14807F111
:10977000DC0514F06DFA4FF000030021F1222846B9
:10978000337020F007F90021F72207F5E87020F088
:1097900001F998480022294612F088FC0646002864
:1097A00000F0A380984B1B78002B00F05382012B14
:1097B00000F0A383022B00F0C4838F4D934B8B49A1
:1097C0001A7800230B702B60002A40F02F82894802
:1097D00012F064FF864A1378002B93D04FF00003F9
:1097E000137014F027FE8A4E8A4A306007CA07F5C4
:1097F000327A554603C5DFF810822A80002107F22D
:10980000D220ED2220F0C6F898F80030DFF8209240
:10981000002B00F0EF81012B00F0F682022B00F00C
:109820003783D9F800301C4623B97B4B1B78002BBB
:1098300040F02D82704D7948F72251460FF0DEFA44
:10984000724B1B7800222A60002B40F0B381674CDA
:109850007349684800230422237013F063FC6548B1
:1098600012F01CFF042018F0FBF8044600287FF4D7
:1098700050AF01466B480BF0F9FF6B480EF02CFF20
:1098800085B245B1684E2146013430460EF042FFA4
:10989000A1B28D42F8D863480CF0C6F8554812F0D2
:1098A00073F90624032018F0FDF8013C642014F03D
:1098B000CDFD14F0FF04F5D12146032018F02EF859
:1098C0002146022018F02AF80521042018F026F875
:1098D0002046042118F022F8FCF7F4FC07F5717714
:1098E000BD46BDEC028BBDE8F08F504B1B78002BC2
:1098F00000F0A0802B78002B00F0A282012B40F01A
:109900009980C5F1100102462B46796107F5327A3C
:1099100006E00132D2B207F5E671994200F07A838F
:10992000597B93F80EC093F8099093F80A8093F846
:1099300005E0F8650E46002166F307015E7838669B
:1099400034466CF30F217E6993F80FC078666CF390
:10995000174106EB030C5FFA8CFCDE7915F80CB0AE
:1099600093F806C0B8666BF31F61C7F8D4120021E4
:1099700069F3070168F30F2193F80B8093F80290C5
:1099800068F3174193F80C8068F31F614FF00008EB
:109990006EF307086CF30F28C7F8D0124FF0000CD5
:1099A000197A66F3174864F3070CDE7861F31F68D1
:1099B00069F30F2C1979C7F8CC8266F3174C61F361
:1099C0001F6CC7F8C8C2DAF8001010330029A0D104
:1099D00080459ED1D7F8D04284429AD1D7F8D4425C
:1099E000844296D197E700BF4C680020006B0020AE
:1099F000FC6B0020B4690020A86900209060002062
:109A00000CE90400AC690020B06900200D60002062
:109A1000F46B002014E804003D6400201066002070
:109A2000D562020024900020E48900201960002003
:109A3000F86B00202946F12207F5E8701FF082FF3D
:109A4000DFF8C08398F80030002B00F0AC81012BC8
:109A500000F07082022B00F0C182D64BD64D1B78ED
:109A6000002B3FF4ABAED54907F5327019F020F862
:109A70000A22296807F15C0019F082F807F15C01FD
:109A800007F5327019F09CF907F1200901464846A4
:109A900019F028F807F15C0019F018F907F5327091
:109AA00019F014F9C64907F5327019F001F80022CF
:109AB000C448012111F0AEFC022107F15C0019F04D
:109AC000C7F807F15C0107F5327019F079F9BE4962
:109AD00019F0A2F907F12C030146184608EE103AD6
:109AE00019F000F807F15C0019F0F0F807F5327092
:109AF00019F0ECF8B54907F5327018F0D9FFB14804
:109B000011F05CFF022107F15C0019F0A1F807F1E8
:109B10005C0107F5327019F053F907F13C0B01466F
:109B2000584618F0DFFF07F15C0019F0CFF807F591
:109B3000327019F0CBF8A64907F5327018F0B8FF6B
:109B4000A048002113F050FB022107F15C0019F03E
:109B50007FF807F15C0107F5327019F031F99D4982
:109B600019F05AF907F14C03014618461E4618F041
:109B7000B9FF07F15C0019F0A9F807F5327019F088
:109B8000A5F898F80030002B00F07081012B00F050
:109B9000A084022B00F02B85304619F097F8584628
:109BA00019F094F818EE100A19F090F8484619F0D8
:109BB0008DF803E6884A894B1278824803EB8203CA
:109BC00093ED000A10F0E2FD054600283FF43FAE99
:109BD0008349844817F0CAFF85EAE573A3EBE57370
:109BE000814980489BB203EB430301EB830118F0EA
:109BF0003DF82CE67D4907F5E87018F059FFD9F8D3
:109C000000307949002BB8BF5B4203EB430301EB03
:109C1000830107F5E87019F0D3F80146714818F090
:109C200025F807F5E87019F051F8FAE56A4A6B4B28
:109C30001278644803EB820393ED000A10F0A6FD4E
:109C4000C5E514F0F7FB6A4B6A4A19682B68401A9D
:109C500010607BE56549584D07F5327018F028FF14
:109C600086EAE673A3EBE6735F499BB203EB43031B
:109C700001EB830107F5327019F0A2F8014659484B
:109C800017F0F4FF07F5327019F020F896E5DFF8C9
:109C900060B1584BDBF8002018683368464D4749DF
:109CA00002449B1A07F5E8707B6118F001FF2968F0
:109CB0000A22013107F1DC0018F062FF07F1DC0134
:109CC00007F5E87019F07CF807F1200901464846CD
:109CD00018F008FF07F1DC0018F0F8FF07F5E8704E
:109CE00018F0F4FF444907F5E87018F0E1FEDBF8DE
:109CF000003031680A22C91A07F1DC0018F074FF3D
:109D000007F1DC0107F5E87019F05AF83B4919F042
:109D100083F807F12C020146104608EE102A18F0CD
:109D2000E1FE07F1DC0018F0D1FF07F5E87018F04C
:109D3000CDFF334907F5E87018F0BAFE7B69296852
:109D4000B3FBF1F10A2207F1DC0018F04DFF07F137
:109D5000DC0107F5E87019F033F8284919F05CF8D0
:109D600007F13C0B0146584618F0BCFE07F1DC0039
:109D700018F0ACFF07F5E87018F0A8FF98F800306D
:109D8000002B65D0012B00F09683022B00F0B483EA
:109D9000584618F09BFF18EE100A18F097FF484637
:109DA00018F094FF47E507F5E871F7220D4806F033
:109DB000E3FE52E63D640020A8690020FCE60400B2
:109DC00018E70400B469002044E7040048E70400F1
:109DD00070E704008CE70400146000200CE9040024
:109DE000CCE70400A87C0020F066002014E5040005
:109DF000F06B0020EC6B002090E70400A8E7040063
:109E0000ACE70400B0690020784907F5E87018F065
:109E10004FFED9F800307649002BB8BF5B4203EB08
:109E2000430301EB830107F5E87018F0C9FF014611
:109E3000704817F01BFF07F5E87018F047FFF0E4D3
:109E4000F02207F1DD0107F5E8701FF07BFDF7E573
:109E50004946694817F00AFF18EE101A664817F0CD
:109E600005FF5946644817F001FF91E749466248EB
:109E700017F0FCFE18EE101A5F4817F0F7FE59466F
:109E80005D4817F0F3FE31465B4817F0EFFE83E6BE
:109E9000802207F5E87000211FF07CFDD9F8003022
:109EA0005349002BB8BF5B4203EB430301EB830133
:109EB00007F1DC0018F016FE504907F1DC0018F03D
:109EC000ABFF014607F15C0018F00CFE07F1DC0067
:109ED00018F0FCFE7A6E0023013207F5E87107F1F5
:109EE0005C0018F0F7FF07F5E871504620F044FCDD
:109EF00007F15C0018F0EAFE93E43C49404D07F599
:109F0000327018F0D5FD86EAE673A3EBE6733849A4
:109F10009BB203EB430301EB830107F5327018F0AA
:109F20004FFF0146334817F0A1FE07F5327018F0D5
:109F3000CDFE43E407F5E871F7222E4818F030FB18
:109F40008BE5304BDFF8C8902D4D93E8070007F5FF
:109F5000327303C300211A8007F2D220ED221FF0D2
:109F600019FD802207F15C0000211FF013FDD9F8D4
:109F700000301F49002BB8BF5B4203EB430301EBEA
:109F8000830107F14C0018F0ADFD1C4907F14C00AE
:109F900018F042FF014607F13C0018F0A3FD07F15D
:109FA0004C0018F093FE7A6C0023013207F15C013B
:109FB00007F13C0018F08EFF07F15C0107F53270E5
:109FC00020F0DAFB07F53271F7220F480EF016FF8A
:109FD00007F13C0018F07AFEFFF7F0BB07F5E871D7
:109FE000F7220A480FF094F837E500BF14E50400A3
:109FF000F0660020E8960020A87C002020F90400EC
:10A00000A869002014E8040010660020F86500200C
:10A01000F86B0020023A12F0FF033B603FF4CDAB37
:10A02000CA4CD7F8E110D7F8E520D7F8E930D7F8CF
:10A03000DD0094F814C0D4F80C9007F12C0608EE5B
:10A04000106A0FC6002307F14C02C7E91333C7E9B2
:10A05000153361681646E846BCF1000F00F0DA825D
:10A0600079611BF067FC7969002840F0D382B74C16
:10A070004A46A36950461BF07FF8B54B3B6210205F
:10A080007862E16907F12002082350461BF0B4F81A
:10A09000002840F0BF82AD4B9B68994506D0AD4982
:10A0A00050461BF0CDF8002840F0B48218EE103A6C
:10A0B0000FCB07F13C0B4FF0000C07F15C0484E878
:10A0C0000F00CBE900CC5B46CBE902CC1022214645
:10A0D00050461BF0CDF8034648B907F11C02CDE904
:10A0E00000B2014607F15C0250461BF0FFF83368EE
:10A0F000DBF800209A42C5467FF45FAB3A6C3B6DBB
:10A100009A427FF45AAB7A6C7B6D9A427FF455ABDE
:10A11000BA6CBB6D9A427FF450AB8C4CD7F8F110FF
:10A12000D7F8F930D7F8ED00D7F8F52094F814C037
:10A1300018EE106A0FC6E36861681E46E846BCF177
:10A14000000F3DD079611BF0F5FB002838D17F4C22
:10A150007969A369324650461BF00EF87C4B3B628E
:10A1600010207862E16907F12002082350461BF0B5
:10A1700043F828BBA3689E4204D0764950461BF0A2
:10A180005FF8E8B918EE103A0FCB07F15C0484E8E9
:10A190000F00214600245B46CBE90044CBE9024492
:10A1A000102250461BF064F8034648B907F11C0220
:10A1B000CDE900B2014607F15C0250461BF096F86B
:10A1C0005846C54620F00DFB80465FFA88F3F7221B
:10A1D000002107F5E8701C461FF0DCFBB8F1000F0A
:10A1E00007D0621ED2B20132594607F5E8701FF05F
:10A1F000A9FB22460232104607F5E8735FFA80F9A0
:10A2000007F5E87043443A2100F8081020220021A5
:10A2100039615A704FF02108C7F814B008F10C02E8
:10A2200008F10903DBB2D2B215F803E0AA5C15F815
:10A230000830BB60002362F3070308F10102D2B2C9
:10A2400008F10D01AA5C7A60C9B208F10E02D2B21F
:10A25000695CAA5C61F30F2362F3174308F10F02F4
:10A26000D2B208F1080CAA5C5FFA8CFC18EE106AF6
:10A2700008F10A0115F80C4062F31F63C9B2F360DC
:10A28000002315F801C064F307036EF30F2308F1F0
:10A2900004006CF3174308F10B0CC0B25FFA8CFC9E
:10A2A00008F1060115F800B015F80CC008F105001A
:10A2B000C9B2C0B26CF31F63695CF960285CB3601B
:10A2C0000023F9686BF3070360F30F23B86808F104
:10A2D000020261F31743002108F1070E60F3070142
:10A2E000D2B27868AA5C08F1030C5FFA8EFE60F3C4
:10A2F0000F215FFA8CFC154815F80EE015F80CC01C
:10A30000C46862F31741027DFA606EF31F636CF359
:10A310001F617360FB68316008F110084168B96023
:10A320005FFA88F80646EB46002B4AD01BF002FB8A
:10A33000002846D1B968B369224650461AF01CFF7E
:10A34000034838624FF0100C06E000BFB0640020F4
:10A350005064002040640020F169C7F824C008233D
:10A3600007F1200250461AF047FF50BBB3689C42E9
:10A3700004D0AA4950461AF063FF10BB18EE103AF9
:10A380000FCB7E694FF0000C07F15C0484E80F00EE
:10A39000C6E900CC3346102221465046C6F808C014
:10A3A000C6F80CC01AF064FF58B97A6907F11C03AB
:10A3B000CDE900230146034607F15C0250461AF03E
:10A3C00095FF09F104037E693C6996F800C05FFAC5
:10A3D00083FE07F5E87309F1010003F809C0C0B274
:10A3E00007F5E87396F801C003F800C009F102020E
:10A3F000D2B207F5E873B078985409F10301C9B2F5
:10A4000007F5E873F078585409F1050207F5E87389
:10A4100007F5E87C307903F80E00D2B209F10601A5
:10A4200070790CF80200C9B209F10703B0790CF891
:10A430000100DBB209F10802F0790CF80300D2B296
:10A4400009F10901307A0CF80200C9B209F10A03D6
:10A45000707A0CF80100DBB209F10B02B07A0CF84B
:10A460000300D2B209F10C01F07A0CF80200C9B273
:10A4700009F10D03307B0CF80100DBB2717B013474
:10A4800009F10E02D2B23C610CF8031009F10F037E
:10A49000DBB2B17B0CF80210F27B0CF803203A68B7
:10A4A000E3B209F110099A42DD465FFA89F93FF6F5
:10A4B000B5AEFFF7C5BA4946594817F0D7FB18EEB5
:10A4C000101A574817F0D2FB5946554817F0CEFBE3
:10A4D0005EE44946524817F0C9FB18EE101A50487E
:10A4E00017F0C4FB59464E4817F0C0FB31464C48A4
:10A4F00017F0BCFBFFF750BB8022214607F15C0040
:10A500001FF048FA494607F5E87018F0EBFA45499C
:10A5100007F5E87018F080FC0146484618F0DEFBAD
:10A5200007F5E87018F0D2FBD9F80820234607F1A8
:10A530005C010132484618F0CDFC07F15C01504641
:10A5400020F01AF98022214607F1DC001FF022FAE0
:10A5500007F5E87318EE101A184618F0C3FA07F555
:10A56000E87318462F4918F057FC014618EE100AF8
:10A5700018F0B4FB18EE106A07F5E873184618F0E7
:10A58000A5FBB268234618EE100A013207F1DC0180
:10A5900018F0A0FC07F1DC01504620F0EDF8802215
:10A5A000214607F5E8701FF0F5F9594607F14C0010
:10A5B00018F098FA1B4907F14C0018F02DFC0146E1
:10A5C000584618F08BFB07F14C0018F07FFBDBF8C6
:10A5D000082007F5E87158462346013218F07AFC46
:10A5E00007F5E871504620F0C7F8FFF7D1BB4946A0
:10A5F0000D4817F03BFB18EE101A0B4817F036FB0E
:10A600005946094817F032FB3146074817F02EFB30
:10A61000FFF7C2BA07F13C0B69E500BF40640020B8
:10A62000E896002020F9040010660020F0B5B54837
:10A63000F7B006F057FA88B9B34817F061FF002861
:10A640004BD1B2480EF03AFB002840F08580B04B69
:10A650001B78002B40F0C18077B0F0BDAD4BA94C0A
:10A66000002664201E7013F0F1FE204606F03AFA30
:10A67000D022C3B2934238AD28BF13463146284694
:10A680001E461FF087F92946D022204617F090FC7D
:10A6900001E006F04DFA204606F024FA0346204673
:10A6A000002BF6D1BDF8E02045F241439A4200F07C
:10A6B0001881994B1B78002B40F0F380974B1C7846
:10A6C000002C00F0D680964B29461878FCF7ACFE9B
:10A6D0008D4817F015FF0028B3D08E4B8A4C01220D
:10A6E00064201A7013F0B2FE204617F009FFD02242
:10A6F000C3B2934238AD28BF1346284600211E46F8
:10A700001FF048F92946D022204617F051FC01E0FD
:10A7100017F0FEFE204617F0F3FE03462046002BFE
:10A72000F6D1BDF8E02045F241439A4200F0C880DE
:10A73000794B1B78002B40F0BE80784B1C78002CA6
:10A7400064D0774B29461878FCF76EFE6F480EF000
:10A75000B5FA00283FF47BAF6E4B6C4E02224FF4EB
:10A760007A701A7013F072FE30460EF0A7FAD022FB
:10A770000746002104A81FF00DF904AC38AD30469F
:10A780000EF0ECFAC0B2FF2818BF20700134AC42C2
:10A79000F5D15E4E01E00EF0E1FA30460EF08EFA91
:10A7A00004463046002CF6D1BDF8102045F2414356
:10A7B0009A4200F0CB80584B1B78002B76D1574B38
:10A7C0001C78002C3AD0564B04A91878FCF72CFEC4
:10A7D0004F4B1B78002B3FF43FAF524C13F02AFE37
:10A7E000226842F20F73801A98427FF635AF4E4AC4
:10A7F0004E4B12784E4803EB820393ED000A0FF0A4
:10A80000C5FF13F017FE206077B0F0BD49494848F6
:10A81000042212F087FC48494548042212F098FCB3
:10A8200013F008FE454B02461A6041482346324663
:10A83000294612F023F8424B186002E73D493C4894
:10A84000042212F06FFC3C493948042212F080FCCB
:10A8500013F0F0FDFAB2394B0146D02A19603448A2
:10A86000234628BFD02204A912F008F8344B186000
:10A87000EDE630492E48042212F054FC2E492C48B3
:10A88000042212F065FC13F0D5FD2C4B02461A6031
:10A89000274823463246294611F0F0FF284B18601E
:10A8A000CAE62849174817F027FA07E72549264836
:10A8B00017F022FA83E72349134817F01DFA3CE703
:10A8C000AB782B2B7FF434AF3246294604A8FDF732
:10A8D00091F804A90C4817F077F904A818F0F6F9D4
:10A8E000AFE6AB782B2B7FF4E4AE3246294604A8C2
:10A8F000FDF780F804A9034817F066F904A818F0DA
:10A90000E5F999E6A87C0020E8960020F86500208B
:10A910000D600020B06900203D6400201960002017
:10A920003E640020AC690020146000200CE90400A3
:10A93000B4690020C9620200E1620200F06B0020ED
:10A94000F86B0020FCE70400106600209DF8123030
:10A950002B2B7FF430AF2146F72228461FF01AF840
:10A9600004A901A8D022FDF745F82946234601A8ED
:10A97000F72218F0AFFA01A818F0A8F92946F72233
:10A9800001480EF03BFA62E610660020704700BFF7
:10A9900010B5044618F044FB204610BD38B50A4BEC
:10A9A00004460D46442240F80C3B00211EF0F2FF05
:10A9B0000023A560237104F15401012014F028F84C
:10A9C0002065204638BD00BF14EB040070B5044676
:10A9D0000E46006D4FF0FF3114F092FA257955B90B
:10A9E0008EB1A660314604F10C0005F0D5FBB0FA3B
:10A9F00080F56D0925710023206D1A46194613F064
:10AA000057FE284670BDA668002EF4D0EAE700BFC6
:10AA100010B504464FF0FF31006D14F071FA237940
:10AA20003BB90023206D1A46BDE81040194613F0CB
:10AA30003FBE0023237104F10C0005F0C1FCF0E7D8
:10AA400070B505464FF0FF31006D14F059FA2B79BF
:10AA500093B1002305F10C062B71304605F0B0FCD4
:10AA6000044680B10023286D1A46194613F020FED3
:10AA7000B4FA84F0400970BDA96805F10C0004F037
:10AA80002BFF0446EEE7A968304604F025FF044694
:10AA90000028E7D1A968304605F07EFB044600286F
:10AAA000E0D101232B71DDE730B5044695B00D46AA
:10AAB000006D4FF0FF3114F023FA294601AA04F18A
:10AAC0000C0004F0DDFC002302461946206D1446FC
:10AAD0001A4613F0EDFDB4FA84F0400915B030BD0C
:10AAE0002DE9F04F83B00B7800AF2F2B78600CBFAF
:10AAF0004C1C0C4606460D46006D4FF0FF3114F01D
:10AB0000FFF906F10C084FF0000917E0ADEB030D5B
:10AB100068468B4500F8019BEA4601DD1EF03AFFCE
:10AB200029465A4650461EF00DFF5146404603F056
:10AB30000DFD08B1113028D10134B54620462F2132
:10AB40001FF029FEA0EB050B0BF108036E46002158
:10AB5000044623F007035A460028D7D12946404629
:10AB600003F0F4FC60B901247A680023106D1946E3
:10AB70001A4613F09DFD20460C37BD46BDE8F08F08
:10AB8000113014BF00240124EEE70024B546EBE7A2
:10AB900038B504460D46006D4FF0FF3114F0B0F9A2
:10ABA000294604F10C0004F0C3FC002302461946B8
:10ABB000206D14461A4613F07BFDB4FA84F0400968
:10ABC00038BD00BF00207047036970B504460D46CC
:10ABD000186D4FF0FF31164614F092F9237D4BB1FA
:10ABE000002522690023106D19461A4613F060FDF6
:10ABF000284670BD2069A1692A4633460C3003F00F
:10AC0000F3FF20EAE075ECE770B50369044682B013
:10AC1000186D4FF0FF3114F073F9267D4EBB20699B
:10AC2000A1690C3004F01EFC05462069A1698DF86D
:10AC3000076001230DF107020C3004F05FFB0028D0
:10AC40002069A169C8BF9DF807602A4600F10C0081
:10AC50004FF00003D8BF4FF0FF3604F0D3FB22695A
:10AC60000023106D19461A4613F022FD304602B03B
:10AC700070BD4FF0FF36F2E738B5036904464FF078
:10AC8000FF31186D14F03CF9237D4BB1002522698A
:10AC90000023106D19461A4613F00AFD284638BDE8
:10ACA0002069A1690C3004F0DFFB05462069A16929
:10ACB0000C3004F0D7FB2D1AE9E700BF036910B58B
:10ACC00004464FF0FF31186D14F01AF9237D43B19B
:10ACD00022690023106DBDE810401A46194613F092
:10ACE000E7BC2069A1690C3004F0E4F9F0E700BF8B
:10ACF00030B50369044683B0186D4FF0FF3114F08E
:10AD0000FFF8257D55B122690023106D19461A46BA
:10AD100013F0CEFC4FF0FF3003B030BD2069A169C5
:10AD20000DF1070201230C3004F0E8FA23692A46EA
:10AD300004462946186D2B4613F0BAFC002CCCBFF4
:10AD40009DF807004FF0FF3003B030BD30B5036809
:10AD5000164A5B6883B093428DF807101ED10369D1
:10AD600004464FF0FF31186D14F0CAF8237D53B13B
:10AD7000002522690023106D19461A4613F098FC2D
:10AD8000284603B030BD2069A1690C3001230DF1C4
:10AD9000070203F029FF20EAE075EAE701220DF13E
:10ADA000070198470546284603B030BDC9AB0200ED
:10ADB00030B4074C016100224FF47A75C0E90042BB
:10ADC0008560C0E9062230BC027580F820207047FB
:10ADD0002CEB0400F0B5836997B004460D46164687
:10ADE00093B1077D006919460C30002F45D003F060
:10ADF000ADFDA06913F060FBE0690023A36108B119
:10AE000013F05AFB0023E361206903AA0C302946A2
:10AE100004F036FB98B99DF80C30112B34D02C205F
:10AE200013F030FB0146A06130B120692A460C3096
:10AE300003F064FD002839D0002017B0F0BD0230C7
:10AE4000FAD1012EF8D1382013F01CFB0146A06185
:10AE50000028F1D0206940F203130C302A4603F099
:10AE600011FE06460028E7D12069A1690C300223B3
:10AE7000324604F0C7FA267509E004F09DF9A0698E
:10AE800013F01AFBA761BFE7EEB1012E3AD02F21D4
:10AE900028461FF0D3FC203400B1451C294620462B
:10AEA00040221FF0B8FC012017B0F0BD012323752C
:10AEB00028461FF096FC013013F0E4FA2946E061C1
:10AEC0001FF076FCE3E701233820019313F0DAFA50
:10AED000019BA06101460028AED020692A460C30B3
:10AEE00003F0D0FD0028A7D1012E02D00023237546
:10AEF000CDE72369A169024603F10C00022304F0A7
:10AF000081FAF3E740F20313DEE700BF30B50369CF
:10AF100083B004460D46186D01924FF0FF3113F0D7
:10AF2000EFFF019A29462046FFF754FF21690023CD
:10AF300002461446086D1A46194613F0B9FB20461E
:10AF400003B030BD70B504460025C4E9065510486D
:10AF5000236182B0206084F820504FF47A700E464E
:10AF6000A0604FF0FF31186D65602575019213F0F8
:10AF7000C7FF019A31462046FFF72CFF22692B4676
:10AF8000106D29462A4613F093FB204602B070BD8F
:10AF90002CEB0400036970B504460D46186D4FF0A4
:10AFA000FF31164613F0ACFF237D4BB1002522691B
:10AFB0000023106D19461A4613F07AFB284670BD1F
:10AFC0002069A1692A4633460C3004F097F90546FA
:10AFD000EDE700BF38B5036904460D46186D4FF024
:10AFE000FF3113F08DFF237D4BB100252269002333
:10AFF000106D19461A4613F05BFB284638BD2069D0
:10B00000A1692A460C3004F0FDF9C543ED0FEDE7C8
:10B0100038B5036904464FF0FF31186D13F070FF27
:10B02000237D4BB1002522690023106D19461A4675
:10B0300013F03EFB284638BD2069A1690C3004F0AE
:10B0400011FA0546EFE700BF38B5036904464FF033
:10B05000FF31186D13F054FF237D4BB10025226999
:10B060000023106D19461A4613F022FB284638BDFE
:10B070002069A1690C3004F0F7F90546EFE700BF3D
:10B08000036970B504464FF0FF31186D13F038FFB7
:10B09000A16981B12069257D0C30ADB103F056FC6A
:10B0A000A06913F009FAE0690023A36108B113F065
:10B0B00003FA0023E36122690023106DBDE87040AC
:10B0C0001A46194613F0F4BA04F076F8A06913F0A2
:10B0D000F3F9A561EFE700BF8069003818BF0120D0
:10B0E000704700BF2DE9F04F95B00B6906460C463E
:10B0F000186D4FF0FF3100AF904613F001FF0023B1
:10B100002069337586F82030227D2B4930614FF459
:10B110007A70C6E90013C6E90633B060DAB342F6C6
:10B120002E652069A1690C303A1D03F023FC01282B
:10B1300031D1BB892E2BF4D0AB4238D0D4F81C903F
:10B1400048461FF04EFB054607F10C001FF049FB77
:10B150002B18093323F00703EA46ADEB030D6846CD
:10B160006A1C49461EF0EEFB99F800302F2BEB4687
:10B1700002D199F801301BB1104B1B882BF8053018
:10B1800007F10C0158461FF0F7FA4246594630467F
:10B19000FFF720FED54622690023106D19461A4696
:10B1A00013F086FA30465437BD46BDE8F08FBB7BBE
:10B1B000002BB6D0C2E700BF2CEB040020EB04004C
:10B1C0002DE9F04F85B0DDE90E4B109F81460D460D
:10B1D00090461E46002F63D0B8F1000F03D0D8F878
:10B1E0000030B34249D0D9F800002B689E422BD0E2
:10B1F0004369B4FBF3F203FB1242BAB9BB4215D860
:10B20000B7FBF3F203FB127AA7EB0A030093039355
:10B21000436822461F4631465B46B84788B9039BC0
:10B2200057469B441C44002FD6D139E00093A21A04
:10B23000C5E90062D0F804A0AB683146D0470028C9
:10B24000CAD005B0BDE8F08F69684369A142D0D883
:10B25000CA18A242CDD9A2EB040ABA45AB6828BFEE
:10B26000BA46611A524658461944BF1A54441EF051
:10B2700069FBD344002FAFD112E0D8F80430A342C9
:10B28000B1D8D9F8000082691A44A242ADD9A2EB24
:10B29000040ABA45D8F8081028BFBA46E31AE1E70D
:10B2A000002005B0BDE8F08F2DE9F04F074687B0CC
:10B2B0000D4672B30368D1F800B090469A69D1E99F
:10B2C00001104AB3013A01F101098618A9EB0009FE
:10B2D000441E4FF0010A08E014F8012F9DF81730C2
:10B2E0009A4223D1A6423B6814D01A6A934509EBCF
:10B2F000040320D20DF11702CDE90032CDF808A0E9
:10B300005B46002241463846FFF75AFF0028E3D04B
:10B3100009DB3B68A8689A69FF211EF03BFB4FF0F0
:10B32000FF332B60002007B0BDE8F08F6FF03300D3
:10B3300007B0BDE8F08F034B034A044812211EF00A
:10B340005FFA00BF48EB040060ED040068EB040006
:10B350002DE9F04F87B0DDF840A00592002B64D0B6
:10B36000D0F800908B46D9F81C105C1EA1F108089B
:10B370004445074651D3B4FBF8F001381EF0C2F83B
:10B38000D04500F10200A4EB8003B3FBF8F560D8D0
:10B39000BAFBF8F001381EF0B5F8861CAAEB860659
:10B3A000B6FBF8F630461EF0ADF8AAEB800006FBBF
:10B3B000180AB54243D9D9F82020059B4FF004095B
:10B3C0000DF114080BE0012B45D93A68126A93423B
:10B3D00041D8012101FA04F42D1BB54230D9AC1B30
:10B3E000B4FA84F495FAA5F1C4F11F04B1FA81F11D
:10B3F0008C4228BF0C4693424FEA840132D200911E
:10B40000CDE90189002259463846FFF7D9FE059B50
:10B410000028D8D007B0BDE8F08FD04588BF1346CC
:10B42000BAFBF8F00CD80025B4E711994FF0FF32C1
:10B430000A60129A1846136007B0BDE8F08F059BAA
:10B44000119A1360129B0020C3F800A007B0BDE85A
:10B45000F08F0026ADE7064B064A07484FF48F6190
:10B460001EF0CEF9054B064A034812211EF0C8F91A
:10B47000D4EB040080ED040068EB040048EB04000A
:10B4800060ED04002DE9F04F89B00746149C129D31
:10B490008B4692461E46002C55D0DBF80030B34256
:10B4A0005CD0013340F0A18038688269B5FBF2F3CB
:10B4B00002FB1353002B4AD1A24248D8B4FBF2F34B
:10B4C00002FB13430593E31A009304938468139BD0
:10B4D0002A463146A04700287ED1BAF1000F29D074
:10B4E000049B3BB3139B5C1E049B04EB0309139B5F
:10B4F00005F10108A8EB030807E014F8012F9DF8F7
:10B500001F309A4266D14C4514D03B681A6A964265
:10B5100008EB040363D2012202920DF11F02CDE970
:10B5200000325146334600223846FFF749FE0028D4
:10B53000E3D051DB139A049B059C114619441391E7
:10B540001D44002CA9D1002009B0BDE8F08FEB1AF2
:10B55000CBE90063DBF80030B342A2D1DBF8041082
:10B56000A9429ED83A6892690A44AA4299D9A2EBA4
:10B570000508A045DBF8080028BFA046691A084462
:10B58000424613991EF0DEF93868139982694544E2
:10B590004144B5FBF2F302FB1353A4EB08041391EF
:10B5A000002B7FF478AFDBF800104B1C3FF473AF37
:10B5B0000092DBE90123D0F80880C04760B9524609
:10B5C00059463846FFF770FE00283FF464AF09B0D3
:10B5D000BDE8F08F6FF0330009B0BDE8F08F064B87
:10B5E000064A074812211EF00BF9064B064A04488A
:10B5F000B7211EF005F900BF48EB040060ED040020
:10B6000068EB040000EC040070ED04002DE9F04F3D
:10B610000446D2E9003091B04FF0010B0A930023A9
:10B620000B90069104F114080DF128090593236885
:10B6300059F8045B1B6A9D427BD210230DF1300A3E
:10B640000022CDE901A300922B4641462046FFF798
:10B65000B7FD002839D1059B002B60D10D9B23F04D
:10B660000043132B4FD92268D26993424BD84FF035
:10B67000FF3309A810225146099304F0BFFE0D9B29
:10B6800023F00043102B28D0CDF81C9010260DF18C
:10B690002307994607E001360122394609A804F03C
:10B6A000ADFEB14517D023681B6A9D4241D20123EC
:10B6B000CDE9017300962B46002241462046FFF754
:10B6C0007FFD0028E7D0DDF81C9010F1340F1AD070
:10B6D00011B0BDE8F08FDDF81C90099B9BB99AE88A
:10B6E0000F000BF0010610AF07EB860C069F10262B
:10B6F000FE603E467D601C365CF8185CBD6086E8E6
:10B700000F0001230593BBF1020F0FD1059B002B06
:10B7100014BF00206FF0330011B0BDE8F08F069A1F
:10B720000C9BD2699B1A002B98DAECE74FF0020BC6
:10B730007DE7034B034A044812211EF061F800BF65
:10B7400048EB040060ED040068EB0400436801333B
:10B7500037D02DE9F0438368013383B0044628D005
:10B7600015460E464FF000084FF001096A4629467B
:10B77000CDE90089FFF74AFFE0B905F124086B6ABB
:10B78000591C16D0AF6A7A1C13D0D6F800C09C455D
:10B7900013D0D6F804E0BE450FD073454246294683
:10B7A00020460AD0BC4508D0FFF730FF0028E6D07D
:10B7B00000E0002003B0BDE8F083012003B0BDE845
:10B7C000F0830020704700BF2DE9F041D1F820C080
:10B7D0000C46C9682CF00043043B01F10C069E4264
:10B7E00084B0054617461FD904F12408102612E03C
:10B7F000424621462846FFF709FF90B9D4F820C0F9
:10B80000A169E6602CF00043043B14311B2BA161BD
:10B810004FF0100108D8BCF1000FE9DB39606FF080
:10B82000010004B0BDE8F0812A46636852F8140BA9
:10B83000066AB34207F104001AD20C26CDE90010C3
:10B840000296114628460022FFF7BAFC0028E8D1EC
:10B850007B79BA79FD79A16904331344E2683A60CF
:10B860002B441A440B44E260A36104B0BDE8F081AC
:10B87000024B034A034812211DF0C2FF48EB0400AB
:10B8800060ED040068EB0400F0B593B000260D46AF
:10B89000012707A96A46CDE900670446FFF7B6FE0F
:10B8A000064610B121E0831C22D1109B01331CD02D
:10B8B000119B013319D010AA07A92046FFF7A6FE55
:10B8C000B0B903AA07A92046FFF77EFF0028EAD1F6
:10B8D0009DF91030002B4FF00802294605A8F0DB37
:10B8E0001EF022F80028ECD10126304613B0F0BD3E
:10B8F0000646304613B0F0BD2DE9F0471646002449
:10B900000122C6E90942824688461D4606F12409FD
:10B910004A4631465046FFF779FE074668B92A463F
:10B9200031465046FFF750FF50B1831C1FD1736A58
:10B93000013302D0B36A0133EAD13846BDE8F0875B
:10B940002C7904F07004202CE9D1AB68D8F80020E1
:10B95000934208D0E868D8F80410884203D08B429C
:10B9600001D08242DBD101273846BDE8F087074687
:10B97000E3E700BF2DE9F04F2DED028B8DB090462F
:10B980001C46099340F622032268C8F80430089246
:10B99000D0E90123724EC8F8082082468946C8F8CB
:10B9A0000C3000F1140B089D314628461EF05AFF5A
:10B9B0002B46034404463146184605931EF000FF0B
:10B9C0000128049000F0B080022804D1059B1B7868
:10B9D0002E2B00F0B280DDE90423134408931F46A8
:10B9E0000124314638461EF03DFF074438463146B3
:10B9F0001EF0E6FE78B1022802D001340744F0E7D9
:10BA00003B782E2BF9D17B782E2BF6D1013CF5D14A
:10BA1000BB1C0893C7E7059C207800285FD0099BD2
:10BA20001C6098F80430222B40F08D8008F1080348
:10BA30001A464946504608EE103AFFF7E7FD00283F
:10BA40004DD1049B013B234407934246494650464F
:10BA5000FFF7BAFE002842D198F8042002F07F03D5
:10BA6000112B01D0222BF0D198F8073004998B428A
:10BA7000EBD1D8F8003098F8051098F80650D9F8AE
:10BA8000047004330B441D44049BA3B3059BCDF801
:10BA900018800135DDF81C80ED1A5C1E07E014F8F3
:10BAA000012F9DF82F309A421ED144451FD0DAF85D
:10BAB00000301A6A974205EB040347D20122029232
:10BAC0000DF12F02CDE9003259463B460022504687
:10BAD000FFF776FB0028E2D0DDF8188009DA0DB018
