:020000022000DC
:106000000000042001210400412104004321040078
:10601000452104004721040049210400000000003C
:10602000000000000000000000000000891F0400C4
:106030004D21040000000000A91F040051210400AC
:106040005D2304005321040009F1030053210400DF
:10605000532104005321040095F40300532104004C
:106060005321040053210400532104005321040050
:106070005321040053210400532104005321040040
:1060800053210400D91C04005321040053210400AF
:106090005321040053210400798903005321040093
:1060A0005321040053210400532104005321040010
:1060B00053210400532104000000000000000000F0
:1060C00053210400532104005321040045290400F6
:1060D000532104005321040053210400A51503009B
:1060E0005321040053210400532104000000000048
:1060F000000000005321040000000000BD2904003E
:10610000000000000000000000000000000000008F
:10611000000000000000000000000000000000007F
:10612000000000000000000000000000000000006F
:10613000000000000000000000000000000000005F
:10614000000000000000000000000000000000004F
:10615000000000000000000000000000000000003F
:10616000000000000000000000000000000000002F
:10617000000000000000000000000000000000001F
:10618000000000000000000000000000000000000F
:1061900000000000000000000000000000000000FF
:1061A00000000000000000000000000000000000EF
:1061B00000000000000000000000000000000000DF
:1061C00000000000000000000000000000000000CF
:1061D00000000000000000000000000000000000BF
:1061E00000000000000000000000000000000000AF
:1061F000000000000000000000000000000000009F
:10620000F1EE103A43F08073E1EE103A704700BFB0
:1062100010B5054C237833B9044B13B10448AFF3E0
:1062200000800123237010BDF463002000000000F3
:10623000BC21050008B5034B1BB103490348AFF36C
:10624000008008BD00000000F8630020BC210500AC
:10625000154B002B08BF134B9D46A3F5803A002138
:106260008B460F461348144A121A23F049FC0F4B71
:10627000002B00D098470E4B002B00D098470020F1
:10628000002104000D000D48002802D00C48AFF397
:10629000008023F0CBFB200029001BF089FF23F0B6
:1062A0009FFB00BF00000800000004200000000069
:1062B00000000000F46300209CA500200000000006
:1062C0000000000033DF7047014B01221A70704755
:1062D000CC700020014B01221A707047CC6F002057
:1062E000014B01221A707047406B0020014B0122C4
:1062F0001A707047B8700020014B01221A70704765
:10630000C266002038B5054CA4F5A875204619F0E2
:10631000DDF9AC42A4F10C04F8D138BD346B002097
:10632000054B064A1B78013B0021012B117000D957
:10633000704703201DF0D4B81C600020C166002007
:1063400010B5134B88B001461248198012F00CFBAF
:1063500011490124002320220C706946CDE9003345
:10636000CDE90333CDE905330293079310F0ECFB3D
:106370000A4B0B4A1B78013B0221A342117001D941
:1063800008B010BD214603201DF0AAF808B010BDCA
:10639000A86B0020B48E0020C16600201C60002085
:1063A0007C6E002010B56B4C6B49204617F0C4FF83
:1063B0006A4B0A221978204618F038F968492046B5
:1063C00017F0BAFF674B0A221978204618F054F9E3
:1063D0006549204617F0B0FF644B0A221978204621
:1063E00018F024F96249204617F0A6FF614B0A22F3
:1063F0001978204618F01AF95F49204617F09CFFDB
:106400005E4B0A221978204618F036F95C4920467E
:1064100017F092FF5B4B186822F088FD41EC100BDF
:106420002046022118F04CF85749204617F084FF07
:10643000564B0A221988204618F0F8F8544920468D
:1064400017F07AFF534B186822F070FD41EC100BE7
:106450002046022118F034F84F49204617F06CFF0F
:106460004E4B0A221978204618F006F94C4920466E
:1064700017F062FF4B4B0A221978204618F0FCF8FF
:106480004949204617F058FF484B0A221978204600
:1064900018F0F2F84649204617F04EFF454B0A2205
:1064A0001978204618F0E8F84349204617F044FFD1
:1064B000424B0A221978204618F0DEF8404920465F
:1064C00017F03AFF3F4B0A221978204618F0D4F80B
:1064D0003D49204617F030FF3C4B0A2219782046F0
:1064E00018F0A4F83A49204617F026FF394B0A2243
:1064F0001978204618F0C0F83749204617F01CFFDD
:10650000364B0A221978204618F090F83449204674
:1065100017F012FF334B0A221978204618F086F83C
:106520003149204617F008FF304B0A2219782046DF
:1065300018F07CF82E49204617F0FEFE2D4B204621
:1065400019780A2218F098F82046BDE8104004F0A7
:1065500097BE00BF446B002084E10400056000206A
:106560008CE104000460002094E104001064002029
:106570009CE1040010600020A4E1040018600020E9
:10658000A8E1040014600020B0E104001A600020BB
:10659000B4E1040008600020B8E10400206000209D
:1065A000BCE104000C600020C0E104002160002078
:1065B000C4E104001E600020CCE104001F60002044
:1065C000D4E1040012640020DCE104000D6000202E
:1065D000E4E104001C600020ECE1040011640020F0
:1065E000F4E104000F60002000E204000E600020CF
:1065F0000CE204001D6000202DE9F041DFF8C480AA
:1066000098F814C09CB0BCF1000F4BD005460C4666
:1066100017461E461FF044FA00284CD13946D8F8D8
:106620001830324609A81EF05DFE244B0393102754
:10663000D8F81C10049709A8082303AA1EF092FE9C
:10664000002835D1D8F808309E4222D128686968E0
:10665000AA68EB68002605AD0FC526602346666074
:10666000A660E66005A9102209A81EF0B7FE034641
:10667000D8B902A90191009405AA09A819461EF0EB
:10668000EBFE00280CBF10206FF005001CB0BDE829
:10669000F0810B4909A81EF089FE0028D6D06FF0C2
:1066A0000600F3E74FF0FF30F0E76FF00400EDE78E
:1066B0006FF00300EAE76FF00100E7E724640020D1
:1066C000146400208464002008B50C490C4804F0D0
:1066D0005FFB0A490B48012204F018FD48B90A4B38
:1066E0001B7803B908BDBDE808400849084817F001
:1066F00097BEBDE80840FFF755BE00BF18E2040092
:10670000D0700020446B0020C066002020E204000E
:1067100078810020F0B5174F174D184E99B00446F8
:10672000384613F0FDFB0221284613F0C9FC204631
:1067300024F016F921460246284613F0D5FC08AC91
:1067400008A9284613F0D8FC0FCC6D460FC594E875
:106750000F0085E80F006B460FCB86E80F0095E829
:106760000F00074C84E80F00384613F0EDFB19B01A
:10677000F0BD00BF48960020AC6B002014640020E0
:10678000246400202DE9F04173497448DFF87C82CD
:10679000734E744F82B004F00BFC734813F08CFC02
:1067A000724B7348002501220321C3E90655196184
:1067B0001D609D601D755A60DA6013F0A7FC3020E3
:1067C0001BF036FD0F230E22044600930C210D23EF
:1067D00013F076FE21466748674C14F005F94046F1
:1067E00012F034FA32466549404623F0B9F838468B
:1067F00012F0C6FA32466249384623F0B1F8614FCA
:1068000020464FF4807112F011FF32465E49204657
:1068100023F0A6F85D4C384612F000F932465C4988
:10682000384623F09DF85B49204618F075FE5A491A
:1068300004F10C0018F070FE584904F1180018F02B
:106840006BFE574904F1240018F066FE554904F127
:10685000300018F061FE544904F13C0018F05CFE71
:10686000524904F1480018F057FE514904F1540010
:1068700018F052FE4F4904F1600018F04DFE4E49E9
:1068800004F16C0018F048FE4C4904F1780018F04F
:1068900043FE4B4904F1840018F03EFE494904F1DF
:1068A000900018F039FE484904F19C0018F034FEBD
:1068B000464904F1A80018F02FFE454904F1B40040
:1068C00018F02AFE434904F1C00018F025FE4249A1
:1068D00004F1CC0018F020FE404904F1D80018F073
:1068E0001BFE3F4904F1E40018F016FE3D4904F197
:1068F000F00018F011FE3C4904F1FC0018F00CFE09
:106900003A4904F5847018F007FE394904F58A7095
:1069100018F002FE374904F5907018F0FDFD364975
:1069200004F5967018F0F8FD344904F59C7018F0E1
:10693000F3FD334904F5A27018F0EEFD314904F57A
:10694000A87018F0E9FD30493246284602B0BDE88B
:10695000F04123F005B800BFD0700020446B002048
:106960000060002084650020AC6B0020846400205F
:10697000D06F0020806E0020CC65002001990200BD
:10698000E9980200A4640020C1960300E469002095
:10699000C198020040E2040048E2040058E204000A
:1069A00068E2040084E2040094E20400A0E204002F
:1069B000ACE20400BCE20400D0E20400ECE204001B
:1069C00000E3040014E3040028E3040040E30400AF
:1069D00054E3040064E3040078E3040090E304005B
:1069E000ACE30400BCE30400C8E30400DCE30400FF
:1069F000F0E3040004E4040018E4040024E40400C8
:106A000034E404004CE40400056302001465002033
:106A100030B5B748B74985B00022044604F076FB8C
:106A2000204604F065FA3D28FAD1B149B24DB34C85
:106A30000A2201A817F0A6FE01A818F09DFF031E68
:106A400018BF012301A82B7018F040FE2378002BFB
:106A500040F0FA81A64D284604F04AFA3D28FAD1C2
:106A6000A349A74D0A2201A817F08CFE01A818F02F
:106A700083FF034601A82B7018F028FE2378002B13
:106A800040F0AC829A4D284604F032FA3D28FAD103
:106A900097499C4D0A2201A817F074FE01A818F02E
:106AA0006BFF031E18BF012301A82B7018F00EFE08
:106AB0002378002B40F088828D4D284604F018FA88
:106AC0003D28FAD18A49904D0A2201A817F05AFEB2
:106AD00001A818F051FF031E18BF012301A82B7055
:106AE00018F0F4FD2378002B40F06482804D284696
:106AF00004F0FEF93D28FAD17D49844D0A2201A80F
:106B000017F040FE01A818F037FF034601A82B70CC
:106B100018F0DCFD2378002B40F04282744D2846AB
:106B200004F0E6F93D28FAD17149794D0A2201A80D
:106B300017F028FE01A818F025FF01A885ED000A2E
:106B400018F0C4FD2378002B40F01C82684D2846C5
:106B500004F0CEF93D28FAD165496E4D0A2201A80C
:106B600017F010FE01A818F007FF034601A82B80BC
:106B700018F0ACFD2378002B40F0FA815C4D2846DC
:106B800004F0B6F93D28FAD15949634D0A2201A80B
:106B900017F0F8FD01A818F0F5FE01A885ED000A30
:106BA00018F094FD2378002B40F0D481504D2846F6
:106BB00004F09EF93D28FAD14D49584D0A2201A80A
:106BC00017F0E0FD01A818F0D7FE034601A82B70CE
:106BD00018F07CFD2378002B40F0B281444D28460C
:106BE00004F086F93D28FAD141494D4D0A2201A809
:106BF00017F0C8FD01A818F0BFFE034601A82B70CE
:106C000018F064FD2378002B40F09081384D284621
:106C100004F06EF93D28FAD13549424D0A2201A807
:106C200017F0B0FD01A818F0A7FE034601A82B70CD
:106C300018F04CFD2378002B40F06E812C4D284637
:106C400004F056F93D28FAD12949374D0A2201A806
:106C500017F098FD01A818F08FFE034601A82B70CD
:106C600018F034FD2378002B40F04C81204D28464D
:106C700004F03EF93D28FAD11D492C4D0A2201A805
:106C800017F080FD01A818F077FE034601A82B70CD
:106C900018F01CFD2378002B40F02A81144D284663
:106CA00004F026F93D28FAD11149214D0A2201A804
:106CB00017F068FD01A818F05FFE034601A82B70CD
:106CC00018F004FD2378002B40F00881084D284679
:106CD00004F00EF93D28FAD10549164D0A2201A803
:106CE00017F050FD01A818F047FE031E24E000BF76
:106CF000446B002018E2040005600020C0660020FC
:106D00000460002010640020106000201860002043
:106D1000146000201A60002008600020206000201D
:106D20000C600020216000201E6000201F600020F9
:106D3000126400200D60002018BF012301A82B70F1
:106D400018F0C4FC2378002B40F0BE80A84D2846E4
:106D500004F0CEF83D28FAD1A549A64D0A2201A893
:106D600017F010FD01A818F007FE034601A82B70CC
:106D700018F0ACFC2378002B40F09C809C4D2846FA
:106D800004F0B6F83D28FAD199499B4D0A2201A892
:106D900017F0F8FC01A818F0EFFD031E18BF01233F
:106DA00001A82B7018F092FC2378002B78D1904D1D
:106DB000284604F09DF83D28FAD18D498F4D0A22CE
:106DC00001A817F0DFFC01A818F0D6FD031E18BFBC
:106DD000012301A82B7018F079FC2378002B55D1E2
:106DE000834D284604F084F83D28FAD18049844D2B
:106DF0000A2201A817F0C6FC01A818F0BDFD031E69
:106E000018BF012301A82B7018F060FC2378002B19
:106E100032D1774D284604F06BF83D28FAD17449F9
:106E2000784D0A2201A817F0ADFC01A818F0A4FDC6
:106E3000034601A82B7018F049FC237873B96C48FD
:106E400004F01EFA05B030BD6F49704817F074FAAF
:106E500029786E480A2217F0E9FBFBE56C496B487C
:106E600017F06AFA297869480A2217F005FC604889
:106E700004F006FA05B030BD6649644817F05CFAC4
:106E8000297862480A2217F0D1FBC2E762495F48BD
:106E900017F052FA29785D480A2217F0C7FB9FE7DE
:106EA0005E495A4817F048FA297858480A2217F0DC
:106EB000BDFB7CE75A49554817F03EFA29785348FC
:106EC0000A2217F0D9FB59E75649504817F034FA0F
:106ED00029784E480A2217F0A9FB37E752494B4858
:106EE00017F02AFA297849480A2217F0C5FBEDE67F
:106EF0004E49464817F020FA297844480A2217F0EC
:106F0000BBFBCBE64A49414817F016FA29783F48BF
:106F10000A2217F0B1FBA9E646493C4817F00CFAE3
:106F200029783A480A2217F0A7FB87E642493748F2
:106F300017F002FA297835480A2217F09DFB65E61A
:106F40003E49324817F0F8F9297830480A2217F0FC
:106F500093FB43E63A492D4817F0EEF9286821F0F3
:106F6000E5FF41EC100B0221284817F0A9FA1DE6B5
:106F70003449264817F0E0F9298824480A2217F0F6
:106F800055FBFBE53049214817F0D6F9286821F078
:106F9000CDFF41EC100B02211C4817F091FAD5E50A
:106FA0002A491A4817F0C8F9297818480A2217F010
:106FB00063FBB3E52649154817F0BEF92978134855
:106FC0000A2217F033FB91E52249104817F0B4F973
:106FD00029780E480A2217F029FB6DE51E490B4857
:106FE00017F0AAF9297809480A2217F045FB49E564
:106FF000446B00201C600020116400200F60002002
:107000000E6000201D60002084E1040078810020D3
:107010000CE2040000E20400F4E10400ECE10400EE
:10702000E4E10400DCE10400D4E10400CCE104006C
:10703000C4E10400C0E10400BCE10400B8E10400C4
:10704000B4E10400B0E10400A8E10400A4E10400FC
:107050009CE1040094E104008CE1040070B545F269
:107060001F2288B0B64841F6151109F0BBFFB5499B
:10707000B34809F0BBFFB449B14809F0BBFF032096
:1070800001211CF02DFAB14809F0D8FE002800F0CB
:1070900087824FF47A7018F0ABFCAC4809F0CEFE52
:1070A000002800F07A82AA4809F01CFBA949AA48E6
:1070B000002204F02BF8A84804F00EF9002800F094
:1070C0005C82A649A448002204F020F8A24804F0FB
:1070D00003F9002800F04182A1499F48002204F0F2
:1070E00015F89D4804F0F8F8002800F002829D4B46
:1070F000994D0022C3E90022C3E902221C4603F194
:10710000100602E00134A6420CD0284603F0B4FE7B
:107110000028F7D0284603F0EBFE013404F8010CF8
:10712000A642F2D18C4804F0ABF88F498A4800227D
:1071300003F0ECFF884804F0CFF8002800F0ED8160
:107140008A4C854D04F1400602E00134A6420CD081
:10715000284603F091FE0028F7D0284603F0C8FE29
:10716000013404F8010CA642F2D17B4804F088F8FF
:107170007E48FFF7CFFA7E497748002203F0C6FF2A
:10718000754804F0A9F880B97949714803F000FE08
:1071900077497148012203F0B9FF002840F00682C8
:1071A000744B1B78002B40F00482FFF731FC0A245B
:1071B000012585F00105294603201CF091F9642082
:1071C00018F016FC631E13F0FF04F2D16A4A6B4BF1
:1071D00012786B4853F8221017F0A0FD142485F0A4
:1071E0000105294603201CF07BF9642018F000FCFF
:1071F000631E13F0FF04F2D1624D2B78002B00F0D8
:107200004C81614B614A1E786149624B12781B7850
:1072100091F9001060480293019200915F4C604B1D
:10722000604A6149D4ED000A1B781278097800EBB6
:10723000860090ED000A5D4813F0E0FB0446002C48
:1072400000F048815A4B297800221A60002940F04A
:1072500071810422574955483C4C16F06BF853484D
:1072600015F024FB5448002111F014FB524804216E
:1072700011F0D4F8002201214F4811F0FFF8082145
:107280004D4811F0B9FA00223249334803F03EFF6D
:1072900005A8314917F042FA0599484810F01AFA42
:1072A00005A818F013FA00222C492B4803F02EFFF2
:1072B00005A8294917F032FA05993F4811F074FAE8
:1072C00005A818F003FA3E493B480FF089FE3D49F6
:1072D00039480FF087FE1B493B48102211F04CFD46
:1072E00019493948082211F043FD374811F07EFD55
:1072F00031221146354810F0A1FD344812F024FA2D
:10730000062133480EF086FB31480EF06BFB2F4907
:107310002F480EF023FB2F480EF036FB2C4801219E
:107320000EF0ACFBF4222A4820210EF0A3FB2848E3
:107330001E210EF09DFB002125480EF00BFC4DE0B8
:10734000988100205CE4040070E40400788100204F
:10735000D070002030E40400446B002084E404007A
:107360008CE4040034640020A0E4040044640020A1
:1073700018E20400C06600200460002024600020A1
:107380005097002010600020186000201E60002030
:107390001F60002012640020ECEA04000860002056
:1073A000216000200C60002020600020806E002002
:1073B000A06C0020D5620200B48E0020D48E002084
:1073C000416302002163020084650020CC65002037
:1073D000F49400203895002009F010FC204609F0B4
:1073E000E7FB03462046002BF6D1804C01E017F066
:1073F00023FC204617F018FC03462046002BF6D14C
:107400007B4C01E011F0B2FD204611F05FFD034618
:107410002046002BF6D1774C2378013B012B37D83F
:10742000754B1B78002B33D0012102201BF0D4FFB9
:107430002378724C012B8CBF0121002102201CF00B
:107440004FF81EF02DFB237D002B5FD000246C48ED
:1074500012F060FE6B49009401234FF480626A4889
:107460001BF098FC01234FF4806268490094664841
:107470001BF090FC022104201BF0AEFF644965481C
:1074800016F0CEFF6249594816F0CAFF08B070BD29
:10749000002103201CF024F8C6E75F495F4C6048D8
:1074A0000978247890F900000090029101945D48D9
:1074B0005D4C5E4B5E4A5F49D4ED000A90ED000AD8
:1074C0001B78127809785C4813F098FA0446002C6F
:1074D0007FF4B8AE594B58481978224614F0B4F8E6
:1074E00000287FF4AFAE2B78002B79D1544B1C6071
:1074F000AFE654495448012203F008FE00283FF447
:1075000014AE5249504816F017FF0BE61EF0C8FAA9
:1075100000289BD10123237598E74D494A48012251
:1075200003F0F4FD00283FF423AE4A49464816F024
:1075300003FF1AE6484A494B12783F4803EB82039F
:1075400093ED000A13F02AFA0446002836D1444984
:107550003948042215F004FF7BE642493A480122EB
:1075600003F0D4FD00283FF4B7AD3F49364816F08C
:10757000E3FE354803F084FEAEE53C493248012283
:1075800003F0C4FD00283FF49CAD39492E4816F0A5
:10759000D3FE2D4803F074FE93E51BF017FC82E543
:1075A0001C484FF4E13109F021FC72E5FEF7FAFEC8
:1075B000FBE53049174816F033FFF6E52E4915482C
:1075C00016F08CFE84EAE473A3EBE4732B491148B4
:1075D0009BB203EB430301EB830116F0DBFEB6E73E
:1075E000274B1548197816F021FC2BE65097002000
:1075F000CC6500201C600020C1660020846400204F
:10760000D06F0020199A0200189C0020A97B02006C
:10761000E0E4040078810020126400201E60002055
:107620001F600020146000200860002021600020FE
:107630000C60002020600020806E00200D60002083
:10764000A06C00208CE40400446B002094E404004F
:10765000A0E40400A8E4040018600020ECEA0400A0
:10766000E162020084E4040070E4040030E40400F9
:107670007CE4040020E20400B4E40400E469002097
:107680001A6000201F4B204A1B7870B50026044664
:107690000D46166093B91D491D48042215F04AFE97
:1076A00018F09AF91B4B02461A60194800232A4623
:1076B000214615F0EBF9184B186070BD174A184BAE
:1076C0001278134803EB820393ED000A13F066F976
:1076D000064628B913490E48042215F041FEDAE7A0
:1076E0001149124816F0FAFD002EB8BF7642104933
:1076F0000E48B6B206EB460601EB860116F04AFECE
:10770000E8E700BF10600020A06C0020C962020002
:10771000806E0020C0700020C8700020186000201B
:10772000ECEA0400E1620200B4E404007881002085
:10773000E46900202DE9F04F2DED028BCDB000AFB4
:1077400015469B468946064623F00AF94FF0000A83
:1077500004465146F22207F13C00D7F8608122F03E
:10776000CFF9DBF80030404887F83950C7F83A3095
:1077700093FA83FCE4B287F838904546534650F8B4
:10778000042FD9B2954203F1010384BF8A461546FE
:10779000642BF4D1354A364B42F82A80D02C43F87A
:1077A0002AC059D8B9F1010F72D0324823F0D8F865
:1077B0005FFA80FC0CF106025FFA82FE58B12D4D93
:1077C000002307F59872D1185A1CEB5C01F8F23CC3
:1077D000D3B29842F5D807F598710CF1070307F575
:1077E000987251FA83F372443A2020210CF1080573
:1077F00002F8F80CEDB203F8F81C94B104F108009B
:107800006044013EC0B22B4607F598721A4401331A
:10781000DBB216F8011F02F8F81C8342F4D12C44A5
:10782000E5B2154B154A1B7800211160002B40F082
:10783000558113491348042215F07CFD18F0CCF84B
:10784000114B02461A600F4800232A4607F13801FF
:1078500015F01CF90D4B186007F59A77BD46BDEC85
:10786000028BBDE8F08F00BF5068002054680020F4
:10787000C46600203464002010600020A06C00204A
:10788000C9620200806E0020C0700020C870002015
:1078900014F00F0818BF4FF0010808EB1418DFF8B8
:1078A00004A308F1020C6946A1EB0C116B464FF0E2
:1078B000000B8D464FEA0C15DAF80020C7F814B01B
:1078C00007F1080108EE103A07F12800DAF80C3049
:1078D000C7E9015BC7E903BBC7E90ABBC7E90CBB42
:1078E000FEF78AFE07F1080CBCE80F00009001913A
:1078F00002920393DAF80020DAF80C309C48C7F8BB
:1079000008B007F10801C7E903BBC7F814B0FEF7D8
:1079100073FE07F1080CBCE80F00E94604900591DE
:1079200006920793B8F1000F00F0A480D84697F8AC
:1079300004B02025A5F12003DBB29C4288BF337838
:10794000C7E9068888BF3B76A5F11F03DBB2A342D7
:107950003CBF73787B76A5F11E03DBB2A3423CBF2C
:10796000B378BB76A5F11D03DBB2A3423CBFF3782D
:10797000FB76A5F11C03DBB2A3423CBF33793B7716
:10798000A5F11B03DBB2A3423CBF73797B77A5F162
:107990001A03DBB2A3423CBFB379BB77A5F119034D
:1079A000DBB2A3423CBFF379FB77A5F11803DBB24E
:1079B000A34238BF337AC7E9088838BF87F8203038
:1079C000A5F11703DBB2A3423CBF737A87F82130DD
:1079D000A5F11603DBB2A3423CBFB37A87F822308D
:1079E000A5F11503DBB2A3423CBFF37A87F823303D
:1079F000A5F11403DBB2A3423CBF337B87F82430EC
:107A0000A5F11303DBB29C4284BF737B87F825305A
:107A1000A5F11203DBB29C4284BFB37B87F826300A
:107A2000A5F11103DBB29C4284BFF37B87F82730BA
:107A3000DAF80020DAF80C30C7F8088007F10801FE
:107A400007F11800C7E90388C7F81480FEF7D4FDD2
:107A5000BB6849F80530D7E9030109EB0503103588
:107A6000EDB27A695860AB4506F110069960DA60AC
:107A70007FF460AF7B68B3F5807F65D0980807F12D
:107A80003E020023013359F8041B42F8041B9842BC
:107A9000F8D8384B384A1B7800211160002B41D1AF
:107AA00036493748042215F045FC17F095FF354B51
:107AB00002461A607A68324807F13801063200231C
:107AC00014F0E4FF304B186018EE103A07F59A777F
:107AD0009D46BD46BDEC028BBDE8F08F2B4A2C4B7A
:107AE0001278274803EB820393ED000A12F056FF49
:107AF000044628B927492248042215F031FC98E6AB
:107B00002549264816F0EAFB84EAE473A3EBE47304
:107B1000234922489BB203EB430301EB830116F098
:107B200039FCE7E7194A1A4B1278154803EB820330
:107B300093ED000A12F032FF044630B9154910489F
:107B4000042215F00DFCABE7FEE71349134816F0CD
:107B5000C5FB84EAE473A3EBE47311490F489BB2BD
:107B600003EB430301EB830116F014FCE6E700BFCF
:107B70003464002010600020A06C0020C962020064
:107B8000806E0020C0700020C870002018600020A7
:107B9000ECEA0400E1620200B4E404007881002011
:107BA000E46900208464002030B583B017F014FF2E
:107BB000264B274C1A6890422ED82378CBB1254B00
:107BC000254D1A78BAB1197801F0FF02D9B92349C5
:107BD00022702A701A700B78002B30D02049214B6C
:107BE0000968214A009119781278204B2048FFF744
:107BF000A1FD03B030BD2A78002AFAD0197801F02F
:107C0000FF020029E3D01B4800222A701A7003B03B
:107C1000BDE8304014F098BC012222701649154886
:107C20004FF0FF3504221D6015F084FB1349114805
:107C3000042215F095FB0F4814F086FCBDE71048B0
:107C4000F72103B0BDE83040FFF71CBD6C60002099
:107C50007D6E0020C2660020B8700020CD6F00202D
:107C6000786E0020A96C0020A86C0020AC6C00206D
:107C7000B06C0020806E0020ED620200F96202000C
:107C8000806D00202DE9F0432DED028BD31DC5B092
:107C900003F4FC7302AFADEB030D0DF108080C46C5
:107CA000064600214046154621F02AFF954907F176
:107CB0000C0017F031FC944920460A2222F058FEAD
:107CC000002862D091490822204622F051FE58B384
:107CD0008F490622204622F04BFE002875D18D4B9D
:107CE0001B78002B00F0FF80012B00F0BB81022BE2
:107CF00000F0C1814FF0804357210022C3F81C15CA
:107D000001230092844985484FF480621BF042F8B9
:107D1000834B1B78013B012B07F1FC0419D801218F
:107D200003201BF0DDFB14E007F1FC047D4907F1A3
:107D30000C0017F0F9FC00230093774977480123E2
:107D40004FF480621BF026F8754B1B78013B012B2A
:107D5000E5D907F10C01204617F0F8FB72492046DF
:107D600017F05AFD0146304617F0F0FB204617F099
:107D7000ADFC07F10C0017F0A9FC304607F586773B
:107D8000BD46BDEC028BBDE8F08307F1FC046749FA
:107D9000204617F0C1FB664B07F1F00093ED000A97
:107DA000022117F055FC07F1F001204617F008FDFD
:107DB000014607F10C0017F091FC07F1F00017F0F5
:107DC00085FC204617F082FCBEE75A490B2220466C
:107DD00022F0CEFD48BBADB1014642F2014E631820
:107DE0000130DB7A0D2BC2B22EFA03FC02D81CF054
:107DF000010F05D101F1010C08F801305FFA8CF197
:107E00009542ECD807F1FC044146204617F084FB6C
:107E1000204617F0B1FD0546204617F057FC002D0F
:107E20006AD0454802F00CFF80E744490A22204608
:107E300022F09EFD002800F00D81414909222046D4
:107E400022F096FD002800F091803E49082220464D
:107E500022F08EFD002800F0FD803B4908222046DC
:107E600022F086FD002840F01581ADB1014642F2B6
:107E7000014E631801301B7A0D2BC2B22EFA03FC9F
:107E800002D81CF0010F05D101F1010C08F80130F6
:107E90005FFA8CF19542ECD807F1FC04414620468C
:107EA00017F03AFB204617F067FD284A031E18BF5B
:107EB00001232046137017F009FC25491E4802F0E3
:107EC00067FF23492348012203F020F9002840F0EE
:107ED0005181214B1B78002B3FF428AF1F492048CC
:107EE00016F09EFA22E70F491D4816F099FA1D492F
:107EF0001B4816F095FAFDE61B4907F10C0017F038
:107F000013FC21E7C0FB0400F0E4040008E50400D2
:107F10001CE504007C6E002099990200189C00204A
:107F20001C60002014E5040004E90400FCE40400E3
:107F30007060002034E50400D07000205CE504008F
:107F400084E50400CCE50400D8E5040005600020C9
:107F500018E20400446B0020C066002020E2040008
:107F60007881002024E5040040E50400ADB101461D
:107F700042F2014E631801305B7A0D2BC2B22EFA29
:107F800003FC02D81CF0010F05D101F1010C08F827
:107F900001305FFA8CF19542ECD807F1FC044146C0
:107FA000204617F0B9FA204617F0E6FC05462046B1
:107FB00017F08CFB002D67D0B84800210DF05EFD56
:107FC000B74810F091FC1FFA80F8B8F1000F0AD002
:107FD0000025DFF8CC9229460135484610F0A2FC76
:107FE000A9B28845F8D8AD480DF026FEAD4813F08B
:107FF000D3FE062503201BF0B3FA642017F0F8FC2B
:108000006B1E13F0FF05F5D1A74B1B78002B71D029
:10801000012B00F0B280022B7FF496AE294603209C
:108020007B601BF05DFA7B68294618461BF058FA06
:108030009E499F4816F0F4F9FA2017F0D9FC052163
:1080400004201BF0C9F9284604211BF0C5F9FEF7EE
:1080500039F979E6974907F10C0017F065FB07F14C
:10806000FC0471E69149944816F0DAF99349924874
:1080700016F0D6F93EE68D498D4816F0D1F98F49B4
:108080008B4816F0CDF935E68D4907F10C0017F055
:108090004BFB59E68B490722204622F069FC002859
:1080A0005AD089490822204622F062FC40BB002DAC
:1080B0006ED00022104642F2014E231801321B7A84
:1080C0000D2BD1B22EFA03FC02D81CF0010F05D102
:1080D00000F1010C08F800305FFA8CF08D42ECD80A
:1080E000202855D9794907F10C0017F01DFB07F13D
:1080F000FC0429E6764907F10C0017F015FB23E68E
:1081000074490722204622F033FC00285BD07249D4
:108110000922204622F02CFC002840F08D80002D02
:1081200062D0034642F2014E22180133527A0D2AE0
:10813000D9B22EFA02FC02D81CF0010F05D100F1D1
:10814000010C08F800205FFA8CF08D42ECD8102862
:108150004AD907F1FC04F7E507F1FC045F49204622
:1081600017F0DAF95E4B07F1F00019780A2217F0E0
:108170003BFA18E6FEF716F9D8E5294603201BF06E
:10818000AFF9294602201BF0ABF948494A4851E7AC
:108190005449554802F0FCFD52495448012202F06E
:1081A000B5FF002840D05148414616F0C5F84F4869
:1081B00003F066F83D4907F10C0017F0B5FA00230B
:1081C000009301239EE502464649484807F1FC0416
:1081D00002F09CFF3C49204617F09EF9434907F105
:1081E000F00016F09BFADEE53E493F4802F0D0FD74
:1081F0003C493E48012202F089FFA8B13C493B4876
:1082000016F09AF83948414616F096F8374803F0C8
:1082100037F83849344802F0BBFD3649334801226B
:1082200002F074FF0028BED1334907F10C0017F0AB
:108230007BFA07F1FC0487E530490822204622F04A
:1082400097FB002885D02E490722204622F090FB7C
:10825000002859D1CDB10346014642F2014C6218C3
:108260000133D2790D2AD8B22CFA02FE02D81EF0C0
:10827000010F05D101F1010E08F801205FFA8EF11E
:108280008542ECD8062900F093801E4907F10C00C6
:1082900017F04AFA07F1FC0456E500BFF4940020F9
:1082A000B48E0020806E00207C6E002014E5040057
:1082B000E465002068E504005097002024E50400F0
:1082C000B0E50400E4E50400ECE5040014E6040075
:1082D00090E5040040E6040048E60400D8E5040008
:1082E0000560002084E40400D0700020446B00206E
:1082F00054E604008CE40400F8E5040060E60400A1
:108300006CE6040074E604000622C349204622F00D
:108310002FFB0246002800F0A080C049082220461A
:1083200022F026FB002856D1BDB10346024642F298
:108330000140A1180133097A0D295FFA83FC20FA64
:1083400001FE02D81EF0010F05D102F1010E08F85E
:1083500002105FFA8EF26545EBD807F1FC04414646
:10836000204617F0D9F8204617F006FB05462046B0
:1083700017F0ACF9102D28DC4146204617F0CCF858
:10838000204617F0F9FAA64D034620462B7017F049
:108390009DF9FEF799F92A78A24BA34853F82210C9
:1083A00016F0BCFCA14907F10C0017F0BDF9CBE4B5
:1083B0009F49A04802F0ECFC9D499F48012202F031
:1083C000A5FE00283FF430AFEDE69C4907F10C0014
:1083D00017F0AAF9B8E49A490722204622F0C8FA11
:1083E000002800F09C8097490922204622F0C0FA1C
:1083F000002842D10346024642F201400EE0497A8B
:108400000D2920FA01FC02D81CF0010F05D102F160
:10841000010C08F802105FFA8CF201335FFA83FC5A
:10842000654504EB0201EAD807F1FC044146204609
:1084300017F072F8204617F09FFA834A031E18BF00
:1084400001232046137017F041F9FEF73DF97749F3
:1084500007F10C0017F068F976E47549764807F1E2
:10846000FC0402F053FE7949204617F055F8724992
:1084700007F1F00016F052F995E4754908222046FC
:1084800022F076FA002800F08D81724908222046F9
:1084900022F06EFA002876D10022134642F2014003
:1084A0000EE0097A0D2920FA01FC02D81CF0010F18
:1084B00005D103F1010C08F803105FFA8CF30132C7
:1084C0005FFA82FC654504EB0301EAD807F1FC047E
:1084D0004146204617F020F8204617F04DFA054691
:1084E000204617F0F3F8002D41D05B4B5B4819781C
:1084F00015F09CFC054600BB594A5A4B10785A4966
:108500005A4A03EB80031868086001231370FEF7D2
:10851000DBF8464907F10C0017F006F914E407F1FF
:10852000FC043E49204616F0F7FF3D4B197807F151
:10853000F0000A2217F024F835E44D49204616F0E1
:10854000EBFF85EAE5734B4AA3EBE5739BB20C2185
:1085500001FB0321204617F033F9014607F10C0017
:1085600017F0BCF8204617F0B1F8FFF7EDBB3F4B12
:108570001D70FEF7A9F82D4907F10C0017F0D4F88B
:108580000095FFF7DABB3C490722204622F0F0F9BC
:10859000002800F0168139490622204622F0E8F929
:1085A00038BB0346024642F201400EE089790D29AC
:1085B00020FA01FC02D81CF0010F05D102F1010CD8
:1085C00008F802105FFA8CF201335FFA83FC65450C
:1085D00004EB0201EAD807F1FC044146204616F0FC
:1085E0009BFF204617F0C8F91D4B024620461A7023
:1085F00029E723490522204622F0BAF900287CD039
:1086000020490822204622F0B3F900287DD10346F4
:10861000024642F2014046E094E604009CE6040073
:1086200004600020246000205097002014E504001E
:1086300030E40400D0700020446B0020A8E6040061
:10864000C0E60400C8E60400106400206CE60400E4
:10865000D4E60400E0E604001A600020806E0020EA
:1086600018600020ECEA0400146000201060002074
:10867000ECE60400E4690020F8E6040000E70400EA
:1086800008E7040010E70400097A0D2920FA01FC2C
:1086900002D81CF0010F05D102F1010C08F80210FC
:1086A0005FFA8CF201335FFA83FC654504EB02014B
:1086B000EAD8CF4B1B78002B40F0928007F1FC04E6
:1086C0004146204616F028FF204617F05BF9204669
:1086D000B0EE408A16F0FAFFC648B0EE480A12F033
:1086E0005DF9054660BBC44BC44983ED008A07F1C0
:1086F0000C0017F019F8FFF727BB07F1FC04C0497D
:10870000204616F009FFBF4B10E7BF49072220465D
:1087100022F02EF900286CD1B54B1B78002B5FD1CD
:1087200007F1FC04B949204616F0F6FEB24B07F1FA
:10873000F00093ED000A022116F08AFFFFF733BB29
:10874000B34907F1F00016F0E7FE85EAE573B14A98
:10875000A3EBE5739BB20C2101FB032107F1F000B1
:1087600017F02EF8AC4917F057F841460546204659
:1087700016F0D2FE204617F0FFF80146284617F003
:10878000A9F8A64917F048F8014607F10C0016F0C1
:10879000A5FF204616F09AFF07F1F00016F096FFAD
:1087A000FFF7D2BA07F1FC049D49204616F0B4FE4B
:1087B0009C4B07F1F00019780A2216F015FFFFF71D
:1087C000F2BA07F1FC049849204616F0A5FE884B42
:1087D00007F1F00019780A2216F006FFFFF7E3BA56
:1087E000924907F10C0016F09FFF07F1FC04FFF718
:1087F000ABBA8F490622204622F0BAF800283ED1B3
:108800000346024642F201400EE089790D2920FA22
:1088100001FC02D81CF0010F05D102F1010C08F88F
:1088200002105FFA8CF201335FFA83FC654504EBBA
:108830000201EAD807F1FC044146204616F06CFE1E
:10884000204617F099F88046204616F03FFF694809
:108850005FFA88F115F0EAFA054600287FF46DAE5C
:10886000634A744B01211170A3F80080FDF72CFFBF
:10887000624907F10C0016F057FFFFF765BA6E4921
:108880000522204622F074F8002800F0A2876B49E8
:108890000622204622F06CF800283CD1034602460E
:1088A00042F201400EE089790D2920FA01FC02D83C
:1088B0001CF0010F05D102F1010C08F802105FFA5B
:1088C0008CF201335FFA83FC654504EB0201EAD8C0
:1088D00007F1FC044146204616F01EFE204617F024
:1088E00051F82046B0EE408A16F0F0FE4148B0EE56
:1088F000480A12F0ADFC054600287FF421AF504B2A
:1089000083ED008AFDF7E0FE3C4907F10C0016F00C
:108910000BFFFFF719BA4B490522204622F028F831
:10892000002842D048490622204622F021F800289B
:108930004BD10022134642F201400EE089790D2905
:1089400020FA01FC02D81CF0010F05D103F1010C43
:1089500008F803105FFA8CF301325FFA82FC654578
:1089600004EB0301EAD807F1FC044146204616F067
:10897000D3FD204617F000F85FFA80F8204616F085
:10898000A5FE1C48414612F035FF054600287FF43D
:10899000D4AD2E4B83F80080FDF796FE174907F102
:1089A0000C0016F0C1FEFFF7CFB907F1FC04234914
:1089B000204616F0B1FD224B07F1F00093ED000ABE
:1089C000022116F045FEFFF7EEB9214905222046A7
:1089D00021F0CEFF00287AD01E490722204621F040
:1089E000C7FF00287BD10346024642F2014042E025
:1089F00010600020806E00201460002014E5040048
:108A000000E704001860002048E7040010E70400B5
:108A1000ECE60400E469002040E7040044E70400B9
:108A2000C8E6040010640020E0E604001CE704002F
:108A300050E704001A60002058E7040060E70400D3
:108A40000860002068E7040070E704002060002050
:108A500078E7040080E70400C9790D2920FA01FCB9
:108A600002D81CF0010F05D102F1010C08F8021028
:108A70005FFA8CF201335FFA83FC654504EB020177
:108A8000EAD807F1FC044146204616F045FD204691
:108A900016F072FFB0F1000918BF4FF0010920462F
:108AA00016F014FEC2484946002212F0CDFD0546DC
:108AB00000287FF445AEBF4B83F80090FDF704FE1D
:108AC000BD4907F10C0016F02FFEFFF73DB907F185
:108AD000FC04BA49204616F01FFDB94B26E5B949FA
:108AE0000622204621F044FFC0B3B74906222046A3
:108AF00021F03EFF002840D10346024642F20140E9
:108B00000EE089790D2920FA01FC02D81CF0010F32
:108B100005D102F1010C08F802105FFA8CF2013362
:108B20005FFA83FC654504EB0201EAD807F1FC0417
:108B30004146204616F0F0FC204616F01DFF5FFA75
:108B400080F9204616F0C2FD9948494612F0B6FC5D
:108B5000054600287FF4F4AD9C4BADE707F1FC041B
:108B60009B49204616F0D8FC924B07F1F00019788B
:108B70000A2216F039FDFFF716B99649052220465C
:108B800021F0F6FEB8B394490622204621F0F0FE0B
:108B9000C8BB0346024642F201400EE089790D2926
:108BA00020FA01FC02D81CF0010F05D102F1010CE2
:108BB00008F802105FFA8CF201335FFA83FC654516
:108BC00004EB0201EAD807F1FC044146204616F006
:108BD000A3FC204616F0D0FE5FFA80F8204616F07F
:108BE00075FD7348414614F0D5FB054600287FF417
:108BF000A4AC7A4BCEE607F1FC047349204616F08C
:108C00008BFC724B92E476490522204621F0B0FE9F
:108C1000F8B174490722204621F0AAFEC0BB0346E2
:108C2000024642F201405FFA83FC654504EB020113
:108C300017D9C9790D2920FA01FC02D81CF0010FBF
:108C400005D102F1010C08F802105FFA8CF2013331
:108C5000E9E707F1FC046049204616F05DFC5F4B34
:108C600064E407F1FC044146204616F055FC20461A
:108C700016F082FE8146204616F028FD4C484946F3
:108C800013F0C6F8054600287FF45AAD564B13E79B
:108C900056490622204621F06BFE00B354490722B4
:108CA000204621F065FE002839D10022134642F209
:108CB00001405FFA82FC654504EB030117D9C979CD
:108CC0000D2920FA01FC02D81CF0010F05D103F197
:108CD000010C08F803105FFA8CF30132E9E707F1A1
:108CE000FC044049204616F017FC3F4B1EE407F1F8
:108CF000FC044146204616F00FFC204616F03CFED0
:108D00008146204616F0E2FC29484FFA89F112F01C
:108D100021FA054600287FF413AD364BCCE63649E0
:108D20000622204621F024FE00B3344908222046C2
:108D300021F01EFE002865D10346024642F20140A2
:108D40005FFA83FC654504EB020118D9097A0D2905
:108D500020FA01FC02D81CF0010F05D102F1010C30
:108D600008F802105FFA8CF20133E9E707F1FC041E
:108D70001F49204616F0D0FB1E4BFFF7D7BB07F16B
:108D8000FC044146204616F0C7FB204616F0F4FDD1
:108D90005FFA80F9204616F099FC0548494612F022
:108DA000BDFB054600287FF4CBAC154B84E600BF25
:108DB000806E00200D60002014E5040070E70400C0
:108DC0002060002088E7040090E704000C60002089
:108DD00080E7040098E70400A0E704002160002079
:108DE000A8E70400B0E704001E600020B8E7040014
:108DF000C0E704001F600020C8E70400D0E70400BB
:108E000012640020BA490722204621F0B1FDF8B1D2
:108E1000B8490822204621F0ABFD98BB0346024624
:108E200042F201405FFA83FC654504EB020118D968
:108E3000097A0D2920FA01FC02D81CF0010F05D196
:108E400002F1010C08F802105FFA8CF20133E9E735
:108E500007F1FC04A849204616F05EFBA74BFFF77C
:108E600065BB07F1FC044146204616F055FB204641
:108E700016F082FDA24A031E18BF0123204613707C
:108E8000FFF7E1BA9F490722204621F071FD00B3A8
:108E90009D490722204621F06BFD00283ED1034664
:108EA000024642F201405FFA83FC654504EB020191
:108EB0001ED9C9790D2920FA01FC02D81CF0010F36
:108EC00005D102F1010C08F802105FFA8CF20133AF
:108ED000E9E707F1FC048749204616F01DFB884BA3
:108EE00007F1F00019780A2216F07EFBFEF75BBF4F
:108EF00007F1FC044146204616F00EFB204616F012
:108F00003BFDC5B2204616F0E1FB032D00F25A846A
:108F10007E4B1D70FDF7D8FBFEF708BF7C4906228B
:108F2000204621F025FD002800F0488279490C22D6
:108F3000204621F01DFD002866D10346024642F27C
:108F400001405FFA83FC654504EB02010FD9097B00
:108F50000D2920FA01FC02D81CF0010F05D102F105
:108F6000010C08F802105FFA8CF20133E9E707F10F
:108F7000FC044146204616F0CFFA204616F0FCFCD1
:108F80000546204616F0A2FB002D00F02082624824
:108F90006249634A634BDFF8C8E1DFF8B8C10125D5
:108FA00005700D7060481860692111705F4B604A50
:108FB0008CF800505F49DFF8ACC18EF800504FF0DC
:108FC000190E1160A3F800E05B4A5C485C490C2371
:108FD0008CF800304FF0050C137080F800C0594A2F
:108FE000464BDC2008704FF000081421117083F804
:108FF0000080FDF769FB544907F10C0016F094FB63
:10900000CDF80080FEF799BE50490B22204621F092
:10901000AFFC002800F0BC814D490B22204621F016
:10902000A7FC50BB0022134642F201405FFA82FCCB
:10903000654504EB03010FD9C97A0D2920FA01FC1B
:1090400002D81CF0010F05D103F1010C08F8031040
:109050005FFA8CF30132E9E707F1FC044146204650
:1090600016F05AFA204616F087FC3A4A031E18BF3B
:10907000012320461370FFF7E6B937490A2220463C
:1090800021F076FC28B335490822204621F070FCF7
:10909000002869D10346024642F201405FFA83FC90
:1090A000654504EB02010FD9097A0D2920FA01FC6C
:1090B00002D81CF0010F05D102F1010C08F80210D2
:1090C0005FFA8CF20133E9E7102A3FF642A8FFF776
:1090D000A0B807F1FC041E49204616F01DFA1D4BEE
:1090E00007F1F00019780A2216F07EFAFEF75BBE4F
:1090F000DCE70400E4E70400D0E704001264002089
:1091000011640020F0E70400F8E704001C60002070
:1091100020E8040028E804000D6000201060002012
:109120001860002014600020CD4C65441A600020B7
:109130000860002000007A431E6000200C600020C0
:10914000216000201F60002014E5040038E80400BE
:1091500044E804000F60002050E804005CE80400CC
:109160000E600020206000200722A449204621F044
:10917000FFFB0246002845D0A1490B22204621F0E2
:10918000F7FB002863D10346024642F201405FFA32
:1091900083FC654504EB02010FD9C97A0D2920FA39
:1091A00001FC02D81CF0010F05D102F1010C08F8F6
:1091B00002105FFA8CF20133E9E7402A3EF6C9AFAC
:1091C0009049914801F0E4FD402200218F4820F0B1
:1091D00097FC2A4641468D4820F06AFC89498C4814
:1091E000012201F093FF002800F0E3824146884805
:1091F00015F0A2F8864802F043F84046FDF78AFAD7
:10920000FEF7D8BF8349824801F080FF07F1FC04D4
:109210008149204616F080F907F1F0007C4915F0ED
:109220007DFA07F1F001204616F0CAFA014607F16F
:109230000C0016F053FA07F1F00016F047FA20463A
:1092400016F044FA724802F01BF8FEF77DBD0A22C0
:109250007249204621F08CFB0246002800F0C580B0
:1092600009226F49204621F083FB0246002800F0C6
:1092700003816C490622204621F07AFB00284BD15D
:10928000694B1B78002B42D0012B03D167496848FA
:1092900015F052F8674812F07FFD03201AF03EF9EE
:1092A0000121054603201AF097F83C2403201AF008
:1092B00057F9013C4FF4FA7016F09AFB14F0FF04D2
:1092C000F4D1291E18BF012103201AF009F95A4BC5
:1092D0005A4A1B78146073B1594A5A4B1278554850
:1092E00003EB820393ED000A11F058FB56495148F5
:1092F000042214F035F855494E48042214F01AF8A7
:109300004C4813F0D3FA07F1FC04FEF71DBD4749A2
:109310004F4815F011F8BDE74E490B22204621F0C9
:1093200027FB30BB0346024642F201405FFA83FC52
:10933000654504EB02010FD9C97A0D2920FA01FC19
:1093400002D81CF0010F05D102F1010C08F802103F
:109350005FFA8CF20133E9E707F1FC04414620464D
:1093600016F0DAF8204616F007FB3B4B0246FFF7F3
:109370003DB93A4920460A2221F0FAFAB8B907F174
:10938000FC043449204616F0C7F8334BFFF7CEB83B
:1093900007F1FC043249204616F0BEF8314B07F1C4
:1093A000F00019780A2216F01FF9FEF7FCBC2E49CE
:1093B00007F10C0016F0B8F9FEF7CBBE07F1FC047C
:1093C0002A49204616F0A8F8294BFFF7AFB8254ADE
:1093D000284B1570DD221A70FDF776F9134907F155
:1093E0000C0016F0A1F9FEF7AFBC0649084807F1DA
:1093F000FC0401F08BFE024920460BE768E80400FC
:1094000070E80400A0E40400D07000204464002050
:10941000446B00208CE404005CE8040098E804003D
:10942000A4E80400BCE804007C6E002014E50400FD
:1094300050970020806E002010600020A06C00205B
:1094400018600020ECEA0400E1620200D56202002C
:1094500078810020C4E804001D600020D0E80400EA
:1094600028E804000E600020DCE80400F8E70400AF
:109470001C600020216000207860DD49DD4801F09B
:1094800045FEDC4907F1180015F048F9D94801F00C
:10949000F7FE7A68D849D74801F038FED54907F178
:1094A000240015F03BF9D34801F0EAFE7A68D3496D
:1094B000D04801F02BFECF4907F1300015F02EF90E
:1094C000CC4801F0DDFE7A68CD49CA4801F01EFEA5
:1094D000C84907F13C0015F021F9C64801F0D0FE5B
:1094E000C84907F1480016F017F807F1180107F10D
:1094F000480016F065F92C2116F0BEF9C24B04465F
:1095000093ED000A07F15400022116F0A1F807F1CB
:109510005401204616F054F92C2116F0ADF9BB4B3E
:109520000A221978044607F1600016F05DF807F189
:109530006001204616F044F92C2116F09DF9B44B39
:109540000A221978044607F16C0016F019F807F1A1
:109550006C01204616F034F92C2116F08DF9AD4B34
:10956000044693ED000A07F17800022116F070F826
:1095700007F17801204616F023F92C2116F07CF92A
:10958000A54B0A221988044607F1840016F02CF82E
:1095900007F18401204616F013F92C2116F06CF91E
:1095A0009E4B044693ED000A07F19000022116F04D
:1095B0004FF807F19001204616F002F92C2116F021
:1095C0005BF9974B0A221978044607F19C0015F0C5
:1095D000D7FF07F19C01204616F0F2F82C2116F077
:1095E0004BF9904B0A221978044607F1A80015F0B0
:1095F000C7FF07F1A801204616F0E2F82C2116F06B
:109600003BF9894B0A221978044607F1B40015F09A
:10961000B7FF07F1B401204616F0D2F82C2116F05E
:109620002BF9824B0A221978044607F1C00015F085
:10963000A7FF07F1C001204616F0C2F82C2116F052
:109640001BF97B4B0A221978044607F1CC0015F070
:1096500097FF07F1CC01204616F0B2F82C2116F046
:109660000BF9744B0A221978044607F1D80015F05B
:1096700087FF07F1D801204616F0A2F82C2116F03A
:10968000FBF86D4B0A221978044607F1E40015F047
:10969000ABFF07F1E401204616F092F82C2116F0FA
:1096A000EBF8664B0A221978044607F1F00015F032
:1096B00067FF07F1F001204616F082F82C2116F022
:1096C000DBF807F1240116F07BF82C2116F0D4F812
:1096D00007F1300116F074F82C2116F0CDF807F1DF
:1096E0003C0116F06DF82C2116F0C6F8544B07F12A
:1096F000FC0419780A220546204615F041FF214650
:10970000284616F05DF8014607F10C0015F0E6FF5B
:10971000204615F0DBFF07F1F00015F0D7FF07F149
:10972000E40015F0D3FF07F1D80015F0CFFF07F1E3
:10973000CC0015F0CBFF07F1C00015F0C7FF07F113
:10974000B40015F0C3FF07F1A80015F0BFFF07F143
:109750009C0015F0BBFF07F1900015F0B7FF07F173
:10976000840015F0B3FF07F1780015F0AFFF07F1A3
:109770006C0015F0ABFF07F1600015F0A7FF07F1D3
:10978000540015F0A3FF07F1480015F09FFF07F103
:109790003C0015F09BFF07F1300015F097FF07F133
:1097A000240015F093FF07F1180015F08FFFFEF766
:1097B000CBBA244907F10C0015F0B6FF07F1FC0401
:1097C000FEF7C2BA204907F10C0015F0ADFFFEF715
:1097D000BBBA07F1FC041D49204615F09DFE0E4B57
:1097E00007F1F00019880A2215F0FEFEFEF7DBBA39
:1097F00084E40400446B00208CE40400A0E4040032
:1098000030E40400B0E80400706000201060002024
:1098100018600020146000201A60002008600020FA
:10982000206000200C600020216000201E600020CD
:109830001F600020126400200D6000201C600020CA
:109840001D6000207CE8040000E8040050E70400EC
:1098500038B5164B1B7804460D4673B9144B1B786C
:1098600023B1012B1AD0022B11D038BD0A46BDE816
:10987000384001460F4807F0E5B90A4601460D4851
:1098800007F0E0F90C482A46214615F01DFA21465A
:109890000A48BDE83840F7220FF042BD0A46BDE84D
:1098A00038400146044815F00FBA00BF116400208B
:1098B0007C6E00207881002050970020CC6500202D
:1098C00010B5074B044640F8183B0CF0B7FA204699
:1098D000044B40F8083B0EF0BFFA204610BD00BF15
:1098E0005CF20400C8F1040010B5044B044640F8D3
:1098F000083B0EF0B1FA204610BD00BFC8F10400CD
:1099000010B5074B044640F8183B0CF097FA204678
:10991000044B40F8083B0EF09FFA204610BD00BFF4
:10992000B0F20400C8F1040038B5164B1B780446A9
:109930000D4673B9144B1B7823B1012B1AD0022B9F
:1099400011D038BD0A46BDE8384001460F4807F03F
:1099500079B90A4601460D4807F074F90C482A46C1
:10996000214615F0B1F921460A48BDE83840F722F2
:109970000FF04CBB0A46BDE838400146044815F0DC
:10998000A3B900BF116400207C6E00207881002004
:1099900050970020E465002000B5174B0FCB85B031
:1099A0006C4607C40D2168462380FFF7BDFFFA20EF
:1099B00016F01EF8114B124819880EF0B3FF11482B
:1099C00007F032F9104815F045F90E4807F026FA6D
:1099D0000D4815F0DFF80D4801F01AF9BFF34F8F6D
:1099E0000B490C4BCA6802F4E0621343CB60BFF32F
:1099F0004F8F00BFFDE700BFF8E80400A86B002010
:109A0000B48E00207881002050970020D070002074
:109A100000ED00E00400FA052DE9F041C148F6B080
:109A200007F0C6F890B9C04815F0FEF8002857D1E5
:109A3000BE480FF04BFA002840F09C80BC4B1B78CE
:109A4000002B40F0E98076B0BDE8F08138AEF72217
:109A50000021304620F054F8B24DB64B002464206B
:109A60001C7015F0C5FF284607F0A2F8D022C3B23B
:109A7000934204AF28BF134621463846984620F04B
:109A80003FF83946D022284614F026FE01E007F0C0
:109A9000B5F8284607F08CF804462846002CF6D185
:109AA0003A8845F241439A4200F0DE81A24B1B788E
:109AB000002B40F09381A14B1B78002B40F0588184
:109AC00041463846FDF7DEFD304620F049FFC1B281
:109AD0003046FFF729FF944815F0A6F80028A7D0D4
:109AE00038AE00213046F72220F00AF88E4D914B17
:109AF000012264201A7015F07BFF284615F094F8B7
:109B0000D022C3B2934204AF28BF13463846002187
:109B100098461FF0F5FF3946D022284614F0DCFDA8
:109B200001E015F089F8284615F07EF8044628462D
:109B3000002CF6D13A8845F241439A4200F08181E7
:109B40007D4B1B78002B40F06B817C4B1B78002BEE
:109B50007CD141463846FDF795FD304620F000FFA8
:109B6000C1B23046FFF7E0FE70480FF0AFF90028B1
:109B70003FF464AF38AD0021F72228461FF0C0FF44
:109B80006A4E6C4B022240F2E2401A7015F030FF30
:109B900030460FF09BF904AF5FFA80F8D022904571
:109BA00038464FF0000128BF90461FF0A9FF3C4601
:109BB00030460FF0DBF9C0B2FF2818BF2070013427
:109BC000A542F5D1594E01E00FF0D0F930460FF023
:109BD0007DF904463046002CF6D13A8845F24143DF
:109BE0009A4200F05481544B1B78002B40F00781BF
:109BF000524B1B78002B5FD141463846FDF742FDA2
:109C0000284620F0ADFEC1B22846FFF78DFE484B36
:109C10001B78002B3FF417AF494C15F0DDFE22688E
:109C200042F20F73801A98427FF60DAF454A464BB9
:109C30001278464803EB820393ED000A10F0AEFE63
:109C400015F0CAFE206076B0BDE8F081404B3F4879
:109C500001221A7012F044FA03463C488DF8043091
:109C600012F03EFA034639488DF8053012F038FA02
:109C7000034636488DF8063012F032FA354B8DF82F
:109C8000070093F8008015F0A7FE044615F0A4FE27
:109C9000314B02461A603946D02230481FF008FF87
:109CA0002F4A30483049314B019D82F80080002214
:109CB00005600C601A7050E7254B244801221A7089
:109CC00012F00EFA034621488DF8043012F008FA1B
:109CD00003461E488DF8053012F002FA03461B4871
:109CE0008DF8063012F0FCF91A4B8DF8070093F846
:109CF000008015F071FE044615F06EFE164B02460C
:109D00001A603946D02215481FF0D2FE144A154871
:109D10001549164B019E82F80080002206600C60F7
:109D20001A706DE77881002050970020CC650020E4
:109D3000106000207C6E0020106400200E60002067
:109D4000A46C002018600020ECEA0400806E002063
:109D5000CD6F00200F6000206C600020B06C0020F0
:109D6000A96C0020AC6C0020786E0020A86C00204C
:109D7000504B514801221A7012F0B2F903464E4876
:109D80008DF8043012F0ACF903464B488DF80530DD
:109D900012F0A6F9034648488DF8063012F0A0F9F3
:109DA000464B8DF8070093F8008015F015FE044629
:109DB00015F012FE424B02461A603946D022414845
:109DC0001FF076FE404A41484149424B019D82F8CE
:109DD0000080002205600C601A7075E6304620F0A5
:109DE000BFFD3D4C84460FCC06EB0C0546F80C003D
:109DF000696003CCAA60EB60286169615BE6284674
:109E000020F0AEFD344C84460FCC05EB0C0645F833
:109E10000C00716003CCB260F36030617161E7E601
:109E2000304620F09DFD2C4C84460FCC06EB0C05F3
:109E300046F80C00696003CCAA60EB602861696198
:109E400083E6BB782B2B7FF47BAE4246394601A8D4
:109E5000FDF718FF01A82346F722314615F072FDE1
:109E600001A815F033FC78E6BB782B2B7FF41EAEEF
:109E70004246394601A8FDF705FF01A82346F7220F
:109E8000314615F05FFD01A815F020FC1CE6BB78FB
:109E90002B2B7FF4A8AE4246394601A8FDF7F2FE0F
:109EA00001A82346F722294615F04CFD01A815F01C
:109EB0000DFCA5E6CD6F0020806E00200F60002015
:109EC0006C600020B06C0020A96C0020AC6C0020FD
:109ED000786E0020A86C00200CE904002DE9F04FFA
:109EE0009B4F3B780026ADF5697DB3463446ABB950
:109EF000984A137803F0FF09002B37D1964A13785C
:109F0000002B40F0A280042019F008FB0446002832
:109F100000F0CB800DF5697DBDE8F08F8F48904D46
:109F200013F094FF8F4B1B6890FBF3F202FB1303BB
:109F30008D4A8A4802EB830393ED000A10F02EFD50
:109F40002B68012B00F0C08301332B6015F044FD1A
:109F5000864B024681481A6013F082FF00237D4A37
:109F60003B70137803F0FF09002BC7D04FF00008B7
:109F70007A4882F800802EAD13F072FF4146F72236
:109F8000284687F800801FF0BBFD4146F7226CA8E9
:109F90001FF0B6FD71484246294612F08FF900289D
:109FA00000F0BC80073000F06C81714B6C4D93E881
:109FB0000700AAAB03C341461A800DF2B220ED227E
:109FC0001FF09EFD802241460EA81FF099FD694BAF
:109FD00069491B68002BB8BF5B4203EB430301EBED
:109FE00083010AA815F0B2FA64490AA815F014FC16
:109FF000014607A815F0AAFA0AA815F067FB099A06
:10A0000043460132AAAC0EA907A815F09BFC2046D6
:10A0100020F0A6FC0EA9204420F064FC001BC1B275
:10A020002046FFF781FC07A815F050FB544B1B7826
:10A0300000222A60002B40F0FB82484812F036FCD8
:10A04000454A1378002B3FF45EAF0026167015F0DA
:10A05000C3FC474A4B4C034607CA0DF52A794D46C7
:10A0600003C531462A800DF2B220ED2223601FF095
:10A0700047FD454B1B78002B40F0E582384D404BA7
:10A080001B7800222A60002B40F0C2823F493348EF
:10A09000042213F04FF9314812F008FC042019F0A3
:10A0A0003DFA044600287FF435AF014638480BF0EE
:10A0B000E5FC38480EF018FC85B245B1354E214616
:10A0C000013430460EF02EFCA1B28D42F8D8304853
:10A0D0000BF0B2FD214811F05FFE0624032019F0B9
:10A0E0003FFA013C642015F083FC14F0FF04F5D125
:10A0F0002146032019F070F92146022019F06CF96D
:10A100000521042019F068F92046042119F064F9AA
:10A11000FCF7D8F80DF5697DBDE8F08F1E4B1F7870
:10A120000097002F00F0AF802B78002B00F0F28218
:10A13000012B40F0A880CDE9016B024601462B4679
:10A1400010270DF138080DF52A7903942CE000BF93
:10A15000406B0020CC6F0020CC700020806E00206F
:10A16000A06C002068600020ECEA0400A46C0020D1
:10A17000F4E90400C8700020E469002004E9040048
:10A1800010600020C4700020CD6F0020D562020056
:10A19000F4940020B48E00200E6000200132D2B270
:10A1A00017F0FF0700F05683BE1CF81CF6B2C0B2D1
:10A1B000AE5D15F800C093F80EB093F80AE0C8F849
:10A1C0000010002066F307003E1D6CF30F20F6B26E
:10A1D00007F1050C5FFA8CFCAE5D15F80CA093F846
:10A1E00006C0C8F8041066F317406AF31F60AD900C
:10A1F00093F80FA0C8F8081000207E1C6BF307002E
:10A200006AF30F20F6B215F807A0AE5DC8F80C107F
:10A210006AF317404FF0000A6EF3070A93F80BE059
:10A2200066F31F6000241E7BAC906CF30704587B20
:10A2300093F807C06EF30F2A66F3174A1E7A60F38D
:10A240001F6A6CF30F24587ACDF8ACA266F317445A
:10A2500060F31F64AA94D9F8000010371033002867
:10A260009CD10F98824599D1AC9E1098864295D189
:10A27000AD9E1198864291D192E7B9F1000F40F05E
:10A28000BF81BA4DD2E6F72229466CA81FF010FC18
:10A290000DF1280AEF782B79B54A6879D2F80220B7
:10A2A000A978CAF800203F0447EA0327D5F802300E
:10A2B000079307439A4247EA016702D16B7801335B
:10A2C0006B70DFF8B8A201238DF819300AF5C87851
:10A2D000534601E0434506D053F8042B9742F9D189
:10A2E00000238DF819309DF81930DBB28DF8183045
:10A2F0009DF81830002B40F0F0819E4B1B78002B0E
:10A30000BBD09D4A6B7811788B4280F02881012266
:10A310009A4B8DF81A2001E0984506D053F8042B8B
:10A320009742F9D100238DF81A309DF81A30002B8E
:10A3300000F0158115F050FB91490446002351F8B7
:10A34000042F5FFA83FCA24203F101033CBF66467F
:10A350001446642BF3D18B4B884A43F8260042F80D
:10A360002670B9F1000F40F081822946F722AAA891
:10A370001FF09EFB844B6C78844E00221A7015F0FF
:10A380002BFB834811F0ACFE054615F025FB01348C
:10A39000142313FB0503E4B275488DF8A942AAA95A
:10A3A000F72233601FF084FBB9F1000F3FF469AF6F
:10A3B000784B1B78002B3FF464AF6E4B93F800A0F2
:10A3C000BAF1000F7FF45DAF0DF52A79F7225146FF
:10A3D00048461FF095FB484620F0C2FA6E4F634D89
:10A3E00084460FCF0CF101040A2609F80C6049F8E5
:10A3F00004004C44B7F804C03868BF79A4F814C00E
:10A400000DF13808E3606160A2602061A7755146D4
:10A41000202240461FF074FB2868604F32464146B8
:10A42000023017F037FE484620F09AFA4146484479
:10A4300020F058FA07F1200C0670441C3E460FCE5F
:10A44000664520606160A260E360374604F1100455
:10A45000F4D103CF3B88238120606160202200215A
:10A4600040461FF04DFB4A484D4F0022012111F09C
:10A47000D9F8FDEEC07A0A2217EE900A414617F08D
:10A4800009FE484620F06CFA4146484420F02AFA7A
:10A49000444A0346106818601E1D07F1200C3C4614
:10A4A0000FCC644530607160B260F360274606F1FE
:10A4B0001006F4D123792068337130602022002106
:10A4C00040461FF01DFB3248374C11F07FFBFDEE7C
:10A4D000C07A0A2217EE900A414617F0DBFD484683
:10A4E00020F03EFA4146484420F0FCF906460FCCE5
:10A4F000A6EB090701374FF00A0A86F800A009EB1E
:10A50000070649F80700716003CC2478F360B26055
:10A510003061716120220021404634761FF0F0FA4C
:10A520001B48002112F068FFFDEEC07A524617EE7C
:10A53000900A414617F0AEFD484620F011FA414618
:10A54000484420F0CFF919490346A0EB0902033231
:10A5500008681860D1B24846FFF7E6F966E50029B9
:10A560007FF422AF01238DF81B3023E0A06C002084
:10A57000806D00200E6000201D600020C466002059
:10A580005068002054680020CD6F00206C600020CF
:10A59000806E00201064002024E904003CE90400DF
:10A5A00070E9040068E9040098E90400B4E90400D3
:10A5B000C24506D05AF8043B9F42F9D100238DF8DA
:10A5C0001B309DF81B30002B3FF4EEAE15F004FA63
:10A5D000BB490446002351F8042FDDB2A24203F127
:10A5E00001033CBFAB461446642BF4D1B54BB64ACD
:10A5F00043F82B0042F82B70B9F1000F3FF441AE45
:10A600006CA820F0ADF9C1B26CA8FFF721F9CFE634
:10A61000AE4AAF4B1278AF4803EB820393ED000ACA
:10A6200010F0BCF9AC49AB48042212F099FE2DE5BC
:10A63000A64AA74B1278A74803EB820393ED000AC2
:10A6400010F0ACF9F9E4A54D802231466CA81FF05A
:10A6500057FA2B68A249002BB8BF5B4203EB4303B8
:10A6600001EB83012EA814F071FF9E492EA815F06E
:10A67000D3F80DF138080146404614F067FF2EA8C4
:10A6800015F024F8D8F80820334601326CA940466A
:10A6900015F058F9484620F063F96CA9484420F0B9
:10A6A00021F92F6806461FB98F4B1B78002B3BD131
:10A6B0008E4D484620F054F9C1B24846FFF734F9B0
:10A6C000404615F003F8DAE415F086F9884B894A1C
:10A6D0001B68C01A10602B6836E49DF81830DBB296
:10A6E000009315F079F976498446002351F8042F38
:10A6F0005FFA83FE624503F101033CBF7446944652
:10A70000642BF3D16F4B704A009942F8241043F840
:10A710002400F2E5F1220DF1BE016CA81FF0C8F98A
:10A72000B9460DF1280AB5E5724B714ADFF8D0C180
:10A73000D3F800B02368D2F800E00093BCE80F0023
:10A74000F360009BBCF804A03060DE44DCF800003D
:10A750007160664D9CF80610B260A3EB0E03306189
:10A76000A6F814A0B175202239462EA800931FF038
:10A77000C7F90A222EA92868DFF888B117F08AFCE9
:10A78000484620F0EDF82EA9484420F0ABF8DFF859
:10A7900078C18646BCE80F00AEEB090601364FF0E3
:10A7A0000A0A8EF800A049F806004E44DCF80000C2
:10A7B0009CF804C086F814C07160B2603061F36028
:10A7C000202239462EA81FF09BF9494A20681368B9
:10A7D000494C5246C01A2EA917F05CFC484620F09E
:10A7E000BFF82EA9484420F07DF80646DBF80000AB
:10A7F00030600FCCA6EB0906033609EB060C49F8CE
:10A800000600CCF80410CCF8082007CC2488CCF83B
:10A810001000CCF81410CCF81820CCF80C30ACF8A0
:10A820001C40394620222EA81FF06AF9009B286898
:10A83000B3FBF0F052462EA917F02CFC484620F04E
:10A840008FF82EA9484420F04DF80346DBF80000AD
:10A8500018602EE7931E13F0FF03DDE9016B039CE4
:10A8600002930BD1B9460DF1280A13E56CA820F02C
:10A8700077F8C1B26CA8FEF7EBFF76E5DDF8BE0015
:10A88000DDF8C210DDF8C620DDF8CA30AA970DF158
:10A89000280AD446ACE80F00184BC9F804701A46D1
:10A8A000C9E90277DB68526850464146FBF7A4FECF
:10A8B000D8F80020AA9B9A4228D04FF00009E9E47A
:10A8C0005068002054680020C466002018600020F2
:10A8D000ECEA0400806E0020E1620200C8700020F3
:10A8E000E469002004E9040010640020A06C00204A
:10A8F000C0700020BC700020D4E9040084640020F3
:10A9000024E90400D0E90400B8E90400AB9A0F9BE5
:10A910009342D2D1AC9A109B9342CED1AD9A119B67
:10A920009342CAD1DDF8CE00DDF8D210DDF8D62092
:10A93000DDF8DA30D446ACE80F00934B1A464146B6
:10A940005268DB685046FBF757FE404620F008F897
:10A9500039468146F7226CA85FFA89F71FF0D0F8D4
:10A96000B9F1000F06D07A1ED2B2013241466CA86E
:10A970001FF09EF86CAB6CA84B443A2200F80920FB
:10A9800002372022CDE9036BF9B25A7000230594F7
:10A9900001934FF026090C4609F10C0109F10D0253
:10A9A00009F10903C9B2DBB2D2B2695C15F803E060
:10A9B000AA5C15F80970002361F3070309F104008C
:10A9C00062F30F2309F10E02C0B2D2B215F800C033
:10A9D000AA5C09F1080609F1050009F10101F6B2C6
:10A9E000C0B2C9B262F3174309F10F0215F806B0FD
:10A9F0002E5C685C0199D2B20131AA5C019109F127
:10AA00000A0162F31F63C9B2CAF80C300023695C03
:10AA10006BF307036EF30F2361F3174309F10B0187
:10AA2000C9B209F1020E695C61F31F630021CAF823
:10AA300008306CF3070109F103035FFA8EFE66F339
:10AA40000F21DBB2002615F80EE0EB5C09F10602DF
:10AA500067F3070609F1070B60F30F26D2B26EF316
:10AA600017465FFA8BFBAA5C15F80BC063F31F66F1
:10AA7000454BCAF8006062F317411A466CF31F6138
:10AA8000DB685268CAF8041050464146FBF7B4FD33
:10AA9000661C0DF5D87C98F800700CF80470A01CAA
:10AAA000F6B298F801700CF80670E11CC0B298F884
:10AAB00002700CF80070221DC9B298F803700CF8EF
:10AAC0000170D2B2631D98F804700CF80270DBB20A
:10AAD000A61D98F805700CF80370F6B2E01D98F802
:10AAE00006700CF80670C0B204F1080198F80770FF
:10AAF0000CF80070C9B204F1090298F808700CF85B
:10AB00000170D2B204F10A0398F809700CF80270CF
:10AB1000DBB204F10B0698F80A700CF80370F6B279
:10AB200004F10C0098F80B700CF80670C0B204F138
:10AB30000D0198F80C600CF80060C9B204F10E0227
:10AB400004F10F0398F80D600CF80160D2B2DBB28B
:10AB500098F80E0098F80F100CF802009DF80420E9
:10AB60000CF80310029B09F11009103493425FFAAC
:10AB700089F9E4B23FF610AFDDE9036B059CDDF81F
:10AB80000090FFF787BB00BF84640020704700BFC0
:10AB900010B5044617F050FB204610BD38B50A4BDF
:10ABA00004460D46442240F80C3B00211EF0A8FF4D
:10ABB0000023A560237104F15401012015F0FAF976
:10ABC0002065204638BD00BFF4EC040070B5044693
:10ABD0000E46006D4FF0FF3115F064FC257955B934
:10ABE0008EB1A660314604F10C0005F0D5FBB0FA39
:10ABF00080F56D0925710023206D1A46194615F060
:10AC000029F8284670BDA668002EF4D0EAE700BFF8
:10AC100010B504464FF0FF31006D15F043FC237969
:10AC20003BB90023206D1A46BDE81040194615F0C7
:10AC300011B80023237104F10C0005F0C1FCF0E70A
:10AC400070B505464FF0FF31006D15F02BFC2B79E8
:10AC500093B1002305F10C062B71304605F0B0FCD2
:10AC6000044680B10023286D1A46194614F0F2FFFD
:10AC7000B4FA84F0400970BDA96805F10C0004F035
:10AC80002BFF0446EEE7A968304604F025FF044692
:10AC90000028E7D1A968304605F07EFB044600286D
:10ACA000E0D101232B71DDE730B5044695B00D46A8
:10ACB000006D4FF0FF3115F0F5FB294601AA04F1B4
:10ACC0000C0004F0DDFC002302461946206D1446FA
:10ACD0001A4614F0BFFFB4FA84F0400915B030BD35
:10ACE0002DE9F04F83B00B7800AF2F2B78600CBFAD
:10ACF0004C1C0C4606460D46006D4FF0FF3115F01A
:10AD0000D1FB06F10C084FF0000917E0ADEB030D85
:10AD100068468B4500F8019BEA4601DD1EF0F0FE17
:10AD200029465A4650461EF0C3FE5146404603F09F
:10AD30000DFD08B1113028D10134B54620462F2130
:10AD40001FF0E8FDA0EB050B0BF108036E46002198
:10AD5000044623F007035A460028D7D12946404627
:10AD600003F0F4FC60B901247A680023106D1946E1
:10AD70001A4614F06FFF20460C37BD46BDE8F08F31
:10AD8000113014BF00240124EEE70024B546EBE7A0
:10AD900038B504460D46006D4FF0FF3115F082FBCB
:10ADA000294604F10C0004F0C3FC002302461946B6
:10ADB000206D14461A4614F04DFFB4FA84F0400991
:10ADC00038BD00BF00207047036970B504460D46CA
:10ADD000186D4FF0FF31164615F064FB237D4BB123
:10ADE000002522690023106D19461A4614F032FF1F
:10ADF000284670BD2069A1692A4633460C3003F00D
:10AE0000F3FF20EAE075ECE770B50369044682B011
:10AE1000186D4FF0FF3115F045FB267D4EBB2069C4
:10AE2000A1690C3004F01EFC05462069A1698DF86B
:10AE3000076001230DF107020C3004F05FFB0028CE
:10AE40002069A169C8BF9DF807602A4600F10C007F
:10AE50004FF00003D8BF4FF0FF3604F0D3FB226958
:10AE60000023106D19461A4614F0F4FE304602B065
:10AE700070BD4FF0FF36F2E738B5036904464FF076
:10AE8000FF31186D15F00EFB237D4BB100252269B3
:10AE90000023106D19461A4614F0DCFE284638BD12
:10AEA0002069A1690C3004F0DFFB05462069A16927
:10AEB0000C3004F0D7FB2D1AE9E700BF036910B589
:10AEC00004464FF0FF31186D15F0ECFA237D43B1C5
:10AED00022690023106DBDE810401A46194614F08F
:10AEE000B9BE2069A1690C3004F0E4F9F0E700BFB5
:10AEF00030B50369044683B0186D4FF0FF3115F08B
:10AF0000D1FA257D55B122690023106D19461A46E4
:10AF100014F0A0FE4FF0FF3003B030BD2069A169EE
:10AF20000DF1070201230C3004F0E8FA23692A46E8
:10AF300004462946186D2B4614F08CFE002CCCBF1D
:10AF40009DF807004FF0FF3003B030BD30B5036807
:10AF5000164A5B6883B093428DF807101ED10369CF
:10AF600004464FF0FF31186D15F09CFA237D53B164
:10AF7000002522690023106D19461A4614F06AFE56
:10AF8000284603B030BD2069A1690C3001230DF1C2
:10AF9000070203F029FF20EAE075EAE701220DF13C
:10AFA000070198470546284603B030BDC9AD0200E9
:10AFB00030B4074C016100224FF47A75C0E90042B9
:10AFC0008560C0E9062230BC027580F820207047F9
:10AFD00010ED0400F0B5836997B004460D4616469F
:10AFE00093B1077D006919460C30002F45D003F05E
:10AFF000ADFDA06914F032FDE0690023A36108B142
:10B0000014F02CFD0023E361206903AA0C302946CB
:10B0100004F036FB98B99DF80C30112B34D02C205D
:10B0200014F002FD0146A06130B120692A460C30BF
:10B0300003F064FD002839D0002017B0F0BD0230C5
:10B04000FAD1012EF8D1382014F0EEFC0146A061AF
:10B050000028F1D0206940F203130C302A4603F097
:10B0600011FE06460028E7D12069A1690C300223B1
:10B07000324604F0C7FA267509E004F09DF9A0698C
:10B0800014F0ECFCA761BFE7EEB1012E3AD02F21FE
:10B0900028461FF092FC203400B1451C294620466A
:10B0A00040221FF077FC012017B0F0BD012323756B
:10B0B00028461FF055FC013014F0B6FC2946E0612B
:10B0C0001FF035FCE3E701233820019314F0ACFCBA
:10B0D000019BA06101460028AED020692A460C30B1
:10B0E00003F0D0FD0028A7D1012E02D00023237544
:10B0F000CDE72369A169024603F10C00022304F0A5
:10B1000081FAF3E740F20313DEE700BF30B50369CD
:10B1100083B004460D46186D01924FF0FF3115F0D3
:10B12000C1F9019A29462046FFF754FF21690023FF
:10B1300002461446086D1A46194614F08BFD204647
:10B1400003B030BD70B504460025C4E9065510486B
:10B15000236182B0206084F820504FF47A700E464C
:10B16000A0604FF0FF31186D65602575019215F0F4
:10B1700099F9019A31462046FFF72CFF22692B46A8
:10B18000106D29462A4614F065FD204602B070BDB8
:10B1900010ED0400036970B504460D46186D4FF0BC
:10B1A000FF31164615F07EF9237D4BB1002522694B
:10B1B0000023106D19461A4614F04CFD284670BD48
:10B1C0002069A1692A4633460C3004F097F90546F8
:10B1D000EDE700BF38B5036904460D46186D4FF022
:10B1E000FF3115F05FF9237D4BB100252269002363
:10B1F000106D19461A4614F02DFD284638BD2069F9
:10B20000A1692A460C3004F0FDF9C543ED0FEDE7C6
:10B2100038B5036904464FF0FF31186D15F042F957
:10B22000237D4BB1002522690023106D19461A4673
:10B2300014F010FD284638BD2069A1690C3004F0D7
:10B2400011FA0546EFE700BF38B5036904464FF031
:10B25000FF31186D15F026F9237D4BB100252269C9
:10B260000023106D19461A4614F0F4FC284638BD28
:10B270002069A1690C3004F0F7F90546EFE700BF3B
:10B28000036970B504464FF0FF31186D15F00AF9E7
:10B29000A16981B12069257D0C30ADB103F056FC68
:10B2A000A06914F0DBFBE0690023A36108B114F08E
:10B2B000D5FB0023E36122690023106DBDE87040D7
:10B2C0001A46194614F0C6BC04F076F8A06914F0CA
:10B2D000C5FBA561EFE700BF8069003818BF0120FA
:10B2E000704700BF2DE9F04F95B00B6906460C463C
:10B2F000186D4FF0FF3100AF904615F0D3F80023E2
:10B300002069337586F82030227D2B4930614FF457
:10B310007A70C6E90013C6E90633B060DAB342F6C4
:10B320002E652069A1690C303A1D03F023FC012829
:10B3300031D1BB892E2BF4D0AB4238D0D4F81C903D
:10B3400048461FF00DFB054607F10C001FF008FBF7
:10B350002B18093323F00703EA46ADEB030D6846CB
:10B360006A1C49461EF0A4FB99F800302F2BEB46CF
:10B3700002D199F801301BB1104B1B882BF8053016
:10B3800007F10C0158461FF0B6FA424659463046BE
:10B39000FFF720FED54622690023106D19461A4694
:10B3A00014F058FC30465437BD46BDE8F08FBB7BE7
:10B3B000002BB6D0C2E700BF10ED040004ED04007E
:10B3C0002DE9F04F85B0DDE90E4B109F81460D460B
:10B3D00090461E46002F63D0B8F1000F03D0D8F876
:10B3E0000030B34249D0D9F800002B689E422BD0E0
:10B3F0004369B4FBF3F203FB1242BAB9BB4215D85E
:10B40000B7FBF3F203FB127AA7EB0A030093039353
:10B41000436822461F4631465B46B84788B9039BBE
:10B4200057469B441C44002FD6D139E00093A21A02
:10B43000C5E90062D0F804A0AB683146D0470028C7
:10B44000CAD005B0BDE8F08F69684369A142D0D881
:10B45000CA18A242CDD9A2EB040ABA45AB6828BFEC
:10B46000BA46611A524658461944BF1A54441EF04F
:10B470001FFBD344002FAFD112E0D8F80430A34211
:10B48000B1D8D9F8000082691A44A242ADD9A2EB22
:10B49000040ABA45D8F8081028BFBA46E31AE1E70B
:10B4A000002005B0BDE8F08F2DE9F04F074687B0CA
:10B4B0000D4672B30368D1F800B090469A69D1E99D
:10B4C00001104AB3013A01F101098618A9EB0009FC
:10B4D000441E4FF0010A08E014F8012F9DF81730C0
:10B4E0009A4223D1A6423B6814D01A6A934509EBCD
:10B4F000040320D20DF11702CDE90032CDF808A0E7
:10B500005B46002241463846FFF75AFF0028E3D049
:10B5100009DB3B68A8689A69FF211EF0F1FA4FF039
:10B52000FF332B60002007B0BDE8F08F6FF03300D1
:10B5300007B0BDE8F08F034B034A044812211EF008
:10B5400015FA00BF2CED040054EF04004CED04008C
:10B550002DE9F04F87B0DDF840A00592002B64D0B4
:10B56000D0F800908B46D9F81C105C1EA1F1080899
:10B570004445074651D3B4FBF8F001381EF078F883
:10B58000D04500F10200A4EB8003B3FBF8F560D8CE
:10B59000BAFBF8F001381EF06BF8861CAAEB8606A1
:10B5A000B6FBF8F630461EF063F8AAEB800006FB07
:10B5B000180AB54243D9D9F82020059B4FF0040959
:10B5C0000DF114080BE0012B45D93A68126A934239
:10B5D00041D8012101FA04F42D1BB54230D9AC1B2E
:10B5E000B4FA84F495FAA5F1C4F11F04B1FA81F11B
:10B5F0008C4228BF0C4693424FEA840132D200911C
:10B60000CDE90189002259463846FFF7D9FE059B4E
:10B610000028D8D007B0BDE8F08FD04588BF1346CA
:10B62000BAFBF8F00CD80025B4E711994FF0FF32BF
:10B630000A60129A1846136007B0BDE8F08F059BA8
:10B64000119A1360129B0020C3F800A007B0BDE858
:10B65000F08F0026ADE7064B064A07484FF48F618E
:10B660001EF084F9054B064A034812211EF07EF9AC
:10B67000C8ED040074EF04004CED04002CED040050
:10B6800054EF04002DE9F04F89B00746149C129D39
:10B690008B4692461E46002C55D0DBF80030B34254
:10B6A0005CD0013340F0A18038688269B5FBF2F3C9
:10B6B00002FB1353002B4AD1A24248D8B4FBF2F349
:10B6C00002FB13430593E31A009304938468139BCE
:10B6D0002A463146A04700287ED1BAF1000F29D072
:10B6E000049B3BB3139B5C1E049B04EB0309139B5D
:10B6F00005F10108A8EB030807E014F8012F9DF8F5
:10B700001F309A4266D14C4514D03B681A6A964263
:10B7100008EB040363D2012202920DF11F02CDE96E
:10B7200000325146334600223846FFF749FE0028D2
:10B73000E3D051DB139A049B059C114619441391E5
:10B740001D44002CA9D1002009B0BDE8F08FEB1AF0
:10B75000CBE90063DBF80030B342A2D1DBF8041080
:10B76000A9429ED83A6892690A44AA4299D9A2EBA2
:10B770000508A045DBF8080028BFA046691A084460
:10B78000424613991EF094F938681399826945442A
:10B790004144B5FBF2F302FB1353A4EB08041391ED
:10B7A000002B7FF478AFDBF800104B1C3FF473AF35
:10B7B0000092DBE90123D0F80880C04760B9524607
:10B7C00059463846FFF770FE00283FF464AF09B0D1
:10B7D000BDE8F08F6FF0330009B0BDE8F08F064B85
:10B7E000064A074812211EF0C1F8064B064A0448D3
:10B7F000B7211EF0BBF800BF2CED040054EF04008D
:10B800004CED0400F4ED040064EF04002DE9F04F6A
:10B810000446D2E9003091B04FF0010B0A930023A7
:10B820000B90069104F114080DF128090593236883
:10B8300059F8045B1B6A9D427BD210230DF1300A3C
:10B840000022CDE901A300922B4641462046FFF796
:10B85000B7FD002839D1059B002B60D10D9B23F04B
:10B860000043132B4FD92268D26993424BD84FF033
:10B87000FF3309A810225146099304F0BFFE0D9B27
:10B8800023F00043102B28D0CDF81C9010260DF18A
:10B890002307994607E001360122394609A804F03A
:10B8A000ADFEB14517D023681B6A9D4241D20123EA
:10B8B000CDE9017300962B46002241462046FFF752
:10B8C0007FFD0028E7D0DDF81C9010F1340F1AD06E
:10B8D00011B0BDE8F08FDDF81C90099B9BB99AE888
:10B8E0000F000BF0010610AF07EB860C069F102629
:10B8F000FE603E467D601C365CF8185CBD6086E8E4
:10B900000F0001230593BBF1020F0FD1059B002B04
:10B9100014BF00206FF0330011B0BDE8F08F069A1D
:10B920000C9BD2699B1A002B98DAECE74FF0020BC4
:10B930007DE7034B034A044812211EF017F800BFAD
:10B940002CED040054EF04004CED04004368013377
:10B9500037D02DE9F0438368013383B0044628D003
:10B9600015460E464FF000084FF001096A46294679
:10B97000CDE90089FFF74AFFE0B905F124086B6AB9
:10B98000591C16D0AF6A7A1C13D0D6F800C09C455B
:10B9900013D0D6F804E0BE450FD073454246294681
:10B9A00020460AD0BC4508D0FFF730FF0028E6D07B
:10B9B00000E0002003B0BDE8F083012003B0BDE843
:10B9C000F0830020704700BF2DE9F041D1F820C07E
:10B9D0000C46C9682CF00043043B01F10C069E4262
:10B9E00084B0054617461FD904F12408102612E03A
:10B9F000424621462846FFF709FF90B9D4F820C0F7
:10BA0000A169E6602CF00043043B14311B2BA161BB
:10BA10004FF0100108D8BCF1000FE9DB39606FF07E
:10BA2000010004B0BDE8F0812A46636852F8140BA7
:10BA3000066AB34207F104001AD20C26CDE90010C1
:10BA40000296114628460022FFF7BAFC0028E8D1EA
:10BA50007B79BA79FD79A16904331344E2683A60CD
:10BA60002B441A440B44E260A36104B0BDE8F081AA
:10BA7000024B034A034812211DF078FF2CED04000D
:10BA800054EF04004CED0400F0B593B000260D46D1
:10BA9000012707A96A46CDE900670446FFF7B6FE0D
:10BAA000064610B121E0831C22D1109B01331CD02B
:10BAB000119B013319D010AA07A92046FFF7A6FE53
:10BAC000B0B903AA07A92046FFF77EFF0028EAD1F4
:10BAD0009DF91030002B4FF00802294605A8F0DB35
