:020000022000DC
:106000000000042061210400A1210400A321040058
:10601000A5210400A7210400A9210400000000001C
:10602000000000000000000000000000E91F040064
:10603000AD2104000000000009200400B12104008B
:10604000BD230400B321040069F10300B32104005F
:10605000B3210400B3210400F5F40300B3210400CC
:10606000B3210400B3210400B3210400B3210400D0
:10607000B3210400B3210400B3210400B3210400C0
:10608000B3210400391D0400B3210400B32104002E
:10609000B3210400B3210400DD890300B32104000F
:1060A000B3210400B3210400B3210400B321040090
:1060B000B3210400B3210400000000000000000030
:1060C000B3210400B3210400B3210400A529040076
:1060D000B3210400B3210400B32104000916030016
:1060E000B3210400B3210400B32104000000000028
:1060F00000000000B3210400000000001D2A04007D
:10610000000000000000000000000000000000008F
:10611000000000000000000000000000000000007F
:10612000000000000000000000000000000000006F
:10613000000000000000000000000000000000005F
:10614000000000000000000000000000000000004F
:10615000000000000000000000000000000000003F
:10616000000000000000000000000000000000002F
:10617000000000000000000000000000000000001F
:10618000000000000000000000000000000000000F
:1061900000000000000000000000000000000000FF
:1061A00000000000000000000000000000000000EF
:1061B00000000000000000000000000000000000DF
:1061C00000000000000000000000000000000000CF
:1061D00000000000000000000000000000000000BF
:1061E00000000000000000000000000000000000AF
:1061F000000000000000000000000000000000009F
:10620000F1EE103A43F08073E1EE103A704700BFB0
:1062100010B5054C237833B9044B13B10448AFF3E0
:1062200000800123237010BD2064002000000000C6
:106230004C22050008B5034B1BB103490348AFF3DB
:10624000008008BD00000000246400204C220500EE
:10625000154B002B08BF134B9D46A3F5803A002138
:106260008B460F461348144A121A23F079FC0F4B41
:10627000002B00D098470E4B002B00D098470020F1
:10628000002104000D000D48002802D00C48AFF397
:10629000008023F0FBFB200029001BF0B9FF23F056
:1062A000CFFB00BF00000800000004200000000039
:1062B0000000000020640020CCA5002000000000A9
:1062C0000000000033DF7047014B01221A70704755
:1062D000F8700020014B01221A707047F86F0020FF
:1062E000014B01221A7070476C6B0020014B012298
:1062F0001A707047E4700020014B01221A70704739
:10630000EE66002038B5054CA4F5A875204619F0B6
:106310000DFAAC42A4F10C04F8D138BD606B00203A
:10632000054B064A1B78013B0021012B117000D957
:10633000704703201DF004B918600020ED660020AE
:1063400010B5134B88B001461248198012F03EFB7D
:1063500011490124002320220C706946CDE9003345
:10636000CDE90333CDE905330293079310F01EFC0A
:106370000A4B0B4A1B78013B0221A342117001D941
:1063800008B010BD214603201DF0DAF808B010BD9A
:10639000D46B0020E08E0020ED6600201860002005
:1063A000A86E002010B56B4C6B49204617F0F4FF27
:1063B0006A4B0A221978204618F068F96849204685
:1063C00017F0EAFF674B0A221978204618F084F983
:1063D0006549204617F0E0FF644B0A2219782046F1
:1063E00018F054F96249204617F0D6FF614B0A2293
:1063F0001978204618F04AF95F49204617F0CCFF7B
:106400005E4B0A221978204618F066F95C4920464E
:1064100017F0C2FF5B4B186822F0B8FD41EC100B7F
:106420002046022118F07CF85749204617F0B4FFA7
:10643000564B0A221988204618F028F9544920465C
:1064400017F0AAFF534B186822F0A0FD41EC100B87
:106450002046022118F064F84F49204617F09CFFAF
:106460004E4B0A221978204618F036F94C4920463E
:1064700017F092FF4B4B0A221978204618F02CF99E
:106480004949204617F088FF484B0A2219782046D0
:1064900018F022F94649204617F07EFF454B0A22A4
:1064A0001978204618F018F94349204617F074FF70
:1064B000424B0A221978204618F00EF9404920462E
:1064C00017F06AFF3F4B0A221978204618F004F9AA
:1064D0003D49204617F060FF3C4B0A2219782046C0
:1064E00018F0D4F83A49204617F056FF394B0A22E3
:1064F0001978204618F0F0F83749204617F04CFF7D
:10650000364B0A221978204618F0C0F83449204644
:1065100017F042FF334B0A221978204618F0B6F8DC
:106520003149204617F038FF304B0A2219782046AF
:1065300018F0ACF82E49204617F02EFF2D4B2046C0
:1065400019780A2218F0C8F82046BDE8104004F077
:10655000C9BE00BF706B0020E4E1040005600020AC
:10656000ECE1040004600020F4E104003D6400203C
:10657000FCE104000F60002004E20400146000202D
:1065800008E204001060002010E204001660002001
:1065900014E204000860002018E204001C600020DF
:1065A0001CE204000C60002020E204001D600020BA
:1065B00024E204001A6000202CE204001B6000208A
:1065C00034E204003F6400203CE204003C6400200C
:1065D00044E20400186000204CE204003E64002005
:1065E00054E204000E60002060E204000D60002010
:1065F0006CE20400196000202DE9F041DFF8C4804E
:1066000098F814C09CB0BCF1000F4BD005460C4666
:1066100017461E461FF074FA00284CD13946D8F8A8
:106620001830324609A81EF08DFE244B0393102724
:10663000D8F81C10049709A8082303AA1EF0C2FE6C
:10664000002835D1D8F808309E4222D128686968E0
:10665000AA68EB68002605AD0FC526602346666074
:10666000A660E66005A9102209A81EF0E7FE034611
:10667000D8B902A90191009405AA09A819461EF0EB
:106680001BFF00280CBF10206FF005001CB0BDE8F8
:10669000F0810B4909A81EF0B9FE0028D6D06FF092
:1066A0000600F3E74FF0FF30F0E76FF00400EDE78E
:1066B0006FF00300EAE76FF00100E7E750640020A5
:1066C00040640020B064002008B50C490C4804F078
:1066D00091FB0A490B48012204F04AFD48B90A4BD4
:1066E0001B7803B908BDBDE808400849084817F001
:1066F000C7BEBDE80840FFF755BE00BF78E2040002
:10670000FC700020706B0020EC66002080E204002A
:10671000A4810020F0B5174F174D184E99B00446CC
:10672000384613F02FFC0221284613F0FBFC2046CC
:1067300024F046F921460246284613F007FD08AC2E
:1067400008A9284613F00AFD0FCC6D460FC594E842
:106750000F0085E80F006B460FCB86E80F0095E829
:106760000F00074C84E80F00384613F01FFC19B0E7
:10677000F0BD00BF74960020D86B0020406400205C
:10678000506400202DE9F04173497448DFF87C82A1
:10679000734E744F82B004F03DFC734813F0BEFC9E
:1067A000724B7348002501220321C3E90655196184
:1067B0001D609D601D755A60DA6013F0D9FC3020B1
:1067C0001BF066FD0F230E22044600930C210D23BF
:1067D00013F0A8FE21466748674C14F037F940468D
:1067E00012F066FA32466549404623F0E9F8384629
:1067F00012F0F8FA32466249384623F0E1F8614F68
:1068000020464FF4807112F043FF32465E49204625
:1068100023F0D6F85D4C384612F032F932465C4926
:10682000384623F0CDF85B49204618F0A5FE5A49BA
:1068300004F10C0018F0A0FE584904F1180018F0FB
:106840009BFE574904F1240018F096FE554904F1C7
:10685000300018F091FE544904F13C0018F08CFE11
:10686000524904F1480018F087FE514904F15400E0
:1068700018F082FE4F4904F1600018F07DFE4E4989
:1068800004F16C0018F078FE4C4904F1780018F01F
:1068900073FE4B4904F1840018F06EFE494904F17F
:1068A000900018F069FE484904F19C0018F064FE5D
:1068B000464904F1A80018F05FFE454904F1B40010
:1068C00018F05AFE434904F1C00018F055FE424941
:1068D00004F1CC0018F050FE404904F1D80018F043
:1068E0004BFE3F4904F1E40018F046FE3D4904F137
:1068F000F00018F041FE3C4904F1FC0018F03CFEA9
:106900003A4904F5847018F037FE394904F58A7065
:1069100018F032FE374904F5907018F02DFE364914
:1069200004F5967018F028FE344904F59C7018F0B0
:1069300023FE334904F5A27018F01EFE314904F518
:10694000A87018F019FE30493246284602B0BDE85A
:10695000F04123F035B800BFFC700020706B0020C0
:1069600000600020B0650020D86B0020B0640020DB
:10697000FC6F0020AC6E0020F865002081990200B9
:1069800069990200D064002025970300106A002056
:1069900041990200A0E20400A8E20400B8E2040069
:1069A000C8E20400E4E20400F4E2040000E30400AE
:1069B0000CE304001CE3040030E304004CE3040097
:1069C00060E3040074E3040088E30400A0E304002F
:1069D000B4E30400C4E30400D8E30400F0E30400DB
:1069E0000CE404001CE4040028E404003CE404007B
:1069F00050E4040064E4040078E4040084E4040047
:106A000094E40400ACE40400056302004065002047
:106A100030B5B748B74985B00022044604F0A8FB5A
:106A2000204604F097FA3D28FAD1B149B24DB34C53
:106A30000A2201A817F0D6FE01A818F0CDFF031E08
:106A400018BF012301A82B7018F070FE2378002BCB
:106A500040F0FA81A64D284604F07CFA3D28FAD190
:106A6000A349A74D0A2201A817F0BCFE01A818F0FF
:106A7000B3FF034601A82B7018F058FE2378002BB3
:106A800040F0AC829A4D284604F064FA3D28FAD1D1
:106A900097499C4D0A2201A817F0A4FE01A818F0FE
:106AA0009BFF031E18BF012301A82B7018F03EFEA8
:106AB0002378002B40F088828D4D284604F04AFA56
:106AC0003D28FAD18A49904D0A2201A817F08AFE82
:106AD00001A818F081FF031E18BF012301A82B7025
:106AE00018F024FE2378002B40F06482804D284665
:106AF00004F030FA3D28FAD17D49844D0A2201A8DC
:106B000017F070FE01A818F067FF034601A82B706C
:106B100018F00CFE2378002B40F04282744D28467A
:106B200004F018FA3D28FAD17149794D0A2201A8DA
:106B300017F058FE01A818F055FF01A885ED000ACE
:106B400018F0F4FD2378002B40F01C82684D284695
:106B500004F000FA3D28FAD165496E4D0A2201A8D9
:106B600017F040FE01A818F037FF034601A82B805C
:106B700018F0DCFD2378002B40F0FA815C4D2846AC
:106B800004F0E8F93D28FAD15949634D0A2201A8D9
:106B900017F028FE01A818F025FF01A885ED000ACE
:106BA00018F0C4FD2378002B40F0D481504D2846C6
:106BB00004F0D0F93D28FAD14D49584D0A2201A8D8
:106BC00017F010FE01A818F007FF034601A82B706C
:106BD00018F0ACFD2378002B40F0B281444D2846DC
:106BE00004F0B8F93D28FAD141494D4D0A2201A8D7
:106BF00017F0F8FD01A818F0EFFE034601A82B706E
:106C000018F094FD2378002B40F09081384D2846F1
:106C100004F0A0F93D28FAD13549424D0A2201A8D5
:106C200017F0E0FD01A818F0D7FE034601A82B706D
:106C300018F07CFD2378002B40F06E812C4D284607
:106C400004F088F93D28FAD12949374D0A2201A8D4
:106C500017F0C8FD01A818F0BFFE034601A82B706D
:106C600018F064FD2378002B40F04C81204D28461D
:106C700004F070F93D28FAD11D492C4D0A2201A8D3
:106C800017F0B0FD01A818F0A7FE034601A82B706D
:106C900018F04CFD2378002B40F02A81144D284633
:106CA00004F058F93D28FAD11149214D0A2201A8D2
:106CB00017F098FD01A818F08FFE034601A82B706D
:106CC00018F034FD2378002B40F00881084D284649
:106CD00004F040F93D28FAD10549164D0A2201A8D1
:106CE00017F080FD01A818F077FE031E24E000BF16
:106CF000706B002078E2040005600020EC66002044
:106D0000046000203D6400200F600020146000201B
:106D10001060002016600020086000201C60002029
:106D20000C6000201D6000201A6000201B60002005
:106D30003F6400203C64002018BF012301A82B7091
:106D400018F0F4FC2378002B40F0BE80A84D2846B4
:106D500004F000F93D28FAD1A549A64D0A2201A860
:106D600017F040FD01A818F037FE034601A82B706C
:106D700018F0DCFC2378002B40F09C809C4D2846CA
:106D800004F0E8F83D28FAD199499B4D0A2201A860
:106D900017F028FD01A818F01FFE031E18BF0123DD
:106DA00001A82B7018F0C2FC2378002B78D1904DED
:106DB000284604F0CFF83D28FAD18D498F4D0A229C
:106DC00001A817F00FFD01A818F006FE031E18BF5A
:106DD000012301A82B7018F0A9FC2378002B55D1B2
:106DE000834D284604F0B6F83D28FAD18049844DF9
:106DF0000A2201A817F0F6FC01A818F0EDFD031E09
:106E000018BF012301A82B7018F090FC2378002BE9
:106E100032D1774D284604F09DF83D28FAD17449C7
:106E2000784D0A2201A817F0DDFC01A818F0D4FD66
:106E3000034601A82B7018F079FC237873B96C48CD
:106E400004F050FA05B030BD6F49704817F0A4FA4D
:106E500029786E480A2217F019FCFBE56C496B484B
:106E600017F09AFA297869480A2217F035FC604829
:106E700004F038FA05B030BD6649644817F08CFA62
:106E8000297862480A2217F001FCC2E762495F488C
:106E900017F082FA29785D480A2217F0F7FB9FE77E
:106EA0005E495A4817F078FA297858480A2217F0AC
:106EB000EDFB7CE75A49554817F06EFA297853489C
:106EC0000A2217F009FC59E75649504817F064FAAE
:106ED00029784E480A2217F0D9FB37E752494B4828
:106EE00017F05AFA297849480A2217F0F5FBEDE61F
:106EF0004E49464817F050FA297844480A2217F0BC
:106F0000EBFBCBE64A49414817F046FA29783F485F
:106F10000A2217F0E1FBA9E646493C4817F03CFA83
:106F200029783A480A2217F0D7FB87E642493748C2
:106F300017F032FA297835480A2217F0CDFB65E6BA
:106F40003E49324817F028FA297830480A2217F0CB
:106F5000C3FB43E63A492D4817F01EFA286822F091
:106F600015F841EC100B0221284817F0D9FA1DE65C
:106F70003449264817F010FA298824480A2217F0C5
:106F800085FBFBE53049214817F006FA286821F017
:106F9000FDFF41EC100B02211C4817F0C1FAD5E5AA
:106FA0002A491A4817F0F8F9297818480A2217F0E0
:106FB00093FBB3E52649154817F0EEF929781348F5
:106FC0000A2217F063FB91E52249104817F0E4F913
:106FD00029780E480A2217F059FB6DE51E490B4827
:106FE00017F0DAF9297809480A2217F075FB49E504
:106FF000706B0020186000203E6400200E600020AE
:107000000D60002019600020E4E10400A48100204C
:107010006CE2040060E2040054E204004CE204006C
:1070200044E204003CE2040034E204002CE20400E8
:1070300024E2040020E204001CE2040018E2040040
:1070400014E2040010E2040008E2040004E2040078
:10705000FCE10400F4E10400ECE1040070B545F249
:107060001F2288B0B64841F6151109F0EDFFB54969
:10707000B34809F0EDFFB449B14809F0EDFF032032
:1070800001211CF05DFAB14809F00AFF002800F068
:1070900087824FF47A7018F0DBFCAC4809F000FFEF
:1070A000002800F07A82AA4809F04EFBA949AA48B4
:1070B000002204F05DF8A84804F040F9002800F030
:1070C0005C82A649A448002204F052F8A24804F0C9
:1070D00035F9002800F04182A1499F48002204F0C0
:1070E00047F89D4804F02AF9002800F002829D4BE1
:1070F000994D0022C3E90022C3E902221C4603F194
:10710000100602E00134A6420CD0284603F0E6FE49
:107110000028F7D0284603F01DFF013404F8010CC5
:10712000A642F2D18C4804F0DDF88F498A4800224B
:1071300004F01EF8884804F001F9002800F0ED8101
:107140008A4C854D04F1400602E00134A6420CD081
:10715000284603F0C3FE0028F7D0284603F0FAFEC5
:10716000013404F8010CA642F2D17B4804F0BAF8CD
:107170007E48FFF7CFFA7E497748002203F0F8FFF8
:10718000754804F0DBF880B97949714803F032FEA4
:1071900077497148012203F0EBFF002840F0068296
:1071A000744B1B78002B40F00482FFF731FC0A245B
:1071B000012585F00105294603201CF0C1F9642052
:1071C00018F046FC631E13F0FF04F2D16A4A6B4BC1
:1071D00012786B4853F8221017F0D0FD142485F074
:1071E0000105294603201CF0ABF9642018F030FC9F
:1071F000631E13F0FF04F2D1624D2B78002B00F0D8
:107200004C81614B614A1E786149624B12781B7850
:1072100091F9001060480293019200915F4C604B1D
:10722000604A6149D4ED000A1B781278097800EBB6
:10723000860090ED000A5D4813F012FC0446002C15
:1072400000F048815A4B297800221A60002940F04A
:1072500071810422574955483C4C16F09BF853481D
:1072600015F054FB5448002111F046FB524804210C
:1072700011F006F9002201214F4811F031F90821DF
:107280004D4811F0EBFA00223249334803F070FF09
:1072900005A8314917F072FA0599484810F04CFAE0
:1072A00005A818F043FA00222C492B4803F060FF90
:1072B00005A8294917F062FA05993F4811F0A6FA86
:1072C00005A818F033FA3E493B480FF0BBFE3D4994
:1072D00039480FF0B9FE1B493B48102211F07EFDE2
:1072E00019493948082211F075FD374811F0B0FDF1
:1072F00031221146354810F0D3FD344812F056FAC9
:10730000062133480EF0B8FB31480EF09DFB2F49A3
:107310002F480EF055FB2F480EF068FB2C4801213A
:107320000EF0DEFBF4222A4820210EF0D5FB28487F
:107330001E210EF0CFFB002125480EF03DFC4DE054
:10734000C4810020BCE40400D0E40400A481002037
:10735000FC70002090E40400706B0020E4E4040062
:10736000ECE404006064002000E504007064002088
:1073700078E20400EC660020046000202060002019
:10738000809700200F600020146000201A60002009
:107390001B6000203F64002084EB04000860002094
:1073A0001D6000200C6000201C600020AC6E0020DE
:1073B000CC6C0020D5620200E08E0020008F0020FF
:1073C0004163020021630200B0650020F8650020DF
:1073D000209500206495002009F042FC204609F029
:1073E00019FC03462046002BF6D1804C01E017F033
:1073F00053FC204617F048FC03462046002BF6D1EC
:107400007B4C01E011F0E4FD204611F091FD0346B4
:107410002046002BF6D1774C2378013B012B37D83F
:10742000754B1B78002B33D0012102201CF004F88F
:107430002378724C012B8CBF0121002102201CF00B
:107440007FF81EF05DFB237D002B5FD000246C488D
:1074500012F092FE6B49009401234FF480626A4857
:107460001BF0C8FC01234FF4806268490094664811
:107470001BF0C0FC022104201BF0DEFF64496548BC
:1074800016F0FEFF6249594816F0FAFF08B070BDC9
:10749000002103201CF054F8C6E75F495F4C6048A8
:1074A0000978247890F900000090029101945D48D9
:1074B0005D4C5E4B5E4A5F49D4ED000A90ED000AD8
:1074C0001B78127809785C4813F0CAFA0446002C3D
:1074D0007FF4B8AE594B58481978224614F0E4F8B6
:1074E00000287FF4AFAE2B78002B79D1544B1C6071
:1074F000AFE654495448012203F03AFE00283FF415
:1075000014AE5249504816F047FF0BE61EF0F8FA49
:1075100000289BD10123237598E74D494A48012251
:1075200003F026FE00283FF423AE4A49464816F0F1
:1075300033FF1AE6484A494B12783F4803EB82036F
:1075400093ED000A13F05CFA0446002836D1444952
:107550003948042215F034FF7BE642493A480122BB
:1075600003F006FE00283FF4B7AD3F49364816F059
:1075700013FF354803F0B6FEAEE53C493248012220
:1075800003F0F6FD00283FF49CAD39492E4816F073
:1075900003FF2D4803F0A6FE93E51BF047FC82E5B0
:1075A0001C484FF4E13109F053FC72E5FEF7FAFE96
:1075B000FBE53049174816F063FFF6E52E491548FC
:1075C00016F0BCFE84EAE473A3EBE4732B49114884
:1075D0009BB203EB430301EB830116F00BFFB6E70D
:1075E000274B1548197816F051FC2BE680970020A0
:1075F000F865002018600020ED660020B0640020CF
:10760000FC6F0020999A0200489C0020A97B020090
:1076100040E50400A48100203F6400201A6000209F
:107620001B60002010600020086000201D6000200A
:107630000C6000201C600020AC6E00203C64002028
:10764000CC6C0020ECE40400706B0020F4E4040037
:1076500000E5040008E504001460002084EB040049
:10766000E1620200E4E40400D0E4040090E40400D9
:10767000DCE4040080E2040014E50400106A002049
:10768000166000201F4B204A1B7870B50026044668
:107690000D46166093B91D491D48042215F07AFE67
:1076A00018F0CAF91B4B02461A60194800232A46F3
:1076B000214615F01BFA184B186070BD174A184B7D
:1076C0001278134803EB820393ED000A13F098F944
:1076D000064628B913490E48042215F071FEDAE770
:1076E0001149124816F02AFE002EB8BF7642104902
:1076F0000E48B6B206EB460601EB860116F07AFE9E
:10770000E8E700BF0F600020CC6C0020C9620200D7
:10771000AC6E0020EC700020F4700020146000209B
:1077200084EB0400E162020014E50400A48100205F
:10773000106A00202DE9F04F2DED028BCDB000AF87
:1077400015469B468946064623F03AF94FF0000A53
:1077500004465146F22207F13C00D7F8608122F03E
:10776000FFF9DBF80030404887F83950C7F83A3065
:1077700093FA83FCE4B287F838904546534650F8B4
:10778000042FD9B2954203F1010384BF8A461546FE
:10779000642BF4D1354A364B42F82A80D02C43F87A
:1077A0002AC059D8B9F1010F72D0324823F008F934
:1077B0005FFA80FC0CF106025FFA82FE58B12D4D93
:1077C000002307F59872D1185A1CEB5C01F8F23CC3
:1077D000D3B29842F5D807F598710CF1070307F575
:1077E000987251FA83F372443A2020210CF1080573
:1077F00002F8F80CEDB203F8F81C94B104F108009B
:107800006044013EC0B22B4607F598721A4401331A
:10781000DBB216F8011F02F8F81C8342F4D12C44A5
:10782000E5B2154B154A1B7800211160002B40F082
:10783000558113491348042215F0ACFD18F0FCF8EB
:10784000114B02461A600F4800232A4607F13801FF
:1078500015F04CF90D4B186007F59A77BD46BDEC55
:10786000028BBDE8F08F00BF7C680020806800209C
:10787000F0660020606400200F600020CC6C0020C7
:10788000C9620200AC6E0020EC700020F470002091
:1078900014F00F0818BF4FF0010808EB1418DFF8B8
:1078A00004A308F1020C6946A1EB0C116B464FF0E2
:1078B000000B8D464FEA0C15DAF80020C7F814B01B
:1078C00007F1080108EE103A07F12800DAF80C3049
:1078D000C7E9015BC7E903BBC7E90ABBC7E90CBB42
:1078E000FEF78AFE07F1080CBCE80F00009001913A
:1078F00002920393DAF80020DAF80C309C48C7F8BB
:1079000008B007F10801C7E903BBC7F814B0FEF7D8
:1079100073FE07F1080CBCE80F00E94604900591DE
:1079200006920793B8F1000F00F0A480D84697F8AC
:1079300004B02025A5F12003DBB29C4288BF337838
:10794000C7E9068888BF3B76A5F11F03DBB2A342D7
:107950003CBF73787B76A5F11E03DBB2A3423CBF2C
:10796000B378BB76A5F11D03DBB2A3423CBFF3782D
:10797000FB76A5F11C03DBB2A3423CBF33793B7716
:10798000A5F11B03DBB2A3423CBF73797B77A5F162
:107990001A03DBB2A3423CBFB379BB77A5F119034D
:1079A000DBB2A3423CBFF379FB77A5F11803DBB24E
:1079B000A34238BF337AC7E9088838BF87F8203038
:1079C000A5F11703DBB2A3423CBF737A87F82130DD
:1079D000A5F11603DBB2A3423CBFB37A87F822308D
:1079E000A5F11503DBB2A3423CBFF37A87F823303D
:1079F000A5F11403DBB2A3423CBF337B87F82430EC
:107A0000A5F11303DBB29C4284BF737B87F825305A
:107A1000A5F11203DBB29C4284BFB37B87F826300A
:107A2000A5F11103DBB29C4284BFF37B87F82730BA
:107A3000DAF80020DAF80C30C7F8088007F10801FE
:107A400007F11800C7E90388C7F81480FEF7D4FDD2
:107A5000BB6849F80530D7E9030109EB0503103588
:107A6000EDB27A695860AB4506F110069960DA60AC
:107A70007FF460AF7B68B3F5807F65D0980807F12D
:107A80003E020023013359F8041B42F8041B9842BC
:107A9000F8D8384B384A1B7800211160002B41D1AF
:107AA00036493748042215F075FC17F0C5FF354BF1
:107AB00002461A607A68324807F13801063200231C
:107AC00015F014F8304B186018EE103A07F59A7755
:107AD0009D46BD46BDEC028BBDE8F08F2B4A2C4B7A
:107AE0001278274803EB820393ED000A12F088FF17
:107AF000044628B927492248042215F061FC98E67B
:107B00002549264816F01AFC84EAE473A3EBE473D3
:107B1000234922489BB203EB430301EB830116F098
:107B200069FCE7E7194A1A4B1278154803EB820300
:107B300093ED000A12F064FF044630B9154910486D
:107B4000042215F03DFCABE7FEE71349134816F09D
:107B5000F5FB84EAE473A3EBE47311490F489BB28D
:107B600003EB430301EB830116F044FCE6E700BF9F
:107B7000606400200F600020CC6C0020C96202000D
:107B8000AC6E0020EC700020F47000201460002027
:107B900084EB0400E162020014E50400A4810020EB
:107BA000106A0020B064002030B583B017F044FFA5
:107BB000264B274C1A6890422ED82378CBB1254B00
:107BC000254D1A78BAB1197801F0FF02D9B92349C5
:107BD00022702A701A700B78002B30D02049214B6C
:107BE0000968214A009119781278204B2048FFF744
:107BF000A1FD03B030BD2A78002AFAD0197801F02F
:107C0000FF020029E3D01B4800222A701A7003B03B
:107C1000BDE8304014F0C8BC012222701649154856
:107C20004FF0FF3504221D6015F0B4FB13491148D5
:107C3000042215F0C5FB0F4814F0B6FCBDE7104850
:107C4000F72103B0BDE83040FFF71CBD9060002075
:107C5000A96E0020EE660020E4700020F96F00207D
:107C6000A46E0020D56C0020D46C0020D86C0020BD
:107C7000DC6C0020AC6E0020ED620200F9620200B4
:107C8000AC6D00202DE9F0432DED028BD31DC5B066
:107C900003F4FC7302AFADEB030D0DF108080C46C5
:107CA000064600214046154621F05AFFAE4907F12D
:107CB0000C0017F061FCAD4920460A2222F088FE34
:107CC000002862D0AA490822204622F081FE58B33B
:107CD000A8490622204622F07BFE002875D1A64B3B
:107CE0001B78002B00F02981012B00F00682022B6B
:107CF00000F00C824FF0804357210022C3F81C157E
:107D0000012300929D499E484FF480621BF072F857
:107D10009C4B1B78013B012B07F1FC0419D8012176
:107D200003201BF00DFC14E007F1FC04964907F159
:107D30000C0017F029FD002300939049904801237F
:107D40004FF480621BF056F88E4B1B78013B012BE1
:107D5000E5D907F10C01204617F028FC8B49204695
:107D600017F08AFD0146304617F020FC204617F038
:107D7000DDFC07F10C0017F0D9FC304607F58677DB
:107D8000BD46BDEC028BBDE8F08307F1FC048049E1
:107D9000204617F0F1FB7F4B07F1F00093ED000A4E
:107DA000022117F085FC07F1F001204617F038FD9D
:107DB000014607F10C0017F0C1FC07F1F00017F0C5
:107DC000B5FC204617F0B2FCBEE773490B222046F3
:107DD00022F0FEFD50BBADB1014642F2014E6318E8
:107DE0000130DB7A0D2BC2B22EFA03FC02D81CF054
:107DF000010F05D101F1010C08F801305FFA8CF197
:107E00009542ECD807F1FC044146204617F0B4FB3C
:107E1000204617F0E1FD0546204617F087FC002DAF
:107E200000F094805D4802F03DFF7FE75C490A2244
:107E3000204622F0CDFD002800F08E80594909220D
:107E4000204622F0C5FD002800F0E28056490822B5
:107E5000204622F0BDFD00287ED054490C22204649
:107E600022F0B6FD002840F06081ADB1014642F23B
:107E7000014E631801301B7B0D2BC2B22EFA03FC9E
:107E800002D81CF0010F05D101F1010C08F80130F6
:107E90005FFA8CF19542ECD807F1FC04414620468C
:107EA00017F06AFB204617F097FD0546204617F0AD
:107EB0003DFCEBB2052B00F27F813D4A3D493E4837
:107EC0003E4D30F81300ED5C02EB83024FF0DD0C09
:107ED00012680A603A4A3B491080C85C3A493B4AFA
:107EE00008703B4915703B4A3B4D0D603B4B3C488D
:107EF0003C4980F800C00125157040221A70062008
:107F0000394A0870394B254814211170002238492C
:107F10001A7002F06FFF364936482A4603F028F9F6
:107F2000002840F04681344B1B78002B3FF4FEAE16
:107F30003249334816F0A4FAF8E61349304816F0EF
:107F40009FFA30492E4816F09BFAD3E62E4907F1E6
:107F50000C0017F019FCF7E62C4907F10C0017F09C
:107F600013FC07F1FC04EFE650FC040050E50400AC
:107F700068E504007CE50400A86E0020199A020060
:107F8000489C00201860002074E504009CE904006F
:107F90005CE504009C60002094E50400FC70002077
:107FA000BCE50400E4E504002CE6040038E6040027
:107FB0006460002008600020806000209460002041
:107FC00016600020786000200C6000201C600020FB
:107FD000106000200F60002000C064441460002086
:107FE0001D6000201A6000201B6000203F640020FC
:107FF00078E20400706B0020EC66002080E2040050
:10800000A481002084E50400A0E50400C8E5040084
:10801000ADB1014642F2014E631801305B7A0D2B7F
:10802000C2B22EFA03FC02D81CF0010F05D101F1F7
:10803000010C08F801305FFA8CF19542ECD807F199
:10804000FC044146204617F097FA204617F0C4FC7E
:108050000546204617F06AFB002D60D0AD48002190
:108060000DF03EFDAC4810F071FC1FFA80F8B8F13D
:10807000000F0AD00025DFF8A092294601354846B6
:1080800010F082FCA9B28845F8D8A2480DF006FE8F
:10809000A24813F0B1FE062503201BF091FA6420DC
:1080A00017F0D6FC6B1E13F0FF05F5D19C4B1B7827
:1080B000002B00F08780012B00F0B980022B7FF4A9
:1080C00043AE294603207B601BF03AFA7B682946C1
:1080D00018461BF035FA9349934816F0D1F9FA2067
:1080E00017F0B6FC052104201BF0A6F92846042150
:1080F0001BF0A2F9FEF7E6F826E68A498B4816F04F
:10810000BFF98B49894816F0BBF9F3E585498648E4
:1081100016F0B6F98649844816F0B2F9EAE58549C1
:1081200007F10C0017F030FB0EE683490B222046C6
:1081300022F04EFC00283FF40FAF80490822204671
:1081400022F046FC002843D1B5B10022104642F28D
:10815000014E231801321B7A0D2BD1B22EFA03FCEB
:1081600002D81CF0010F05D100F1010C08F8003015
:108170005FFA8CF08D42ECD807F1FC0441462046B2
:1081800017F0FAF9204617F027FC6D4A031E18BFB6
:1081900001232046137017F0C9FA6A496A4802F0B1
:1081A00029FE68496948012202F0E2FF00283FF4F5
:1081B000BAAEFEF7F7F8B9E5654907F10C0017F01C
:1081C000E3FAC1E5634907F10C0017F0DDFABBE5FE
:1081D00061490722204622F0FBFB002861D05F495D
:1081E0000822204622F0F4FB60BB002D67D0034636
:1081F00042F2014E22180133127A0D2AD9B22EFA18
:1082000002FC02D81CF0010F05D100F1010C08F8A6
:1082100000205FFA8CF08D42ECD820284FD95049CD
:1082200007F10C0017F0B0FA07F1FC048CE52946C1
:1082300003201BF085F9294602201BF081F93949FA
:108240003A484AE707224749204622F0C1FB024646
:1082500000284FD044490922204622F0B9FB0028CB
:1082600040F0AE80002D00F083800346014642F2CC
:10827000014C62180133527A0D2AD8B22CFA02FE50
:1082800002D81EF0010F05D101F1010E08F80120FE
:108290005FFA8EF18542ECD8102969D907F1FC0408
:1082A00052E507F1FC042549204617F065F9244BF7
:1082B00007F1F00019780A2217F0C6F973E52B4987
:1082C000214802F097FD29492048012202F050FF81
:1082D00000286DD01D48414616F05EF81B4803F09B
:1082E00001F8104907F10C0017F04EFA0023009333
:1082F000012307E51D49154807F1FC0402F038FF8A
:108300001649204617F038F9104907F1F00016F029
:1083100035FA48E520950020E08E0020AC6E002064
:10832000A86E002074E504001066002080970020ED
:1083300084E5040010E6040064E6040070E604002E
:108340000560002078E20400FC700020706B0020C3
:1083500048E60400F0E504007CE6040084E604003E
:10836000ACE60400D8E60400E0E60400E4E404001F
:10837000BE49BF4802F03EFDBC49BE48012202F0A2
:10838000F7FEA8B1BC49BB4816F006F8B94841460B
:1083900016F002F8B74802F0A5FFB849B44802F059
:1083A00029FDB649B348012202F0E2FE002891D12E
:1083B000B34907F10C0017F0E7F907F1FC04C3E437
:1083C000B0490822204622F003FB00283FF466AFA4
:1083D000AD490722204622F0FBFA10BBCDB103467F
:1083E000024642F20140A1180133C9790D295FFA12
:1083F00083FC20FA01FE02D81EF0010F05D102F124
:10840000010E08F802105FFA8EF26545EBD8062AD5
:108410005CD09E4907F10C0017F0B6F907F1FC0497
:1084200092E406229A49204622F0D2FA0246002817
:1084300000F0A28097490822204622F0C9FA0028BD
:1084400057D10346024642F201400EE0097A0D2957
:1084500020FA01FC02D81CF0010F05D102F1010C39
:1084600008F802105FFA8CF201335FFA83FC65456D
:1084700004EB0201EAD807F1FC044146204617F05C
:108480007BF8204617F0A8FA0546204617F04EF96B
:10849000102D28DC4146204617F06EF8204617F0D4
:1084A0009BFA7D4D034620462B7017F03FF9FEF7EF
:1084B0000BF92A78794B7A4853F8221016F05EFCB3
:1084C000784907F10C0017F05FF93DE476496848F8
:1084D00002F090FC74496748012202F049FE00282E
:1084E0003FF466AFF6E6714907F10C0017F04CF95E
:1084F0002AE46F490722204622F06AFA002801F098
:1085000099816C490922204622F062FA002843D161
:108510000022134642F201400EE0497A0D2920FA6A
:1085200001FC02D81CF0010F05D103F1010C08F881
:1085300003105FFA8CF301325FFA82FC654504EBAD
:108540000301EAD807F1FC044146204617F014F86D
:10855000204617F041FA584A031E18BF012320464F
:10856000137017F0E3F8FEF7AFF84E4907F10C006F
:1085700017F00AF9FFF7E8BB4B493E4807F1FC0446
:1085800002F0F6FD4049204616F0F6FF394907F1A2
:10859000F00016F0F3F806E448490822204622F0DD
:1085A00017FA002801F04F8145490822204622F0A1
:1085B0000FFA002846D10346024642F201400EE07F
:1085C000097A0D2920FA01FC02D81CF0010F05D10F
:1085D00002F1010C08F802105FFA8CF201335FFA25
:1085E00083FC654504EB0201EAD807F1FC0441462F
:1085F000204616F0C1FF204617F0EEF9054620464A
:1086000017F094F8002D01F047812E4B2E48197871
:1086100015F03CFC0546002841F024812B4A2C4BE8
:1086200010782C492C4A03EB80031868086001235A
:108630001370FEF749F81B4907F10C0017F0A4F876
:10864000FFF782BB25490722204622F0C1F9002806
:108650006BD023490622204622F0BAF9002873D1B4
:108660000346024642F201404BE000BFE4E404004E
:10867000FC700020706B0020ECE60400ECE40400C9
:1086800090E60400F8E6040004E704000CE70400A8
:108690002CE7040034E70400046000202060002080
:1086A0008097002074E5040090E4040040E7040093
:1086B00058E7040060E704003D6400206CE7040014
:1086C00078E7040016600020AC6E002014600020E3
:1086D00084EB0400106000200F60002090E704008D
:1086E00098E7040089790D2920FA01FC02D81CF0D2
:1086F000010F05D102F1010C08F802105FFA8CF2AB
:1087000001335FFA83FC654504EB0201EAD807F107
:10871000FC044146204616F02FFF204617F05CF976
:10872000D04B024620461A701BE707F1FC04CE49E5
:10873000204616F021FFCD4B07F1F00019780A22F0
:1087400016F082FFFFF72FBBC9490522204622F011
:108750003FF9002844D0C7490822204622F038F9C2
:1087600000284CD10346024642F201400EE0097A4D
:108770000D2920FA01FC02D81CF0010F05D102F1ED
:10878000010C08F802105FFA8CF201335FFA83FCE7
:10879000654504EB0201EAD8B44B1B78002B7BD172
:1087A00007F1FC044146204616F0E6FE204617F08D
:1087B00019F92046B0EE408A16F0B8FFAE48B0EE88
:1087C000480A12F01DF90546002833D1AB4BAC49DD
:1087D00083ED008A07F10C0016F0D6FFFFF7B4BA5C
:1087E00007F1FC04A749204616F0C6FE9D4B1978F8
:1087F00007F1F0000A2216F0F3FEFFF7D4BAA249FF
:108800000722204622F0E4F800284ED1974B1B782F
:10881000002B41D107F1FC049649204616F0ACFE2E
:10882000964B07F1F00093ED000A022116F040FF8D
:10883000FFF7B9BA954907F1F00016F09DFE85EAF9
:10884000E573934AA3EBE5739BB20C2101FB032173
:1088500007F1F00016F0E4FF8E4917F00DF84146DD
:108860000546204616F088FE204617F0B5F801466A
:10887000284617F05FF8884916F0FEFF014607F119
:108880000C0016F05BFF204616F050FF07F1F000D9
:1088900016F04CFFFFF758BA804907F10C0016F0AC
:1088A00073FF07F1FC04FFF74FBA7D49062220460B
:1088B00022F08EF800283ED10346024642F20140E3
:1088C0000EE089790D2920FA01FC02D81CF0010F75
:1088D00005D102F1010C08F802105FFA8CF20133A5
:1088E0005FFA83FC654504EB0201EAD807F1FC045A
:1088F0004146204616F040FE204617F06DF88046AF
:10890000204616F013FF5C485FFA88F115F0BEFAB6
:108910000546002840F0A687544A624B0121117099
:10892000A3F80080FDF7D0FE554907F10C0016F0C2
:108930002BFFFFF709BA5C490522204622F048F8D0
:10894000002800F0378759490622204622F040F8D7
:1089500000283CD10022134642F201400EE0897902
:108960000D2920FA01FC02D81CF0010F05D103F1FA
:10897000010C08F803105FFA8CF301325FFA82FCF5
:10898000654504EB0301EAD807F1FC0441462046A3
:1089900016F0F2FD204617F025F82046B0EE408A8A
:1089A00016F0C4FE3448B0EE480A12F081FC0546C9
:1089B00000287FF43FAF3E4B83ED008AFDF784FE35
:1089C0002F4907F10C0016F0DFFEFFF7BDB939495A
:1089D0000522204621F0FCFF002800F0DB86364906
:1089E0000622204621F0F4FF002869D10346024602
:1089F00042F201400EE089790D2920FA01FC02D8EB
:108A00001CF0010F05D102F1010C08F802105FFA09
:108A10008CF201335FFA83FC654504EB0201EAD86E
:108A200007F1FC044146204616F0A6FD204616F04C
:108A3000D3FF5FFA80F8204616F078FE0E484146D4
:108A400012F008FF0546002840F00C871B4B83F806
:108A50000080FDF739FE0A4907F10C0016F094FE7C
:108A6000FFF772B91460002078E704000F6000205F
:108A7000A0E70400A8E70400AC6E0020106000200E
:108A800074E5040098E70400E0E7040084E70400CC
:108A9000106A0020D8E70400DCE70400B4E7040013
:108AA000E8E7040016600020F0E70400F8E704009F
:108AB0000860002000E8040008E804001C600020B2
:108AC000BA490522204621F083FF002846D0B84944
:108AD0000722204621F07CFF002847D103460246AA
:108AE00042F201400EE0C9790D2920FA01FC02D8BA
:108AF0001CF0010F05D102F1010C08F802105FFA19
:108B00008CF201335FFA83FC654504EB0201EAD87D
:108B100007F1FC044146204616F02EFD204616F0D3
:108B20005BFFB0F1000918BF4FF00109204616F0B5
:108B3000FDFDA0484946002212F0B6FD054600287A
:108B40007FF478AE9C4B83F80090FDF7BDFD9B4908
:108B500007F10C0016F018FEFFF7F6B807F1FC0459
:108B60009749204616F008FD964B40E696490622A6
:108B7000204621F02DFFC0B394490622204621F063
:108B800027FF002840D10346024642F201400EE092
:108B900089790D2920FA01FC02D81CF0010F05D1BA
:108BA00002F1010C08F802105FFA8CF201335FFA4F
:108BB00083FC654504EB0201EAD807F1FC04414659
:108BC000204616F0D9FC204616F006FF5FFA80F921
:108BD000204616F0ABFD7748494612F09FFC05464B
:108BE00000287FF427AE7A4BADE707F1FC0470490B
:108BF000204616F0C1FC704B07F1F00019780A22EC
:108C000016F022FDFFF7CFB872490522204621F069
:108C1000DFFEB8B370490622204621F0D9FEC8BB5A
:108C20000346024642F201405FFA83FC654504EBCD
:108C300002010FD989790D2920FA01FC02D81CF014
:108C4000010F05D102F1010C08F802105FFA8CF255
:108C50000133E9E707F1FC044146204616F08CFC9D
:108C6000204616F0B9FE5FFA80F8204616F05EFD49
:108C70005048414614F0BEFB0546002840F0F285FE
:108C8000564BE4E607F1FC045049204616F074FC0C
:108C90004F4BACE552490522204621F099FEB0B376
:108CA00050490722204621F093FEC0BB0022134604
:108CB00042F201405FFA82FC654504EB03010FD9E3
:108CC000C9790D2920FA01FC02D81CF0010F05D149
:108CD00003F1010C08F803105FFA8CF30132E9E7A5
:108CE00007F1FC044146204616F046FC204616F0EB
:108CF00073FE8146204616F019FD2E48494613F0B2
:108D0000B7F8054600287FF495AD374B1BE707F110
:108D1000FC043149204616F02FFC304B67E53349FF
:108D20000622204621F054FEC0B3314907222046D6
:108D300021F04EFE00285FD10346024642F2014078
:108D40005FFA83FC654504EB02010FD9C9790D294F
:108D500020FA01FC02D81CF0010F05D102F1010C30
:108D600008F802105FFA8CF20133E9E707F1FC041E
:108D70004146204616F000FC204616F02DFE8146A6
:108D8000204616F0D3FC0B484FFA89F112F012FA84
:108D9000054600287FF44EAD164BD4E607F1FC04DF
:108DA0001049204616F0E8FB0F4B20E510E80400C0
:108DB00018E80400AC6E00203C64002074E5040058
:108DC00008E804001C60002020E8040028E80400F3
:108DD0000C60002030E8040038E804001D6000202A
:108DE00040E8040048E804001A60002050E804004D
:108DF00058E804001B600020BE490622204621F0EE
:108E0000E7FDB8B3BC490822204621F0E1FDC8BB0C
:108E10000346024642F201405FFA83FC654504EBDB
:108E200002010FD9097A0D2920FA01FC02D81CF0A1
:108E3000010F05D102F1010C08F802105FFA8CF263
:108E40000133E9E707F1FC044146204616F094FBA4
:108E5000204616F0C1FD5FFA80F9204616F066FC48
:108E6000A648494612F08AFB054600287FF4E2AC8A
:108E7000A34B68E607F1FC04A249204616F07CFBF0
:108E8000A14BB4E4A1490722204621F0A1FD80B303
:108E90009F490822204621F09BFD90BB03460246D5
:108EA00042F201405FFA83FC654504EB02010FD9F1
:108EB000097A0D2920FA01FC02D81CF0010F05D116
:108EC00002F1010C08F802105FFA8CF20133E9E7B5
:108ED00007F1FC044146204616F04EFB204616F0F2
:108EE0007BFD8C4A031E18BF012320461370FFF739
:108EF00038BB07F1FC048049204616F03DFB804B4F
:108F000075E485490722204621F062FDB0B383490C
:108F10000722204621F05CFD00283ED10346024690
:108F200042F201405FFA83FC654504EB02010FD970
:108F3000C9790D2920FA01FC02D81CF0010F05D1D6
:108F400002F1010C08F802105FFA8CF20133E9E734
:108F500007F1FC044146204616F00EFB204616F0B1
:108F60003BFDC5B2204616F0E1FB032D00F2148252
:108F70006B4B1D70FDF7A8FBFEF7D8BE07F1FC0494
:108F80006349204616F0F8FA624B07F1F0001978B1
:108F90000A2216F059FBFEF706BF62490622204658
:108FA00021F016FD002800F0FE815F490C222046CA
:108FB00021F00EFD50BB0022134642F201405FFA41
:108FC00082FC654504EB03010FD9097B0D2920FACA
:108FD00001FC02D81CF0010F05D103F1010C08F8C7
:108FE00003105FFA8CF30132E9E707F1FC04414614
:108FF000204616F0C1FA204616F0EEFC4B4A031E3E
:1090000018BF012320461370FFF7ABBA48490B2263
:10901000204621F0DDFC002800F0A88145490B2204
:10902000204621F0D5FC50BB0346024642F20140E7
:109030005FFA83FC654504EB02010FD9C97A0D295B
:1090400020FA01FC02D81CF0010F05D102F1010C3D
:1090500008F802105FFA8CF20133E9E707F1FC042B
:109060004146204616F088FA204616F0B5FC324AF2
:10907000031E18BF012320461370FFF772BA2F4951
:109080000A22204621F0A4FC28B32D4908222046BC
:1090900021F09EFC002855D10346024642F20140D1
:1090A0005FFA83FC654504EB02010FD9097A0D29AB
:1090B00020FA01FC02D81CF0010F05D102F1010CCD
:1090C00008F802105FFA8CF20133E9E7102A3FF644
:1090D000E5A8FFF762B907F1FC041649204616F02F
:1090E0004BFA154B07F1F00019780A2216F0ACFA8A
:1090F000FEF759BE60E8040068E80400AC6E00208A
:109100003F64002058E804001B60002074E804005D
:109110007CE804003E64002088E8040090E8040035
:1091200018600020B8E80400C0E804000D600020CA
:10913000D0E80400DCE804000E600020E8E8040049
:10914000F4E804000722A149204621F041FC024630
:10915000002845D09E490B22204621F039FC0028EA
:1091600063D10346024642F201405FFA83FC654543
:1091700004EB02010FD9C97A0D2920FA01FC02D8AB
:109180001CF0010F05D102F1010C08F802105FFA82
:109190008CF20133E9E7402A3FF680A88D498E48DA
:1091A00001F028FE402200218C4820F0D9FC2A46FC
:1091B00041468A4820F0ACFC86498948012201F0EA
:1091C000D7FF002800F0DD824146854815F0E4F81D
:1091D000834802F087F84046FDF79CFAFFF781B814
:1091E00080497F4801F0C4FF07F1FC047E49204616
:1091F00016F0C2F907F1F000794915F0BFFA07F14E
:10920000F001204616F00CFB014607F10C0016F0A9
:1092100095FA07F1F00016F089FA204616F086FA62
:109220006F4802F05FF8FEF78FBD0A226F492046B3
:1092300021F0CEFB0246002800F0BE8009226C49D6
:10924000204621F0C5FB0246002800F0FD80694958
:109250000622204621F0BCFB00284BD1664B1B7830
:10926000002B42D0012B03D16449654815F094F8D6
:10927000644812F0C1FD03201AF080F9012105466F
:1092800003201AF0D9F83C2403201AF099F9013C84
:109290004FF4FA7016F0DCFB14F0FF04F4D1291E31
:1092A00018BF012103201AF04BF9574B574A1B787E
:1092B000146073B1564A574B1278524803EB82033D
:1092C00093ED000A11F09CFB53494E48042214F020
:1092D00077F852494B48042214F05CF8494813F0DF
:1092E00015FB07F1FC04FEF72FBD44494C4815F06F
:1092F00053F8BDE74B490B22204621F069FB30BBF8
:109300000022134642F201405FFA82FC654504EBFD
:1093100003010FD9C97A0D2920FA01FC02D81CF0EB
:10932000010F05D103F1010C08F803105FFA8CF36B
:109330000132E9E707F1FC044146204616F01CF92A
:10934000204616F049FB384B0246FFF7EBB9374988
:1093500020460A2221F03CFBB8B907F1FC04314950
:10936000204616F009F9304BFFF741BA07F1FC042B
:109370002F49204616F000F92E4B07F1F00019781E
:109380000A2216F061F9FEF70EBD2B4907F10C0019
:1093900016F0FAF9FEF782BF284907F10C0016F023
:1093A000F3F9FEF7D1BC07F1FC042549204616F07D
:1093B000E3F8244BFFF71BBA0649094807F1FC0400
:1093C00001F0D6FE0249204612E700BF00E9040082
:1093D00008E9040000E50400FC700020706400202F
:1093E000706B0020ECE40400F4E8040030E90400B1
:1093F0003CE9040054E90400A86E002074E5040070
:1094000080970020AC6E00200F600020CC6C002004
:109410001460002084EB0400E1620200D5620200C7
:10942000A48100205CE904001960002068E90400C0
:10943000C0E804000D60002074E9040098E804000E
:1094400090E80400186000207860E249E24801F0EA
:109450008FFEE14907F1180015F090F9DE4801F0A0
:1094600041FF7A68DD49DC4801F082FEDA4907F104
:10947000240015F083F9D84801F034FF7A68D84900
:10948000D54801F075FED44907F1300015F076F9A2
:10949000D14801F027FF7A68D249CF4801F068FE31
:1094A000CD4907F13C0015F069F9CB4801F01AFFEE
:1094B000CD4907F1480016F05FF807F1180107F1F0
:1094C000480016F0ADF92C2116F006FAC74B0446F9
:1094D00093ED000A07F15400022116F0E9F807F1B4
:1094E0005401204616F09CF92C2116F0F5F9C04BDA
:1094F0000A221978044607F1600016F0A5F807F172
:109500006001204616F08CF92C2116F0E5F9B94BD4
:109510000A221978044607F16C0016F061F807F189
:109520006C01204616F07CF92C2116F0D5F9B24BCF
:10953000044693ED000A07F17800022116F0B8F80E
:1095400007F17801204616F06BF92C2116F0C4F9CA
:10955000AA4B0A221988044607F1840016F074F811
:1095600007F18401204616F05BF92C2116F0B4F9BE
:10957000A34B044693ED000A07F19000022116F078
:1095800097F807F19001204616F04AF92C2116F0C1
:10959000A3F99C4B0A221978044607F19C0016F0A7
:1095A0001FF807F19C01204616F03AF92C2116F01D
:1095B00093F9954B0A221978044607F1A80016F092
:1095C0000FF807F1A801204616F02AF92C2116F011
:1095D00083F98E4B0A221978044607F1B40015F07E
:1095E000FFFF07F1B401204616F01AF92C2116F0FE
:1095F00073F9874B0A221978044607F1C00015F069
:10960000EFFF07F1C001204616F00AF92C2116F0F1
:1096100063F9804B0A221978044607F1CC0015F053
:10962000DFFF07F1CC01204616F0FAF82C2116F0E6
:1096300053F9794B0A221978044607F1D80015F03E
:10964000CFFF07F1D801204616F0EAF82C2116F0DA
:1096500043F9724B0A221978044607F1E40015F029
:10966000F3FF07F1E401204616F0DAF82C2116F09A
:1096700033F96B4B0A221978044607F1F00015F014
:10968000AFFF07F1F001204616F0CAF82C2116F0C2
:1096900023F907F1240116F0C3F82C2116F01CF968
:1096A00007F1300116F0BCF82C2116F015F907F17E
:1096B0003C0116F0B5F82C2116F00EF9594B07F1C4
:1096C000FC0419780A220546204615F089FF214638
:1096D000284616F0A5F8014607F10C0016F02EF802
:1096E000204616F023F807F1F00016F01FF807F1F6
:1096F000E40016F01BF807F1D80016F017F807F190
:10970000CC0016F013F807F1C00016F00FF807F1BF
:10971000B40016F00BF807F1A80016F007F807F1EF
:109720009C0016F003F807F1900015F0FFFF07F119
:10973000840015F0FBFF07F1780015F0F7FF07F143
:109740006C0015F0F3FF07F1600015F0EFFF07F173
:10975000540015F0EBFF07F1480015F0E7FF07F1A3
:109760003C0015F0E3FF07F1300015F0DFFF07F1D3
:10977000240015F0DBFF07F1180015F0D7FFFEF706
:10978000E3BA294907F10C0015F0FEFF07F1FC04CC
:10979000FEF7DABA07F1FC042449204615F0ECFE86
:1097A000174B07F1F00093ED000A022115F080FF3E
:1097B000FEF7F9BA07F1FC041D49204615F0DCFE5E
:1097C0000E4B07F1F00019880A2215F03DFFFEF755
:1097D000EABA00BFE4E40400706B0020ECE404008B
:1097E00000E5040090E4040048E904009C600020C7
:1097F0000F60002014600020106000201660002020
:10980000086000201C6000200C6000201D6000200B
:109810001A6000201B6000203F6400203C64002090
:10982000186000201960002014E90400F8E7040023
:10983000E8E7040007F1FC041D49204615F09CFEF2
:109840001C4BFEF7D4BF07F1FC041B49204615F062
:1098500093FE1A4B07F1F00019780A2215F0F4FE76
:10986000FEF7A1BA1649204615F086FE85EAE57393
:10987000144AA3EBE5739BB20C2101FB03212046A4
:1098800015F0CEFF014607F10C0015F057FF2046FA
:1098900015F04CFFFEF758BA0B4B1D70FCF714FF88
:1098A0000A4907F10C0015F06FFF0095FEF745BA65
:1098B00034E704000460002060E704003D640020F9
:1098C00084E70400106A00200F60002074E50400A3
:1098D00038B5164B1B7804460D4673B9144B1B78EC
:1098E00023B1012B1AD0022B11D038BD0A46BDE896
:1098F000384001460F4807F0D7B90A4601460D48DF
:1099000007F0D2F90C482A46214615F00DFA2146F7
:109910000A48BDE83840F7220FF034BD0A46BDE8DA
:1099200038400146044815F0FFB900BF3E640020EE
:10993000A86E0020A481002080970020F8650020F8
:1099400010B5074B044640F8183B0CF0A9FA204626
:10995000044B40F8083B0EF0B1FA204610BD00BFA2
:10996000F4F2040060F2040010B5044B044640F821
:10997000083B0EF0A3FA204610BD00BF60F20400C1
:1099800010B5074B044640F8183B0CF089FA204606
:10999000044B40F8083B0EF091FA204610BD00BF82
:1099A00048F3040060F2040038B5164B1B780446F7
:1099B0000D4673B9144B1B7823B1012B1AD0022B1F
:1099C00011D038BD0A46BDE8384001460F4807F0BF
:1099D0006BB90A4601460D4807F066F90C482A465D
:1099E000214615F0A1F921460A48BDE83840F72282
:1099F0000FF03EBB0A46BDE838400146044815F06A
:109A000093B900BF3E640020A86E0020A48100200E
:109A1000809700201066002000B5174B0FCB85B053
:109A20006C4607C40D2168462380FFF7BDFFFA206E
:109A300016F00EF8114B124819880EF0A5FF1148C8
:109A400007F024F9104815F035F90E4807F018FA18
:109A50000D4815F0CFF80D4801F00CF9BFF34F8F0A
:109A60000B490C4BCA6802F4E0621343CB60BFF3AE
:109A70004F8F00BFFDE700BF90E90400D46B0020CA
:109A8000E08E0020A481002080970020FC70002040
:109A900000ED00E00400FA052DE9F041C148F6B000
:109AA00007F0B8F890B9C04815F0EEF8002857D183
:109AB000BE480FF03DFA002840F09C80BC4B1B785C
:109AC000002B40F0E98076B0BDE8F08138AEF72297
:109AD0000021304620F044F8B24DB64B00246420FB
:109AE0001C7015F0B5FF284607F094F8D022C3B2D9
:109AF000934204AF28BF134621463846984620F0CB
:109B00002FF83946D022284614F016FE01E007F05F
:109B1000A7F8284607F07EF804462846002CF6D120
:109B20003A8845F241439A4200F0DE81A24B1B780D
:109B3000002B40F09381A14B1B78002B40F0588103
:109B400041463846FDF79EFD304620F039FFC1B250
:109B50003046FFF729FF944815F096F80028A7D063
:109B600038AE00213046F7221FF0FAFF8E4D914BA0
:109B7000012264201A7015F06BFF284615F084F856
:109B8000D022C3B2934204AF28BF13463846002107
:109B900098461FF0E5FF3946D022284614F0CCFD48
:109BA00001E015F079F8284615F06EF804462846CD
:109BB000002CF6D13A8845F241439A4200F0818167
:109BC0007D4B1B78002B40F06B817C4B1B78002B6E
:109BD0007CD141463846FDF755FD304620F0F0FE79
:109BE000C1B23046FFF7E0FE70480FF0A1F900283F
:109BF0003FF464AF38AD0021F72228461FF0B0FFD4
:109C00006A4E6C4B022240F2E2401A7015F020FFBF
:109C100030460FF08DF904AF5FFA80F8D0229045FE
:109C200038464FF0000128BF90461FF099FF3C4690
:109C300030460FF0CDF9C0B2FF2818BF20700134B4
:109C4000A542F5D1594E01E00FF0C2F930460FF0B0
:109C50006FF904463046002CF6D13A8845F241436C
:109C60009A4200F05481544B1B78002B40F007813E
:109C7000524B1B78002B5FD141463846FDF702FD61
:109C8000284620F09DFEC1B22846FFF78DFE484BC6
:109C90001B78002B3FF417AF494C15F0CDFE22681E
:109CA00042F20F73801A98427FF60DAF454A464B39
:109CB0001278464803EB820393ED000A10F0A0FEF1
:109CC00015F0BAFE206076B0BDE8F081404B3F4809
:109CD00001221A7012F034FA03463C488DF8043021
:109CE00012F02EFA034639488DF8053012F028FAA2
:109CF000034636488DF8063012F022FA354B8DF8BF
:109D0000070093F8008015F097FE044615F094FEC6
:109D1000314B02461A603946D02230481FF0F8FE17
:109D20002F4A30483049314B019D82F80080002293
:109D300005600C601A7050E7254B244801221A7008
:109D400012F0FEF9034621488DF8043012F0F8F9BC
:109D500003461E488DF8053012F0F2F903461B4801
:109D60008DF8063012F0ECF91A4B8DF8070093F8D5
:109D7000008015F061FE044615F05EFE164B0246AB
:109D80001A603946D02215481FF0C2FE144A154801
:109D90001549164B019E82F80080002206600C6077
:109DA0001A706DE7A481002080970020F8650020DC
:109DB0000F600020A86E00203D6400200D60002090
:109DC000D06C00201460002084EB0400AC6E0020F6
:109DD000F96F00200E60002090600020DC6C0020F5
:109DE000D56C0020D86C0020A46E0020D46C00201C
:109DF000504B514801221A7012F0A2F903464E4806
:109E00008DF8043012F09CF903464B488DF805306C
:109E100012F096F9034648488DF8063012F090F992
:109E2000464B8DF8070093F8008015F005FE0446B8
:109E300015F002FE424B02461A603946D0224148D4
:109E40001FF066FE404A41484149424B019D82F85D
:109E50000080002205600C601A7075E6304620F024
:109E6000AFFD3D4C84460FCC06EB0C0546F80C00CC
:109E7000696003CCAA60EB60286169615BE62846F3
:109E800020F09EFD344C84460FCC05EB0C0645F8C3
:109E90000C00716003CCB260F36030617161E7E681
:109EA000304620F08DFD2C4C84460FCC06EB0C0583
:109EB00046F80C00696003CCAA60EB602861696118
:109EC00083E6BB782B2B7FF47BAE4246394601A854
:109ED000FDF7D8FE01A82346F722314615F062FDB2
:109EE00001A815F023FC78E6BB782B2B7FF41EAE7F
:109EF0004246394601A8FDF7C5FE01A82346F722D0
:109F0000314615F04FFD01A815F010FC1CE6BB789A
:109F10002B2B7FF4A8AE4246394601A8FDF7B2FECE
:109F200001A82346F722294615F03CFD01A815F0AB
:109F3000FDFBA5E6F96F0020AC6E00200E6000204E
:109F400090600020DC6C0020D56C0020D86C0020D4
:109F5000A46E0020D46C0020A4E904002DE9F04F89
:109F6000A84E33780027ADF5697DBB463C46ABB9BA
:109F7000A54A137803F0FF09002B37D1A34A1378C1
:109F8000002B40F00781042019F0F8FA044600285D
:109F900000F0C7800DF5697DBDE8F08F9C489D4DB0
:109FA00013F084FF9C4B1B6890FBF3F202FB13033E
:109FB0009A4A974802EB830393ED000A10F020FDC4
:109FC0002B68012B00F0178201332B6015F034FD54
:109FD000934B02468E481A6013F072FF00238A4AA0
:109FE0003370137803F0FF09002BC7D04FF000083F
:109FF000874882F800802EAD13F062FF4146F722B9
:10A00000284686F800801FF0ABFD4146F7226CA879
:10A010001FF0A6FD7E484246294612F07FF900282F
:10A0200040F018817F4B1E780096002E40F0DC80B7
:10A03000F72229466CA81FF06BFD0DF1280AEE7877
:10A040002A79794B6879D3F80230A978CAF80030B8
:10A05000360446EA0226D5F80220079206439A42C1
:10A0600046EA016602D16B7801336B70DFF8C0A15C
:10A0700001238DF819300AF5C878534601E04345AD
:10A0800006D053F8042B9642F9D100238DF81930ED
:10A090009DF81930DBB28DF818309DF81830002B80
:10A0A00040F08C815F4B1B78002B00F07B815F4A76
:10A0B0006B7811788B4212D201225D4B8DF81A20F9
:10A0C00001E0984506D053F8042B9642F9D10023BD
:10A0D0008DF81A309DF81A30002B40F0FE8289B9B5
:10A0E00001238DF81B3001E0C24506D05AF8043B2D
:10A0F0009E42F9D100238DF81B309DF81B30002BB8
:10A1000040F0BC83B9F1000F09D04A4B1B7833B142
:10A11000444B93F800A0BAF1000F00F013823D4DBC
:10A12000D9E0014644480BF0DBFC44480EF00EFC3D
:10A1300085B245B1414E2146013430460EF024FC33
:10A14000A1B28D42F8D83C480BF0A8FD304811F080
:10A1500053FE0624032019F033FA013C642015F065
:10A1600077FC14F0FF04F5D12146032019F064F9BF
:10A170002146022019F060F90521042019F05CF94C
:10A180002046042119F058F9FCF79CF80DF5697D7B
:10A19000BDE8F08F0026167015F04EFC284A294CB9
:10A1A000034607CA0DF52A794D4603C531462A8074
:10A1B0000DF2B220ED2223601FF0D2FC224B1B785F
:10A1C000002B40F09280134D204B1B7800222A6018
:10A1D000002B40F0CC801E490D48042213F0DAF821
:10A1E0000B4812F093FBCEE62B78002B40F00C814D
:10A1F000F1220DF1BE016CA81FF08AFCB1460DF1F1
:10A20000280A1CE76C6B0020F86F0020F870002013
:10A21000AC6E0020CC6C00208C60002084EB04002D
:10A22000D06C00200D600020AC6D00201960002073
:10A23000F06600203D64002020950020E08E002084
:10A240008CEA0400F0700020F96F00200F600020FD
:10A25000D5620200AB4BAC4D93E80700AAAB03C339
:10A2600041461A800DF2B220ED221FF079FC8022C7
:10A2700041460EA81FF074FCA44BA5491B68002B97
:10A28000B8BF5B4203EB430301EB83010AA815F05F
:10A290008DF9A0490AA815F0EFFA014607A815F0B4
:10A2A00085F90AA815F042FA099A43460132AAAC88
:10A2B0000EA907A815F076FB204620F081FB0EA919
:10A2C000204420F03FFB001BC1B22046FFF76CFB8F
:10A2D00007A815F02BFA904B1B7800222A60002B60
:10A2E00055D18E4812F012FB48E6884D8022314647
:10A2F0006CA81FF035FC2B688549002BB8BF5B426A
:10A3000003EB430301EB83012EA815F04FF98149BC
:10A310002EA815F0B1FA0DF138080146404615F0A7
:10A3200045F92EA815F002FAD8F808203346013274
:10A330006CA9404615F036FB484620F041FB6CA95D
:10A34000484420F0FFFA2F68064627B9744B1B7863
:10A35000002B40F0FD816C4D484620F031FBC1B22E
:10A360004846FFF721FB404615F0E0F92CE76D4A1F
:10A370006D4B1278694803EB820393ED000A10F0ED
:10A380003FFB6A496548042213F01AF823E7654A3F
:10A39000654B1278614803EB820393ED000A10F0DD
:10A3A0002FFB9EE7B9F1000F3FF4B9AE6CA820F087
:10A3B00007FBC1B26CA8FFF78BFAA6E69DF8183030
:10A3C000DBB2009315F038FB59498446002351F85D
:10A3D000042F5FFA83FE624503F101033CBF74461C
:10A3E0009446642BF3D1534B534A009942F82410FE
:10A3F00043F8240056E615F01FFB504B504A1B68EB
:10A40000C01A10602B68DFE5012B7FF411AECDE997
:10A41000017B024601462B4610260DF138080DF54A
:10A420002A79039405E00132D2B216F0FF0600F05B
:10A430006782B71CF01CFFB2C0B2EF5D15F800C018
:10A4400093F80EB093F80AE0C8F80010002067F304
:10A450000700371D6CF30F20FFB206F1050C5FFA01
:10A460008CFCEF5D15F80CA093F806C0C8F804103A
:10A4700067F317406AF31F60AD9093F80FA0C8F818
:10A4800008100020771C6BF307006AF30F20FFB25F
:10A4900015F806A0EF5DC8F80C106AF317404FF0EE
:10A4A000000A6EF3070A93F80BE067F31F600024BD
:10A4B0001F7BAC906CF30704587B93F807C06EF3D6
:10A4C0000F2A67F3174A1F7A60F31F6A6CF30F2491
:10A4D000587ACDF8ACA267F3174460F31F64AA94CE
:10A4E000D9F800001036103300289CD10F9882450F
:10A4F00099D1AC9F1098874295D1AD9F1198874212
:10A5000091D192E78CEA0400CC6C0020F47000201A
:10A51000106A00209CE904000F600020AC6E00204F
:10A520003D6400201460002084EB0400E16202001E
:10A530007C68002080680020F0660020EC7000201D
:10A54000E87000200DF52A79F722514648461FF0A1
:10A5500007FB484620F034FAD64FD74D84460FCF3C
:10A560000CF101040A2609F80C6049F804004C4477
:10A57000B7F804C03868BF79A4F814C00DF13808E2
:10A58000E3606160A2602061A775514620224046C9
:10A590001FF0E6FA2868C94F32464146023017F0EC
:10A5A000A9FD484620F00CFA4146484420F0CAF97B
:10A5B00007F1200C0670441C3E460FCE6645206015
:10A5C0006160A260E360374604F11004F4D103CF68
:10A5D0003B882381206061602022002140461FF0DB
:10A5E000BFFAB748B74F0022012111F04BF8FDEE3A
:10A5F000C07A0A2217EE900A414617F07BFD4846C2
:10A6000020F0DEF94146484420F09CF9AE4A03466A
:10A61000106818601E1D07F1200C3C460FCC6445E5
:10A6200030607160B260F360274606F11006F4D125
:10A6300023792068337130602022002140461FF0CA
:10A640008FFA9F48A14C11F0F1FAFDEEC07A0A2270
:10A6500017EE900A414617F04DFD484620F0B0F93C
:10A660004146484420F06EF906460FCCA6EB090798
:10A6700001374FF00A0A86F800A009EB070649F8EF
:10A680000700716003CC2478F360B26030617161BF
:10A6900020220021404634761FF062FA88480021CB
:10A6A00012F0DAFEFDEEC07A524617EE900A4146ED
:10A6B00017F020FD484620F083F94146484420F039
:10A6C00041F983490346A0EB090203320868186088
:10A6D000D1B24846FFF768F9FDE515F0ADF97D49BF
:10A6E0000446002351F8042F5FFA83FCA24203F1D1
:10A6F00001033CBF67461446642BF3D1764B774A7F
:10A7000043F8270042F82760B9F1000F40F00581B7
:10A710002946AAA8F7221FF0FBF9714B6C78714EFD
:10A7200000221A7015F088F9654811F009FD0546F8
:10A7300015F082F90134142313FB0503E4B2AAA92E
:10A74000F72269488DF8A94233601FF0E1F9D9E496
:10A75000664B674ADFF85CC1D3F800B02368D2F8D3
:10A7600000E00093BCE80F00F360009BBCF804A07D
:10A770003060DE44DCF8000071604F4D9CF806103C
:10A78000B260A3EB0E033061A6F814A0B1752022CD
:10A7900039462EA800931FF0E3F90A222EA9286853
:10A7A000DFF854B117F0A6FC484620F009F92EA9AD
:10A7B000484420F0C7F8DFF844C18646BCE80F00E3
:10A7C000AEEB090601364FF00A0A8EF800A049F8F0
:10A7D00006004E44DCF800009CF804C086F814C063
:10A7E0007160B2603061F360202239462EA81FF0FC
:10A7F000B7F93F4A206813683E4C5246C01A2EA94A
:10A8000017F078FC484620F0DBF82EA9484420F0E9
:10A8100099F80646DBF8000030600FCCA6EB09067D
:10A82000033609EB060C49F80600CCF80410CCF806
:10A83000082007CC2488CCF81000CCF81410CCF8F1
:10A840001820CCF80C30ACF81C40394620222EA839
:10A850001FF086F9009B2868B3FBF0F052462EA942
:10A8600017F048FC484620F0ABF82EA9484420F0E9
:10A8700069F80346DBF8000018606DE515F0DCF8B8
:10A8800014490446002351F8042FDDB2A24203F11B
:10A8900001033CBFAB461446642BF4D10E4B0F4A68
:10A8A00043F82B0042F82B60B9F1000F3FF437ACAE
:10A8B0007CE500BFBCE90400CC6C0020D4E90400B6
:10A8C000AC6E002008EA040000EA040030EA04004C
:10A8D0004CEA04007C68002080680020F0660020BC
:10A8E000F96F002090600020AC6D0020E87000201F
:10A8F000EC7000206CEA040068EA040050EA0400EE
:10A90000931E13F0FF03DDE9017B039C02930CD13E
:10A91000B1460DF1280AFFF792BB6CA820F050F861
:10A92000C1B26CA8FEF7D4FFF2E6DDF8BE00DDF898
:10A93000C210DDF8C620DDF8CA30AA960DF1280A4B
:10A94000D446ACE80F00A94BC9F804601A46C9E91F
:10A950000266DB68526850464146FBF74DFED8F868
:10A960000020AA9B9A4203D04FF00009FFF767BB73
:10A97000AB9A0F9B9342F7D1AC9A109B9342F3D1C1
:10A98000AD9A119B9342EFD1DDF8CE00DDF8D210E5
:10A99000DDF8D620DDF8DA30D446ACE80F00934B72
:10A9A0001A4641465268DB685046FBF725FE404692
:10A9B00020F006F831468146F7226CA85FFA89F646
:10A9C0001FF0CEF8B9F1000F06D0721ED2B20132DC
:10A9D00041466CA81FF09CF86CAB6CA84B443A2223
:10A9E00000F8092002362022CDE9037BF1B25A702B
:10A9F0000023059401934FF026090C4609F10C0140
:10AA000009F10D0209F10903C9B2DBB2D2B2695CE6
:10AA100015F803E0AA5C15F80970002361F3070339
:10AA200009F1040062F30F2309F10E02C0B2D2B2A1
:10AA300015F800C0AA5C09F1080609F1050009F142
:10AA40000101F6B2C0B2C9B262F3174309F10F02B5
:10AA500015F806B02E5C685C0199D2B20131AA5C8F
:10AA6000019109F10A0162F31F63C9B2CAF80C30FF
:10AA70000023695C6BF307036EF30F2361F3174345
:10AA800009F10B01C9B209F1020E695C61F31F63A0
:10AA90000021CAF808306CF3070109F103035FFADB
:10AAA0008EFE66F30F21DBB2002615F80EE0EB5C9C
:10AAB00009F1060267F3070609F1070B60F30F2699
:10AAC000D2B26EF317465FFA8BFBAA5C15F80BC087
:10AAD00063F31F66454BCAF8006062F317411A46DC
:10AAE0006CF31F61DB685268CAF804105046414697
:10AAF000FBF782FD661C0DF5D87C98F800700CF809
:10AB00000470A01CF6B298F801700CF80670E11CF5
:10AB1000C0B298F802700CF80070221DC9B298F803
:10AB200003700CF80170D2B2631D98F804700CF831
:10AB30000270DBB2A61D98F805700CF80370F6B22F
:10AB4000E01D98F806700CF80670C0B204F1080118
:10AB500098F807700CF80070C9B204F1090298F86F
:10AB600008700CF80170D2B204F10A0398F8097069
:10AB70000CF80270DBB204F10B0698F80A700CF8BE
:10AB80000370F6B204F10C0098F80B700CF8067024
:10AB9000C0B204F10D0198F80C600CF80060C9B265
:10ABA00004F10E0204F10F0398F80D600CF8016037
:10ABB000D2B2DBB298F80E0098F80F100CF8020031
:10ABC0009DF804200CF80310029B09F110091034C1
:10ABD00093425FFA89F9E4B23FF610AFDDE9037BF7
:10ABE000059CDDF80090FFF72ABA00BFB064002092
:10ABF000704700BF10B5044617F04EFB204610BD4D
:10AC000038B50A4B04460D46442240F80C3B00215F
:10AC10001EF0A6FF0023A560237104F1540101205A
:10AC200015F0F8F92065204638BD00BF8CED040012
:10AC300070B504460E46006D4FF0FF3115F062FC12
:10AC4000257955B98EB1A660314604F10C0005F0A6
:10AC5000D5FBB0FA80F56D0925710023206D1A46E9
:10AC6000194615F027F8284670BDA668002EF4D0C6
:10AC7000EAE700BF10B504464FF0FF31006D15F054
:10AC800041FC23793BB90023206D1A46BDE81040F2
:10AC9000194615F00FB80023237104F10C0005F0DC
:10ACA000C1FCF0E770B505464FF0FF31006D15F0BF
:10ACB00029FC2B7993B1002305F10C062B7130464A
:10ACC00005F0B0FC044680B10023286D1A461946F1
:10ACD00014F0F0FFB4FA84F0400970BDA96805F1E2
:10ACE0000C0004F02BFF0446EEE7A968304604F0A0
:10ACF00025FF04460028E7D1A968304605F07EFB11
:10AD000004460028E0D101232B71DDE730B504466D
:10AD100095B00D46006D4FF0FF3115F0F3FB29465D
:10AD200001AA04F10C0004F0DDFC002302461946E0
:10AD3000206D14461A4614F0BDFFB4FA84F04009A1
:10AD400015B030BD2DE9F04F83B00B7800AF2F2B3D
:10AD500078600CBF4C1C0C4606460D46006D4FF04B
:10AD6000FF3115F0CFFB06F10C084FF0000917E09A
:10AD7000ADEB030D68468B4500F8019BEA4601DD0B
:10AD80001EF0EEFE29465A4650461EF0C1FE5146C0
:10AD9000404603F00DFD08B1113028D10134B5460D
:10ADA00020462F211FF0E6FDA0EB050B0BF1080359
:10ADB0006E460021044623F007035A460028D7D1E7
:10ADC0002946404603F0F4FC60B901247A68002368
:10ADD000106D19461A4614F06DFF20460C37BD461B
:10ADE000BDE8F08F113014BF00240124EEE70024E9
:10ADF000B546EBE738B504460D46006D4FF0FF3120
:10AE000015F080FB294604F10C0004F0C3FC00237C
:10AE100002461946206D14461A4614F04BFFB4FA48
:10AE200084F0400938BD00BF00207047036970B549
:10AE300004460D46186D4FF0FF31164615F062FBC3
:10AE4000237D4BB1002522690023106D19461A4657
:10AE500014F030FF284670BD2069A1692A463346A8
:10AE60000C3003F0F3FF20EAE075ECE770B50369FE
:10AE7000044682B0186D4FF0FF3115F043FB267D7C
:10AE80004EBB2069A1690C3004F01EFC0546206908
:10AE9000A1698DF8076001230DF107020C3004F061
:10AEA0005FFB00282069A169C8BF9DF807602A469A
:10AEB00000F10C004FF00003D8BF4FF0FF3604F054
:10AEC000D3FB22690023106D19461A4614F0F2FED6
:10AED000304602B070BD4FF0FF36F2E738B5036977
:10AEE00004464FF0FF31186D15F00CFB237D4BB17C
:10AEF000002522690023106D19461A4614F0DAFE67
:10AF0000284638BD2069A1690C3004F0DFFB0546F6
:10AF10002069A1690C3004F0D7FB2D1AE9E700BFC6
:10AF2000036910B504464FF0FF31186D15F0EAFAC9
:10AF3000237D43B122690023106DBDE810401A46FD
:10AF4000194614F0B7BE2069A1690C3004F0E4F989
:10AF5000F0E700BF30B50369044683B0186D4FF0C9
:10AF6000FF3115F0CFFA257D55B122690023106D10
:10AF700019461A4614F09EFE4FF0FF3003B030BD64
:10AF80002069A1690DF1070201230C3004F0E8FAF1
:10AF900023692A4604462946186D2B4614F08AFE7A
:10AFA000002CCCBF9DF807004FF0FF3003B030BD40
:10AFB00030B50368164A5B6883B093428DF807107A
:10AFC0001ED1036904464FF0FF31186D15F09AFA4F
:10AFD000237D53B1002522690023106D19461A46BE
:10AFE00014F068FE284603B030BD2069A1690C301A
:10AFF00001230DF1070203F029FF20EAE075EAE7DB
:10B0000001220DF1070198470546284603B030BDDF
:10B010002DAE020030B4074C016100224FF47A7566
:10B02000C0E900428560C0E9062230BC027580F8A4
:10B0300020207047A8ED0400F0B5836997B004465E
:10B040000D46164693B1077D006919460C30002F56
:10B0500045D003F0ADFDA06914F030FDE069002398
:10B06000A36108B114F02AFD0023E361206903AA5B
:10B070000C30294604F036FB98B99DF80C30112BA2
:10B0800034D02C2014F000FD0146A06130B12069BD
:10B090002A460C3003F064FD002839D0002017B098
:10B0A000F0BD0230FAD1012EF8D1382014F0ECFCBA
:10B0B0000146A0610028F1D0206940F203130C3052
:10B0C0002A4603F011FE06460028E7D12069A1694F
:10B0D0000C300223324604F0C7FA267509E004F06A
:10B0E0009DF9A06914F0EAFCA761BFE7EEB1012E5B
:10B0F0003AD02F2128461FF090FC203400B1451C87
:10B100002946204640221FF075FC012017B0F0BDF3
:10B110000123237528461FF053FC013014F0B4FCC2
:10B120002946E0611FF033FCE3E701233820019357
:10B1300014F0AAFC019BA06101460028AED0206952
:10B140002A460C3003F0D0FD0028A7D1012E02D0F2
:10B1500000232375CDE72369A169024603F10C00A2
:10B16000022304F081FAF3E740F20313DEE700BFA5
:10B1700030B5036983B004460D46186D01924FF057
:10B18000FF3115F0BFF9019A29462046FFF754FF19
:10B190002169002302461446086D1A46194614F028
:10B1A00089FD204603B030BD70B504460025C4E9D2
:10B1B00006551048236182B0206084F820504FF477
:10B1C0007A700E46A0604FF0FF31186D65602575EE
:10B1D000019215F097F9019A31462046FFF72CFFAE
:10B1E00022692B46106D29462A4614F063FD20463D
:10B1F00002B070BDA8ED0400036970B504460D46A9
:10B20000186D4FF0FF31164615F07CF9237D4BB1D8
:10B21000002522690023106D19461A4614F04AFDD4
:10B22000284670BD2069A1692A4633460C3004F0D7
:10B2300097F90546EDE700BF38B5036904460D46AA
:10B24000186D4FF0FF3115F05DF9237D4BB10025EE
:10B2500022690023106D19461A4614F02BFD28466A
:10B2600038BD2069A1692A460C3004F0FDF9C543B8
:10B27000ED0FEDE738B5036904464FF0FF31186D67
:10B2800015F040F9237D4BB1002522690023106D94
:10B2900019461A4614F00EFD284638BD2069A169EA
:10B2A0000C3004F011FA0546EFE700BF38B503692A
:10B2B00004464FF0FF31186D15F024F9237D4BB192
:10B2C000002522690023106D19461A4614F0F2FC7D
:10B2D000284638BD2069A1690C3004F0F7F905460D
:10B2E000EFE700BF036970B504464FF0FF31186DFA
:10B2F00015F008F9A16981B12069257D0C30ADB147
:10B3000003F056FCA06914F0D9FBE0690023A361A7
:10B3100008B114F0D3FB0023E36122690023106D10
:10B32000BDE870401A46194614F0C4BC04F076F823
:10B33000A06914F0C3FBA561EFE700BF8069003886
:10B3400018BF0120704700BF2DE9F04F95B00B6981
:10B3500006460C46186D4FF0FF3100AF904615F0D1
:10B36000D1F800232069337586F82030227D2B49DF
:10B3700030614FF47A70C6E90013C6E90633B06055
:10B38000DAB342F62E652069A1690C303A1D03F04C
:10B3900023FC012831D1BB892E2BF4D0AB4238D00D
:10B3A000D4F81C9048461FF00BFB054607F10C0033
:10B3B0001FF006FB2B18093323F00703EA46ADEB19
:10B3C000030D68466A1C49461EF0A2FB99F800303E
:10B3D0002F2BEB4602D199F801301BB1104B1B8883
:10B3E0002BF8053007F10C0158461FF0B4FA42461D
:10B3F00059463046FFF720FED54622690023106DDE
:10B4000019461A4614F056FC30465437BD46BDE87E
:10B41000F08FBB7B002BB6D0C2E700BFA8ED0400C5
:10B420009CED04002DE9F04F85B0DDE90E4B109F37
:10B4300081460D4690461E46002F63D0B8F1000F9E
:10B4400003D0D8F80030B34249D0D9F800002B68B7
:10B450009E422BD04369B4FBF3F203FB1242BAB90C
:10B46000BB4215D8B7FBF3F203FB127AA7EB0A0332
:10B4700000930393436822461F4631465B46B84714
:10B4800088B9039B57469B441C44002FD6D139E012
:10B490000093A21AC5E90062D0F804A0AB68314657
:10B4A000D0470028CAD005B0BDE8F08F696843696D
:10B4B000A142D0D8CA18A242CDD9A2EB040ABA45FB
:10B4C000AB6828BFBA46611A524658461944BF1A9B
:10B4D00054441EF01DFBD344002FAFD112E0D8F826
:10B4E0000430A342B1D8D9F8000082691A44A242BC
:10B4F000ADD9A2EB040ABA45D8F8081028BFBA465D
:10B50000E31AE1E7002005B0BDE8F08F2DE9F04F28
:10B51000074687B00D4672B30368D1F800B0904675
:10B520009A69D1E901104AB3013A01F1010986187B
:10B53000A9EB0009441E4FF0010A08E014F8012F9E
:10B540009DF817309A4223D1A6423B6814D01A6A5C
:10B55000934509EB040320D20DF11702CDE9003227
:10B56000CDF808A05B46002241463846FFF75AFF57
:10B570000028E3D009DB3B68A8689A69FF211EF028
:10B58000EFFA4FF0FF332B60002007B0BDE8F08FDB
:10B590006FF0330007B0BDE8F08F034B034A044857
:10B5A00012211EF013FA00BFC4ED0400ECEF0400FA
:10B5B000E4ED04002DE9F04F87B0DDF840A00592DE
:10B5C000002B64D0D0F800908B46D9F81C105C1E7C
:10B5D000A1F108084445074651D3B4FBF8F00138FF
:10B5E0001EF076F8D04500F10200A4EB8003B3FB17
:10B5F000F8F560D8BAFBF8F001381EF069F8861C3F
:10B60000AAEB8606B6FBF8F630461EF061F8AAEB08
:10B61000800006FB180AB54243D9D9F82020059BC3
:10B620004FF004090DF114080BE0012B45D93A68DD
:10B63000126A934241D8012101FA04F42D1BB5424C
:10B6400030D9AC1BB4FA84F495FAA5F1C4F11F0407
:10B65000B1FA81F18C4228BF0C4693424FEA840133
:10B6600032D20091CDE90189002259463846FFF7D0
:10B67000D9FE059B0028D8D007B0BDE8F08FD04593
:10B6800088BF1346BAFBF8F00CD80025B4E711992F
:10B690004FF0FF320A60129A1846136007B0BDE8F7
:10B6A000F08F059B119A1360129B0020C3F800A035
:10B6B00007B0BDE8F08F0026ADE7064B064A074805
:10B6C0004FF48F611EF082F9054B064A03481221A0
:10B6D0001EF07CF960EE04000CF00400E4ED0400C0
:10B6E000C4ED0400ECEF04002DE9F04F89B00746EB
:10B6F000149C129D8B4692461E46002C55D0DBF8BA
:10B700000030B3425CD0013340F0A18038688269D8
:10B71000B5FBF2F302FB1353002B4AD1A24248D8E7
:10B72000B4FBF2F302FB13430593E31A0093049373
:10B730008468139B2A463146A04700287ED1BAF17F
:10B74000000F29D0049B3BB3139B5C1E049B04EBAE
:10B750000309139B05F10108A8EB030807E014F89F
:10B76000012F9DF81F309A4266D14C4514D03B689A
:10B770001A6A964208EB040363D2012202920DF189
:10B780001F02CDE900325146334600223846FFF70A
:10B7900049FE0028E3D051DB139A049B059C114617
:10B7A000194413911D44002CA9D1002009B0BDE813
:10B7B000F08FEB1ACBE90063DBF80030B342A2D183
:10B7C000DBF80410A9429ED83A6892690A44AA425A
:10B7D00099D9A2EB0508A045DBF8080028BFA046D0
:10B7E000691A0844424613991EF092F93868139971
:10B7F000826945444144B5FBF2F302FB1353A4EBC9
:10B8000008041391002B7FF478AFDBF800104B1C79
:10B810003FF473AF0092DBE90123D0F80880C04702
:10B8200060B9524659463846FFF770FE00283FF48B
:10B8300064AF09B0BDE8F08F6FF0330009B0BDE828
:10B84000F08F064B064A074812211EF0BFF8064B40
:10B85000064A0448B7211EF0B9F800BFC4ED040041
:10B86000ECEF0400E4ED04008CEE0400FCEF0400B7
:10B870002DE9F04F0446D2E9003091B04FF0010BB2
:10B880000A9300230B90069104F114080DF1280986
:10B890000593236859F8045B1B6A9D427BD21023F1
:10B8A0000DF1300A0022CDE901A300922B4641465A
:10B8B0002046FFF7B7FD002839D1059B002B60D14A
:10B8C0000D9B23F00043132B4FD92268D26993427A
:10B8D0004BD84FF0FF3309A810225146099304F0CA
:10B8E000BFFE0D9B23F00043102B28D0CDF81C90F9
:10B8F00010260DF12307994607E00136012239464B
:10B9000009A804F0ADFEB14517D023681B6A9D421B
:10B9100041D20123CDE9017300962B460022414616
:10B920002046FFF77FFD0028E7D0DDF81C9010F1DE
:10B93000340F1AD011B0BDE8F08FDDF81C90099BD0
:10B940009BB99AE80F000BF0010610AF07EB860CCD
:10B95000069F1026FE603E467D601C365CF8185C33
:10B96000BD6086E80F0001230593BBF1020F0FD1E4
:10B97000059B002B14BF00206FF0330011B0BDE811
:10B98000F08F069A0C9BD2699B1A002B98DAECE791
:10B990004FF0020B7DE7034B034A044812211EF0CF
:10B9A00015F800BFC4ED0400ECEF0400E4ED040062
:10B9B0004368013337D02DE9F0438368013383B006
:10B9C000044628D015460E464FF000084FF00109F6
:10B9D0006A462946CDE90089FFF74AFFE0B905F13B
:10B9E00024086B6A591C16D0AF6A7A1C13D0D6F89B
:10B9F00000C09C4513D0D6F804E0BE450FD0734577
:10BA00004246294620460AD0BC4508D0FFF730FF01
:10BA10000028E6D000E0002003B0BDE8F08301205C
:10BA200003B0BDE8F0830020704700BF2DE9F0416E
:10BA3000D1F820C00C46C9682CF00043043B01F14A
:10BA40000C069E4284B0054617461FD904F124080F
:10BA5000102612E0424621462846FFF709FF90B91A
:10BA6000D4F820C0A169E6602CF00043043B1431F7
:10BA70001B2BA1614FF0100108D8BCF1000FE9DBCE
:10BA800039606FF0010004B0BDE8F0812A466368B8
:10BA900052F8140B066AB34207F104001AD20C26BE
:10BAA000CDE900100296114628460022FFF7BAFCA5
:10BAB0000028E8D17B79BA79FD79A1690433134470
:10BAC000E2683A602B441A440B44E260A36104B07C
:10BAD000BDE8F081024B034A034812211DF076FFB6
