:020000022000DC
:1060000000000420C9200400092104000B21040021
:106010000D2104000F2104001121040000000000E4
:10602000000000000000000000000000511F0400FC
:106030001521040000000000711F04001921040054
:10604000252304001B210400D1F003001B210400C0
:106050001B2104001B2104005DF403001B2104002C
:106060001B2104001B2104001B2104001B21040030
:106070001B2104001B2104001B2104001B21040020
:106080001B210400A11C04001B2104001B2104008F
:106090001B2104001B210400418903001B21040073
:1060A0001B2104001B2104001B2104001B210400F0
:1060B0001B2104001B210400000000000000000060
:1060C0001B2104001B2104001B2104000D290400D6
:1060D0001B2104001B2104001B2104006D1503007B
:1060E0001B2104001B2104001B21040000000000F0
:1060F000000000001B2104000000000085290400AE
:10610000000000000000000000000000000000008F
:10611000000000000000000000000000000000007F
:10612000000000000000000000000000000000006F
:10613000000000000000000000000000000000005F
:10614000000000000000000000000000000000004F
:10615000000000000000000000000000000000003F
:10616000000000000000000000000000000000002F
:10617000000000000000000000000000000000001F
:10618000000000000000000000000000000000000F
:1061900000000000000000000000000000000000FF
:1061A00000000000000000000000000000000000EF
:1061B00000000000000000000000000000000000DF
:1061C00000000000000000000000000000000000CF
:1061D00000000000000000000000000000000000BF
:1061E00000000000000000000000000000000000AF
:1061F000000000000000000000000000000000009F
:10620000F1EE103A43F08073E1EE103A704700BFB0
:1062100010B5054C237833B9044B13B10448AFF3E0
:1062200000800123237010BD2464002000000000C2
:10623000AC21050008B5034B1BB103490348AFF37C
:10624000008008BD0000000028640020AC2105008B
:10625000154B002B08BF134B9D46A3F5803A002138
:106260008B460F461348144A121A23F02DFC0F4B8D
:10627000002B00D098470E4B002B00D098470020F1
:10628000002104000D000D48002802D00C48AFF397
:10629000008023F0AFFB200029001BF06DFF23F0EE
:1062A00083FB00BF00000800000004200000000085
:1062B0000000000024640020CCA5002000000000A5
:1062C0000000000033DF7047014B01221A70704755
:1062D000FC700020014B01221A707047FC6F0020F7
:1062E000014B01221A707047706B0020014B012294
:1062F0001A707047E8700020014B01221A70704735
:10630000F266002038B5054CA4F5A875204619F0B2
:10631000C1F9AC42A4F10C04F8D138BD646B002083
:10632000054B064A1B78013B0021012B117000D957
:10633000704703201DF0B8B81C600020F1660020F3
:1063400010B5134B88B001461248198012F0F0FACC
:1063500011490124002320220C706946CDE9003345
:10636000CDE90333CDE905330293079310F0D0FB59
:106370000A4B0B4A1B78013B0221A342117001D941
:1063800008B010BD214603201DF08EF808B010BDE6
:10639000D86B0020E48E0020F16600201C600020F5
:1063A000AC6E002010B56B4C6B49204617F0A8FF6F
:1063B0006A4B0A221978204618F01CF968492046D1
:1063C00017F09EFF674B0A221978204618F038F91B
:1063D0006549204617F094FF644B0A22197820463D
:1063E00018F008F96249204617F08AFF614B0A222B
:1063F0001978204618F0FEF85F49204617F080FF14
:106400005E4B0A221978204618F01AF95C4920469A
:1064100017F076FF5B4B186822F06CFD41EC100B17
:106420002046022118F030F85749204617F068FF3F
:10643000564B0A221988204618F0DCF854492046A9
:1064400017F05EFF534B186822F054FD41EC100B1F
:106450002046022118F018F84F49204617F050FF47
:106460004E4B0A221978204618F0EAF84C4920468B
:1064700017F046FF4B4B0A221978204618F0E0F837
:106480004949204617F03CFF484B0A22197820461C
:1064900018F0D6F84649204617F032FF454B0A223D
:1064A0001978204618F0CCF84349204617F028FF09
:1064B000424B0A221978204618F0C2F8404920467B
:1064C00017F01EFF3F4B0A221978204618F0B8F843
:1064D0003D49204617F014FF3C4B0A22197820460C
:1064E00018F088F83A49204617F00AFF394B0A227B
:1064F0001978204618F0A4F83749204617F000FF15
:10650000364B0A221978204618F074F83449204690
:1065100017F0F6FE334B0A221978204618F06AF875
:106520003149204617F0ECFE304B0A2219782046FC
:1065300018F060F82E49204617F0E2FE2D4B204659
:1065400019780A2218F07CF82046BDE8104004F0C3
:106550007BBE00BF746B002044E104000560002096
:106560004CE104000460002054E104004164002078
:106570005CE104001060002064E104001860002069
:1065800068E104001460002070E104001A6000203B
:1065900074E104000860002078E10400206000201D
:1065A0007CE104000C60002080E1040021600020F8
:1065B00084E104001E6000208CE104001F600020C4
:1065C00094E10400426400209CE104004064002047
:1065D000A4E104001C600020ACE104000E60002077
:1065E000B4E104000F600020C0E104000D60002051
:1065F000CCE104001D6000202DE9F041DFF8C480EB
:1066000098F814C09CB0BCF1000F4BD005460C4666
:1066100017461E461FF028FA00284CD13946D8F8F4
:106620001830324609A81EF041FE244B0393102770
:10663000D8F81C10049709A8082303AA1EF076FEB8
:10664000002835D1D8F808309E4222D128686968E0
:10665000AA68EB68002605AD0FC526602346666074
:10666000A660E66005A9102209A81EF09BFE03465D
:10667000D8B902A90191009405AA09A819461EF0EB
:10668000CFFE00280CBF10206FF005001CB0BDE845
:10669000F0810B4909A81EF06DFE0028D6D06FF0DE
:1066A0000600F3E74FF0FF30F0E76FF00400EDE78E
:1066B0006FF00300EAE76FF00100E7E754640020A1
:1066C00044640020B464002008B50C490C4804F070
:1066D00043FB0A490B48012204F0FCFC48B90A4B71
:1066E0001B7803B908BDBDE808400849084817F001
:1066F0007BBEBDE80840FFF755BE00BFD8E10400EF
:1067000000710020746B0020F0660020E0E10400BE
:10671000A8810020F0B5174F174D184E99B00446C8
:10672000384613F0E1FB0221284613F0ADFC204669
:1067300024F0FAF821460246284613F0B9FC08ACCA
:1067400008A9284613F0BCFC0FCC6D460FC594E891
:106750000F0085E80F006B460FCB86E80F0095E829
:106760000F00074C84E80F00384613F0D1FB19B036
:10677000F0BD00BF78960020DC6B00204464002050
:10678000546400202DE9F04173497448DFF87C829D
:10679000734E744F82B004F0EFFB734813F070FC3B
:1067A000724B7348002501220321C3E90655196184
:1067B0001D609D601D755A60DA6013F08BFC3020FF
:1067C0001BF01AFD0F230E22044600930C210D230B
:1067D00013F05AFE21466748674C14F0E9F840462A
:1067E00012F018FA32466549404623F09DF83846C3
:1067F00012F0AAFA32466249384623F095F8614F02
:1068000020464FF4807112F0F5FE32465E49204674
:1068100023F08AF85D4C384612F0E4F832465C49C1
:10682000384623F081F85B49204618F059FE5A4952
:1068300004F10C0018F054FE584904F1180018F047
:106840004FFE574904F1240018F04AFE554904F15F
:10685000300018F045FE544904F13C0018F040FEA9
:10686000524904F1480018F03BFE514904F154002C
:1068700018F036FE4F4904F1600018F031FE4E4921
:1068800004F16C0018F02CFE4C4904F1780018F06B
:1068900027FE4B4904F1840018F022FE494904F117
:1068A000900018F01DFE484904F19C0018F018FEF5
:1068B000464904F1A80018F013FE454904F1B4005C
:1068C00018F00EFE434904F1C00018F009FE4249D9
:1068D00004F1CC0018F004FE404904F1D80018F08F
:1068E000FFFD3F4904F1E40018F0FAFD3D4904F1D1
:1068F000F00018F0F5FD3C4904F1FC0018F0F0FD43
:106900003A4904F5847018F0EBFD394904F58A70B2
:1069100018F0E6FD374904F5907018F0E1FD3649AE
:1069200004F5967018F0DCFD344904F59C7018F0FD
:10693000D7FD334904F5A27018F0D2FD314904F5B2
:10694000A87018F0CDFD30493246284602B0BDE8A7
:10695000F04122F0E9BF00BF00710020746B0020FD
:1069600000600020B4650020DC6B0020B4640020CF
:1069700000700020B06E0020FC65002081990200AC
:1069800069990200D464002089960300146A0020EB
:106990004199020000E2040008E2040018E2040049
:1069A00028E2040044E2040054E2040060E204002F
:1069B0006CE204007CE2040090E20400ACE204001B
:1069C000C0E20400D4E20400E8E2040000E30400B2
:1069D00014E3040024E3040038E3040050E304005B
:1069E0006CE304007CE3040088E304009CE30400FF
:1069F000B0E30400C4E30400D8E30400E4E30400CB
:106A0000F4E304000CE40400056302004465002084
:106A100030B5B748B74985B00022044604F05AFBA8
:106A2000204604F049FA3D28FAD1B149B24DB34CA1
:106A30000A2201A817F08AFE01A818F081FF031EA0
:106A400018BF012301A82B7018F024FE2378002B17
:106A500040F0FA81A64D284604F02EFA3D28FAD1DE
:106A6000A349A74D0A2201A817F070FE01A818F04B
:106A700067FF034601A82B7018F00CFE2378002B4B
:106A800040F0AC829A4D284604F016FA3D28FAD11F
:106A900097499C4D0A2201A817F058FE01A818F04A
:106AA0004FFF031E18BF012301A82B7018F0F2FD41
:106AB0002378002B40F088828D4D284604F0FCF9A5
:106AC0003D28FAD18A49904D0A2201A817F03EFECE
:106AD00001A818F035FF031E18BF012301A82B7071
:106AE00018F0D8FD2378002B40F06482804D2846B2
:106AF00004F0E2F93D28FAD17D49844D0A2201A82B
:106B000017F024FE01A818F01BFF034601A82B7004
:106B100018F0C0FD2378002B40F04282744D2846C7
:106B200004F0CAF93D28FAD17149794D0A2201A829
:106B300017F00CFE01A818F009FF01A885ED000A66
:106B400018F0A8FD2378002B40F01C82684D2846E1
:106B500004F0B2F93D28FAD165496E4D0A2201A828
:106B600017F0F4FD01A818F0EBFE034601A82B80F6
:106B700018F090FD2378002B40F0FA815C4D2846F8
:106B800004F09AF93D28FAD15949634D0A2201A827
:106B900017F0DCFD01A818F0D9FE01A885ED000A68
:106BA00018F078FD2378002B40F0D481504D284612
:106BB00004F082F93D28FAD14D49584D0A2201A826
:106BC00017F0C4FD01A818F0BBFE034601A82B7006
:106BD00018F060FD2378002B40F0B281444D284628
:106BE00004F06AF93D28FAD141494D4D0A2201A825
:106BF00017F0ACFD01A818F0A3FE034601A82B7006
:106C000018F048FD2378002B40F09081384D28463D
:106C100004F052F93D28FAD13549424D0A2201A823
:106C200017F094FD01A818F08BFE034601A82B7005
:106C300018F030FD2378002B40F06E812C4D284653
:106C400004F03AF93D28FAD12949374D0A2201A822
:106C500017F07CFD01A818F073FE034601A82B7005
:106C600018F018FD2378002B40F04C81204D284669
:106C700004F022F93D28FAD11D492C4D0A2201A821
:106C800017F064FD01A818F05BFE034601A82B7005
:106C900018F000FD2378002B40F02A81144D28467F
:106CA00004F00AF93D28FAD11149214D0A2201A820
:106CB00017F04CFD01A818F043FE034601A82B7005
:106CC00018F0E8FC2378002B40F00881084D284696
:106CD00004F0F2F83D28FAD10549164D0A2201A820
:106CE00017F034FD01A818F02BFE031E24E000BFAE
:106CF000746B0020D8E1040005600020F0660020DD
:106D00000460002041640020106000201860002012
:106D1000146000201A60002008600020206000201D
:106D20000C600020216000201E6000201F600020F9
:106D3000426400204064002018BF012301A82B708A
:106D400018F0A8FC2378002B40F0BE80A84D284600
:106D500004F0B2F83D28FAD1A549A64D0A2201A8AF
:106D600017F0F4FC01A818F0EBFD034601A82B7006
:106D700018F090FC2378002B40F09C809C4D284616
:106D800004F09AF83D28FAD199499B4D0A2201A8AE
:106D900017F0DCFC01A818F0D3FD031E18BF012377
:106DA00001A82B7018F076FC2378002B78D1904D39
:106DB000284604F081F83D28FAD18D498F4D0A22EA
:106DC00001A817F0C3FC01A818F0BAFD031E18BFF4
:106DD000012301A82B7018F05DFC2378002B55D1FE
:106DE000834D284604F068F83D28FAD18049844D47
:106DF0000A2201A817F0AAFC01A818F0A1FD031EA1
:106E000018BF012301A82B7018F044FC2378002B35
:106E100032D1774D284604F04FF83D28FAD1744915
:106E2000784D0A2201A817F091FC01A818F088FDFE
:106E3000034601A82B7018F02DFC237873B96C4819
:106E400004F002FA05B030BD6F49704817F058FAE7
:106E500029786E480A2217F0CDFBFBE56C496B4898
:106E600017F04EFA297869480A2217F0E9FB6048C2
:106E700004F0EAF905B030BD6649644817F040FAFD
:106E8000297862480A2217F0B5FBC2E762495F48D9
:106E900017F036FA29785D480A2217F0ABFB9FE716
:106EA0005E495A4817F02CFA297858480A2217F0F8
:106EB000A1FB7CE75A49554817F022FA2978534834
:106EC0000A2217F0BDFB59E75649504817F018FA47
:106ED00029784E480A2217F08DFB37E752494B4874
:106EE00017F00EFA297849480A2217F0A9FBEDE6B7
:106EF0004E49464817F004FA297844480A2217F008
:106F00009FFBCBE64A49414817F0FAF929783F48F8
:106F10000A2217F095FBA9E646493C4817F0F0F91C
:106F200029783A480A2217F08BFB87E6424937480E
:106F300017F0E6F9297835480A2217F081FB65E653
:106F40003E49324817F0DCF9297830480A2217F018
:106F500077FB43E63A492D4817F0D2F9286821F02B
:106F6000C9FF41EC100B0221284817F08DFA1DE6ED
:106F70003449264817F0C4F9298824480A2217F012
:106F800039FBFBE53049214817F0BAF9286821F0B0
:106F9000B1FF41EC100B02211C4817F075FAD5E542
:106FA0002A491A4817F0ACF9297818480A2217F02C
:106FB00047FBB3E52649154817F0A2F9297813488D
:106FC0000A2217F017FB91E52249104817F098F9AB
:106FD00029780E480A2217F00DFB6DE51E490B4873
:106FE00017F08EF9297809480A2217F029FB49E59C
:106FF000746B00201C6000200E6000200F600020D9
:107000000D6000201D60002044E10400A8810020E4
:10701000CCE10400C0E10400B4E10400ACE10400F0
:10702000A4E104009CE1040094E104008CE104006C
:1070300084E1040080E104007CE1040078E10400C4
:1070400074E1040070E1040068E1040064E10400FC
:107050005CE1040054E104004CE1040070B545F229
:107060001F2288B0B64841F6151109F09FFFB549B7
:10707000B34809F09FFFB449B14809F09FFF0320CE
:1070800001211CF011FAB14809F0BCFE002800F003
:1070900087824FF47A7018F08FFCAC4809F0B2FE8A
:1070A000002800F07A82AA4809F000FBA949AA4802
:1070B000002204F00FF8A84804F0F2F8002800F0CD
:1070C0005C82A649A448002204F004F8A24804F017
:1070D000E7F8002800F04182A1499F48002203F010
:1070E000F9FF9D4804F0DCF8002800F002829D4B77
:1070F000994D0022C3E90022C3E902221C4603F194
:10710000100602E00134A6420CD0284603F098FE97
:107110000028F7D0284603F0CFFE013404F8010C14
:10712000A642F2D18C4804F08FF88F498A48002299
:1071300003F0D0FF884804F0B3F8002800F0ED8198
:107140008A4C854D04F1400602E00134A6420CD081
:10715000284603F075FE0028F7D0284603F0ACFE61
:10716000013404F8010CA642F2D17B4804F06CF81B
:107170007E48FFF7CFFA7E497748002203F0AAFF46
:10718000754804F08DF880B97949714803F0E4FD41
:1071900077497148012203F09DFF002840F00682E4
:1071A000744B1B78002B40F00482FFF731FC0A245B
:1071B000012585F00105294603201CF075F964209E
:1071C00018F0FAFB631E13F0FF04F2D16A4A6B4B0E
:1071D00012786B4853F8221017F084FD142485F0C0
:1071E0000105294603201CF05FF9642018F0E4FB38
:1071F000631E13F0FF04F2D1624D2B78002B00F0D8
:107200004C81614B614A1E786149624B12781B7850
:1072100091F9001060480293019200915F4C604B1D
:10722000604A6149D4ED000A1B781278097800EBB6
:10723000860090ED000A5D4813F0C4FB0446002C64
:1072400000F048815A4B297800221A60002940F04A
:1072500071810422574955483C4C16F04FF8534869
:1072600015F008FB5448002111F0F8FA52480421A7
:1072700011F0B8F8002201214F4811F0E3F808217D
:107280004D4811F09DFA00223249334803F022FFA5
:1072900005A8314917F026FA0599484810F0FEF97B
:1072A00005A818F0F7F900222C492B4803F012FF2B
:1072B00005A8294917F016FA05993F4811F058FA20
:1072C00005A818F0E7F93E493B480FF06DFE3D492F
:1072D00039480FF06BFE1B493B48102211F030FD7E
:1072E00019493948082211F027FD374811F062FD8D
:1072F00031221146354810F085FD344812F008FA65
:10730000062133480EF06AFB31480EF04FFB2F493F
:107310002F480EF007FB2F480EF01AFB2C480121D6
:107320000EF090FBF4222A4820210EF087FB28481B
:107330001E210EF081FB002125480EF0EFFB4DE0F1
:10734000C88100201CE4040030E40400A88100206F
:1073500000710020F0E30400746B002044E404009A
:107360004CE404006464002060E4040074640020C1
:10737000D8E10400F06600200460002024600020B2
:107380008097002010600020186000201E60002000
:107390001F60002042640020E4EA0400086000202E
:1073A000216000200C60002020600020B06E0020D2
:1073B000D06C0020D5620200E48E0020048F0020F3
:1073C0004163020021630200B4650020FC650020D7
:1073D000249500206895002009F0F4FB204609F070
:1073E000CBFB03462046002BF6D1804C01E017F082
:1073F00007FC204617F0FCFB03462046002BF6D185
:107400007B4C01E011F096FD204611F043FD034650
:107410002046002BF6D1774C2378013B012B37D83F
:10742000754B1B78002B33D0012102201BF0B8FFD5
:107430002378724C012B8CBF0121002102201CF00B
:1074400033F81EF011FB237D002B5FD000246C4825
:1074500012F044FE6B49009401234FF480626A48A5
:107460001BF07CFC01234FF480626849009466485D
:107470001BF074FC022104201BF092FF6449654854
:1074800016F0B2FF6249594816F0AEFF08B070BD61
:10749000002103201CF008F8C6E75F495F4C6048F4
:1074A0000978247890F900000090029101945D48D9
:1074B0005D4C5E4B5E4A5F49D4ED000A90ED000AD8
:1074C0001B78127809785C4813F07CFA0446002C8B
:1074D0007FF4B8AE594B58481978224614F098F802
:1074E00000287FF4AFAE2B78002B79D1544B1C6071
:1074F000AFE654495448012203F0ECFD00283FF464
:1075000014AE5249504816F0FBFE0BE61EF0ACFAE2
:1075100000289BD10123237598E74D494A48012251
:1075200003F0D8FD00283FF423AE4A49464816F040
:10753000E7FE1AE6484A494B12783F4803EB8203BC
:1075400093ED000A13F00EFA0446002836D14449A0
:107550003948042215F0E8FE7BE642493A48012208
:1075600003F0B8FD00283FF4B7AD3F49364816F0A8
:10757000C7FE354803F068FEAEE53C4932480122BB
:1075800003F0A8FD00283FF49CAD39492E4816F0C1
:10759000B7FE2D4803F058FE93E51BF0FBFB82E598
:1075A0001C484FF4E13109F005FC72E5FEF7FAFEE4
:1075B000FBE53049174816F017FFF6E52E49154848
:1075C00016F070FE84EAE473A3EBE4732B491148D0
:1075D0009BB203EB430301EB830116F0BFFEB6E75A
:1075E000274B1548197816F005FC2BE680970020EC
:1075F000FC6500201C600020F1660020B4640020BF
:1076000000700020999A0200489C0020A97B02008B
:10761000A0E40400A8810020426400201E60002035
:107620001F600020146000200860002021600020FE
:107630000C60002020600020B06E0020406400201C
:10764000D06C00204CE40400746B002054E404006F
:1076500060E4040068E4040018600020E4EA040028
:10766000E162020044E4040030E40400F0E30400BA
:107670003CE40400E0E1040074E40400146A002027
:107680001A6000201F4B204A1B7870B50026044664
:107690000D46166093B91D491D48042215F02EFEB3
:1076A00018F07EF91B4B02461A60194800232A463F
:1076B000214615F0CFF9184B186070BD174A184BCA
:1076C0001278134803EB820393ED000A13F04AF992
:1076D000064628B913490E48042215F025FEDAE7BC
:1076E0001149124816F0DEFD002EB8BF764210494F
:1076F0000E48B6B206EB460601EB860116F02EFEEA
:10770000E8E700BF10600020D06C0020C9620200D2
:10771000B06E0020F0700020F8700020186000208B
:10772000E4EA0400E162020074E40400A88100209D
:10773000146A00202DE9F04F2DED028BCDB000AF83
:1077400015469B468946064623F0EEF84FF0000AA0
:1077500004465146F22207F13C00D7F8608122F03E
:10776000B3F9DBF80030404887F83950C7F83A30B1
:1077700093FA83FCE4B287F838904546534650F8B4
:10778000042FD9B2954203F1010384BF8A461546FE
:10779000642BF4D1354A364B42F82A80D02C43F87A
:1077A0002AC059D8B9F1010F72D0324823F0BCF881
:1077B0005FFA80FC0CF106025FFA82FE58B12D4D93
:1077C000002307F59872D1185A1CEB5C01F8F23CC3
:1077D000D3B29842F5D807F598710CF1070307F575
:1077E000987251FA83F372443A2020210CF1080573
:1077F00002F8F80CEDB203F8F81C94B104F108009B
:107800006044013EC0B22B4607F598721A4401331A
:10781000DBB216F8011F02F8F81C8342F4D12C44A5
:10782000E5B2154B154A1B7800211160002B40F082
:10783000558113491348042215F060FD18F0B0F883
:10784000114B02461A600F4800232A4607F13801FF
:1078500015F000F90D4B186007F59A77BD46BDECA1
:10786000028BBDE8F08F00BF806800208468002094
:10787000F46600206464002010600020D06C0020BA
:10788000C9620200B06E0020F0700020F870002085
:1078900014F00F0818BF4FF0010808EB1418DFF8B8
:1078A00004A308F1020C6946A1EB0C116B464FF0E2
:1078B000000B8D464FEA0C15DAF80020C7F814B01B
:1078C00007F1080108EE103A07F12800DAF80C3049
:1078D000C7E9015BC7E903BBC7E90ABBC7E90CBB42
:1078E000FEF78AFE07F1080CBCE80F00009001913A
:1078F00002920393DAF80020DAF80C309C48C7F8BB
:1079000008B007F10801C7E903BBC7F814B0FEF7D8
:1079100073FE07F1080CBCE80F00E94604900591DE
:1079200006920793B8F1000F00F0A480D84697F8AC
:1079300004B02025A5F12003DBB29C4288BF337838
:10794000C7E9068888BF3B76A5F11F03DBB2A342D7
:107950003CBF73787B76A5F11E03DBB2A3423CBF2C
:10796000B378BB76A5F11D03DBB2A3423CBFF3782D
:10797000FB76A5F11C03DBB2A3423CBF33793B7716
:10798000A5F11B03DBB2A3423CBF73797B77A5F162
:107990001A03DBB2A3423CBFB379BB77A5F119034D
:1079A000DBB2A3423CBFF379FB77A5F11803DBB24E
:1079B000A34238BF337AC7E9088838BF87F8203038
:1079C000A5F11703DBB2A3423CBF737A87F82130DD
:1079D000A5F11603DBB2A3423CBFB37A87F822308D
:1079E000A5F11503DBB2A3423CBFF37A87F823303D
:1079F000A5F11403DBB2A3423CBF337B87F82430EC
:107A0000A5F11303DBB29C4284BF737B87F825305A
:107A1000A5F11203DBB29C4284BFB37B87F826300A
:107A2000A5F11103DBB29C4284BFF37B87F82730BA
:107A3000DAF80020DAF80C30C7F8088007F10801FE
:107A400007F11800C7E90388C7F81480FEF7D4FDD2
:107A5000BB6849F80530D7E9030109EB0503103588
:107A6000EDB27A695860AB4506F110069960DA60AC
:107A70007FF460AF7B68B3F5807F65D0980807F12D
:107A80003E020023013359F8041B42F8041B9842BC
:107A9000F8D8384B384A1B7800211160002B41D1AF
:107AA00036493748042215F029FC17F079FF354B89
:107AB00002461A607A68324807F13801063200231C
:107AC00014F0C8FF304B186018EE103A07F59A779B
:107AD0009D46BD46BDEC028BBDE8F08F2B4A2C4B7A
:107AE0001278274803EB820393ED000A12F03AFF65
:107AF000044628B927492248042215F015FC98E6C7
:107B00002549264816F0CEFB84EAE473A3EBE47320
:107B1000234922489BB203EB430301EB830116F098
:107B20001DFCE7E7194A1A4B1278154803EB82034C
:107B300093ED000A12F016FF044630B915491048BB
:107B4000042215F0F1FBABE7FEE71349134816F0EA
:107B5000A9FB84EAE473A3EBE47311490F489BB2D9
:107B600003EB430301EB830116F0F8FBE6E700BFEC
:107B70006464002010600020D06C0020C962020004
:107B8000B06E0020F0700020F87000201860002017
:107B9000E4EA0400E162020074E40400A881002029
:107BA000146A0020B464002030B583B017F0F8FEEA
:107BB000264B274C1A6890422ED82378CBB1254B00
:107BC000254D1A78BAB1197801F0FF02D9B92349C5
:107BD00022702A701A700B78002B30D02049214B6C
:107BE0000968214A009119781278204B2048FFF744
:107BF000A1FD03B030BD2A78002AFAD0197801F02F
:107C0000FF020029E3D01B4800222A701A7003B03B
:107C1000BDE8304014F07CBC0122227016491548A2
:107C20004FF0FF3504221D6015F068FB1349114821
:107C3000042215F079FB0F4814F06AFCBDE71048E8
:107C4000F72103B0BDE83040FFF71CBD9460002071
:107C5000AD6E0020F2660020E8700020FD6F00206D
:107C6000A86E0020D96C0020D86C0020DC6C0020AD
:107C7000E06C0020B06E0020ED620200F9620200AC
:107C8000B06D00202DE9F0432DED028BD31DC5B062
:107C900003F4FC7302AFADEB030D0DF108080C46C5
:107CA000064600214046154621F00EFFAE4907F179
:107CB0000C0017F015FCAD4920460A2222F03CFECC
:107CC000002862D0AA490822204622F035FE58B387
:107CD000A8490622204622F02FFE002875D1A64B87
:107CE0001B78002B00F02981012B00F00682022B6B
:107CF00000F00C824FF0804357210022C3F81C157E
:107D0000012300929D499E484FF480621BF026F8A3
:107D10009C4B1B78013B012B07F1FC0419D8012176
:107D200003201BF0C1FB14E007F1FC04964907F1A6
:107D30000C0017F0DDFC00230093904990480123CC
:107D40004FF480621BF00AF88E4B1B78013B012B2D
:107D5000E5D907F10C01204617F0DCFB8B492046E2
:107D600017F03EFD0146304617F0D4FB204617F0D1
:107D700091FC07F10C0017F08DFC304607F5867773
:107D8000BD46BDEC028BBDE8F08307F1FC048049E1
:107D9000204617F0A5FB7F4B07F1F00093ED000A9A
:107DA000022117F039FC07F1F001204617F0ECFC36
:107DB000014607F10C0017F075FC07F1F00017F011
:107DC00069FC204617F066FCBEE773490B2220468B
:107DD00022F0B2FD50BBADB1014642F2014E631834
:107DE00001309B7A0D2BC2B22EFA03FC02D81CF094
:107DF000010F05D101F1010C08F801305FFA8CF197
:107E00009542ECD807F1FC044146204617F068FB88
:107E1000204617F095FD0546204617F03BFC002D47
:107E200000F094805D4802F0EFFE7FE75C490A2293
:107E3000204622F081FD002800F08E805949092259
:107E4000204622F079FD002800F0E2805649082201
:107E5000204622F071FD00287ED054490C22204695
:107E600022F06AFD002840F06081ADB1014642F287
:107E7000014E631801301B7B0D2BC2B22EFA03FC9E
:107E800002D81CF0010F05D101F1010C08F80130F6
:107E90005FFA8CF19542ECD807F1FC04414620468C
:107EA00017F01EFB204617F04BFD0546204617F045
:107EB000F1FBEBB2052B00F27F813D4A3D493E4884
:107EC0003E4D30F81300ED5C02EB83024FF0DD0C09
:107ED00012680A603A4A3B491080C85C3A493B4AFA
:107EE00008703B4915703B4A3B4D0D603B4B3C488D
:107EF0003C4980F800C00125157040221A70062008
:107F0000394A0870394B254814211170002238492C
:107F10001A7002F021FF364936482A4603F0DAF893
:107F2000002840F04681344B1B78002B3FF4FEAE16
:107F30003249334816F058FAF8E61349304816F03B
:107F400053FA30492E4816F04FFAD3E62E4907F17E
:107F50000C0017F0CDFBF7E62C4907F10C0017F0E9
:107F6000C7FB07F1FC04EFE6B0FB0400B0E404003B
:107F7000C8E40400DCE40400AC6E0020199A02009E
:107F8000489C00201C600020D4E40400FCE80400AD
:107F9000BCE40400A0600020F4E4040000710020B0
:107FA0001CE5040044E504008CE5040098E50400A9
:107FB0006860002008600020846000209860002035
:107FC0001A6000207C6000200C60002020600020EF
:107FD000146000201060002000C06444186000207D
:107FE000216000201E6000201F60002042640020ED
:107FF000D8E10400746B0020F0660020E0E104008A
:10800000A8810020E4E4040000E5040028E5040061
:10801000ADB1014642F2014E631801305B7A0D2B7F
:10802000C2B22EFA03FC02D81CF0010F05D101F1F7
:10803000010C08F801305FFA8CF19542ECD807F199
:10804000FC044146204617F04BFA204617F078FC16
:108050000546204617F01EFB002D60D0AD480021DC
:108060000DF0F0FCAC4810F023FC1FFA80F8B8F1DA
:10807000000F0AD00025DFF8A092294601354846B6
:1080800010F034FCA9B28845F8D8A2480DF0B8FD2C
:10809000A24813F065FE062503201BF045FA642074
:1080A00017F08AFC6B1E13F0FF05F5D19C4B1B7873
:1080B000002B00F08780012B00F0B980022B7FF4A9
:1080C00043AE294603207B601BF0EEF97B6829460E
:1080D00018461BF0E9F99349934816F085F9FA2000
:1080E00017F06AFC052104201BF05AF928460421E8
:1080F0001BF056F9FEF7E6F826E68A498B4816F09B
:1081000073F98B49894816F06FF9F3E5854986487C
:1081100016F06AF98649844816F066F9EAE5854959
:1081200007F10C0017F0E4FA0EE683490B22204613
:1081300022F002FC00283FF40FAF804908222046BD
:1081400022F0FAFB002843D1B5B10022104642F2DA
:10815000014E231801321B7A0D2BD1B22EFA03FCEB
:1081600002D81CF0010F05D100F1010C08F8003015
:108170005FFA8CF08D42ECD807F1FC0441462046B2
:1081800017F0AEF9204617F0DBFB6D4A031E18BF4F
:1081900001232046137017F07DFA6A496A4802F0FD
:1081A000DBFD68496948012202F094FF00283FF492
:1081B000BAAEFEF7F7F8B9E5654907F10C0017F01C
:1081C00097FAC1E5634907F10C0017F091FABBE596
:1081D00061490722204622F0AFFB002861D05F49A9
:1081E0000822204622F0A8FB60BB002D67D0034682
:1081F00042F2014E22180133127A0D2AD9B22EFA18
:1082000002FC02D81CF0010F05D100F1010C08F8A6
:1082100000205FFA8CF08D42ECD820284FD95049CD
:1082200007F10C0017F064FA07F1FC048CE529460D
:1082300003201BF039F9294602201BF035F9394992
:108240003A484AE707224749204622F075FB024692
:1082500000284FD044490922204622F06DFB002817
:1082600040F0AE80002D00F083800346014642F2CC
:10827000014C62180133527A0D2AD8B22CFA02FE50
:1082800002D81EF0010F05D101F1010E08F80120FE
:108290005FFA8EF18542ECD8102969D907F1FC0408
:1082A00052E507F1FC042549204617F019F9244B43
:1082B00007F1F00019780A2217F07AF973E52B49D3
:1082C000214802F049FD29492048012202F002FF1D
:1082D00000286DD01D48414616F012F81B4802F0E8
:1082E000B3FF104907F10C0017F002FA00230093C6
:1082F000012307E51D49154807F1FC0402F0EAFED9
:108300001649204617F0ECF8104907F1F00016F076
:10831000E9F948E524950020E48E0020B06E0020A5
:10832000AC6E0020D4E40400146600208097002086
:10833000E4E4040070E50400C4E50400D0E50400B2
:1083400005600020D8E1040000710020746B00205B
:10835000A8E5040050E50400DCE50400E4E50400C1
:108360000CE6040038E6040040E6040044E404009F
:10837000BE49BF4802F0F0FCBC49BE48012202F0F1
:10838000A9FEA8B1BC49BB4815F0BAFFB94841469F
:1083900015F0B6FFB74802F057FFB849B44802F0ED
:1083A000DBFCB649B348012202F094FE002891D1CB
:1083B000B34907F10C0017F09BF907F1FC04C3E483
:1083C000B0490822204622F0B7FA00283FF466AFF1
:1083D000AD490722204622F0AFFA10BBCDB10346CB
:1083E000024642F20140A1180133C9790D295FFA12
:1083F00083FC20FA01FE02D81EF0010F05D102F124
:10840000010E08F802105FFA8EF26545EBD8062AD5
:108410005CD09E4907F10C0017F06AF907F1FC04E3
:1084200092E406229A49204622F086FA0246002863
:1084300000F0A28097490822204622F07DFA002809
:1084400057D10346024642F201400EE0097A0D2957
:1084500020FA01FC02D81CF0010F05D102F1010C39
:1084600008F802105FFA8CF201335FFA83FC65456D
:1084700004EB0201EAD807F1FC044146204617F05C
:108480002FF8204617F05CFA0546204617F002F94F
:10849000102D28DC4146204617F022F8204617F020
:1084A0004FFA7D4D034620462B7017F0F3F8FEF788
:1084B0000BF92A78794B7A4853F8221016F012FCFF
:1084C000784907F10C0017F013F93DE47649684844
:1084D00002F042FC74496748012202F0FBFD0028CB
:1084E0003FF466AFF6E6714907F10C0017F000F9AA
:1084F0002AE46F490722204622F01EFA002801F0E4
:1085000099816C490922204622F016FA002843D1AD
:108510000022134642F201400EE0497A0D2920FA6A
:1085200001FC02D81CF0010F05D103F1010C08F881
:1085300003105FFA8CF301325FFA82FC654504EBAD
:108540000301EAD807F1FC044146204616F0C8FFB3
:10855000204617F0F5F9584A031E18BF012320469C
:10856000137017F097F8FEF7AFF84E4907F10C00BB
:1085700017F0BEF8FFF7E8BB4B493E4807F1FC0493
:1085800002F0A8FD4049204616F0AAFF394907F13C
:10859000F00016F0A7F806E448490822204622F029
:1085A000CBF9002801F04F8145490822204622F0EE
:1085B000C3F9002846D10346024642F201400EE0CC
:1085C000097A0D2920FA01FC02D81CF0010F05D10F
:1085D00002F1010C08F802105FFA8CF201335FFA25
:1085E00083FC654504EB0201EAD807F1FC0441462F
:1085F000204616F075FF204617F0A2F905462046E2
:1086000017F048F8002D01F047812E4B2E481978BD
:1086100015F0F0FB0546002841F024812B4A2C4B35
:1086200010782C492C4A03EB80031868086001235A
:108630001370FEF749F81B4907F10C0017F058F8C2
:10864000FFF782BB25490722204622F075F9002852
:108650006BD023490622204622F06EF9002873D100
:108660000346024642F201404BE000BF44E40400EE
:1086700000710020746B00204CE604004CE4040000
:10868000F0E5040058E6040064E604006CE604002B
:108690008CE6040094E604000460002024600020BE
:1086A00080970020D4E40400F0E30400A0E6040076
:1086B000B8E60400C0E6040041640020CCE60400F3
:1086C000D8E604001A600020B06E00201860002078
:1086D000E4EA04001460002010600020F0E60400CA
:1086E000F8E6040089790D2920FA01FC02D81CF073
:1086F000010F05D102F1010C08F802105FFA8CF2AB
:1087000001335FFA83FC654504EB0201EAD807F107
:10871000FC044146204616F0E3FE204617F010F90F
:10872000D04B024620461A701BE707F1FC04CE49E5
:10873000204616F0D5FECD4B07F1F00019780A223D
:1087400016F036FFFFF72FBBC9490522204622F05D
:10875000F3F8002844D0C7490822204622F0ECF85C
:1087600000284CD10346024642F201400EE0097A4D
:108770000D2920FA01FC02D81CF0010F05D102F1ED
:10878000010C08F802105FFA8CF201335FFA83FCE7
:10879000654504EB0201EAD8B44B1B78002B7BD172
:1087A00007F1FC044146204616F09AFE204617F0D9
:1087B000CDF82046B0EE408A16F06CFFAE48B0EE21
:1087C000480A12F0CFF80546002833D1AB4BAC492C
:1087D00083ED008A07F10C0016F08AFFFFF7B4BAA8
:1087E00007F1FC04A749204616F07AFE9D4B197844
:1087F00007F1F0000A2216F0A7FEFFF7D4BAA2494B
:108800000722204622F098F800284ED1974B1B787B
:10881000002B41D107F1FC049649204616F060FE7A
:10882000964B07F1F00093ED000A022116F0F4FEDA
:10883000FFF7B9BA954907F1F00016F051FE85EA45
:10884000E573934AA3EBE5739BB20C2101FB032173
:1088500007F1F00016F098FF8E4916F0C1FF41466F
:108860000546204616F03CFE204617F069F8014602
:10887000284617F013F8884916F0B2FF014607F1B1
:108880000C0016F00FFF204616F004FF07F1F00071
:1088900016F000FFFFF758BA804907F10C0016F0F8
:1088A00027FF07F1FC04FFF74FBA7D490622204657
:1088B00022F042F800283ED10346024642F201402F
:1088C0000EE089790D2920FA01FC02D81CF0010F75
:1088D00005D102F1010C08F802105FFA8CF20133A5
:1088E0005FFA83FC654504EB0201EAD807F1FC045A
:1088F0004146204616F0F4FD204617F021F8804648
:10890000204616F0C7FE5C485FFA88F115F072FA4F
:108910000546002840F0A687544A624B0121117099
:10892000A3F80080FDF7D0FE554907F10C0016F0C2
:10893000DFFEFFF709BA5C490522204621F0FCFF63
:10894000002800F0378759490622204621F0F4FF1D
:1089500000283CD10022134642F201400EE0897902
:108960000D2920FA01FC02D81CF0010F05D103F1FA
:10897000010C08F803105FFA8CF301325FFA82FCF5
:10898000654504EB0301EAD807F1FC0441462046A3
:1089900016F0A6FD204616F0D9FF2046B0EE408A1C
:1089A00016F078FE3448B0EE480A12F035FC054661
:1089B00000287FF43FAF3E4B83ED008AFDF784FE35
:1089C0002F4907F10C0016F093FEFFF7BDB93949A6
:1089D0000522204621F0B0FF002800F0DB86364952
:1089E0000622204621F0A8FF002869D1034602464E
:1089F00042F201400EE089790D2920FA01FC02D8EB
:108A00001CF0010F05D102F1010C08F802105FFA09
:108A10008CF201335FFA83FC654504EB0201EAD86E
:108A200007F1FC044146204616F05AFD204616F098
:108A300087FF5FFA80F8204616F02CFE0E4841466C
:108A400012F0BCFE0546002840F00C871B4B83F853
:108A50000080FDF739FE0A4907F10C0016F048FEC8
:108A6000FFF772B918600020D8E6040010600020FB
:108A700000E7040008E70400B06E00201460002046
:108A8000D4E40400F8E6040040E70400E4E604004F
:108A9000146A002038E704003CE7040014E70400EF
:108AA00048E704001A60002050E7040058E704007B
:108AB0000860002060E7040068E7040020600020F0
:108AC000BA490522204621F037FF002846D0B84990
:108AD0000722204621F030FF002847D103460246F6
:108AE00042F201400EE0C9790D2920FA01FC02D8BA
:108AF0001CF0010F05D102F1010C08F802105FFA19
:108B00008CF201335FFA83FC654504EB0201EAD87D
:108B100007F1FC044146204616F0E2FC204616F020
:108B20000FFFB0F1000918BF4FF00109204616F001
:108B3000B1FDA0484946002212F06AFD0546002812
:108B40007FF478AE9C4B83F80090FDF7BDFD9B4908
:108B500007F10C0016F0CCFDFFF7F6B807F1FC04A6
:108B60009749204616F0BCFC964B40E696490622F3
:108B7000204621F0E1FEC0B394490622204621F0B0
:108B8000DBFE002840D10346024642F201400EE0DF
:108B900089790D2920FA01FC02D81CF0010F05D1BA
:108BA00002F1010C08F802105FFA8CF201335FFA4F
:108BB00083FC654504EB0201EAD807F1FC04414659
:108BC000204616F08DFC204616F0BAFE5FFA80F9BA
:108BD000204616F05FFD7748494612F053FC0546E3
:108BE00000287FF427AE7A4BADE707F1FC0470490B
:108BF000204616F075FC704B07F1F00019780A2238
:108C000016F0D6FCFFF7CFB872490522204621F0B6
:108C100093FEB8B370490622204621F08DFEC8BBF2
:108C20000346024642F201405FFA83FC654504EBCD
:108C300002010FD989790D2920FA01FC02D81CF014
:108C4000010F05D102F1010C08F802105FFA8CF255
:108C50000133E9E707F1FC044146204616F040FCE9
:108C6000204616F06DFE5FFA80F8204616F012FDE1
:108C70005048414614F072FB0546002840F0F2854A
:108C8000564BE4E607F1FC045049204616F028FC58
:108C90004F4BACE552490522204621F04DFEB0B3C2
:108CA00050490722204621F047FEC0BB0022134650
:108CB00042F201405FFA82FC654504EB03010FD9E3
:108CC000C9790D2920FA01FC02D81CF0010F05D149
:108CD00003F1010C08F803105FFA8CF30132E9E7A5
:108CE00007F1FC044146204616F0FAFB204616F038
:108CF00027FE8146204616F0CDFC2E48494613F04B
:108D00006BF8054600287FF495AD374B1BE707F15C
:108D1000FC043149204616F0E3FB304B67E533494C
:108D20000622204621F008FEC0B331490722204622
:108D300021F002FE00285FD10346024642F20140C4
:108D40005FFA83FC654504EB02010FD9C9790D294F
:108D500020FA01FC02D81CF0010F05D102F1010C30
:108D600008F802105FFA8CF20133E9E707F1FC041E
:108D70004146204616F0B4FB204616F0E1FD814640
:108D8000204616F087FC0B484FFA89F112F0C6F91D
:108D9000054600287FF44EAD164BD4E607F1FC04DF
:108DA0001049204616F09CFB0F4B20E570E70400AD
:108DB00078E70400B06E002040640020D4E4040092
:108DC00068E704002060002080E7040088E70400D2
:108DD0000C60002090E7040098E704002160002068
:108DE000A0E70400A8E704001E600020B0E704002C
:108DF000B8E704001F600020BE490622204621F08B
:108E00009BFDB8B3BC490822204621F095FDC8BBA4
:108E10000346024642F201405FFA83FC654504EBDB
:108E200002010FD9097A0D2920FA01FC02D81CF0A1
:108E3000010F05D102F1010C08F802105FFA8CF263
:108E40000133E9E707F1FC044146204616F048FBF0
:108E5000204616F075FD5FFA80F9204616F01AFCE0
:108E6000A648494612F03EFB054600287FF4E2ACD6
:108E7000A34B68E607F1FC04A249204616F030FB3C
:108E8000A14BB4E4A1490722204621F055FD80B34F
:108E90009F490822204621F04FFD90BB0346024621
:108EA00042F201405FFA83FC654504EB02010FD9F1
:108EB000097A0D2920FA01FC02D81CF0010F05D116
:108EC00002F1010C08F802105FFA8CF20133E9E7B5
:108ED00007F1FC044146204616F002FB204616F03E
:108EE0002FFD8C4A031E18BF012320461370FFF785
:108EF00038BB07F1FC048049204616F0F1FA804B9C
:108F000075E485490722204621F016FDB0B3834958
:108F10000722204621F010FD00283ED103460246DC
:108F200042F201405FFA83FC654504EB02010FD970
:108F3000C9790D2920FA01FC02D81CF0010F05D1D6
:108F400002F1010C08F802105FFA8CF20133E9E734
:108F500007F1FC044146204616F0C2FA204616F0FE
:108F6000EFFCC5B2204616F095FB032D00F21482EB
:108F70006B4B1D70FDF7A8FBFEF7D8BE07F1FC0494
:108F80006349204616F0ACFA624B07F1F0001978FD
:108F90000A2216F00DFBFEF706BF624906222046A4
:108FA00021F0CAFC002800F0FE815F490C22204617
:108FB00021F0C2FC50BB0022134642F201405FFA8E
:108FC00082FC654504EB03010FD9097B0D2920FACA
:108FD00001FC02D81CF0010F05D103F1010C08F8C7
:108FE00003105FFA8CF30132E9E707F1FC04414614
:108FF000204616F075FA204616F0A2FC4B4A031ED6
:1090000018BF012320461370FFF7ABBA48490B2263
:10901000204621F091FC002800F0A88145490B2250
:10902000204621F089FC50BB0346024642F2014033
:109030005FFA83FC654504EB02010FD9C97A0D295B
:1090400020FA01FC02D81CF0010F05D102F1010C3D
:1090500008F802105FFA8CF20133E9E707F1FC042B
:109060004146204616F03CFA204616F069FC324A8A
:10907000031E18BF012320461370FFF772BA2F4951
:109080000A22204621F058FC28B32D490822204608
:1090900021F052FC002855D10346024642F201401D
:1090A0005FFA83FC654504EB02010FD9097A0D29AB
:1090B00020FA01FC02D81CF0010F05D102F1010CCD
:1090C00008F802105FFA8CF20133E9E7102A3FF644
:1090D000E5A8FFF762B907F1FC041649204616F02F
:1090E000FFF9154B07F1F00019780A2216F060FA23
:1090F000FEF759BEC0E70400C8E70400B06E0020C8
:1091000042640020B8E704001F600020D4E7040098
:10911000DCE704000E600020E8E70400F0E704004C
:109120001C60002018E8040020E804000D60002006
:1091300030E804003CE804000F60002048E8040028
:1091400054E804000722A149204621F0F5FB02461D
:10915000002845D09E490B22204621F0EDFB002837
:1091600063D10346024642F201405FFA83FC654543
:1091700004EB02010FD9C97A0D2920FA01FC02D8AB
:109180001CF0010F05D102F1010C08F802105FFA82
:109190008CF20133E9E7402A3FF680A88D498E48DA
:1091A00001F0DAFD402200218C4820F08DFC2A4697
:1091B00041468A4820F060FC86498948012201F036
:1091C00089FF002800F0DD824146854815F098F8B7
:1091D000834802F039F84046FDF79CFAFFF781B862
:1091E00080497F4801F076FF07F1FC047E49204664
:1091F00016F076F907F1F000794915F073FA07F1E6
:10920000F001204616F0C0FA014607F10C0016F0F6
:1092100049FA07F1F00016F03DFA204616F03AFA46
:109220006F4802F011F8FEF78FBD0A226F49204601
:1092300021F082FB0246002800F0BE8009226C4922
:10924000204621F079FB0246002800F0FD806949A4
:109250000622204621F070FB00284BD1664B1B787C
:10926000002B42D0012B03D16449654815F048F822
:10927000644812F075FD03201AF034F90121054607
:1092800003201AF08DF83C2403201AF04DF9013C1C
:109290004FF4FA7016F090FB14F0FF04F4D1291E7D
:1092A00018BF012103201AF0FFF8574B574A1B78CB
:1092B000146073B1564A574B1278524803EB82033D
:1092C00093ED000A11F04EFB53494E48042214F06E
:1092D0002BF852494B48042214F010F8494813F077
:1092E000C9FA07F1FC04FEF72FBD44494C4815F0BC
:1092F00007F8BDE74B490B22204621F01DFB30BB90
:109300000022134642F201405FFA82FC654504EBFD
:1093100003010FD9C97A0D2920FA01FC02D81CF0EB
:10932000010F05D103F1010C08F803105FFA8CF36B
:109330000132E9E707F1FC044146204616F0D0F877
:10934000204616F0FDFA384B0246FFF7EBB93749D5
:1093500020460A2221F0F0FAB8B907F1FC0431499D
:10936000204616F0BDF8304BFFF741BA07F1FC0478
:109370002F49204616F0B4F82E4B07F1F00019786B
:109380000A2216F015F9FEF70EBD2B4907F10C0065
:1093900016F0AEF9FEF782BF284907F10C0016F06F
:1093A000A7F9FEF7D1BC07F1FC042549204616F0C9
:1093B00097F8244BFFF71BBA0649094807F1FC044C
:1093C00001F088FE0249204612E700BF60E8040071
:1093D00068E8040060E40400007100207464002068
:1093E000746B00204CE4040054E8040090E804008E
:1093F0009CE80400B4E80400AC6E0020D4E404004F
:1094000080970020B06E002010600020D06C0020FB
:1094100018600020E4EA0400E1620200D562020064
:10942000A8810020BCE804001D600020C8E80400FA
:1094300020E804000D600020D4E80400F8E70400F0
:10944000F0E704001C6000207860E249E24801F087
:1094500041FEE14907F1180015F044F9DE4801F03A
:10946000F3FE7A68DD49DC4801F034FEDA4907F1A1
:10947000240015F037F9D84801F0E6FE7A68D8499B
:10948000D54801F027FED44907F1300015F02AF93C
:10949000D14801F0D9FE7A68D249CF4801F01AFECE
:1094A000CD4907F13C0015F01DF9CB4801F0CCFE89
:1094B000CD4907F1480016F013F807F1180107F13C
:1094C000480016F061F92C2116F0BAF9C74B044692
:1094D00093ED000A07F15400022116F09DF807F100
:1094E0005401204616F050F92C2116F0A9F9C04B72
:1094F0000A221978044607F1600016F059F807F1BE
:109500006001204616F040F92C2116F099F9B94B6C
:109510000A221978044607F16C0016F015F807F1D5
:109520006C01204616F030F92C2116F089F9B24B67
:10953000044693ED000A07F17800022116F06CF85A
:1095400007F17801204616F01FF92C2116F078F962
:10955000AA4B0A221988044607F1840016F028F85D
:1095600007F18401204616F00FF92C2116F068F956
:10957000A34B044693ED000A07F19000022116F078
:109580004BF807F19001204616F0FEF82C2116F05A
:1095900057F99C4B0A221978044607F19C0015F0F4
:1095A000D3FF07F19C01204616F0EEF82C2116F0AF
:1095B00047F9954B0A221978044607F1A80015F0DF
:1095C000C3FF07F1A801204616F0DEF82C2116F0A3
:1095D00037F98E4B0A221978044607F1B40015F0CA
:1095E000B3FF07F1B401204616F0CEF82C2116F097
:1095F00027F9874B0A221978044607F1C00015F0B5
:10960000A3FF07F1C001204616F0BEF82C2116F08A
:1096100017F9804B0A221978044607F1CC0015F09F
:1096200093FF07F1CC01204616F0AEF82C2116F07E
:1096300007F9794B0A221978044607F1D80015F08A
:1096400083FF07F1D801204616F09EF82C2116F072
:10965000F7F8724B0A221978044607F1E40015F076
:10966000A7FF07F1E401204616F08EF82C2116F032
:10967000E7F86B4B0A221978044607F1F00015F061
:1096800063FF07F1F001204616F07EF82C2116F05A
:10969000D7F807F1240116F077F82C2116F0D0F84E
:1096A00007F1300116F070F82C2116F0C9F807F117
:1096B0003C0116F069F82C2116F0C2F8594B07F15D
:1096C000FC0419780A220546204615F03DFF214684
:1096D000284616F059F8014607F10C0015F0E2FF94
:1096E000204615F0D7FF07F1F00015F0D3FF07F182
:1096F000E40015F0CFFF07F1D80015F0CBFF07F11C
:10970000CC0015F0C7FF07F1C00015F0C3FF07F14B
:10971000B40015F0BFFF07F1A80015F0BBFF07F17B
:109720009C0015F0B7FF07F1900015F0B3FF07F1AB
:10973000840015F0AFFF07F1780015F0ABFF07F1DB
:109740006C0015F0A7FF07F1600015F0A3FF07F10B
:10975000540015F09FFF07F1480015F09BFF07F13B
:109760003C0015F097FF07F1300015F093FF07F16B
:10977000240015F08FFF07F1180015F08BFFFEF79E
:10978000E3BA294907F10C0015F0B2FF07F1FC0418
:10979000FEF7DABA07F1FC042449204615F0A0FED2
:1097A000174B07F1F00093ED000A022115F034FF8A
:1097B000FEF7F9BA07F1FC041D49204615F090FEAA
:1097C0000E4B07F1F00019880A2215F0F1FEFEF7A2
:1097D000EABA00BF44E40400746B00204CE40400C7
:1097E00060E40400F0E30400A8E80400A0600020A6
:1097F0001060002018600020146000201A60002013
:1098000008600020206000200C6000202160002003
:109810001E6000201F600020426400204064002081
:109820001C6000201D60002074E8040058E704005C
:1098300048E7040007F1FC041D49204615F050FEDE
:109840001C4BFEF7D4BF07F1FC041B49204615F062
:1098500047FE1A4B07F1F00019780A2215F0A8FE0E
:10986000FEF7A1BA1649204615F03AFE85EAE573DF
:10987000144AA3EBE5739BB20C2101FB03212046A4
:1098800015F082FF014607F10C0015F00BFF204692
:1098900015F000FFFEF758BA0B4B1D70FCF714FFD4
:1098A0000A4907F10C0015F023FF0095FEF745BAB1
:1098B00094E6040004600020C0E604004164002037
:1098C000E4E60400146A002010600020D4E40400E0
:1098D00038B5164B1B7804460D4673B9144B1B78EC
:1098E00023B1012B1AD0022B11D038BD0A46BDE896
:1098F000384001460F4807F089B90A4601460D482D
:1099000007F084F90C482A46214615F0C1F9214692
:109910000A48BDE83840F7220FF0E6BC0A46BDE829
:1099200038400146044815F0B3B900BF0E6000206E
:10993000AC6E0020A881002080970020FC650020EC
:1099400010B5074B044640F8183B0CF05BFA204674
:10995000044B40F8083B0EF063FA204610BD00BFF0
:1099600054F20400C0F1040010B5044B044640F862
:10997000083B0EF055FA204610BD00BFC0F10400B0
:1099800010B5074B044640F8183B0CF03BFA204654
:10999000044B40F8083B0EF043FA204610BD00BFD0
:1099A000A8F20400C0F1040038B5164B1B78044639
:1099B0000D4673B9144B1B7823B1012B1AD0022B1F
:1099C00011D038BD0A46BDE8384001460F4807F0BF
:1099D0001DB90A4601460D4807F018F90C482A46F9
:1099E000214615F055F921460A48BDE83840F722CE
:1099F0000FF0F0BA0A46BDE838400146044815F0B9
:109A000047B900BF0E600020AC6E0020A881002086
:109A1000809700201466002000B5174B0FCB85B04F
:109A20006C4607C40D2168462380FFF7BDFFFA206E
:109A300015F0C2FF114B124819880EF057FF11485C
:109A400007F0D6F8104815F0E9F80E4807F0CAF903
:109A50000D4815F083F80D4801F0BEF8BFF34F8FA5
:109A60000B490C4BCA6802F4E0621343CB60BFF3AE
:109A70004F8F00BFFDE700BFF0E80400D86B002067
:109A8000E48E0020A8810020809700200071002033
:109A900000ED00E00400FA052DE9F041C148F6B000
:109AA00007F06AF890B9C04815F0A2F8002857D11D
:109AB000BE480FF0EFF9002840F09C80BC4B1B78AB
:109AC000002B40F0E98076B0BDE8F08138AEF72297
:109AD000002130461FF0F8FFB24DB64B0024642041
:109AE0001C7015F069FF284607F046F8D022C3B273
:109AF000934204AF28BF13462146384698461FF0CC
:109B0000E3FF3946D022284614F0CAFD01E007F0F1
:109B100059F8284607F030F804462846002CF6D1BC
:109B20003A8845F241439A4200F0DE81A24B1B780D
:109B3000002B40F09381A14B1B78002B40F0588103
:109B400041463846FDF79EFD304620F0EDFEC1B29D
:109B50003046FFF729FF944815F04AF80028A7D0AF
:109B600038AE00213046F7221FF0AEFF8E4D914BEC
:109B7000012264201A7015F01FFF284615F038F8EE
:109B8000D022C3B2934204AF28BF13463846002107
:109B900098461FF099FF3946D022284614F080FDE0
:109BA00001E015F02DF8284615F022F80446284665
:109BB000002CF6D13A8845F241439A4200F0818167
:109BC0007D4B1B78002B40F06B817C4B1B78002B6E
:109BD0007CD141463846FDF755FD304620F0A4FEC5
:109BE000C1B23046FFF7E0FE70480FF053F900288D
:109BF0003FF464AF38AD0021F72228461FF064FF20
:109C00006A4E6C4B022240F2E2401A7015F0D4FE0C
:109C100030460FF03FF904AF5FFA80F8D02290454C
:109C200038464FF0000128BF90461FF04DFF3C46DC
:109C300030460FF07FF9C0B2FF2818BF2070013402
:109C4000A542F5D1594E01E00FF074F930460FF0FE
:109C500021F904463046002CF6D13A8845F24143BA
:109C60009A4200F05481544B1B78002B40F007813E
:109C7000524B1B78002B5FD141463846FDF702FD61
:109C8000284620F051FEC1B22846FFF78DFE484B12
:109C90001B78002B3FF417AF494C15F081FE22686A
:109CA00042F20F73801A98427FF60DAF454A464B39
:109CB0001278464803EB820393ED000A10F052FE3F
:109CC00015F06EFE206076B0BDE8F081404B3F4855
:109CD00001221A7012F0E8F903463C488DF804306E
:109CE00012F0E2F9034639488DF8053012F0DCF93C
:109CF000034636488DF8063012F0D6F9354B8DF80C
:109D0000070093F8008015F04BFE044615F048FE5E
:109D1000314B02461A603946D02230481FF0ACFE63
:109D20002F4A30483049314B019D82F80080002293
:109D300005600C601A7050E7254B244801221A7008
:109D400012F0B2F9034621488DF8043012F0ACF954
:109D500003461E488DF8053012F0A6F903461B484D
:109D60008DF8063012F0A0F91A4B8DF8070093F821
:109D7000008015F015FE044615F012FE164B024643
:109D80001A603946D02215481FF076FE144A15484D
:109D90001549164B019E82F80080002206600C6077
:109DA0001A706DE7A881002080970020FC650020D4
:109DB00010600020AC6E0020416400200D60002087
:109DC000D46C002018600020E4EA0400B06E00208B
:109DD000FD6F00200F60002094600020E06C0020E8
:109DE000D96C0020DC6C0020A86E0020D86C00200C
:109DF000504B514801221A7012F056F903464E4852
:109E00008DF8043012F050F903464B488DF80530B8
:109E100012F04AF9034648488DF8063012F044F92A
:109E2000464B8DF8070093F8008015F0B9FD044605
:109E300015F0B6FD424B02461A603946D022414821
:109E40001FF01AFE404A41484149424B019D82F8A9
:109E50000080002205600C601A7075E6304620F024
:109E600063FD3D4C84460FCC06EB0C0546F80C0018
:109E7000696003CCAA60EB60286169615BE62846F3
:109E800020F052FD344C84460FCC05EB0C0645F80F
:109E90000C00716003CCB260F36030617161E7E681
:109EA000304620F041FD2C4C84460FCC06EB0C05CF
:109EB00046F80C00696003CCAA60EB602861696118
:109EC00083E6BB782B2B7FF47BAE4246394601A854
:109ED000FDF7D8FE01A82346F722314615F016FDFE
:109EE00001A815F0D7FB78E6BB782B2B7FF41EAECC
:109EF0004246394601A8FDF7C5FE01A82346F722D0
:109F0000314615F003FD01A815F0C4FB1CE6BB7833
:109F10002B2B7FF4A8AE4246394601A8FDF7B2FECE
:109F200001A82346F722294615F0F0FC01A815F0F8
:109F3000B1FBA5E6FD6F0020B06E00200F60002091
:109F400094600020E06C0020D96C0020DC6C0020C4
:109F5000A86E0020D86C002004E904002DE9F04F21
:109F6000B44F3B78ADF5677D4FF0000BABB9B24A0B
:109F7000137803F0FF06002B37D1B04A1378002B7B
:109F800040F0E180042019F0ADFA0446002800F00A
:109F900009810DF5677DBDE8F08FA948A94C13F044
:109FA00039FFA94B1B6890FBF3F202FB1303A74A8E
:109FB000A34802EB830393ED000A10F0D3FC23685F
:109FC000012B00F025820133236015F0E9FCA04B42
:109FD00002469B481A6013F027FF0023964A3B7005
:109FE000137803F0FF06002BC7D04FF00008944809
:109FF00082F800802CAD13F017FF4146F722284667
:10A0000087F800801FF060FD4146F7226AA81FF024
:10A010005BFD8B484246294612F034F9002840F097
:10A0200060818C4B1C78002C40F0F580F72229468B
:10A030006AA81FF021FD0DF12009874BD5F8021009
:10A04000D3F8022095F803C0AB78287995F805E09D
:10A05000C9F800209142059102D16A7801326A70F4
:10A06000002C00F028817D4A95F801801F0647EA00
:10A070000C4792F800C047EA0E07E04547EA002780
:10A0800080F00881764B224603F5C87053F8041F10
:10A090008F4208BF00228342F8D1002A00F0FA80E4
:10A0A000002E40F0F7832946F722A8A81FF0E4FC11
:10A0B0006C4B00241C7015F073FC0546604811F0D1
:10A0C000F3FF814615F06CFCDFF8C4C1142212FBCB
:10A0D0000903A8A96048CCF8003008F10108F7226C
:10A0E0008DF8A1821FF0C8FC5F492346284651F82D
:10A0F000042FDCB2904203F1010384BFA346104653
:10A10000642BF4D1594A5A4B42F82B5043F82B7028
:10A110004EB1584B1B7833B14E4B93F80090B9F1C8
:10A12000000F00F02782474C534B1B78002222601F
:10A13000002B40F0CB80424812F09CFB3F4A137842
:10A14000002B3FF41FAF0026167015F029FC4B4A78
:10A150004B4D034607CAA8AF3C4603C43146228094
:10A160000DF2AA20ED222B601FF0AEFC3D4B1B78B8
:10A17000002B40F00881334C3F4B1B7800222260BB
:10A18000002B40F0F0803F492D48042213F0B6F830
:10A190002B4812F06FFB042019F0A4F904460028A4
:10A1A0007FF4F7AE014638480BF04CFC37480EF010
:10A1B0007FFB85B245B1354E2146013430460EF065
:10A1C00095FBA1B2A942F8D32F480BF019FD1C480A
:10A1D00011F0C6FD0624032019F0A6F9013C642005
:10A1E00015F0EAFB14F0FF04F5D12146032019F025
:10A1F000D7F82146022019F0D3F80521042019F0E0
:10A20000CFF82046042119F0CBF8FCF75BF80DF5E8
:10A21000677DBDE8F08F2B78002B40F00281F122A2
:10A220000DF1B6016AA81FF027FC26460DF12009A2
:10A2300003E700BF706B0020FC6F0020FC70002063
:10A24000B06E0020D06C002090600020E4EA040092
:10A25000D46C00200D600020B06D00201D60002037
:10A26000F0660020FD6F00208068002084680020D8
:10A27000F46600204164002010600020ECE9040036
:10A28000F4700020D562020024950020E48E0020A6
:10A2900094600020BCF1000F7FF43AAFA84B03F5A7
:10A2A000C87153F8042F974208BF00249942F8D18F
:10A2B000002C3FF42DAF002E3FF435AF6AA820F0FC
:10A2C00033FBC1B26AA8FFF703FB22E79D4A9E4B0E
:10A2D00012789E4803EB820393ED000A10F042FBD4
:10A2E00029E79B4B9B4C93E80700A8AB03C341466F
:10A2F0001A800DF2AA20ED221FF0E6FB80224146D3
:10A300000CA81FF0E1FB944B94491B68002BB8BFCD
:10A310005B4203EB430301EB830108A815F0FAF855
:10A320008F4908A815F05CFA014605A815F0F2F867
:10A3300008A815F0AFF9079A43460132A8AD0CA959
:10A3400005A815F0E3FA284620F0EEFA0CA92844F7
:10A3500020F0ACFA401BC1B22846FFF725FB05A848
:10A3600015F098F9E0E6774A774B1278774803EBD7
:10A37000820393ED000A10F0F5FA7A49734804223B
:10A3800012F0D2FFFFE6744C802231466AA81FF01B
:10A390009BFB23687149002BB8BF5B4203EB43036F
:10A3A00001EB83012CA815F0B5F86D492CA815F028
:10A3B00017FA0DF130080146404615F0ABF82CA80D
:10A3C00015F068F9D8F80820334601326AA94046EA
:10A3D00015F09CFA384620F0A7FA6AA9384420F014
:10A3E00065FAD4F800900646B9F1000F04D15E4B2F
:10A3F0001B78002B40F09081564C384620F094FAA0
:10A40000C1B23846FFF7D0FA404615F043F9B3E63B
:10A4100015F0C6FA554B564A1B68C01A10602368DF
:10A42000D1E5012B08D0F72229466AA81FF024FBAA
:10A4300026460DF1200900E6CDE900B402460146AA
:10A440002B4610260DF13008A8AF05E00132D2B23C
:10A4500016F0FF0600F0F38106F1020CF01C5FFA23
:10A460008CFCC0B215F80CC015F800E093F80EB0E3
:10A4700093F80A90C8F8001000206CF3070006F16A
:10A48000040C6EF30F205FFA8CFC06F1050E5FFAE8
:10A490008EFE15F80CC015F80EA093F806E0C8F86B
:10A4A00004106CF317406AF31F60AB9093F80FA091
:10A4B000C8F80810002006F1010C6BF307006AF3DE
:10A4C0000F205FFA8CFC15F806A015F80CC0C8F830
:10A4D0000C106AF317404FF0000A69F3070A93F86B
:10A4E0000B906CF31F60002493F80CC0AA906EF3DD
:10A4F0000704587B93F807E069F30F2A6CF3174AB7
:10A5000093F808C060F31F6A6EF30F24587ACDF8F1
:10A51000A4A26CF3174460F31F64A8943868103643
:10A520001033002892D10D9882458FD10E98AA9CA5
:10A5300084428BD10F98AB9C844287D188E700BFBF
:10A54000F066002018600020E4EA0400B06E0020ED
:10A55000ECE90400D06C0020F8700020146A0020A0
:10A56000FCE80400E162020041640020F070002079
:10A57000EC700020A8AFF722494638461FF0A4FA35
:10A58000384620F0D1F9DFF84CC3C84C8646BCE809
:10A590000F000EF101050A2607F80E6078513D44C0
:10A5A000BCF804E0DCF800009CF806C0A5F814E054
:10A5B0000DF1300885F816C0EB606960AA6028616B
:10A5C0004946202240461FF07FFA20683246414625
:10A5D000023017F043FD384620F0A6F941463844D2
:10A5E00020F064F9DFF8F0C20670451C0CF1200E73
:10A5F00066460FCE764528606960AA60EB60B44677
:10A6000005F11005F4D1BCE80300BCF800302B8143
:10A61000286069602022002140461FF055FAA448B6
:10A620000022012110F0E2FFFDEEC07A0A2217EEAF
:10A63000900A414617F012FD384620F075F9414660
:10A64000384420F033F99B4ADFF890C20346106883
:10A6500018601E1D0CF1200E65460FCD754530604B
:10A660007160B260F360AC4606F11006F4D12B794C
:10A670002868337130602022002140461FF024FA00
:10A680008B488D4D11F086FAFDEEC07A0A2217EE46
:10A69000900A414617F0E2FC384620F045F9414661
:10A6A000384420F003F906460FCDA6EB070C0CF159
:10A6B000010C4FF00A0986F8009007EB0C0647F8EA
:10A6C0000C00716003CD2D78F360B2603061716170
:10A6D00020220021404635761FF0F6F9744800210B
:10A6E00012F06EFEFDEEC07A4A4617EE900A414621
:10A6F00017F0B4FC384620F017F94146384420F0F2
:10A70000D5F86E490346C21B033208681860D1B2FF
:10A710003846FFF749F907E5694B6A4ADFF8B4C1E3
:10A72000D3F800B02B68D2F800E00093BCE80F002B
:10A73000F360009BBCF804A03060DE44DCF800004D
:10A7400071605A4C9CF80610B260A3EB0E033061A6
:10A75000A6F814A0B175202249462CA800931FF03A
:10A76000B3F90A222CA92068DFF874B117F076FC3F
:10A77000384620F0D9F82CA9384420F097F8DFF8B3
:10A7800064C18646BCE80F00AEEB070601364FF009
:10A790000A0A8EF800A0B8513E44DCF800009CF88C
:10A7A00004C086F814C07160B2603061F36020228A
:10A7B00049462CA81FF088F9424A28681368424D80
:10A7C0005246C01A2CA917F049FC384620F0ACF8C4
:10A7D0002CA9384420F06AF80646DBF80000306007
:10A7E0000FCDF61B033607EB060CB851CCF804105E
:10A7F000CCF8082007CD2D88CCF81000CCF8141028
:10A80000CCF81820CCF80C30ACF81C50494620226B
:10A810002CA81FF059F9009B2068B3FBF0F05246BA
:10A820002CA917F01BFC384620F07EF82CA93844E0
:10A8300020F03CF80346DBF800001860DDE5023A42
:10A8400012F0FF03DDE900B40DF1200901933FF49C
:10A85000F4ABDDF8B600DDF8BA10DDF8BE20DDF8A7
:10A86000C230A896CC46ACE80F00184B7E601A4662
:10A87000C7E90266DB68526848464146FBF7BCFE02
:10A88000D8F80020A89B9A422ED00026104B1C78A6
:10A89000FFF7D3BB6AA820F047F8C1B26AA8FFF758
:10A8A00017F895F80180FFF7FEBB00BFD06C0020C1
:10A8B000B06E002060E9040090E90400ACE90400F7
:10A8C000EC700020F0700020CCE90400B46400209B
:10A8D0000D6000201CE9040034E9040068E904006C
:10A8E000C8E90400B0E90400A99A0D9B9342CCD1B9
:10A8F000AA9A0E9B9342C8D1AB9A0F9B9342C4D1A4
:10A90000DDF8C600DDF8CA10DDF8CE20DDF8D23063
:10A910004F460FC78E4B1A4641465268DB68484681
:10A92000FBF76AFE40461FF0FFFF31460746F7225D
:10A930006AA8FEB21FF0C8F837B1721ED2B2013257
:10A9400041466AA81FF098F86AAB6AA83B443A22CD
:10A95000C25502362022F1B25A700023CDE902B46A
:10A9600000934FF0260A0C460AF10C010AF10D0281
:10A970000AF10903C9B2DBB2D2B2695C15F803E08F
:10A98000AA5C15F80A70002361F307030AF10400BA
:10A9900062F30F230AF10E02C0B2D2B215F800C062
:10A9A000AA5C0AF108060AF105000AF10101F6B2F3
:10A9B000C0B2C9B262F317430AF10F0215F806B02C
:10A9C0002E5C685C0099D2B20131AA5C00910AF158
:10A9D0000A0162F31F63C9B2C9F80C300023695C35
:10A9E0006BF307036EF30F2361F317430AF10B01B7
:10A9F000C9B20AF1020E695C61F31F630021C9F854
:10AA000008306CF307010AF103035FFA8EFE66F368
:10AA10000F21DBB2002615F80EE0EB5C0AF106020E
:10AA200067F307060AF1070B60F30F26D2B26EF345
:10AA300017465FFA8BFBAA5C15F80BC063F31F6621
:10AA4000434BC9F8006062F317411A466CF31F616B
:10AA5000DB685268C9F8041048464146FBF7CCFD54
:10AA6000661C0DF5D47C98F800700CF80470A01CDE
:10AA7000F6B298F801700CF80670E11CC0B298F8B4
:10AA800002700CF80070221DC9B298F803700CF81F
:10AA90000170D2B2631D98F804700CF80270DBB23A
:10AAA000A61D98F805700CF80370F6B2E01D98F832
:10AAB00006700CF80670C0B204F1080198F807702F
:10AAC0000CF80070C9B204F1090298F808700CF88B
:10AAD0000170D2B204F10A0398F809700CF8027000
:10AAE000DBB204F10B0698F80A700CF80370F6B2AA
:10AAF00004F10C0098F80B700CF80670C0B204F169
:10AB00000D0198F80C600CF80060C9B204F10E0257
:10AB100004F10F0398F80D600CF80160D2B2DBB2BB
:10AB200098F80E0098F80F100CF802009DF800201D
:10AB30000CF80310019B0AF1100A103493425FFADB
:10AB40008AFAE4B23FF610AFDDE902B426469DE68C
:10AB5000B4640020704700BF10B5044617F050FBE6
:10AB6000204610BD38B50A4B04460D46442240F835
:10AB70000C3B00211EF0A8FF0023A560237104F107
:10AB80005401012015F0FAF92065204638BD00BFB8
:10AB9000ECEC040070B504460E46006D4FF0FF313A
:10ABA00015F064FC257955B98EB1A660314604F1E3
:10ABB0000C0005F0D5FBB0FA80F56D092571002376
:10ABC000206D1A46194615F029F8284670BDA6686A
:10ABD000002EF4D0EAE700BF10B504464FF0FF3175
:10ABE000006D15F043FC23793BB90023206D1A4614
:10ABF000BDE81040194615F011B80023237104F187
:10AC00000C0005F0C1FCF0E770B505464FF0FF31D0
:10AC1000006D15F02BFC2B7993B1002305F10C0688
:10AC20002B71304605F0B0FC044680B10023286D3E
:10AC30001A46194614F0F2FFB4FA84F0400970BDC8
:10AC4000A96805F10C0004F02BFF0446EEE7A968A3
:10AC5000304604F025FF04460028E7D1A9683046B5
:10AC600005F07EFB04460028E0D101232B71DDE7CF
:10AC700030B5044695B00D46006D4FF0FF3115F02C
:10AC8000F5FB294601AA04F10C0004F0DDFC0023C9
:10AC900002461946206D14461A4614F0BFFFB4FA56
:10ACA00084F0400915B030BD2DE9F04F83B00B782A
:10ACB00000AF2F2B78600CBF4C1C0C4606460D468F
:10ACC000006D4FF0FF3115F0D1FB06F10C084FF08D
:10ACD000000917E0ADEB030D68468B4500F8019BBA
:10ACE000EA4601DD1EF0F0FE29465A4650461EF0A7
:10ACF000C3FE5146404603F00DFD08B1113028D186
:10AD00000134B54620462F211FF0E8FDA0EB050BCE
:10AD10000BF108036E460021044623F007035A4650
:10AD20000028D7D12946404603F0F4FC60B901243D
:10AD30007A680023106D19461A4614F06FFF2046FA
:10AD40000C37BD46BDE8F08F113014BF002401243C
:10AD5000EEE70024B546EBE738B504460D46006D36
:10AD60004FF0FF3115F082FB294604F10C0004F08E
:10AD7000C3FC002302461946206D14461A4614F0FF
:10AD80004DFFB4FA84F0400938BD00BF0020704781
:10AD9000036970B504460D46186D4FF0FF31164635
:10ADA00015F064FB237D4BB1002522690023106D53
:10ADB00019461A4614F032FF284670BD2069A16971
:10ADC0002A4633460C3003F0F3FF20EAE075ECE747
:10ADD00070B50369044682B0186D4FF0FF3115F06D
:10ADE00045FB267D4EBB2069A1690C3004F01EFC9A
:10ADF00005462069A1698DF8076001230DF107025E
:10AE00000C3004F05FFB00282069A169C8BF9DF8E1
:10AE100007602A4600F10C004FF00003D8BF4FF046
:10AE2000FF3604F0D3FB22690023106D19461A4641
:10AE300014F0F4FE304602B070BD4FF0FF36F2E77A
:10AE400038B5036904464FF0FF31186D15F00EFB5D
:10AE5000237D4BB1002522690023106D19461A4647
:10AE600014F0DCFE284638BD2069A1690C3004F0DE
:10AE7000DFFB05462069A1690C3004F0D7FB2D1AD1
:10AE8000E9E700BF036910B504464FF0FF31186DC4
:10AE900015F0ECFA237D43B122690023106DBDE863
:10AEA00010401A46194614F0B9BE2069A1690C3049
:10AEB00004F0E4F9F0E700BF30B50369044683B05D
:10AEC000186D4FF0FF3115F0D1FA257D55B122698B
:10AED0000023106D19461A4614F0A0FE4FF0FF3003
:10AEE00003B030BD2069A1690DF1070201230C30C8
:10AEF00004F0E8FA23692A4604462946186D2B46D1
:10AF000014F08CFE002CCCBF9DF807004FF0FF30F2
:10AF100003B030BD30B50368164A5B6883B0934216
:10AF20008DF807101ED1036904464FF0FF31186DEC
:10AF300015F09CFA237D53B1002522690023106D82
:10AF400019461A4614F06AFE284603B030BD20693F
:10AF5000A1690C3001230DF1070203F029FF20EA5B
:10AF6000E075EAE701220DF10701984705462846FA
:10AF700003B030BD91AD020030B4074C0161002236
:10AF80004FF47A75C0E900428560C0E9062230BC02
:10AF9000027580F82020704708ED0400F0B5836941
:10AFA00097B004460D46164693B1077D00691946D1
:10AFB0000C30002F45D003F0ADFDA06914F032FD38
:10AFC000E0690023A36108B114F02CFD0023E361C4
:10AFD000206903AA0C30294604F036FB98B99DF885
:10AFE0000C30112B34D02C2014F002FD0146A0614E
:10AFF00030B120692A460C3003F064FD002839D0B6
:10B00000002017B0F0BD0230FAD1012EF8D138205F
:10B0100014F0EEFC0146A0610028F1D0206940F256
:10B0200003130C302A4603F011FE06460028E7D130
:10B030002069A1690C300223324604F0C7FA267554
:10B0400009E004F09DF9A06914F0ECFCA761BFE7EA
:10B05000EEB1012E3AD02F2128461FF092FC203469
:10B0600000B1451C2946204640221FF077FC0120F4
:10B0700017B0F0BD0123237528461FF055FC0130A1
:10B0800014F0B6FC2946E0611FF035FCE3E701232C
:10B090003820019314F0ACFC019BA061014600280C
:10B0A000AED020692A460C3003F0D0FD0028A7D18D
:10B0B000012E02D000232375CDE72369A169024642
:10B0C00003F10C00022304F081FAF3E740F20313CA
:10B0D000DEE700BF30B5036983B004460D46186D46
:10B0E00001924FF0FF3115F0C1F9019A294620462F
:10B0F000FFF754FF2169002302461446086D1A46E3
:10B10000194614F08BFD204603B030BD70B50446DF
:10B110000025C4E906551048236182B0206084F8F8
:10B1200020504FF47A700E46A0604FF0FF31186D3A
:10B1300065602575019215F099F9019A314620460E
:10B14000FFF72CFF22692B46106D29462A4614F082
:10B1500065FD204602B070BD08ED0400036970B5BE
:10B1600004460D46186D4FF0FF31164615F07EF976
:10B17000237D4BB1002522690023106D19461A4624
:10B1800014F04CFD284670BD2069A1692A4633465B
:10B190000C3004F097F90546EDE700BF38B50369B8
:10B1A00004460D46186D4FF0FF3115F05FF9237D11
:10B1B0004BB1002522690023106D19461A4614F080
:10B1C0002DFD284638BD2069A1692A460C3004F0BF
:10B1D000FDF9C543ED0FEDE738B5036904464FF0BF
:10B1E000FF31186D15F042F9237D4BB1002522691E
:10B1F0000023106D19461A4614F010FD284638BD7C
:10B200002069A1690C3004F011FA0546EFE700BF90
:10B2100038B5036904464FF0FF31186D15F026F973
:10B22000237D4BB1002522690023106D19461A4673
:10B2300014F0F4FC284638BD2069A1690C3004F0F4
:10B24000F7F90546EFE700BF036970B504464FF014
:10B25000FF31186D15F00AF9A16981B12069257DCA
:10B260000C30ADB103F056FCA06914F0DBFBE069D3
:10B270000023A36108B114F0D5FB0023E361226928
:10B280000023106DBDE870401A46194614F0C6BC84
:10B2900004F076F8A06914F0C5FBA561EFE700BFE4
:10B2A0008069003818BF0120704700BF2DE9F04FBA
:10B2B00095B00B6906460C46186D4FF0FF3100AF94
:10B2C000904615F0D3F800232069337586F82030B6
:10B2D000227D2B4930614FF47A70C6E90013C6E92C
:10B2E0000633B060DAB342F62E652069A1690C30EE
:10B2F0003A1D03F023FC012831D1BB892E2BF4D059
:10B30000AB4238D0D4F81C9048461FF00DFB0546E0
:10B3100007F10C001FF008FB2B18093323F007037B
:10B32000EA46ADEB030D68466A1C49461EF0A4FBD5
:10B3300099F800302F2BEB4602D199F801301BB160
:10B34000104B1B882BF8053007F10C0158461FF0F5
:10B35000B6FA424659463046FFF720FED5462269E6
:10B360000023106D19461A4614F058FC3046543725
:10B37000BD46BDE8F08FBB7B002BB6D0C2E700BF57
:10B3800008ED0400FCEC04002DE9F04F85B0DDE988
:10B390000E4B109F81460D4690461E46002F63D0EF
:10B3A000B8F1000F03D0D8F80030B34249D0D9F833
:10B3B00000002B689E422BD04369B4FBF3F203FBE1
:10B3C0001242BAB9BB4215D8B7FBF3F203FB127AAB
:10B3D000A7EB0A0300930393436822461F463146B6
:10B3E0005B46B84788B9039B57469B441C44002FD3
:10B3F000D6D139E00093A21AC5E90062D0F804A0C2
:10B40000AB683146D0470028CAD005B0BDE8F08F00
:10B4100069684369A142D0D8CA18A242CDD9A2EB2B
:10B42000040ABA45AB6828BFBA46611A5246584664
:10B430001944BF1A54441EF01FFBD344002FAFD150
:10B4400012E0D8F80430A342B1D8D9F800008269DC
:10B450001A44A242ADD9A2EB040ABA45D8F80810A2
:10B4600028BFBA46E31AE1E7002005B0BDE8F08F37
:10B470002DE9F04F074687B00D4672B30368D1F847
:10B4800000B090469A69D1E901104AB3013A01F13E
:10B4900001098618A9EB0009441E4FF0010A08E0D3
:10B4A00014F8012F9DF817309A4223D1A6423B6829
:10B4B00014D01A6A934509EB040320D20DF1170248
:10B4C000CDE90032CDF808A05B460022414638465F
:10B4D000FFF75AFF0028E3D009DB3B68A8689A69A8
:10B4E000FF211EF0F1FA4FF0FF332B60002007B070
:10B4F000BDE8F08F6FF0330007B0BDE8F08F034B6D
:10B50000034A044812211EF015FA00BF24ED04007E
:10B510004CEF040044ED04002DE9F04F87B0DDF856
:10B5200040A00592002B64D0D0F800908B46D9F84B
:10B530001C105C1EA1F108084445074651D3B4FB1A
:10B54000F8F001381EF078F8D04500F10200A4EBC5
:10B550008003B3FBF8F560D8BAFBF8F001381EF0B1
:10B560006BF8861CAAEB8606B6FBF8F630461EF092
:10B5700063F8AAEB800006FB180AB54243D9D9F854
:10B580002020059B4FF004090DF114080BE0012B5E
:10B5900045D93A68126A934241D8012101FA04F46C
:10B5A0002D1BB54230D9AC1BB4FA84F495FAA5F141
:10B5B000C4F11F04B1FA81F18C4228BF0C469342BA
:10B5C0004FEA840132D20091CDE901890022594627
:10B5D0003846FFF7D9FE059B0028D8D007B0BDE854
:10B5E000F08FD04588BF1346BAFBF8F00CD8002581
:10B5F000B4E711994FF0FF320A60129A18461360AF
:10B6000007B0BDE8F08F059B119A1360129B0020D4
:10B61000C3F800A007B0BDE8F08F0026ADE7064BE9
:10B62000064A07484FF48F611EF084F9054B064A1D
:10B63000034812211EF07EF9C0ED04006CEF0400F7
:10B6400044ED040024ED04004CEF04002DE9F04F1C
:10B6500089B00746149C129D8B4692461E46002CCC
:10B6600055D0DBF80030B3425CD0013340F0A1800C
:10B6700038688269B5FBF2F302FB1353002B4AD101
:10B68000A24248D8B4FBF2F302FB13430593E31A3A
:10B69000009304938468139B2A463146A0470028F0
:10B6A0007ED1BAF1000F29D0049B3BB3139B5C1EE3
:10B6B000049B04EB0309139B05F10108A8EB0308A5
:10B6C00007E014F8012F9DF81F309A4266D14C45CF
:10B6D00014D03B681A6A964208EB040363D2012235
:10B6E00002920DF11F02CDE900325146334600228D
:10B6F0003846FFF749FE0028E3D051DB139A049B3C
:10B70000059C1146194413911D44002CA9D1002019
:10B7100009B0BDE8F08FEB1ACBE90063DBF800302D
:10B72000B342A2D1DBF80410A9429ED83A689269CC
:10B730000A44AA4299D9A2EB0508A045DBF8080003
:10B7400028BFA046691A0844424613991EF094F98E
:10B7500038681399826945444144B5FBF2F302FB12
:10B760001353A4EB08041391002B7FF478AFDBF89C
:10B7700000104B1C3FF473AF0092DBE90123D0F8BB
:10B780000880C04760B9524659463846FFF770FEF8
:10B7900000283FF464AF09B0BDE8F08F6FF03300CC
:10B7A00009B0BDE8F08F064B064A074812211EF08B
:10B7B000C1F8064B064A0448B7211EF0BBF800BF8B
:10B7C00024ED04004CEF040044ED0400ECED040013
:10B7D0005CEF04002DE9F04F0446D2E9003091B04F
:10B7E0004FF0010B0A9300230B90069104F114080B
:10B7F0000DF128090593236859F8045B1B6A9D42E3
:10B800007BD210230DF1300A0022CDE901A3009272
:10B810002B4641462046FFF7B7FD002839D1059B4E
:10B82000002B60D10D9B23F00043132B4FD92268CE
:10B83000D26993424BD84FF0FF3309A810225146EA
:10B84000099304F0BFFE0D9B23F00043102B28D07A
:10B85000CDF81C9010260DF12307994607E001361C
:10B860000122394609A804F0ADFEB14517D023687E
:10B870001B6A9D4241D20123CDE9017300962B46FC
:10B88000002241462046FFF77FFD0028E7D0DDF883
:10B890001C9010F1340F1AD011B0BDE8F08FDDF814
:10B8A0001C90099B9BB99AE80F000BF0010610AFA2
:10B8B00007EB860C069F1026FE603E467D601C3618
:10B8C0005CF8185CBD6086E80F0001230593BBF1AE
:10B8D000020F0FD1059B002B14BF00206FF0330027
:10B8E00011B0BDE8F08F069A0C9BD2699B1A002B11
:10B8F00098DAECE74FF0020B7DE7034B034A04486C
:10B9000012211EF017F800BF24ED04004CEF0400D4
:10B9100044ED04004368013337D02DE9F0438368D8
:10B92000013383B0044628D015460E464FF0000878
:10B930004FF001096A462946CDE90089FFF74AFF21
:10B94000E0B905F124086B6A591C16D0AF6A7A1C5D
:10B9500013D0D6F800C09C4513D0D6F804E0BE45FD
:10B960000FD073454246294620460AD0BC4508D030
:10B97000FFF730FF0028E6D000E0002003B0BDE86C
:10B98000F083012003B0BDE8F0830020704700BFC2
:10B990002DE9F041D1F820C00C46C9682CF00043D5
:10B9A000043B01F10C069E4284B0054617461FD9A0
:10B9B00004F12408102612E0424621462846FFF7EB
:10B9C00009FF90B9D4F820C0A169E6602CF00043CB
:10B9D000043B14311B2BA1614FF0100108D8BCF1BE
:10B9E000000FE9DB39606FF0010004B0BDE8F081C1
:10B9F0002A46636852F8140B066AB34207F1040042
:10BA00001AD20C26CDE900100296114628460022D3
:10BA1000FFF7BAFC0028E8D17B79BA79FD79A169F2
:10BA200004331344E2683A602B441A440B44E26046
:10BA3000A36104B0BDE8F081024B034A0348122120
:10BA40001DF078FF24ED04004CEF040044ED0400E9
:10BA5000F0B593B000260D46012707A96A46CDE947
:10BA600000670446FFF7B6FE064610B121E0831CCE
:10BA700022D1109B01331CD0119B013319D010AA85
:10BA800007A92046FFF7A6FEB0B903AA07A92046DA
:10BA9000FFF77EFF0028EAD19DF91030002B4FF010
:10BAA0000802294605A8F0DB1DF0D8FF0028ECD1DC
:10BAB0000126304613B0F0BD0646304613B0F0BD47
:10BAC0002DE9F047164600240122C6E909428246C4
:10BAD00088461D4606F124094A4631465046FFF77E
