:020000022000DC
:1060000000000420E9240400292504002B250400B5
:106010002D2504002F250400312504000000000078
:1060200000000000000000000000000071230400D8
:1060300035250400000000009123040039250400E8
:10604000452704003B250400F1F403003B25040030
:106050003B2504003B2504007DF803003B2504009C
:106060003B2504003B2504003B2504003B250400A0
:106070003B2504003B2504003B2504003B25040090
:106080003B250400C12004003B2504003B250400FF
:106090003B2504003B250400998C03003B250400AC
:1060A0003B2504003B2504003B2504003B25040060
:1060B0003B2504003B250400000000000000000018
:1060C0003B2504003B2504003B2504002D2D040046
:1060D0003B2504003B2504003B250400C5180300B4
:1060E0003B2504003B2504003B2504000000000084
:1060F000000000003B25040000000000A52D040066
:10610000000000000000000000000000000000008F
:10611000000000000000000000000000000000007F
:10612000000000000000000000000000000000006F
:10613000000000000000000000000000000000005F
:10614000000000000000000000000000000000004F
:10615000000000000000000000000000000000003F
:10616000000000000000000000000000000000002F
:10617000000000000000000000000000000000001F
:10618000000000000000000000000000000000000F
:1061900000000000000000000000000000000000FF
:1061A00000000000000000000000000000000000EF
:1061B00000000000000000000000000000000000DF
:1061C00000000000000000000000000000000000CF
:1061D00000000000000000000000000000000000BF
:1061E00000000000000000000000000000000000AF
:1061F000000000000000000000000000000000009F
:10620000F1EE103A43F08073E1EE103A704700BFB0
:1062100010B5054C237833B9044B13B10448AFF3E0
:1062200000800123237010BDF463002000000000F3
:10623000FC25050008B5034B1BB103490348AFF328
:10624000008008BD00000000F8630020FC25050068
:10625000154B002B08BF134B9D46A3F5803A002138
:106260008B460F461348144A121A23F03DFE0F4B7B
:10627000002B00D098470E4B002B00D098470020F1
:10628000002104000D000D48002802D00C48AFF397
:10629000008023F0BFFD200029001CF07DF923F0D1
:1062A00093FD00BF00000800000004200000000073
:1062B00000000000F46300209CA500200000000006
:1062C0000000000033DF7047014B01221A70704755
:1062D000CC700020014B01221A707047CC6F002057
:1062E000014B01221A707047406B0020014B0122C4
:1062F0001A707047B8700020014B01221A70704765
:10630000C266002038B5054CA4F5A875204619F0E2
:10631000D1FBAC42A4F10C04F8D138BD346B0020A1
:10632000054B064A1B78013B0021012B117000D957
:10633000704703201DF0C8BA1D600020C166002010
:1063400010B5134B88B001461248198012F09CFC1E
:1063500011490124002320220C706946CDE9003345
:10636000CDE90333CDE905330293079310F07CFDAB
:106370000A4B0B4A1B78013B0221A342117001D941
:1063800008B010BD214603201DF09EFA08B010BDD4
:10639000A86B0020B48E0020C16600201D60002084
:1063A0007C6E002010B5754C7549204618F0B8F980
:1063B000744B0A221978204618F02CFB72492046AB
:1063C00018F0AEF9714B0A221978204618F048FBF4
:1063D0006F49204618F0A4F96E4B0A22197820461E
:1063E00018F018FB6C49204618F09AF96B4B0A22FA
:1063F0001978204618F00EFB6949204618F090F9EC
:10640000684B0A221978204618F02AFB6649204674
:1064100018F086F9654B186822F07CFF41EC100BF0
:106420002046022118F040FA6149204618F078F918
:10643000604B0A221988204618F0ECFA5E49204683
:1064400018F06EF95D4B186822F064FF41EC100BF8
:106450002046022118F028FA5949204618F060F920
:10646000584B0A221978204618F0FAFA5649204665
:1064700018F056F9554B0A221978204618F0F0FA10
:106480005349204618F04CF9524B0A2219782046FD
:1064900018F0E6FA5049204618F042F94F4B0A220C
:1064A0001978204618F0DCFA4D49204618F038F9E2
:1064B0004C4B0A221978204618F0D2FA4A49204655
:1064C00018F02EF9494B0A221978204618F0C8FA1C
:1064D0004749204618F024F9464B0A2219782046ED
:1064E00018F098FA4449204618F01AF9434B0A224A
:1064F0001978204618F08EFA4149204618F010F914
:10650000404B0A221978204618F0AAFA3E49204644
:1065100018F006F93D4B0A221978204618F0A0FA27
:106520003B49204618F0FCF83A4B0A2219782046DD
:1065300018F070FA3849204618F0F2F8374B0A2262
:106540001978204618F066FA3549204618F0E8F820
:10655000344B0A221978204618F05CFA324920465A
:1065600018F0DEF8314B204619780A2218F078FA34
:106570002046BDE8104005F013B800BF446B002072
:1065800064E50400056000206CE504000460002060
:1065900074E50400106400207CE504001160002014
:1065A00084E504001860002088E5040014600020E1
:1065B00090E504001A60002094E5040008600020C3
:1065C00098E50400216000209CE504000C60002098
:1065D000A0E5040022600020A4E504001F60002064
:1065E000ACE5040020600020B4E504001264002043
:1065F000BCE504000D600020C4E50400106000202C
:10660000CCE504001C600020D4E504001D600020DF
:10661000DCE5040011640020E4E504000F600020C4
:10662000F0E504000E600020FCE504001E60002080
:106630002DE9F041DFF8C48098F814C09CB0BCF19B
:10664000000F4BD005460C4617461E461FF01CFC9B
:1066500000284CD13946D8F81830324609A81FF026
:1066600035F8244B03931027D8F81C10049709A879
:10667000082303AA1FF06AF8002835D1D8F808309B
:106680009E4222D128686968AA68EB68002605AD99
:106690000FC5266023466660A660E66005A9102245
:1066A00009A81FF08FF80346D8B902A901910094F8
:1066B00005AA09A819461FF0C3F800280CBF10202E
:1066C0006FF005001CB0BDE8F0810B4909A81FF070
:1066D00061F80028D6D06FF00600F3E74FF0FF30E6
:1066E000F0E76FF00400EDE76FF00300EAE76FF00A
:1066F0000100E7E724640020146400208464002083
:1067000008B50C490C4804F0D3FC0A490B48012297
:1067100004F08CFE48B90A4B1B7803B908BDBDE8EC
:1067200008400849084818F06FB8BDE80840FFF76E
:1067300039BE00BF08E60400D0700020446B002082
:10674000C066002010E6040078810020F0B5174FE5
:10675000174D184E99B00446384613F071FD0221CA
:10676000284613F03DFE204624F0EEFA214602466C
:10677000284613F049FE08AC08A9284613F04CFE41
:106780000FCC6D460FC594E80F0085E80F006B46EF
:106790000FCB86E80F0095E80F00074C84E80F0048
:1067A000384613F061FD19B0F0BD00BF48960020D7
:1067B000AC6B002014640020246400202DE9F0411B
:1067C00073497448DFF87C82734E744F82B004F0D2
:1067D0007FFD734813F000FE724B734800250122C1
:1067E0000321C3E9065519611D609D601D755A603E
:1067F000DA6013F01BFE30201BF00EFF0F230E2279
:10680000044600930C210D2313F0EAFF214667484C
:10681000674C14F079FA404612F0A8FB32466549FD
:10682000404623F091FA384612F03AFC324662496B
:10683000384623F089FA614F20464FF4807113F0F7
:1068400085F832465E49204623F07EFA5D4C384694
:1068500012F074FA32465C49384623F075FA5B4907
:10686000204619F04DF85A4904F10C0019F048F887
:10687000584904F1180019F043F8574904F124006D
:1068800019F03EF8554904F1300019F039F854492F
:1068900004F13C0019F034F8524904F1480019F0B1
:1068A0002FF8514904F1540019F02AF84F4904F126
:1068B000600019F025F84E4904F16C0019F020F839
:1068C0004C4904F1780019F01BF84B4904F184009D
:1068D00019F016F8494904F1900019F011F84849E7
:1068E00004F19C0019F00CF8464904F1A80019F0D5
:1068F00007F8454904F1B40019F002F8434904F1DE
:10690000C00018F0FDFF424904F1CC0018F0F8FF78
:10691000404904F1D80018F0F3FF3F4904F1E400C6
:1069200018F0EEFF3D4904F1F00018F0E9FF3C4992
:1069300004F1FC0018F0E4FF3A4904F5847018F003
:10694000DFFF394904F58A7018F0DAFF374904F59A
:10695000907018F0D5FF364904F5967018F0D0FF06
:10696000344904F59C7018F0CBFF334904F5A2704C
:1069700018F0C6FF314904F5A87018F0C1FF30497E
:106980003246284602B0BDE8F04123F0DDB900BF31
:10699000D0700020446B002000600020846500203F
:1069A000AC6B002084640020D06F0020806E00203B
:1069B000CC650020219C0200099C0200A4640020F8
:1069C000E1990300E4690020E19B020030E6040045
:1069D00038E6040048E6040058E6040074E60400C3
:1069E00084E6040090E604009CE60400ACE60400A3
:1069F000C0E60400DCE60400F0E6040004E704005E
:106A000018E7040030E7040044E7040054E70400FA
:106A100068E7040080E704009CE70400ACE704009A
:106A2000B8E70400CCE70400E0E70400F4E7040062
:106A300008E8040014E8040024E804003CE804002A
:106A4000056302001465002030B5B748B74985B02A
:106A50000022044604F0EAFC204604F0D9FB3D285D
:106A6000FAD1B149B24DB34C0A2201A818F07EF810
:106A700001A819F075F9031E18BF012301A82B7096
:106A800019F018F82378002B40F02C82A64D2846E8
:106A900004F0BEFB3D28FAD1A349A74D0A2201A864
:106AA00018F064F801A819F05BF9034601A82B70EF
:106AB00019F000F82378002B40F024839A4D2846E3
:106AC00004F0A6FB3D28FAD197499C4D0A2201A863
:106AD00018F04CF801A819F043F9031E18BF012360
:106AE00001A82B7018F0E6FF2378002B40F00083FC
:106AF0008D4D284604F08CFB3D28FAD18A49904DF3
:106B00000A2201A818F032F801A819F029F9031E89
:106B100018BF012301A82B7018F0CCFF2378002B9D
:106B200040F0DC82804D284604F072FB3D28FAD10B
:106B30007D49844D0A2201A818F018F801A819F01F
:106B40000FF9034601A82B7018F0B4FF2378002B2F
:106B500040F0BA82744D284604F05AFB3D28FAD121
:106B60007149794D0A2201A818F000F801A819F01E
:106B7000FDF801A885ED000A18F09CFF2378002B92
:106B800040F09482684D284604F042FB3D28FAD13B
:106B900065496E4D0A2201A817F0E8FF01A819F017
:106BA000DFF8034601A82B8018F084FF2378002B20
:106BB00040F072825C4D284604F02AFB3D28FAD151
:106BC0005949634D0A2201A817F0D0FF01A819F016
:106BD000CDF801A885ED000A18F06CFF2378002B92
:106BE00040F01A82504D284604F012FB3D28FAD19D
:106BF0004D49584D0A2201A817F0B8FF01A819F015
:106C0000AFF8034601A82B7018F054FF2378002B2F
:106C100040F0F881444D284604F0FAFA3D28FAD1B4
:106C200041494D4D0A2201A817F0A0FF01A819F013
:106C300097F8034601A82B7018F03CFF2378002B2F
:106C400040F0D681384D284604F0E2FA3D28FAD1CA
:106C50003549424D0A2201A817F088FF01A819F012
:106C60007FF8034601A82B7018F024FF2378002B2F
:106C700040F0B4812C4D284604F0CAFA3D28FAD1E0
:106C80002949374D0A2201A817F070FF01A819F011
:106C900067F8034601A82B7018F00CFF2378002B2F
:106CA00040F09281204D284604F0B2FA3D28FAD1F6
:106CB0001D492C4D0A2201A817F058FF01A819F010
:106CC0004FF8034601A82B7018F0F4FE2378002B30
:106CD00040F07081144D284604F09AFA3D28FAD10C
:106CE0001149214D0A2201A817F040FF01A819F00F
:106CF00037F8034601A82B7018F0DCFE2378002B30
:106D000040F04E81084D284604F082FA3D28FAD121
:106D10000549164D0A2201A817F028FF01A819F00D
:106D20001FF8031E24E000BF446B002008E60400A7
:106D300005600020C0660020046000201064002070
:106D40001160002018600020146000201A600020EC
:106D500008600020216000200C60002022600020DC
:106D60001F60002020600020126400200D600020C1
:106D700018BF012301A82B7018F09CFE2378002B6C
:106D800040F00481AB4D284604F042FA3D28FAD188
:106D9000A849A94D0A2201A817F0E8FE01A818F099
:106DA000DFFF031E18BF012301A82B7018F082FE1D
:106DB0002378002B40F0E0809E4D284604F028FA0E
:106DC0003D28FAD19B499D4D0A2201A817F0CEFE1D
:106DD00001A818F0C5FF034601A82B7018F06AFE41
:106DE0002378002B40F0BE80924D284604F010FA24
:106DF0003D28FAD18F49924D0A2201A817F0B6FE1C
:106E000001A818F0ADFF034601A82B7018F052FE40
:106E10002378002B40F09C80864D284604F0F8F93A
:106E20003D28FAD18349874D0A2201A817F09EFE1A
:106E300001A818F095FF031E18BF012301A82B70AD
:106E400018F038FE2378002B78D17A4D284604F0CC
:106E5000DFF93D28FAD177497B4D0A2201A817F0C6
:106E600085FE01A818F07CFF031E18BF012301A8AE
:106E70002B7018F01FFE2378002B55D16D4D28463E
:106E800004F0C6F93D28FAD16A49704D0A2201A8DA
:106E900017F06CFE01A818F063FF031E18BF012352
:106EA00001A82B7018F006FE2378002B32D1614D1B
:106EB000284604F0ADF93D28FAD15E49644D0A2216
:106EC00001A817F053FE01A818F04AFF034601A8D5
:106ED0002B7018F0EFFD237873B9564804F060FB6F
:106EE00005B030BD5B495C4817F01AFC29785A4858
:106EF0000A2217F08FFDC9E55849574817F010FCD2
:106F0000297855480A2217F0ABFD4A4804F048FB9F
:106F100005B030BD5249504817F002FC29784E4860
:106F20000A2217F077FDC2E74E494B4817F0F8FBED
:106F3000297849480A2217F06DFD9FE74A494648DB
:106F400017F0EEFB297844480A2217F063FD7CE72E
:106F50004649414817F0E4FB29783F480A2217F0D8
:106F60007FFD59E742493C4817F0DAFB29783A4857
:106F70000A2217F075FD37E73E49374817F0D0FB76
:106F8000297835480A2217F045FD15E73A49324875
:106F900017F0C6FB297830480A2217F03BFDF1E6CE
:106FA00036492D4817F0BCFB29782B480A2217F0E8
:106FB00057FDA7E63249284817F0B2FB2978264842
:106FC0000A2217F04DFD85E62E49234817F0A8FB4D
:106FD000297821480A2217F043FD63E62A491E4812
:106FE00017F09EFB29781C480A2217F039FD41E66C
:106FF0002649194817F094FB297817480A2217F0F8
:107000002FFD1FE62249144817F08AFB2978124801
:107010000A2217F025FDFDE51E490F4817F080FBF9
:10702000286822F077F941EC100B02210A4817F08A
:107030003BFCD7E5446B0020106000201C60002062
:107040001D600020116400200F6000200E600020F1
:107050001E60002064E5040078810020FCE5040047
:10706000F0E50400E4E50400DCE50400D4E50400F8
:10707000CCE50400C4E50400BCE50400B4E504006C
:10708000ACE50400A4E50400A0E504009CE50400D0
:1070900098E5040094E504001F49204817F040FBE0
:1070A00029881E480A2217F0B5FC83E51C491B48B5
:1070B00017F036FB286822F02DF941EC100B022165
:1070C000164817F0F1FB5DE51649144817F028FB48
:1070D000297812480A2217F0C3FC3BE512490F48F1
:1070E00017F01EFB29780D480A2217F093FC19E5CA
:1070F0000E490A4817F014FB297808480A2217F0AD
:1071000089FCF5E40A49054817F00AFB2978034889
:107110000A2217F0A5FCD1E490E504007881002054
:1071200088E5040084E504007CE5040074E50400BF
:107130006CE5040070B545F21F2288B0394841F66D
:1071400015110AF0DFF8384936480AF0DFF83749F8
:1071500034480AF0DFF8032001211CF0B5FB344865
:1071600009F0FCFF002800F0AC824FF47A7018F0B0
:1071700033FE2F4809F0F2FF002800F0B8822D48B6
:1071800009F040FC2C492D48002204F04FF92B480F
:1071900004F032FA002800F09A8229492748002298
:1071A00004F044F9254804F027FA002800F0AF82E3
:1071B00024492248002204F039F9204804F01CFA3E
:1071C000002800F05682204B1C4D0022C3E900220B
:1071D000C3E902221C4603F1100602E00134B44266
:1071E0000CD0284603F0D8FF0028F7D0284604F03A
:1071F0000FF8013404F8010CB442F2D10F4804F046
:10720000CFF912490D48002204F010F90B4804F0A0
:10721000F3F9002800F06E820D4C084D04F1400691
:107220001BE000BF988100204CE8040060E80400E7
:1072300078810020D070002020E80400446B0020FA
:1072400074E804007CE804003464002090E8040042
:10725000446400200134A6420CD0284603F09CFF71
:107260000028F7D0284603F0D3FF013404F8010CBE
:10727000A642F2D1B04804F093F9B048FFF766FA9D
:10728000AF49AD48002204F0D1F8AB4804F0B4F99E
:1072900080B9AB49AB4803F00BFFA949A6480122CE
:1072A00004F0C4F8002840F04282A74B1B78002B62
:1072B00040F04082FFF7C8FB0A24012585F0010554
:1072C000294603201CF000FB642018F085FD631E96
:1072D00013F0FF04F2D19D4A9D4B12789D4853F85C
:1072E000221017F00FFF142485F001052946032012
:1072F0001CF0EAFA642018F06FFD631E13F0FF041F
:10730000F2D1954D2B78002B00F06E81934B944A6F
:107310001E789449944B12781B7891F90010934889
:10732000029301920091924C924B934A9349D4ED6F
:10733000000A1B781278097800EB860090ED000AAD
:107340008F4813F0EBFC0446002C40F06A818D4B13
:107350001B78002B40F0AC818B4B894819780022B8
:1073600014F002FB894B1978002900F08F81012964
:1073700000F08C81022900F0E2812B78002B40F094
:107380008C8105AD042282497D48824C16F0C6F9F5
:107390007B4815F07FFC8048002111F00BFC7E48F3
:1073A000042111F0CBF9002201217B4811F0F6F9FC
:1073B0000821794811F0B0FB002278495E4804F0BA
:1073C00035F828465C4917F09DFB0599744810F084
:1073D00011FB284618F06EFB00227249564804F053
:1073E00025F82846544917F08DFB05996A4811F095
:1073F0006BFB284618F05EFB6B4967480FF080FF77
:107400006A4965480FF07EFF69496A48102211F009
:1074100043FE69496748082211F03AFE654811F0B9
:1074200075FE31221146654810F098FE634812F04F
:107430001BFB062162480EF07DFC61480EF062FCE9
:107440005E495F480EF01AFC5E480EF02DFC5C4869
:1074500001210EF0A3FCF422594820210EF09AFCE1
:1074600057481E210EF094FC002155480EF002FDF5
:1074700001E009F053FD204609F02AFD03462046AD
:10748000002BF6D1334C01E017F0CAFD204617F06F
:10749000BFFD03462046002BF6D1484C01E011F019
:1074A000F5FE204611F0A2FE03462046002BF6D141
:1074B000454C2378013B012B00F2FE80434B1B78A7
:1074C000002B00F0F980012102201CF079F92378CB
:1074D0003F4C012B8CBF0121002102201CF0F4F94C
:1074E0001EF0D2FC237D23B91EF0CEFC08B9012387
:1074F00023750024374812F09DFF3749009401237B
:107500004FF4806235481BF039FE01234FF480624E
:107510003349009431481BF031FE022104201CF055
:107520004FF930491B4817F06FF92E49094817F0F9
:107530006BF908B070BD00BF446B002044640020AC
:1075400008E60400D0700020C0660020046000201F
:107550002460002050970020116000201860002057
:107560001F600020206000201264002034EF04001F
:1075700008600020226000200C60002021600020B4
:10758000806E0020106000200D6000201C60002034
:10759000D562020078810020B48E002020E804002B
:1075A000D48E002074E804004163020021630200CD
:1075B0004CE804008465002060E80400CC650020ED
:1075C000F4940020389500201D600020C166002042
:1075D00084640020D06F0020399D0200189C002098
:1075E000D17C0200B0E804005749584C584809784B
:1075F000247890F900000090029101945548564C6F
:10760000564B574A5749D4ED000A90ED000A1B78B3
:1076100012780978544813F081FB0446002C3FF49B
:1076200096AE05AD5149284618F06AF9002C504B2A
:10763000B8BF644204EB440403EB840421462846AB
:1076400018F0B2FA01464B4817F098F8284618F09F
:1076500031FA4649284618F053F92146284618F0D1
:10766000A3FA0146444817F089F8284618F022FA90
:1076700088E642494248012203F0D8FE00283FF440
:10768000C0AD40493E4817F04BF8B7E5364814F016
:10769000CBF92B78002B3FF474AE3B4B3248197872
:1076A00016F0B8FD39493048042216F04DF868E666
:1076B0002D4814F0F3F94FE6002103201CF004F9E3
:1076C00001E72C484FF4E13109F020FD4DE5304948
:1076D0002B48012203F0AAFE00283FF45EAD2D499D
:1076E000274817F01DF8264803F05AFF55E51BF010
:1076F00061FD44E528492248012203F097FE002855
:107700003FF4BBAD25491E4817F00AF8B2E52449FD
:107710001B48012203F08AFE00283FF449AD2149AD
:10772000174816F0FDFF164803F03AFF40E5FEF754
:1077300039FEBFE51C490F4817F066F8BAE50A485C
:1077400014F09EF919E600BF126400201F600020AB
:1077500020600020146000200860002022600020CB
:107760000C60002021600020806E0020A4E804004E
:10777000E469002078810020509700207CE8040014
:10778000446B002084E804001A600020E1620200DB
:1077900020E804006CE8040090E8040098E8040085
:1077A00074E8040060E8040010E604001F4B204A5F
:1077B0001B7870B5002604460D46166093B91D4926
:1077C0001D48042215F0AAFF18F0FAFA1B4B0246D6
:1077D0001A60194800232A46214615F04BFB184B26
:1077E000186070BD174A184B1278134803EB8203D8
:1077F00093ED000A13F062FA064628B913490E48C1
:10780000042215F0A1FFDAE71149124816F05AFFD9
:10781000002EB8BF764210490E48B6B206EB4606B7
:1078200001EB860116F0AAFFE8E700BF1160002017
:10783000A06C0020C9620200806E0020C070002091
:10784000C87000201860002034EF0400E1620200DC
:10785000C0E8040078810020E46900202DE9F04FA1
:107860002DED028BCDB000AF15469B4689460646EE
:1078700023F06AFA4FF0000A04465146F22207F15B
:107880003C00D7F8608122F02FFBDBF80030404845
:1078900087F83950C7F83A3093FA83FCE4B287F896
:1078A00038904546534650F8042FD9B2954203F11B
:1078B000010384BF8A461546642BF4D1354A364B02
:1078C00042F82A80D02C43F82AC059D8B9F1010FC8
:1078D00072D0324823F038FA5FFA80FC0CF10602CD
:1078E0005FFA82FE58B12D4D002307F59872D1182A
:1078F0005A1CEB5C01F8F23CD3B29842F5D807F57C
:1079000098710CF1070307F5987251FA83F37244EA
:107910003A2020210CF1080502F8F80CEDB203F82A
:10792000F81C94B104F108006044013EC0B22B463B
:1079300007F598721A440133DBB216F8011F02F8FA
:10794000F81C8342F4D12C44E5B2154B154A1B7840
:1079500000211160002B40F0558113491348042287
:1079600015F0DCFE18F02CFA114B02461A600F4895
:1079700000232A4607F1380115F07CFA0D4B1860F8
:1079800007F59A77BD46BDEC028BBDE8F08F00BFCE
:107990005068002054680020C46600203464002031
:1079A00011600020A06C0020C9620200806E0020DF
:1079B000C0700020C870002014F00F0818BF4FF0EE
:1079C000010808EB1418DFF804A308F1020C69465B
:1079D000A1EB0C116B464FF0000B8D464FEA0C15D6
:1079E000DAF80020C7F814B007F1080108EE103AE1
:1079F00007F12800DAF80C30C7E9015BC7E903BBDF
:107A0000C7E90ABBC7E90CBBFEF712FE07F1080C79
:107A1000BCE80F000090019102920393DAF8002075
:107A2000DAF80C309C48C7F808B007F10801C7E93C
:107A300003BBC7F814B0FEF7FBFD07F1080CBCE868
:107A40000F00E9460490059106920793B8F1000FE4
:107A500000F0A480D84697F804B02025A5F12003B3
:107A6000DBB29C4288BF3378C7E9068888BF3B7683
:107A7000A5F11F03DBB2A3423CBF73787B76A5F16F
:107A80001E03DBB2A3423CBFB378BB76A5F11D0356
:107A9000DBB2A3423CBFF378FB76A5F11C03DBB25B
:107AA000A3423CBF33793B77A5F11B03DBB2A34272
:107AB0003CBF73797B77A5F11A03DBB2A3423CBFCD
:107AC000B379BB77A5F11903DBB2A3423CBFF379CD
:107AD000FB77A5F11803DBB2A34238BF337AC7E9BD
:107AE000088838BF87F82030A5F11703DBB2A3421E
:107AF0003CBF737A87F82130A5F11603DBB2A342AD
:107B00003CBFB37A87F82230A5F11503DBB2A3425C
:107B10003CBFF37A87F82330A5F11403DBB2A3420C
:107B20003CBF337B87F82430A5F11303DBB29C42C2
:107B300084BF737B87F82530A5F11203DBB29C422A
:107B400084BFB37B87F82630A5F11103DBB29C42DA
:107B500084BFF37B87F82730DAF80020DAF80C309E
:107B6000C7F8088007F1080107F11800C7E9038882
:107B7000C7F81480FEF75CFDBB6849F80530D7E90B
:107B8000030109EB05031035EDB27A695860AB4586
:107B900006F110069960DA607FF460AF7B68B3F598
:107BA000807F65D0980807F13E020023013359F821
:107BB000041B42F8041B9842F8D8384B384A1B780B
:107BC00000211160002B41D136493748042215F0BD
:107BD000A5FD18F0F5F8354B02461A607A68324870
:107BE00007F138010632002315F044F9304B1860D4
:107BF00018EE103A07F59A779D46BD46BDEC028B0C
:107C0000BDE8F08F2B4A2C4B1278274803EB8203F8
:107C100093ED000A13F052F8044628B92749224888
:107C2000042215F091FD98E62549264816F04AFDF4
:107C300084EAE473A3EBE473234922489BB203EB89
:107C4000430301EB830116F099FDE7E7194A1A4B4C
:107C50001278154803EB820393ED000A13F02EF817
:107C6000044630B915491048042215F06DFDABE704
:107C7000FEE71349134816F025FD84EAE473A3EBED
:107C8000E47311490F489BB203EB430301EB8301FB
:107C900016F074FDE6E700BF346400201160002098
:107CA000A06C0020C9620200806E0020C07000201D
:107CB000C87000201860002034EF0400E162020068
:107CC000C0E8040078810020E4690020846400207A
:107CD00030B583B018F074F8264B274C1A689042E0
:107CE0002ED82378CBB1254B254D1A78BAB1197807
:107CF00001F0FF02D9B9234922702A701A700B785B
:107D0000002B30D02049214B0968214A0091197875
:107D10001278204B2048FFF7A1FD03B030BD2A7830
:107D2000002AFAD0197801F0FF020029E3D01B489D
:107D300000222A701A7003B0BDE8304014F0F8BD7C
:107D400001222270164915484FF0FF3504221D60AC
:107D500015F0E4FC13491148042215F0F5FC0F4816
:107D600014F0E6FDBDE71048F72103B0BDE8304050
:107D7000FFF71CBD6C6000207D6E0020C2660020F5
:107D8000B8700020CD6F0020786E0020A96C002014
:107D9000A86C0020AC6C0020B06C0020806E00202D
:107DA000ED620200F9620200806D00202DE9F043CF
:107DB0002DED028BD31DC5B003F4FC7302AFADEB08
:107DC000030D0DF108090C460646002148461546EC
:107DD00022F08AF8974907F10C0017F091FD9649B7
:107DE00020460A2222F0B8FF002865D093490822D5
:107DF000204622F0B1FF78B391490622204622F0B6
:107E0000ABFF002878D18F4B1B78002B00F002814C
:107E1000012B00F0BF81022B00F0C5814FF08043A1
:107E200057210022C3F81C15012300928649874878
:107E30004FF480621BF0A2F9824B1B78022B07F1F2
:107E4000FC041DD1824B1B78013B012B18D801216A
:107E500003201BF039FD13E007F1FC047D4907F115
:107E60000C0017F055FE0023009377497748012353
:107E70004FF480621BF082F9724B1B78022BE1D029
:107E800007F10C01204617F055FD7349204617F005
:107E9000B7FE0146304617F04DFD204617F00AFEAA
:107EA00007F10C0017F006FE304607F58677BD4651
:107EB000BDEC028BBDE8F08307F1FC046749204666
:107EC00017F01EFD664B07F1F00093ED000A02214A
:107ED00017F0B2FD07F1F001204617F065FE0146EC
:107EE00007F10C0017F0EEFD07F1F00017F0E2FDCE
:107EF000204617F0DFFDBFE75A490B22204622F04B
:107F00002BFF48BBADB1014642F2014E6318013070
:107F1000DB7A0D2BC2B22EFA03FC02D81CF0010F43
:107F200005D101F1010C09F801305FFA8CF195429D
:107F3000ECD807F1FC044946204617F0E1FC204646
:107F400017F00EFF0546204617F0B4FD002D6AD04D
:107F5000454803F005F881E744490A22204622F00B
:107F6000FBFE002800F00E8141490922204622F044
:107F7000F3FE002800F092803E490822204622F0BD
:107F8000EBFE002800F0FE803B490822204622F04C
:107F9000E3FE002840F01681ADB1014642F2014EE9
:107FA000631801301B7A0D2BC2B22EFA03FC02D8E3
:107FB0001CF0010F05D101F1010C09F801305FFA45
:107FC0008CF19542ECD807F1FC044946204617F0A5
:107FD00097FC204617F0C4FE284A031E18BF012351
:107FE0002046137017F066FD25491F4803F060F81E
:107FF00023492448012203F019FA002840F0528155
:10800000214B1B78002B3FF429AF2049204816F064
:10801000FBFB23E70F491E4816F0F6FB1D491C48E1
:1080200016F0F2FBFAE61C4907F10C0017F070FDA0
:1080300022E700BF00000500ECE8040004E90400AA
:1080400018E904007C6E0020B99C0200189C0020F6
:108050001D60002010E904004CED0400F8E8040065
:108060007060002030E90400D070002058E904005E
:1080700080E90400C8E90400D4E904000560002098
:1080800008E60400446B0020C066002010E60400EF
:108090007881002020E904003CE90400ADB10146EC
:1080A00042F2014E631801305B7A0D2BC2B22EFAF8
:1080B00003FC02D81CF0010F05D101F1010C09F8F5
:1080C00001305FFA8CF19542ECD807F1FC04494687
:1080D000204617F015FC204617F042FE05462046C4
:1080E00017F0E8FC002D67D0B84800210DF056FECF
:1080F000B74810F089FD1FFA80F8B8F1000F0AD0D8
:108100000025DFF8CC9229460135484610F09AFD4B
:10811000A9B28845F8D8AD480DF01EFFAD4814F05F
:1081200031F8062503201BF00FFC642017F054FEE5
:108130006B1E13F0FF05F5D1A74B1B78002B71D0F8
:10814000012B00F0B280022B7FF49AAE2946032067
:108150007B601BF0B9FB7B68294618461BF0B4FB1B
:108160009E499F4816F050FBFA2017F035FE052176
:1081700004201BF025FB284604211BF021FBFEF701
:10818000A1F879E6974907F10C0017F0C1FC07F157
:10819000FC0471E69149944816F036FB93499248E5
:1081A00016F032FB3AE68D498D4816F02DFB8F49CB
:1081B0008B4816F029FB31E68D4907F10C0017F0CA
:1081C000A7FC59E68B490722204622F0C5FD00286E
:1081D0005AD089490822204622F0BEFD40BB002D1E
:1081E0006ED00022104642F2014E231801321B7A53
:1081F0000D2BD1B22EFA03FC02D81CF0010F05D1D1
:1082000000F1010C09F800305FFA8CF08D42ECD8D7
:10821000202855D9794907F10C0017F079FC07F1AE
:10822000FC0429E6764907F10C0017F071FC23E6FF
:1082300074490722204622F08FFD00285BD0724946
:108240000922204622F088FD002840F08D80002D74
:1082500062D0034642F2014E22180133527A0D2AAF
:10826000D9B22EFA02FC02D81CF0010F05D100F1A0
:10827000010C09F800205FFA8CF08D42ECD8102830
:108280004AD907F1FC04F7E507F1FC045F492046F1
:1082900017F036FB5E4B07F1F00019780A2217F051
:1082A00097FB17E6FEF77EF8D8E5294603201BF07A
:1082B0000BFB294602201BF007FB48494A4851E7BF
:1082C0005449554802F0F4FE52495448012203F043
:1082D000ADF8002840D05148494616F021FA4F48E1
:1082E00003F05EF93D4907F10C0017F011FC002383
:1082F000009301239AE502464649484807F1FC04E9
:1083000003F094F83C49204617F0FAFA434907F184
:10831000F00016F0F7FBDDE53E493F4802F0C8FEED
:108320003C493E48012203F081F8A8B13C493B4852
:1083300016F0F6F93948494616F0F2F9374803F0D5
:108340002FF93849344802F0B3FE36493348012248
:1083500003F06CF80028BED1334907F10C0017F088
:10836000D7FB07F1FC0487E530490822204622F0BC
:10837000F3FC002885D02E490722204622F0ECFC91
:10838000002859D1CDB10346014642F2014C621892
:108390000133D2790D2AD8B22CFA02FE02D81EF08F
:1083A000010F05D101F1010E09F801205FFA8EF1EC
:1083B0008542ECD8062900F093801E4907F10C0095
:1083C00017F0A6FB07F1FC0456E500BFF49400206B
:1083D000B48E0020806E00207C6E002010E9040026
:1083E000E465002064E904005097002020E90400BF
:1083F000ACE90400E0E90400E8E9040010EA040044
:108400008CE904003CEA040044EA0400D4E90400D6
:108410000560002074E80400D0700020446B002048
:1084200050EA04007CE80400F4E904005CEA04007B
:1084300068EA040070EA04000622C349204622F0DC
:108440008BFC0246002800F0A080C049082220468C
:1084500022F082FC002856D1BDB10346024642F20A
:108460000140A1180133097A0D295FFA83FC20FA33
:1084700001FE02D81EF0010F05D102F1010E09F82C
:1084800002105FFA8EF26545EBD807F1FC0449460D
:10849000204617F035FA204617F062FC05462046C4
:1084A00017F008FB102D28DC4946204617F028FA63
:1084B000204617F055FCA64D034620462B7017F0BA
:1084C000F9FAFEF71DF92A78A24BA34853F82210B7
:1084D00016F018FEA14907F10C0017F019FBCBE4C8
:1084E0009F49A04802F0E4FD9D499F48012202F007
:1084F0009DFF00283FF430AFEDE69C4907F10C00EA
:1085000017F006FBB8E49A490722204622F024FC23
:10851000002800F09C8097490922204622F01CFC8C
:10852000002842D10346024642F201400EE0497A59
:108530000D2920FA01FC02D81CF0010F05D102F12F
:10854000010C09F802105FFA8CF201335FFA83FC28
:10855000654504EB0201EAD807F1FC0449462046D0
:1085600017F0CEF9204617F0FBFB834A031E18BF15
:1085700001232046137017F09DFAFEF7C1F87749E2
:1085800007F10C0017F0C4FA76E47549764807F154
:10859000FC0402F04BFF7949204617F0B1F972490B
:1085A00007F1F00016F0AEFA94E47549082220466F
:1085B00022F0D2FB002800F08D817249082220466B
:1085C00022F0CAFB002876D10022134642F2014075
:1085D0000EE0097A0D2920FA01FC02D81CF0010FE7
:1085E00005D103F1010C09F803105FFA8CF3013295
:1085F0005FFA82FC654504EB0301EAD807F1FC044D
:108600004946204617F07CF9204617F0A9FB05469D
:10861000204617F04FFA002D41D05B4B5B4819788C
:1086200015F0F8FD054600BB594A5A4B10785A49D7
:108630005A4A03EB80031868086001231370FEF7A1
:108640005FF8464907F10C0017F062FA14E407F1ED
:10865000FC043E49204617F053F93D4B197807F1C9
:10866000F0000A2217F080F934E44D49204617F053
:1086700047F985EAE5734B4AA3EBE5739BB20C21FE
:1086800001FB0321204617F08FFA014607F10C0089
:1086900017F018FA204617F00DFAFFF7EDBB3F4B25
:1086A0001D70FEF72DF82D4907F10C0017F030FA78
:1086B0000095FFF7DABB3C490722204622F04CFB2D
:1086C000002800F0168139490622204622F044FB9A
:1086D00038BB0346024642F201400EE089790D297B
:1086E00020FA01FC02D81CF0010F05D102F1010CA7
:1086F00009F802105FFA8CF201335FFA83FC6545DA
:1087000004EB0201EAD807F1FC044946204617F0C1
:10871000F7F8204617F024FB1D4B02461A7020463E
:1087200029E723490522204622F016FB00287CD0A9
:1087300020490822204622F00FFB00287DD1034665
:10874000024642F2014046E090EA040098EA040042
:1087500004600020246000205097002010E90400ED
:1087600020E80400D0700020446B0020A4EA04003C
:10877000BCEA0400C4EA04001064002068EA0400B3
:10878000D0EA0400DCEA04001A600020806E0020B9
:108790001860002034EF04001460002011600020F5
:1087A000E8EA0400E4690020F4EA0400FCEA0400BA
:1087B00004EB04000CEB0400097A0D2920FA01FCFB
:1087C00002D81CF0010F05D102F1010C09F80210CA
:1087D0005FFA8CF201335FFA83FC654504EB02011A
:1087E000EAD8CF4B1B78002B40F0928007F1FC04B5
:1087F0004946204617F084F8204617F0B7FA20467D
:10880000B0EE408A17F056F9C648B0EE480A12F0AA
:1088100055FA054660BBC44BC44983ED008A07F195
:108820000C0017F075F9FFF727BB07F1FC04C049EE
:10883000204617F065F8BF4B10E7BF4907222046D6
:1088400022F08AFA00286CD1B54B1B78002B5FD13F
:1088500007F1FC04B949204617F052F8B24B07F172
:10886000F00093ED000A022117F0E6F8FFF732BBA3
:10887000B34907F1F00017F043F885EAE573B14A10
:10888000A3EBE5739BB20C2101FB032107F1F00080
:1088900017F08AF9AC4917F0B3F949460546204666
:1088A00017F02EF8204617F05BFA0146284617F01D
:1088B00005FAA64917F0A4F9014607F10C0017F0D4
:1088C00001F9204617F0F6F807F1F00017F0F2F87A
:1088D000FFF7D2BA07F1FC049D49204617F010F8C3
:1088E0009C4B07F1F00019780A2217F071F8FFF796
:1088F000F1BA07F1FC049849204617F001F8884BBB
:1089000007F1F00019780A2217F062F8FFF7E2BACF
:10891000924907F10C0017F0FBF807F1FC04FFF790
:10892000ABBA8F490622204622F016FA00283ED123
:108930000346024642F201400EE089790D2920FAF1
:1089400001FC02D81CF0010F05D102F1010C09F85D
:1089500002105FFA8CF201335FFA83FC654504EB89
:108960000201EAD807F1FC044946204616F0C8FF88
:10897000204617F0F5F98046204617F09BF8694825
:108980005FFA88F115F046FC054600287FF46DAECD
:10899000634A744B01211170A3F80080FDF7B0FE0B
:1089A000624907F10C0017F0B3F8FFF765BA6E499A
:1089B0000522204622F0D0F9002801F09A806B4968
:1089C0000622204622F0C8F900283CD10346024680
:1089D00042F201400EE089790D2920FA01FC02D80B
:1089E0001CF0010F05D102F1010C09F802105FFA29
:1089F0008CF201335FFA83FC654504EB0201EAD88F
:108A000007F1FC044946204616F07AFF204617F08D
:108A1000ADF92046B0EE408A17F04CF84148B0EE70
:108A2000480A12F0A5FD054600287FF421AF504BFF
:108A300083ED008AFDF764FE3C4907F10C0017F056
:108A400067F8FFF719BA4B490522204622F084F94E
:108A5000002842D048490622204622F07DF900280D
:108A60004BD10022134642F201400EE089790D29D4
:108A700020FA01FC02D81CF0010F05D103F1010C12
:108A800009F803105FFA8CF301325FFA82FC654546
:108A900004EB0301EAD807F1FC044946204616F02E
:108AA0002FFF204617F05CF95FFA80F8204617F098
:108AB00001F81C48414613F093F8054600287FF45E
:108AC000D4AD2E4B83F80080FDF71AFE174907F14D
:108AD0000C0017F01DF8FFF7CFB907F1FC0423498C
:108AE000204616F00DFF224B07F1F00093ED000A2F
:108AF000022116F0A1FFFFF7EDB92149052220461A
:108B000022F02AF9002870D01E490722204622F0C0
:108B100023F9002871D10346024642F2014042E0A7
:108B200011600020806E00201460002010E9040015
:108B3000FCEA04001860002044EB04000CEB040085
:108B4000E8EA0400E46900203CEB040040EB040088
:108B5000C4EA040010640020DCEA040018EB0400FE
:108B60004CEB04001A60002054EB04005CEB0400A2
:108B70000860002064EB04006CEB0400216000201E
:108B800074EB04007CEB0400C9790D2920FA01FC88
:108B900002D81CF0010F05D102F1010C09F80210F6
:108BA0005FFA8CF201335FFA83FC654504EB020146
:108BB000EAD807F1FC044946204616F0A1FE2046FB
:108BC00017F0CEF8B0F1000818BF4FF001082046AA
:108BD00016F070FFBD484146002212F0C5FE054662
:108BE00000287FF445AEBA4B6CE707F1FC04B949A5
:108BF000204616F085FEB84B30E5B84906222046DF
:108C000022F0AAF8C0B3B6490622204622F0A4F802
:108C1000002840D10346024642F201400EE0897925
:108C20000D2920FA01FC02D81CF0010F05D102F138
:108C3000010C09F802105FFA8CF201335FFA83FC31
:108C4000654504EB0201EAD807F1FC0449462046D9
:108C500016F056FE204617F083F85FFA80F820469B
:108C600016F028FF9948414612F0B8FD0546002845
:108C70007FF4FEAD9B4B25E707F1FC049A492046A3
:108C800016F03EFE924B07F1F00019780A2216F01A
:108C90009FFEFFF71FB995490522204622F05CF898
:108CA000B8B393490622204622F056F8C8BB0346C3
:108CB000024642F201400EE089790D2920FA01FCBA
:108CC00002D81CF0010F05D102F1010C09F80210C5
:108CD0005FFA8CF201335FFA83FC654504EB020115
:108CE000EAD807F1FC044946204616F009FE204662
:108CF00017F036F85FFA80F8204616F0DBFE73486E
:108D0000414614F03BFD054600287FF4AEAC794B9C
:108D1000D8E607F1FC047249204616F0F1FD714BCC
:108D20009CE475490522204622F016F8F8B17349F3
:108D30000722204622F010F8C0BB0346024642F24A
:108D400001405FFA83FC654504EB020117D9C9793C
:108D50000D2920FA01FC02D81CF0010F05D102F107
:108D6000010C09F802105FFA8CF20133E9E707F110
:108D7000FC045F49204616F0C3FD5E4B6EE407F12C
:108D8000FC044946204616F0BBFD204616F0E8FFDD
:108D90008046204616F08EFE4C48414613F02EFACF
:108DA000054600287FF464AD554B8BE655490622F5
:108DB000204621F0D1FF00B353490722204621F07D
:108DC000CBFF002839D10022134642F201405FFA5E
:108DD00082FC654504EB030117D9C9790D2920FAF6
:108DE00001FC02D81CF0010F05D103F1010C09F8B8
:108DF00003105FFA8CF30132E9E707F1FC043F4905
:108E0000204616F07DFD3E4B28E407F1FC04494660
:108E1000204616F075FD204616F0A2FF804620463B
:108E200016F048FE29484FFA88F112F023FB054658
:108E300000287FF41DAD354B44E635490622204617
:108E400021F08AFF00B333490822204621F084FF35
:108E5000002863D10346024642F201405FFA83FCD8
:108E6000654504EB020118D9097A0D2920FA01FCA5
:108E700002D81CF0010F05D102F1010C09F8021013
:108E80005FFA8CF20133E9E707F1FC041E49204642
:108E900016F036FD1D4BFFF7E1BB07F1FC04494618
:108EA000204616F02DFD204616F05AFF5FFA80F896
:108EB000204616F0FFFD0548414612F0BFFC05466E
:108EC00000287FF4D5AC144BFCE500BF806E002079
:108ED0000D6000206CEB04002160002084EB040096
:108EE0008CEB04000C6000207CEB040094EB04008D
:108EF0009CEB040022600020A4EB0400ACEB040017
:108F00001F600020B4EB0400BCEB040020600020D4
:108F1000C4EB0400CCEB040012640020BD4907221E
:108F2000204621F019FFF8B1BB490822204621F064
:108F300013FF98BB0346024642F201405FFA83FCEE
:108F4000654504EB020118D9097A0D2920FA01FCC4
:108F500002D81CF0010F05D102F1010C09F8021032
:108F60005FFA8CF20133E9E707F1FC04AB492046D4
:108F700016F0C6FCAA4BFFF771BB07F1FC0449468B
:108F8000204616F0BDFC204616F0EAFEA54A031E58
:108F900018BF012320461370FFF7EDBAA24907223C
:108FA000204621F0D9FE00B3A0490722204621F037
:108FB000D3FE00283ED10346024642F201405FFA4A
:108FC00083FC654504EB02011ED9C9790D2920FAFD
:108FD00001FC02D81CF0010F05D102F1010C09F8C7
:108FE00002105FFA8CF20133E9E707F1FC048A49C9
:108FF000204616F085FC8B4B07F1F00019780A2209
:1090000016F0E6FCFEF766BF07F1FC044946204671
:1090100016F076FC204616F0A3FEC5B2204616F0E8
:1090200049FD032D00F25E85814B1D70FDF768FB45
:10903000FEF714BF7F490622204621F08DFE00284E
:1090400000F06C837C490C22204621F085FE00282C
:109050006CD10346024642F201405FFA83FC65454B
:1090600004EB02010FD9097B0D2920FA01FC02D87B
:109070001CF0010F05D102F1010C09F802105FFA92
:109080008CF20133E9E707F1FC044946204616F06B
:1090900037FC204616F064FE0546204616F00AFD11
:1090A000002D00F04483654B65486649664ADFF849
:1090B000DCE1DFF8CCC101251D700570634B0D703C
:1090C000692010706249634A19606348634B1060FD
:1090D0008CF80050624ADFF8B8C18EF800504FF0AB
:1090E000190EA3F800E05F495F480C234FF0050E0E
:1090F00013708CF800E05D4A0B704FF0DC0C4849AF
:109100005B4B80F800C0142010704FF00008022262
:1091100081F800801A70FDF7F3FA564907F10C0048
:1091200016F0F6FCCDF80080FEF79FBE52490B22E8
:10913000204621F011FE002800F0E1824F490B2269
:10914000204621F009FE50BB0022134642F20140A6
:109150005FFA82FC654504EB03010FD9C97A0D293A
:1091600020FA01FC02D81CF0010F05D103F1010C1B
:1091700009F803105FFA8CF30132E9E707F1FC0408
:109180004946204616F0BCFB204616F0E9FD3C4A55
:10919000031E18BF012320461370FFF7ECB93949AD
:1091A0000A22204621F0D8FD28B33749082220465C
:1091B00021F0D2FD00286DD10346024642F2014063
:1091C0005FFA83FC654504EB02010FD9097A0D298A
:1091D00020FA01FC02D81CF0010F05D102F1010CAC
:1091E00009F802105FFA8CF20133E9E7102A3FF622
:1091F00048A8FFF7A6B807F1FC042049204616F05E
:109200007FFB1F4B07F1F00019780A2216F0E0FBF4
:10921000FEF760BED8EB0400E0EB0400CCEB0400EA
:109220001264002011640020ECEB0400F4EB040055
:109230001D6000201CEC040024EC04000D600020E4
:1092400010600020116000201860002014600020D1
:10925000CD4C65440860002000007A431A6000206D
:109260001F6000202160002022600020206000207C
:109270001C60002010E9040034EC040040EC040001
:109280000F6000204CEC040058EC04000E6000203D
:109290000C6000200722C349204621F05DFD0246F4
:1092A000002845D0C0490B22204621F055FD00285A
:1092B00063D10346024642F201405FFA83FC6545F2
:1092C00004EB02010FD9C97A0D2920FA01FC02D85A
:1092D0001CF0010F05D102F1010C09F802105FFA30
:1092E0008CF20133E9E7402A3EF6CBAFAF49B048F4
:1092F00001F0DEFE40220021AE4820F0F5FD2A46B6
:109300004946AC4820F0C8FDA849AB48012202F00C
:109310008DF8002800F0DD834946A74815F000FAD3
:10932000A54802F03DF94846FDF710FAFEF7DABF0E
:10933000A249A14802F07AF807F1FC04A0492046AE
:1093400016F0DEFA07F1F0009B4915F0DBFB07F1A0
:10935000F001204616F028FC014607F10C0016F03B
:10936000B1FB07F1F00016F0A5FB204616F0A2FBBA
:10937000914802F015F9FEF77FBD0A229149204677
:1093800021F0EAFC0246002800F0D68109228E492D
:10939000204621F0E1FC0246002800F0FD818B49C7
:1093A0000622204621F0D8FC00284BD1884B1B78A0
:1093B000002B42D0012B03D18649874815F0B0F924
:1093C000864812F0DFFE03201AF09CFA01210546C0
:1093D00003201AF0F5F93C2403201AF0B5FA013CF9
:1093E0004FF4FA7016F0F8FC14F0FF04F4D1291EC3
:1093F00018BF012103201AF067FA794B794A1B78CC
:10940000146073B1784A794B1278744803EB820385
:1094100093ED000A11F052FC75497048042214F0D3
:1094200093F974496D48042214F078F96B4813F0ED
:1094300031FC07F1FC04FEF71FBD66496E4815F0CC
:109440006FF9BDE76D490B22204621F085FC60BB1A
:109450000346024642F201405FFA83FC654504EB95
:1094600002010FD9C97A0D2920FA01FC02D81CF09B
:10947000010F05D102F1010C09F802105FFA8CF21C
:109480000133E9E707F1FC044946204616F038FAB3
:10949000204616F065FC5A4B024620461A7016F01C
:1094A00009FBFDF72DF9FEF7D9BC56490A222046E3
:1094B00021F052FC002843D053490A22204621F0D3
:1094C0004BFC002845D10022134642F201405FFACE
:1094D00082FC654504EB03010FD9897A0D2920FA36
:1094E00001FC02D81CF0010F05D103F1010C09F8B1
:1094F00003105FFA8CF30132E9E707F1FC044946F7
:10950000204616F0FDF9204616F02AFC05462046B6
:1095100016F0D0FA002D00F0AA80304812F0BEFA02
:10952000054600287FF4A4A9384B01221A70FDF7E4
:10953000E7F8284907F10C0016F0EAFAFEF79CBCA0
:1095400007F1FC042D49204616F0DAF92C4BFFF701
:1095500085B82F490922204621F0FEFB002800F0A3
:1095600098802C490822204621F0F6FB00286FD174
:109570000346024642F201405FFA83FC654504EB74
:10958000020149D9097A0D2920FA01FC02D81CF000
:10959000010F05D102F1010C09F802105FFA8CF2FB
:1095A0000133E9E764EC04006CEC040090E804008B
:1095B000D070002044640020446B00207CE804004C
:1095C00058EC040094EC0400A0EC0400B8EC040097
:1095D0007C6E002010E9040050970020806E00206F
:1095E00011600020A06C00201860002034EF0400FF
:1095F000E1620200D562020078810020C0EC040024
:109600001E600020CCEC0400D8EC040010600020A8
:10961000E4EC0400F0EC040007F1FC0449462046A9
:1096200016F06EF9204616F09BFBC5B2204616F0E8
:1096300041FA022D47D8002D3FD0444B197801291B
:1096400048D0022934D0B8F1000F48D13F4B0FE089
:109650003F492046072221F07FFB98B907F1FC041F
:109660003C49204616F04CF9384BFEF7F7BF3A4B11
:109670001D70FDF745F8394907F10C0016F048FA5E
:10968000FEF7FABB364907F10C0016F041FAFEF777
:10969000F8BD07F1FC043349204616F031F92E4B92
:1096A00007F1F00019780A2216F092F9FEF712BCC1
:1096B0002D4812F0E5F98046C5E72B48294612F0FF
:1096C000B3F98046BFE7294907F10C0016F020FAEC
:1096D000FEF7D2BB244812F0A7F98046B3E724492D
:1096E00007F1F00016F00CF9224BB8F1000FB8BFEB
:1096F000C8F100080C2101FB0831FFF7C7B807F1DA
:10970000FC041D49204616F0FBF81C4B07F1F00045
:1097100019780A2216F05CF9FEF7DCBB07F1FC04AD
:109720001749204616F0ECF8164BFEF797BF134A80
:10973000154B1570DD22F9E61449154807F1FC04B4
:1097400001F074FE13492046FAE500BF1C600020BA
:109750001CED0400F0EC04001060002010E904008F
:1097600024ED0400D8EC0400806E0020FCEC040022
:10977000E8EA0400E469002024EC04000E60002004
:10978000F4EB04001D6000202260002090E804003B
:10979000446B00206CEC04007860DD49DD4801F08A
:1097A00045FEDC4907F1180015F0ACF9D94801F085
:1097B000F7FE7A68D849D74801F038FED54907F155
:1097C000240015F09FF9D34801F0EAFE7A68D349E6
:1097D000D04801F02BFECF4907F1300015F092F987
:1097E000CC4801F0DDFE7A68CD49CA4801F01EFE82
:1097F000C84907F13C0015F085F9C64801F0D0FED4
:10980000C84907F1480016F07BF807F1180107F185
:10981000480016F0C9F92C2116F022FAC24B044672
:1098200093ED000A07F15400022116F005F907F143
:109830005401204616F0B8F92C2116F011FABB4B52
:109840000A221978044607F1600016F0C1F807F102
:109850006001204616F0A8F92C2116F001FAB44B4D
:109860000A221978044607F16C0016F07DF807F11A
:109870006C01204616F098F92C2116F0F1F9AD4B49
:10988000044693ED000A07F17800022116F0D4F89F
:1098900007F17801204616F087F92C2116F0E0F93F
:1098A000A54B0A221988044607F1840016F090F8A7
:1098B00007F18401204616F077F92C2116F0D0F933
:1098C0009E4B044693ED000A07F19000022116F02A
:1098D000B3F807F19001204616F066F92C2116F036
:1098E000BFF9974B0A221978044607F19C0016F03D
:1098F0003BF807F19C01204616F056F92C2116F092
:10990000AFF9904B0A221978044607F1A80016F027
:109910002BF807F1A801204616F046F92C2116F085
:109920009FF9894B0A221978044607F1B40016F012
:109930001BF807F1B401204616F036F92C2116F079
:109940008FF9824B0A221978044607F1C00016F0FD
:109950000BF807F1C001204616F026F92C2116F06D
:109960007FF97B4B0A221978044607F1CC0015F0E9
:10997000FBFF07F1CC01204616F016F92C2116F05A
:109980006FF9744B0A221978044607F1D80015F0D4
:10999000EBFF07F1D801204616F006F92C2116F04E
:1099A0005FF96D4B0A221978044607F1E40016F0BE
:1099B0000FF807F1E401204616F0F6F82C2116F016
:1099C0004FF9664B0A221978044607F1F00015F0AA
:1099D000CBFF07F1F001204616F0E6F82C2116F037
:1099E0003FF907F1240116F0DFF82C2116F038F9C1
:1099F00007F1300116F0D8F82C2116F031F907F1F3
:109A00003C0116F0D1F82C2116F02AF9544B07F13D
:109A1000FC0419780A220546204615F0A5FF2146C8
:109A2000284616F0C1F8014607F10C0016F04AF876
:109A3000204616F03FF807F1F00016F03BF807F16A
:109A4000E40016F037F807F1D80016F033F807F104
:109A5000CC0016F02FF807F1C00016F02BF807F134
:109A6000B40016F027F807F1A80016F023F807F164
:109A70009C0016F01FF807F1900016F01BF807F194
:109A8000840016F017F807F1780016F013F807F1C4
:109A90006C0016F00FF807F1600016F00BF807F1F4
:109AA000540016F007F807F1480016F003F807F124
:109AB0003C0015F0FFFF07F1300015F0FBFF07F148
:109AC000240015F0F7FF07F1180015F0F3FFFEF77B
:109AD000D3B9244907F10C0016F01AF807F1FC0479
:109AE000FEF7CAB9204907F10C0016F011F8FEF78D
:109AF000C3B907F1FC041D49204615F001FF0E4BC8
:109B000007F1F00019880A2215F062FFFEF7E2B9AA
:109B100074E80400446B00207CE8040090E8040032
:109B200020E80400ACEC040070600020116000200C
:109B300018600020146000201A60002008600020D7
:109B4000216000200C600020226000201F600020A7
:109B500020600020126400200D6000201D600020A5
:109B60001E60002078EC0400FCEB04004CEB0400C9
:109B700038B5164B1B7804460D4673B9144B1B7849
:109B800023B1012B1AD0022B11D038BD0A46BDE8F3
:109B9000384001460F4807F0E5B90A4601460D482E
:109BA00007F0E0F90C482A46214615F081FA2146D3
:109BB0000A48BDE83840F7220FF042BD0A46BDE82A
:109BC00038400146044815F073BA00BF1164002004
:109BD0007C6E00207881002050970020CC6500200A
:109BE00010B5074B044640F8183B0CF0B7FA204676
:109BF000044B40F8083B0EF0BFFA204610BD00BFF2
:109C0000A4F6040010F6040010B5044B044640F816
:109C1000083B0EF0B1FA204610BD00BF10F604005C
:109C200010B5074B044640F8183B0CF097FA204655
:109C3000044B40F8083B0EF09FFA204610BD00BFD1
:109C4000F8F6040010F6040038B5164B1B780446ED
:109C50000D4673B9144B1B7823B1012B1AD0022B7C
:109C600011D038BD0A46BDE8384001460F4807F01C
:109C700079B90A4601460D4807F074F90C482A469E
:109C8000214615F015FA21460A48BDE83840F7226A
:109C90000FF04CBB0A46BDE838400146044815F0B9
:109CA00007BA00BF116400207C6E0020788100207C
:109CB00050970020E465002000B5174B0FCB85B00E
:109CC0006C4607C40D2168462380FFF7BDFFFA20CC
:109CD00016F082F8114B124819880EF0B3FF1148A4
:109CE00007F032F9104815F0A9F90E4807F026FAE6
:109CF0000D4815F043F90D4801F01AF9BFF34F8FE5
:109D00000B490C4BCA6802F4E0621343CB60BFF30B
:109D10004F8F00BFFDE700BF40ED0400A86B00209F
:109D2000B48E00207881002050970020D070002051
:109D300000ED00E00400FA052DE9F041C148F6B05D
:109D400007F0C6F890B9C04815F062F9002857D15D
:109D5000BE480FF04BFA002840F09C80BC4B1B78AB
:109D6000002B40F0E98076B0BDE8F08138AEF722F4
:109D70000021304620F0B8F8B24DB64B00246420E4
:109D80001C7016F029F8284607F0A2F8D022C3B2BA
:109D9000934204AF28BF134621463846984620F028
:109DA000A3F83946D022284614F08AFE01E007F0D5
:109DB000B5F8284607F08CF804462846002CF6D162
:109DC0003A8845F241439A4200F0DE81A24B1B786B
:109DD000002B40F09381A14B1B78002B40F0588161
:109DE00041463846FDF7E2FC304620F0ADFFC1B2F7
:109DF0003046FFF729FF944815F00AF90028A7D04C
:109E000038AE00213046F72220F06EF88E4D914B8F
:109E1000012264201A7015F0DFFF284615F0F8F8CB
:109E2000D022C3B2934204AF28BF13463846002164
:109E3000984620F059F83946D022284614F040FEC2
:109E400001E015F0EDF8284615F0E2F80446284642
:109E5000002CF6D13A8845F241439A4200F08181C4
:109E60007D4B1B78002B40F06B817C4B1B78002BCB
:109E70007CD141463846FDF799FC304620F064FF1E
:109E8000C1B23046FFF7E0FE70480FF0AFF900288E
:109E90003FF464AF38AD0021F722284620F024F8C3
:109EA0006A4E6C4B022240F2E2401A7015F094FFA9
:109EB00030460FF09BF904AF5FFA80F8D02290454E
:109EC00038464FF0000128BF904620F00DF83C4680
:109ED00030460FF0DBF9C0B2FF2818BF2070013404
:109EE000A542F5D1594E01E00FF0D0F930460FF000
:109EF0007DF904463046002CF6D13A8845F24143BC
:109F00009A4200F05481544B1B78002B40F007819B
:109F1000524B1B78002B5FD141463846FDF746FC7B
:109F2000284620F011FFC1B22846FFF78DFE484BAE
:109F30001B78002B3FF417AF494C15F041FF226806
:109F400042F20F73801A98427FF60DAF454A464B96
:109F50001278464803EB820393ED000A10F0AEFE40
:109F600015F02EFF206076B0BDE8F081404B3F48F1
:109F700001221A7012F0AAFA03463C488DF8043008
:109F800012F0A4FA034639488DF8053012F09EFA13
:109F9000034636488DF8063012F098FA354B8DF8A6
:109FA000070093F8008015F00BFF044615F008FF3A
:109FB000314B02461A603946D02230481FF06CFF00
:109FC0002F4A30483049314B019D82F800800022F1
:109FD00005600C601A7050E7254B244801221A7066
:109FE00012F074FA034621488DF8043012F06EFA2C
:109FF00003461E488DF8053012F068FA03461B48E8
:10A000008DF8063012F062FA1A4B8DF8070093F8BB
:10A01000008015F0D5FE044615F0D2FE164B024620
:10A020001A603946D02215481FF036FF144A1548E9
:10A030001549164B019E82F80080002206600C60D4
:10A040001A706DE77881002050970020CC650020C1
:10A05000116000207C6E0020106400200E60002043
:10A06000A46C00201860002034EF0400806E0020F3
:10A07000CD6F00200F6000206C600020B06C0020CD
:10A08000A96C0020AC6C0020786E0020A86C002029
:10A09000504B514801221A7012F018FA03464E48EC
:10A0A0008DF8043012F012FA03464B488DF8053053
:10A0B00012F00CFA034648488DF8063012F006FA02
:10A0C000464B8DF8070093F8008015F079FE0446A2
:10A0D00015F076FE424B02461A603946D0224148BE
:10A0E0001FF0DAFE404A41484149424B019D82F847
:10A0F0000080002205600C601A7075E6304620F082
:10A1000023FE3D4C84460FCC06EB0C0546F80C00B4
:10A11000696003CCAA60EB60286169615BE6284650
:10A1200020F012FE344C84460FCC05EB0C0645F8AB
:10A130000C00716003CCB260F36030617161E7E6DE
:10A14000304620F001FE2C4C84460FCC06EB0C056B
:10A1500046F80C00696003CCAA60EB602861696175
:10A1600083E6BB782B2B7FF47BAE4246394601A8B1
:10A17000FDF71CFE01A82346F722314615F0D6FD57
:10A1800001A815F097FC78E6BB782B2B7FF41EAE68
:10A190004246394601A8FDF709FE01A82346F722E9
:10A1A000314615F0C3FD01A815F084FC1CE6BB7810
:10A1B0002B2B7FF4A8AE4246394601A8FDF7F6FDE9
:10A1C00001A82346F722294615F0B0FD01A815F095
:10A1D00071FCA5E6CD6F0020806E00200F6000208E
:10A1E0006C600020B06C0020A96C0020AC6C0020DA
:10A1F000786E0020A86C002054ED04002DE9F04F8B
:10A200009B4F3B780026ADF5697DB3463446ABB92C
:10A21000984A137803F0FF09002B37D1964A137838
:10A22000002B40F0A280042019F06CFB04460028AB
:10A2300000F0CB800DF5697DBDE8F08F8F48904D23
:10A2400013F0F8FF8F4B1B6890FBF3F202FB130334
:10A250008D4A8A4802EB830393ED000A10F02EFD2D
:10A260002B68012B00F0C08301332B6015F0A8FD93
:10A27000864B024681481A6013F0E6FF00237D4AB0
:10A280003B70137803F0FF09002BC7D04FF0000894
:10A290007A4882F800802EAD13F0D6FF4146F722AF
:10A2A000284687F800801FF01FFE4146F7226CA861
:10A2B0001FF01AFE71484246294612F0F3F90028B1
:10A2C00000F0BC80073000F06C81714B6C4D93E85E
:10A2D0000700AAAB03C341461A800DF2B220ED225B
:10A2E0001FF002FE802241460EA81FF0FDFD694BC3
:10A2F00069491B68002BB8BF5B4203EB430301EBCA
:10A3000083010AA815F016FB64490AA815F078FC29
:10A31000014607A815F00EFB0AA815F0CBFB099A19
:10A3200043460132AAAC0EA907A815F0FFFC20464F
:10A3300020F00AFD0EA9204420F0C8FC001BC1B289
:10A340002046FFF781FC07A815F0B4FB544B1B789F
:10A3500000222A60002B40F0FB82484812F09AFC51
:10A36000454A1378002B3FF45EAF0026167015F0B7
:10A3700027FD474A4B4C034607CA0DF52A794D463F
:10A3800003C531462A800DF2B220ED2223601FF072
:10A39000ABFD454B1B78002B40F0E582384D404B20
:10A3A0001B7800222A60002B40F0C2823F493348CC
:10A3B000042213F0B3F9314812F06CFC042019F0B8
:10A3C000A1FA044600287FF435AF014638480BF067
:10A3D000E5FC38480EF018FC85B245B1354E2146F3
:10A3E000013430460EF02EFCA1B28D42F8D8304830
:10A3F0000BF0B2FD214811F0C5FE0624032019F030
:10A40000A3FA013C642015F0E7FC14F0FF04F5D139
:10A410002146032019F0D4F92146022019F0D0F981
:10A420000521042019F0CCF92046042119F0C8F9BF
:10A43000FBF748FF0DF5697DBDE8F08F1E4B1F78D7
:10A440000097002F00F0AF802B78002B00F0F282F5
:10A45000012B40F0A880CDE9016B024601462B4656
:10A4600010270DF138080DF52A7903942CE000BF70
:10A47000406B0020CC6F0020CC700020806E00204C
:10A48000A06C00206860002034EF0400A46C002061
:10A490003CEE0400C8700020E46900204CED04008C
:10A4A00011600020C4700020CD6F0020D562020032
:10A4B000F4940020B48E00200E6000200132D2B24D
:10A4C00017F0FF0700F05683BE1CF81CF6B2C0B2AE
:10A4D000AE5D15F800C093F80EB093F80AE0C8F826
:10A4E0000010002066F307003E1D6CF30F20F6B24B
:10A4F00007F1050C5FFA8CFCAE5D15F80CA093F823
:10A5000006C0C8F8041066F317406AF31F60AD90E8
:10A5100093F80FA0C8F8081000207E1C6BF307000A
:10A520006AF30F20F6B215F807A0AE5DC8F80C105C
:10A530006AF317404FF0000A6EF3070A93F80BE036
:10A5400066F31F6000241E7BAC906CF30704587BFD
:10A5500093F807C06EF30F2A66F3174A1E7A60F36A
:10A560001F6A6CF30F24587ACDF8ACA266F3174437
:10A5700060F31F64AA94D9F8000010371033002844
:10A580009CD10F98824599D1AC9E1098864295D166
:10A59000AD9E1198864291D192E7B9F1000F40F03B
:10A5A000BF81BA4DD2E6F72229466CA81FF074FC91
:10A5B0000DF1280AEF782B79B54A6879D2F8022094
:10A5C000A978CAF800203F0447EA0327D5F80230EB
:10A5D000079307439A4247EA016702D16B78013338
:10A5E0006B70DFF8B8A201238DF819300AF5C8782E
:10A5F000534601E0434506D053F8042B9742F9D166
:10A6000000238DF819309DF81930DBB28DF8183021
:10A610009DF81830002B40F0F0819E4B1B78002BEA
:10A62000BBD09D4A6B7811788B4280F02881012243
:10A630009A4B8DF81A2001E0984506D053F8042B68
:10A640009742F9D100238DF81A309DF81A30002B6B
:10A6500000F0158115F0B4FB91490446002351F830
:10A66000042F5FFA83FCA24203F101033CBF66465C
:10A670001446642BF3D18B4B884A43F8260042F8EA
:10A680002670B9F1000F40F081822946F722AAA86E
:10A690001FF002FC844B6C78844E00221A7015F077
:10A6A0008FFB834811F012FF054615F089FB01343A
:10A6B000142313FB0503E4B275488DF8A942AAA937
:10A6C000F72233601FF0E8FBB9F1000F3FF469AFE8
:10A6D000784B1B78002B3FF464AF6E4B93F800A0CF
:10A6E000BAF1000F7FF45DAF0DF52A79F7225146DC
:10A6F00048461FF0F9FB484620F026FB6E4F634D9D
:10A7000084460FCF0CF101040A2609F80C6049F8C1
:10A7100004004C44B7F804C03868BF79A4F814C0EA
:10A720000DF13808E3606160A2602061A7755146B1
:10A73000202240461FF0D8FB2868604F3246414631
:10A74000023017F09BFE484620F0FEFA414648448E
:10A7500020F0BCFA07F1200C0670441C3E460FCED8
:10A76000664520606160A260E360374604F1100432
:10A77000F4D103CF3B882381206061602022002137
:10A7800040461FF0B1FB4A484D4F0022012111F015
:10A79000D9F8FDEEC07A0A2217EE900A414617F06A
:10A7A0006DFE484620F0D0FA4146484420F08EFA2B
:10A7B000444A0346106818601E1D07F1200C3C46F1
:10A7C0000FCC644530607160B260F360274606F1DB
:10A7D0001006F4D1237920683371306020220021E3
:10A7E00040461FF081FB3248374C11F0E5FBFDEE8F
:10A7F000C07A0A2217EE900A414617F03FFE4846FB
:10A8000020F0A2FA4146484420F060FA06460FCCF8
:10A81000A6EB090701374FF00A0A86F800A009EBFA
:10A82000070649F80700716003CC2478F360B26032
:10A830003061716120220021404634761FF054FBC4
:10A840001B48002112F0CCFFFDEEC07A524617EEF5
:10A85000900A414617F012FE484620F075FA41462C
:10A86000484420F033FA19490346A0EB09020332A9
:10A8700008681860D1B24846FFF7E6F966E5002996
:10A880007FF422AF01238DF81B3023E0A06C002061
:10A89000806D00200E6000201E600020C466002035
:10A8A0005068002054680020CD6F00206C600020AC
:10A8B000806E0020106400206CED040084ED040024
:10A8C000B8ED0400B0ED0400E0ED0400FCED040080
:10A8D000C24506D05AF8043B9F42F9D100238DF8B7
:10A8E0001B309DF81B30002B3FF4EEAE15F068FADC
:10A8F000BB490446002351F8042FDDB2A24203F104
:10A9000001033CBFAB461446642BF4D1B54BB64AA9
:10A9100043F82B0042F82B70B9F1000F3FF441AE21
:10A920006CA820F011FAC1B26CA8FFF721F9CFE6AC
:10A93000AE4AAF4B1278AF4803EB820393ED000AA7
:10A9400010F0BCF9AC49AB48042212F0FDFE2DE535
:10A95000A64AA74B1278A74803EB820393ED000A9F
:10A9600010F0ACF9F9E4A54D802231466CA81FF037
:10A97000BBFA2B68A249002BB8BF5B4203EB430331
:10A9800001EB83012EA814F0D5FF9E492EA815F0E7
:10A9900037F90DF138080146404614F0CBFF2EA8D8
:10A9A00015F088F8D8F80820334601326CA94046E3
:10A9B00015F0BCF9484620F0C7F96CA9484420F0CE
:10A9C00085F92F6806461FB98F4B1B78002B3BD1AA
:10A9D0008E4D484620F0B8F9C1B24846FFF734F929
:10A9E000404615F067F8DAE415F0EAF9884B894A31
:10A9F0001B68C01A10602B6836E49DF81830DBB273
:10AA0000009315F0DDF976498446002351F8042FB0
:10AA10005FFA83FE624503F101033CBF744694462E
:10AA2000642BF3D16F4B704A009942F8241043F81D
:10AA30002400F2E5F1220DF1BE016CA81FF02CFA02
:10AA4000B9460DF1280AB5E5724B714ADFF8D0C15D
:10AA5000D3F800B02368D2F800E00093BCE80F0000
:10AA6000F360009BBCF804A03060DE44DCF800001A
:10AA70007160664D9CF80610B260A3EB0E03306166
:10AA8000A6F814A0B175202239462EA800931FF015
:10AA90002BFA0A222EA92868DFF888B117F0EEFCFD
:10AAA000484620F051F92EA9484420F00FF9DFF86C
:10AAB00078C18646BCE80F00AEEB090601364FF0C0
:10AAC0000A0A8EF800A049F806004E44DCF800009F
:10AAD0009CF804C086F814C07160B2603061F36005
:10AAE000202239462EA81FF0FFF9494A2068136832
:10AAF000494C5246C01A2EA917F0C0FC484620F017
:10AB000023F92EA9484420F0E1F80646DBF80000BE
:10AB100030600FCCA6EB0906033609EB060C49F8AA
:10AB20000600CCF80410CCF8082007CC2488CCF818
:10AB30001000CCF81410CCF81820CCF80C30ACF87D
:10AB40001C40394620222EA81FF0CEF9009B286811
:10AB5000B3FBF0F052462EA917F090FC484620F0C7
:10AB6000F3F82EA9484420F0B1F80346DBF80000C2
:10AB700018602EE7931E13F0FF03DDE9016B039CC1
:10AB800002930BD1B9460DF1280A13E56CA820F009
:10AB9000DBF8C1B26CA8FEF7EBFF76E5DDF8BE008E
:10ABA000DDF8C210DDF8C620DDF8CA30AA970DF135
:10ABB000280AD446ACE80F00184BC9F804701A46AE
:10ABC000C9E90277DB68526850464146FBF730FD21
:10ABD000D8F80020AA9B9A4228D04FF00009E9E457
:10ABE0005068002054680020C466002018600020CF
:10ABF00034EF0400806E0020E1620200C870002083
:10AC0000E46900204CED040010640020A06C0020DA
:10AC1000C0700020BC7000201CEE04008464002082
:10AC20006CED040018EE040000EE0400AB9A0F9BDC
:10AC30009342D2D1AC9A109B9342CED1AD9A119B44
:10AC40009342CAD1DDF8CE00DDF8D210DDF8D6206F
:10AC5000DDF8DA30D446ACE80F00934B1A46414693
:10AC60005268DB685046FBF7E3FC404620F06CF886
:10AC700039468146F7226CA85FFA89F71FF034F94C
:10AC8000B9F1000F06D07A1ED2B2013241466CA84B
:10AC90001FF002F96CAB6CA84B443A2200F8092073
:10ACA00002372022CDE9036BF9B25A7000230594D4
:10ACB00001934FF026090C4609F10C0109F10D0230
:10ACC00009F10903C9B2DBB2D2B2695C15F803E03D
:10ACD000AA5C15F80970002361F3070309F1040069
:10ACE00062F30F2309F10E02C0B2D2B215F800C010
:10ACF000AA5C09F1080609F1050009F10101F6B2A3
:10AD0000C0B2C9B262F3174309F10F0215F806B0D9
:10AD10002E5C685C0199D2B20131AA5C019109F103
:10AD20000A0162F31F63C9B2CAF80C300023695CE0
:10AD30006BF307036EF30F2361F3174309F10B0164
:10AD4000C9B209F1020E695C61F31F630021CAF800
:10AD500008306CF3070109F103035FFA8EFE66F316
:10AD60000F21DBB2002615F80EE0EB5C09F10602BC
:10AD700067F3070609F1070B60F30F26D2B26EF3F3
:10AD800017465FFA8BFBAA5C15F80BC063F31F66CE
:10AD9000454BCAF8006062F317411A466CF31F6115
:10ADA000DB685268CAF8041050464146FBF740FC85
:10ADB000661C0DF5D87C98F800700CF80470A01C87
:10ADC000F6B298F801700CF80670E11CC0B298F861
:10ADD00002700CF80070221DC9B298F803700CF8CC
:10ADE0000170D2B2631D98F804700CF80270DBB2E7
:10ADF000A61D98F805700CF80370F6B2E01D98F8DF
:10AE000006700CF80670C0B204F1080198F80770DB
:10AE10000CF80070C9B204F1090298F808700CF837
:10AE20000170D2B204F10A0398F809700CF80270AC
:10AE3000DBB204F10B0698F80A700CF80370F6B256
:10AE400004F10C0098F80B700CF80670C0B204F115
:10AE50000D0198F80C600CF80060C9B204F10E0204
:10AE600004F10F0398F80D600CF80160D2B2DBB268
:10AE700098F80E0098F80F100CF802009DF80420C6
:10AE80000CF80310029B09F11009103493425FFA89
:10AE900089F9E4B23FF610AFDDE9036B059CDDF8FC
:10AEA0000090FFF787BB00BF84640020704700BF9D
:10AEB00010B5044617F0B4FB204610BD38B50A4B58
:10AEC00004460D46442240F80C3B00211FF00CF8CC
:10AED0000023A560237104F15401012015F05EFAEE
:10AEE0002065204638BD00BF3CF1040070B5044623
:10AEF0000E46006D4FF0FF3115F0C8FC257955B9AD
:10AF00008EB1A660314604F10C0005F0D5FBB0FA15
:10AF100080F56D0925710023206D1A46194615F03C
:10AF20008DF8284670BDA668002EF4D0EAE700BF71
:10AF300010B504464FF0FF31006D15F0A7FC2379E2
:10AF40003BB90023206D1A46BDE81040194615F0A4
:10AF500075B80023237104F10C0005F0C1FCF0E783
:10AF600070B505464FF0FF31006D15F08FFC2B7961
:10AF700093B1002305F10C062B71304605F0B0FCAF
:10AF8000044680B10023286D1A46194615F056F87C
:10AF9000B4FA84F0400970BDA96805F10C0004F012
:10AFA0002BFF0446EEE7A968304604F025FF04466F
:10AFB0000028E7D1A968304605F07EFB044600284A
:10AFC000E0D101232B71DDE730B5044695B00D4685
:10AFD000006D4FF0FF3115F059FC294601AA04F12C
:10AFE0000C0004F0DDFC002302461946206D1446D7
:10AFF0001A4615F023F8B4FA84F0400915B030BDB4
:10B000002DE9F04F83B00B7800AF2F2B78600CBF89
:10B010004C1C0C4606460D46006D4FF0FF3115F0F6
:10B0200035FC06F10C084FF0000917E0ADEB030DFD
:10B0300068468B4500F8019BEA4601DD1EF054FF8F
:10B0400029465A4650461EF027FF5146404603F017
:10B050000DFD08B1113028D10134B54620462F210D
:10B060001FF04CFEA0EB050B0BF108036E46002110
:10B07000044623F007035A460028D7D12946404604
:10B0800003F0F4FC60B901247A680023106D1946BE
:10B090001A4614F0D3FF20460C37BD46BDE8F08FAA
:10B0A000113014BF00240124EEE70024B546EBE77D
:10B0B00038B504460D46006D4FF0FF3115F0E6FB44
:10B0C000294604F10C0004F0C3FC00230246194693
:10B0D000206D14461A4614F0B1FFB4FA84F040090A
:10B0E00038BD00BF00207047036970B504460D46A7
:10B0F000186D4FF0FF31164615F0C8FB237D4BB19C
:10B10000002522690023106D19461A4614F096FF97
:10B11000284670BD2069A1692A4633460C3003F0E9
:10B12000F3FF20EAE075ECE770B50369044682B0EE
:10B13000186D4FF0FF3115F0A9FB267D4EBB20693D
:10B14000A1690C3004F01EFC05462069A1698DF848
:10B15000076001230DF107020C3004F05FFB0028AB
:10B160002069A169C8BF9DF807602A4600F10C005C
:10B170004FF00003D8BF4FF0FF3604F0D3FB226935
:10B180000023106D19461A4614F058FF304602B0DD
:10B1900070BD4FF0FF36F2E738B5036904464FF053
:10B1A000FF31186D15F072FB237D4BB1002522692C
:10B1B0000023106D19461A4614F040FF284638BD8A
:10B1C0002069A1690C3004F0DFFB05462069A16904
:10B1D0000C3004F0D7FB2D1AE9E700BF036910B566
:10B1E00004464FF0FF31186D15F050FB237D43B13D
:10B1F00022690023106DBDE810401A46194614F06C
:10B200001DBF2069A1690C3004F0E4F9F0E700BF2C
:10B2100030B50369044683B0186D4FF0FF3115F067
:10B2200035FB257D55B122690023106D19461A465C
:10B2300014F004FF4FF0FF3003B030BD2069A16966
:10B240000DF1070201230C3004F0E8FA23692A46C5
:10B2500004462946186D2B4614F0F0FE002CCCBF96
:10B260009DF807004FF0FF3003B030BD30B50368E4
:10B27000164A5B6883B093428DF807101ED10369AC
:10B2800004464FF0FF31186D15F000FB237D53B1DC
:10B29000002522690023106D19461A4614F0CEFECF
:10B2A000284603B030BD2069A1690C3001230DF19F
:10B2B000070203F029FF20EAE075EAE701220DF119
:10B2C000070198470546284603B030BDE9B00200A3
:10B2D00030B4074C016100224FF47A75C0E9004296
:10B2E0008560C0E9062230BC027580F820207047D6
:10B2F00058F10400F0B5836997B004460D46164630
:10B3000093B1077D006919460C30002F45D003F03A
:10B31000ADFDA06914F096FDE0690023A36108B1BA
:10B3200014F090FD0023E361206903AA0C30294644
:10B3300004F036FB98B99DF80C30112B34D02C203A
:10B3400014F066FD0146A06130B120692A460C3038
:10B3500003F064FD002839D0002017B0F0BD0230A2
:10B36000FAD1012EF8D1382014F052FD0146A06127
:10B370000028F1D0206940F203130C302A4603F074
:10B3800011FE06460028E7D12069A1690C3002238E
:10B39000324604F0C7FA267509E004F09DF9A06969
:10B3A00014F050FDA761BFE7EEB1012E3AD02F2176
:10B3B00028461FF0F6FC203400B1451C29462046E3
:10B3C00040221FF0DBFC012017B0F0BD01232375E4
:10B3D00028461FF0B9FC013014F01AFD2946E0613F
:10B3E0001FF099FCE3E701233820019314F010FDCE
:10B3F000019BA06101460028AED020692A460C308E
:10B4000003F0D0FD0028A7D1012E02D00023237520
:10B41000CDE72369A169024603F10C00022304F081
:10B4200081FAF3E740F20313DEE700BF30B50369AA
:10B4300083B004460D46186D01924FF0FF3115F0B0
:10B4400025FA019A29462046FFF754FF2169002377
:10B4500002461446086D1A46194614F0EFFD2046C0
:10B4600003B030BD70B504460025C4E90655104848
:10B47000236182B0206084F820504FF47A700E4629
:10B48000A0604FF0FF31186D65602575019215F0D1
:10B49000FDF9019A31462046FFF72CFF22692B4621
:10B4A000106D29462A4614F0C9FD204602B070BD31
:10B4B00058F10400036970B504460D46186D4FF04D
:10B4C000FF31164615F0E2F9237D4BB100252269C4
:10B4D0000023106D19461A4614F0B0FD284670BDC1
:10B4E0002069A1692A4633460C3004F097F90546D5
:10B4F000EDE700BF38B5036904460D46186D4FF0FF
:10B50000FF3115F0C3F9237D4BB1002522690023DB
:10B51000106D19461A4614F091FD284638BD206971
:10B52000A1692A460C3004F0FDF9C543ED0FEDE7A3
:10B5300038B5036904464FF0FF31186D15F0A6F9D0
:10B54000237D4BB1002522690023106D19461A4650
:10B5500014F074FD284638BD2069A1690C3004F050
:10B5600011FA0546EFE700BF38B5036904464FF00E
:10B57000FF31186D15F08AF9237D4BB10025226942
:10B580000023106D19461A4614F058FD284638BDA0
:10B590002069A1690C3004F0F7F90546EFE700BF18
:10B5A000036970B504464FF0FF31186D15F06EF960
:10B5B000A16981B12069257D0C30ADB103F056FC45
:10B5C000A06914F03FFCE0690023A36108B114F006
:10B5D00039FC0023E36122690023106DBDE870404F
:10B5E0001A46194614F02ABD04F076F8A06914F042
:10B5F00029FCA561EFE700BF8069003818BF012072
:10B60000704700BF2DE9F04F95B00B6906460C4618
:10B61000186D4FF0FF3100AF904615F037F9002359
:10B620002069337586F82030227D2B4930614FF434
:10B630007A70C6E90013C6E90633B060DAB342F6A1
:10B640002E652069A1690C303A1D03F023FC012806
:10B6500031D1BB892E2BF4D0AB4238D0D4F81C901A
:10B6600048461FF071FB054607F10C001FF06CFB0C
:10B670002B18093323F00703EA46ADEB030D6846A8
:10B680006A1C49461EF008FC99F800302F2BEB4647
:10B6900002D199F801301BB1104B1B882BF80530F3
:10B6A00007F10C0158461FF01AFB42465946304636
:10B6B000FFF720FED54622690023106D19461A4671
:10B6C00014F0BCFC30465437BD46BDE8F08FBB7B60
:10B6D000002BB6D0C2E700BF58F104004CF10400C3
:10B6E0002DE9F04F85B0DDE90E4B109F81460D46E8
:10B6F00090461E46002F63D0B8F1000F03D0D8F853
:10B700000030B34249D0D9F800002B689E422BD0BC
:10B710004369B4FBF3F203FB1242BAB9BB4215D83A
:10B72000B7FBF3F203FB127AA7EB0A030093039330
:10B73000436822461F4631465B46B84788B9039B9B
:10B7400057469B441C44002FD6D139E00093A21ADF
:10B75000C5E90062D0F804A0AB683146D0470028A4
:10B76000CAD005B0BDE8F08F69684369A142D0D85E
:10B77000CA18A242CDD9A2EB040ABA45AB6828BFC9
:10B78000BA46611A524658461944BF1A54441EF02C
:10B7900083FBD344002FAFD112E0D8F80430A3428A
:10B7A000B1D8D9F8000082691A44A242ADD9A2EBFF
:10B7B000040ABA45D8F8081028BFBA46E31AE1E7E8
:10B7C000002005B0BDE8F08F2DE9F04F074687B0A7
:10B7D0000D4672B30368D1F800B090469A69D1E97A
:10B7E00001104AB3013A01F101098618A9EB0009D9
:10B7F000441E4FF0010A08E014F8012F9DF817309D
:10B800009A4223D1A6423B6814D01A6A934509EBA9
:10B81000040320D20DF11702CDE90032CDF808A0C3
:10B820005B46002241463846FFF75AFF0028E3D026
:10B8300009DB3B68A8689A69FF211EF055FB4FF0B1
:10B84000FF332B60002007B0BDE8F08F6FF03300AE
:10B8500007B0BDE8F08F034B034A044812211EF0E5
:10B8600079FA00BF74F104009CF3040094F1040021
:10B870002DE9F04F87B0DDF840A00592002B64D091
:10B88000D0F800908B46D9F81C105C1EA1F1080876
:10B890004445074651D3B4FBF8F001381EF0DCF8FC
:10B8A000D04500F10200A4EB8003B3FBF8F560D8AB
:10B8B000BAFBF8F001381EF0CFF8861CAAEB86061A
:10B8C000B6FBF8F630461EF0C7F8AAEB800006FB80
:10B8D000180AB54243D9D9F82020059B4FF0040936
:10B8E0000DF114080BE0012B45D93A68126A934216
:10B8F00041D8012101FA04F42D1BB54230D9AC1B0B
:10B90000B4FA84F495FAA5F1C4F11F04B1FA81F1F7
:10B910008C4228BF0C4693424FEA840132D20091F8
:10B92000CDE90189002259463846FFF7D9FE059B2B
:10B930000028D8D007B0BDE8F08FD04588BF1346A7
:10B94000BAFBF8F00CD80025B4E711994FF0FF329C
:10B950000A60129A1846136007B0BDE8F08F059B85
:10B96000119A1360129B0020C3F800A007B0BDE835
:10B97000F08F0026ADE7064B064A07484FF48F616B
:10B980001EF0E8F9054B064A034812211EF0E2F9C1
:10B9900010F20400BCF3040094F1040074F10400FC
:10B9A0009CF304002DE9F04F89B00746149C129DCA
:10B9B0008B4692461E46002C55D0DBF80030B34231
:10B9C0005CD0013340F0A18038688269B5FBF2F3A6
:10B9D00002FB1353002B4AD1A24248D8B4FBF2F326
:10B9E00002FB13430593E31A009304938468139BAB
:10B9F0002A463146A04700287ED1BAF1000F29D04F
:10BA0000049B3BB3139B5C1E049B04EB0309139B39
:10BA100005F10108A8EB030807E014F8012F9DF8D1
:10BA20001F309A4266D14C4514D03B681A6A964240
:10BA300008EB040363D2012202920DF11F02CDE94B
:10BA400000325146334600223846FFF749FE0028AF
:10BA5000E3D051DB139A049B059C114619441391C2
:10BA60001D44002CA9D1002009B0BDE8F08FEB1ACD
:10BA7000CBE90063DBF80030B342A2D1DBF804105D
:10BA8000A9429ED83A6892690A44AA4299D9A2EB7F
:10BA90000508A045DBF8080028BFA046691A08443D
:10BAA000424613991EF0F8F93868139982694544A3
:10BAB0004144B5FBF2F302FB1353A4EB08041391CA
:10BAC000002B7FF478AFDBF800104B1C3FF473AF12
:10BAD0000092DBE90123D0F80880C04760B95246E4
