:020000022000DC
:106000000000042081220400C1220400C3220400F5
:10601000C5220400C7220400C922040000000000B9
:106020000000000000000000000000000921040042
:10603000CD2204000000000029210400D122040028
:10604000DD240400D3220400F9F20300D32204006B
:10605000D3220400D322040085F60300D3220400D7
:10606000D3220400D3220400D3220400D32204004C
:10607000D3220400D3220400D3220400D32204003C
:10608000D3220400591E0400D3220400D3220400AA
:10609000D3220400D3220400698B0300D32204001E
:1060A000D3220400D3220400D3220400D32204000C
:1060B000D3220400D32204000000000000000000EE
:1060C000D3220400D3220400D3220400C52A0400F2
:1060D000D3220400D3220400D32204009517030026
:1060E000D3220400D3220400D322040000000000C5
:1060F00000000000D3220400000000003D2B04003B
:10610000000000000000000000000000000000008F
:10611000000000000000000000000000000000007F
:10612000000000000000000000000000000000006F
:10613000000000000000000000000000000000005F
:10614000000000000000000000000000000000004F
:10615000000000000000000000000000000000003F
:10616000000000000000000000000000000000002F
:10617000000000000000000000000000000000001F
:10618000000000000000000000000000000000000F
:1061900000000000000000000000000000000000FF
:1061A00000000000000000000000000000000000EF
:1061B00000000000000000000000000000000000DF
:1061C00000000000000000000000000000000000CF
:1061D00000000000000000000000000000000000BF
:1061E00000000000000000000000000000000000AF
:1061F000000000000000000000000000000000009F
:10620000F1EE103A43F08073E1EE103A704700BFB0
:1062100010B5054C237833B9044B13B10448AFF3E0
:1062200000800123237010BD2464002000000000C2
:106230002C24050008B5034B1BB103490348AFF3F9
:10624000008008BD00000000286400202C24050008
:10625000154B002B08BF134B9D46A3F5803A002138
:106260008B460F461348144A121A23F009FD0F4BB0
:10627000002B00D098470E4B002B00D098470020F1
:10628000002104000D000D48002802D00C48AFF397
:10629000008023F08BFC200029001CF049F823F03B
:1062A0005FFC00BF000008000000042000000000A8
:1062B0000000000024640020D4A50020000000009D
:1062C0000000000033DF7047014B01221A70704755
:1062D00000710020014B01221A70704700700020ED
:1062E000014B01221A707047746B0020014B012290
:1062F0001A707047EC700020014B01221A70704731
:10630000F666002038B5054CA4F5A875204619F0AE
:10631000D5FAAC42A4F10C04F8D138BD686B00206A
:10632000054B064A1B78013B0021012B117000D957
:10633000704703201DF094B954640020F5660020D6
:1063400010B5134B88B001461248198012F004FCB6
:1063500011490124002320220C706946CDE9003345
:10636000CDE90333CDE905330293079310F0E4FC44
:106370000A4B0B4A1B78013B0221A342117001D941
:1063800008B010BD214603201DF06AF908B010BD09
:10639000DC6B0020E88E0020F566002054640020AD
:1063A000B06E002010B5664C6649204618F0BCF867
:1063B000654B0A221978204618F030FA63492046C6
:1063C00018F0B2F8624B0A221978204618F04CFAFD
:1063D0006049204618F0A8F85F4B0A221978204639
:1063E00018F01CFA5D49204618F09EF85C4B0A2212
:1063F0001978204618F012FA5A49204618F094F8F5
:10640000594B0A221978204618F02EFA574920468F
:1064100018F08AF8564B186822F048FE41EC100B31
:106420002046022118F044F95249204618F07CF821
:10643000514B0A221988204618F0F0F94F4920469E
:1064400018F072F84E4B186822F030FE41EC100B39
:106450002046022118F02CF94A49204618F064F829
:10646000494B0A221978204618F0FEF94749204680
:1064700018F05AF8464B0A221978204618F0F4F919
:106480004449204618F050F8434B0A221978204618
:1064900018F0EAF94149204618F046F8404B0A2224
:1064A0001978204618F0E0F93E49204618F03CF8EB
:1064B0003D4B0A221978204618F0D6F93B49204670
:1064C00018F032F83A4B0A221978204618F0CCF925
:1064D0003849204618F028F8374B0A221978204608
:1064E00018F09CF93549204618F01EF8344B0A2262
:1064F0001978204618F0B8F93249204618F014F8F7
:10650000314B0A221978204618F088F92F49204685
:1065100018F00AF82E4B0A221978204618F07EF956
:106520002C49204618F000F82B4B204619780A22F7
:1065300018F074F92046BDE8104004F099BF00BF80
:10654000786B002004E30400056000200CE30400E5
:106550000460002014E30400416400201CE30400F4
:106560001060002024E304001860002028E30400E9
:106570001460002030E304001A60002034E30400BB
:106580000860002038E304001F6000203CE30400A2
:106590000C60002040E304002060002044E304007D
:1065A0001D6000204CE304001E60002054E3040042
:1065B000426400205CE304004064002064E30400C3
:1065C000546400206CE304000E60002074E30400B7
:1065D0000F60002080E304000D6000202DE9F041F1
:1065E000DFF8C48098F814C09CB0BCF1000F4BD009
:1065F00005460C4617461E461FF012FB00284CD1DC
:106600003946D8F81830324609A81EF02BFF244B23
:1066100003931027D8F81C10049709A8082303AA8D
:106620001EF060FF002835D1D8F808309E4222D1F4
:1066300028686968AA68EB68002605AD0FC5266062
:1066400023466660A660E66005A9102209A81EF030
:1066500085FF0346D8B902A90191009405AA09A8AB
:1066600019461EF0B9FF00280CBF10206FF005007E
:106670001CB0BDE8F0810B4909A81EF057FF0028A7
:10668000D6D06FF00600F3E74FF0FF30F0E76FF081
:106690000400EDE76FF00300EAE76FF00100E7E7C1
:1066A0005864002044640020B864002008B50C49F8
:1066B0000C4804F065FC0A490B48012204F01EFE58
:1066C00048B90A4B1B7803B908BDBDE80840084922
:1066D000084817F09DBFBDE80840FFF763BE00BF44
:1066E0008CE3040004710020786B0020F466002025
:1066F00094E30400AC810020F0B5174F174D184EFD
:1067000099B00446384613F003FD0221284613F0E1
:10671000CFFD204624F0E4F921460246284613F036
:10672000DBFD08AC08A9284613F0DEFD0FCC6D4652
:106730000FC594E80F0085E80F006B460FCB86E885
:106740000F0095E80F00074C84E80F00384613F05F
:10675000F3FC19B0F0BD00BF7C960020E06B002078
:1067600044640020586400202DE9F04173497448C6
:10677000DFF87C82734E744F82B004F011FD7348D1
:1067800013F092FD724B7348002501220321C3E9E7
:10679000065519611D609D601D755A60DA6013F021
:1067A000ADFD30201BF004FE0F230E2204460093A3
:1067B0000C210D2313F07CFF21466748674C14F031
:1067C0000BFA404612F03AFB32466549404623F048
:1067D00087F9384612F0CCFB32466249384623F03E
:1067E0007FF9614F20464FF4807113F017F832465D
:1067F0005E49204623F074F95D4C384612F006FAE3
:1068000032465C49384623F06BF95B49204618F064
:106810007BFF5A4904F10C0018F076FF584904F147
:10682000180018F071FF574904F1240018F06CFFAC
:10683000554904F1300018F067FF544904F13C0059
:1068400018F062FF524904F1480018F05DFF514909
:1068500004F1540018F058FF4F4904F1600018F09B
:1068600053FF4E4904F16C0018F04EFF4C4904F1FF
:10687000780018F049FF4B4904F1840018F044FFF8
:10688000494904F1900018F03FFF484904F19C0089
:1068900018F03AFF464904F1A80018F035FF4549C1
:1068A00004F1B40018F030FF434904F1C00018F0BF
:1068B0002BFF424904F1CC0018F026FF404904F1B7
:1068C000D80018F021FF3F4904F1E40018F01CFF44
:1068D0003D4904F1F00018F017FF3C4904F1FC00B9
:1068E00018F012FF3A4904F5847018F00DFF394989
:1068F00004F58A7018F008FF374904F5907018F015
:1069000003FF364904F5967018F0FEFE344904F58D
:106910009C7018F0F9FE334904F5A27018F0F4FEEB
:10692000314904F5A87018F0EFFE30493246284688
:1069300002B0BDE8F04123F0D3B800BF04710020DD
:10694000786B002000600020B8650020E06B00201C
:10695000B864002004700020B46E0020006600209F
:10696000A19B0200899B0200D8640020B19803001B
:10697000186A0020619B0200B4E30400BCE3040039
:10698000CCE30400DCE30400F8E3040008E40400C2
:1069900014E4040020E4040030E4040044E40400AF
:1069A00060E4040074E4040088E404009CE404004F
:1069B000B4E40400C8E40400D8E40400ECE40400F7
:1069C00004E5040020E5040030E504003CE5040093
:1069D00050E5040064E5040078E504008CE504005B
:1069E00098E50400A8E50400C0E504000563020082
:1069F0004865002030B5B748B74985B00022044645
:106A000004F07CFC204604F06BFB3D28FAD1B14930
:106A1000B24DB34C0A2201A817F0ACFF01A819F03F
:106A20006BF8031E18BF012301A82B7018F046FF56
:106A30002378002B40F0E281A64D284604F050FB5D
:106A40003D28FAD1A349A74D0A2201A817F092FFC9
:106A500001A819F051F8034601A82B7018F02EFF79
:106A60002378002B40F08A829A4D284604F038FBA8
:106A70003D28FAD197499C4D0A2201A817F07AFFC8
:106A800001A819F039F8031E18BF012301A82B70C3
:106A900018F014FF2378002B40F066828D4D2846B5
:106AA00004F01EFB3D28FAD18A49904D0A2201A824
:106AB00017F060FF01A819F01FF8031E18BF01238B
:106AC00001A82B7018F0FAFE2378002B40F04282C8
:106AD000804D284604F004FB3D28FAD17D49844DC1
:106AE0000A2201A817F046FF01A819F005F803468D
:106AF00001A82B7018F0E2FE2378002B40F02082D2
:106B0000744D284604F0ECFA3D28FAD17149794DCC
:106B10000A2201A817F02EFF01A818F0F3FF01A820
:106B200085ED000A18F0CAFE2378002B40F0FA81A8
:106B3000684D284604F0D4FA3D28FAD165496E4DD7
:106B40000A2201A817F016FF01A818F0D5FF034686
:106B500001A82B8018F0B2FE2378002B40F0D881DA
:106B60005C4D284604F0BCFA3D28FAD15949634DE2
:106B70000A2201A817F0FEFE01A818F0C3FF01A821
:106B800085ED000A18F09AFE2378002B40F0B281C0
:106B9000504D284604F0A4FA3D28FAD14D49584DED
:106BA0000A2201A817F0E6FE01A818F0A5FF034687
:106BB00001A82B7018F082FE2378002B40F0908102
:106BC000444D284604F08CFA3D28FAD141494D4DF8
:106BD0000A2201A817F0CEFE01A818F08DFF034687
:106BE00001A82B7018F06AFE2378002B40F06E810C
:106BF000384D284604F074FA3D28FAD13549424D03
:106C00000A2201A817F0B6FE01A818F075FF034686
:106C100001A82B7018F052FE2378002B40F04C8115
:106C20002C4D284604F05CFA3D28FAD12949374D0D
:106C30000A2201A817F09EFE01A818F05DFF034686
:106C400001A82B7018F03AFE2378002B40F02A811F
:106C5000204D284604F044FA3D28FAD11D492C4D18
:106C60000A2201A817F086FE01A818F045FF034686
:106C700001A82B7018F022FE2378002B40F0088129
:106C8000144D284604F02CFA3D28FAD11149214D23
:106C90000A2201A817F06EFE01A818F02DFF034686
:106CA00001A82B7018F00AFE2378002B40F0E68034
:106CB000084D284604F014FA3D28FAD10549164D2E
:106CC0000A2201A817F056FE01A818F015FF031EAE
:106CD00024E000BF786B00208CE3040005600020F6
:106CE000F466002004600020416400201060002051
:106CF00018600020146000201A6000200860002046
:106D00001F6000200C600020206000201D6000201B
:106D10001E600020426400204064002018BF012350
:106D200001A82B7018F0CAFD2378002B40F09C803E
:106D3000974D284604F0D4F93D28FAD19449954D51
:106D40000A2201A817F016FE01A818F0D5FE034686
:106D500001A82B7018F0B2FD2378002B7AD18C4D4E
:106D6000284604F0BDF93D28FAD189498A4D0A2206
:106D700001A817F0FFFD01A818F0BEFE031E18BF02
:106D8000012301A82B7018F099FD2378002B57D10F
:106D90007F4D284604F0A4F93D28FAD17C497F4D67
:106DA0000A2201A817F0E6FD01A818F0A5FE031EAF
:106DB00018BF012301A82B7018F080FD2378002B49
:106DC00034D1734D284604F08BF93D28FAD170492F
:106DD000734D0A2201A817F0CDFD01A818F08CFE12
:106DE000031E18BF012301A82B7018F067FD23783C
:106DF00073B9674804F03CFB05B030BD69496A4887
:106E000017F092FB297868480A2217F007FD13E66D
:106E10006649654817F088FB297863480A2217F00D
:106E2000FDFC5B4804F024FB05B030BD60495E48C2
:106E300017F07AFB29785C480A2217F0EFFCC0E7CC
:106E40005C49594817F070FB297857480A2217F017
:106E5000E5FC9DE75849544817F066FB29785248ED
:106E60000A2217F001FD7AE754494F4817F05CFBFE
:106E700029784D480A2217F0D1FC59E750494A4871
:106E800017F052FB297848480A2217F0EDFC0FE76B
:106E90004C49454817F048FB297843480A2217F027
:106EA000E3FCEDE64849404817F03EFB29783E48B0
:106EB0000A2217F0D9FCCBE644493B4817F034FBD3
:106EC000297839480A2217F0CFFCA9E6404936480C
:106ED00017F02AFB297834480A2217F0C5FC87E608
:106EE0003C49314817F020FB29782F480A2217F037
:106EF000BBFC65E638492C4817F016FB286822F0E1
:106F0000D5F841EC100B0221274817F0D1FB3FE6E2
:106F10003249254817F008FB298823480A2217F030
:106F20007DFC1DE62E49204817F0FEFA286822F065
:106F3000BDF841EC100B02211B4817F0B9FBF7E537
:106F40002849194817F0F0FA297817480A2217F04B
:106F50008BFCD5E52449144817F0E6FA2978124845
:106F60000A2217F05BFCB3E520490F4817F0DCFA62
:106F700029780D480A2217F051FC8FE51C490A4870
:106F800017F0D2FA297808480A2217F06DFC6BE551
:106F9000786B0020546400200E6000200F600020F9
:106FA0000D60002004E30400AC81002080E30400B5
:106FB00074E304006CE3040064E304005CE3040095
:106FC00054E304004CE3040044E3040040E3040001
:106FD0003CE3040038E3040034E3040030E304003D
:106FE00028E3040024E304001CE3040014E3040089
:106FF0000CE3040070B545F21F2288B0B64841F694
:1070000015110AF0E7F8B549B3480AF0E7F8B449B2
:10701000B1480AF0E7F8032001211CF021FBB14838
:107020000AF004F8002800F087824FF47A7018F014
:107030009FFDAC4809F0FAFF002800F07A82AA48C8
:1070400009F048FCA949AA48002204F057F9A848C9
:1070500004F03AFA002800F05C82A649A448002215
:1070600004F04CF9A24804F02FFA002800F0418205
:10707000A1499F48002204F041F99D4804F024FAF8
:10708000002800F002829D4B994D0022C3E90022A6
:10709000C3E902221C4603F1100602E00134A642B5
:1070A0000CD0284603F0E0FF0028F7D0284604F073
:1070B00017F8013404F8010CA642F2D18C4804F010
:1070C000D7F98F498A48002204F018F9884804F05B
:1070D000FBF9002800F0ED818A4C854D04F1400653
:1070E00002E00134A6420CD0284603F0BDFF002880
:1070F000F7D0284603F0F4FF013404F8010CA6424F
:10710000F2D17B4804F0B4F97E48FFF7F5FA7E49E6
:107110007748002204F0F2F8754804F0D5F980B9F8
:107120007949714803F02CFF77497148012204F036
:10713000E5F8002840F00682744B1B78002B40F0E5
:107140000482FFF757FC0A24012585F00105294632
:1071500003201CF085FA642018F00AFD631E13F06A
:10716000FF04F2D16A4A6B4B12786B4853F8221035
:1071700017F0CCFE142485F00105294603201CF0ED
:107180006FFA642018F0F4FC631E13F0FF04F2D1D0
:10719000624D2B78002B00F04C81614B614A1E78C8
:1071A0006149624B12781B7891F900106048029394
:1071B000019200915F4C604B604A6149D4ED000A36
:1071C0001B781278097800EB860090ED000A5D4884
:1071D00013F00CFD0446002C00F048815A4B29782E
:1071E00000221A60002940F0718104225749554855
:1071F0003C4C16F097F9534815F050FC54480021C8
:1072000011F040FC5248042111F000FA0022012143
:107210004F4811F02BFA08214D4811F0E5FB0022F0
:107220003249334804F06AF805A8314917F06EFB7B
:107230000599484810F046FB05A818F03FFB0022CE
:107240002C492B4804F05AF805A8294917F05EFB91
:1072500005993F4811F0A0FB05A818F02FFB3E4907
:107260003B480FF0B5FF3D4939480FF0B3FF1B49CC
:107270003B48102211F078FE19493948082211F0D4
:107280006FFE374811F0AAFE31221146354810F042
:10729000CDFE344812F050FB062133480EF0B2FC0C
:1072A00031480EF097FC2F492F480EF04FFC2F4825
:1072B0000EF062FC2C4801210EF0D8FCF4222A4882
:1072C00020210EF0CFFC28481E210EF0C9FC002121
:1072D00025480EF037FD4DE0CC810020D0E50400BC
:1072E000E4E50400AC81002004710020A4E5040062
:1072F000786B0020F8E5040000E6040068640020D4
:1073000014E60400786400208CE30400F466002096
:107310000460002024600020889700201060002076
:10732000186000201D6000201E60002042640020C4
:1073300060ED040008600020206000200C60002048
:107340001F600020B46E0020D46C0020D5620200C3
:10735000E88E0020088F00204163020021630200B4
:10736000B865002000660020289500206C9500205C
:1073700009F03CFD204609F013FD03462046002B92
:10738000F6D1804C01E017F04FFD204617F044FD88
:1073900003462046002BF6D17B4C01E011F0DEFEC7
:1073A000204611F08BFE03462046002BF6D1774C89
:1073B0002378013B012B37D8754B1B78002B33D03A
:1073C000012102201CF0C8F82378724C012B8CBFDD
:1073D0000121002102201CF043F91EF021FC237D35
:1073E000002B5FD000246C4812F08CFF6B49009496
:1073F00001234FF480626A481BF08CFD01234FF497
:1074000080626849009466481BF084FD02210420D4
:107410001CF0A2F86449654817F0FAF86249594827
:1074200017F0F6F808B070BD002103201CF018F921
:10743000C6E75F495F4C60480978247890F90000FE
:107440000090029101945D485D4C5E4B5E4A5F493D
:10745000D4ED000A90ED000A1B78127809785C4898
:1074600013F0C4FB0446002C7FF4B8AE594B5848C7
:107470001978224614F0E0F900287FF4AFAE2B789B
:10748000002B79D1544B1C60AFE65449544801227B
:1074900003F034FF00283FF414AE5249504817F06F
:1074A00043F80BE61EF0BCFB00289BD1012323759B
:1074B00098E74D494A48012203F020FF00283FF495
:1074C00023AE4A49464817F02FF81AE6484A494B76
:1074D00012783F4803EB820393ED000A13F056FB4A
:1074E0000446002836D144493948042216F030F8C1
:1074F0007BE642493A48012203F000FF00283FF4AE
:10750000B7AD3F49364817F00FF8354803F0B0FFE4
:10751000AEE53C493248012203F0F0FE00283FF47A
:107520009CAD39492E4816F0FFFF2D4803F0A0FF0F
:1075300093E51BF00BFD82E51C484FF4E13109F0A7
:107540004DFD72E5FEF72EFFFBE53049174817F0B9
:107550005FF8F6E52E49154816F0B8FF84EAE473A3
:10756000A3EBE4732B4911489BB203EB430301EBFC
:10757000830117F007F8B6E7274B1548197816F07E
:107580004DFD2BE688970020006600205464002003
:10759000F5660020B864002004700020399C0200C9
:1075A000509C0020417B020054E60400AC81002086
:1075B000426400201D6000201E6000201460002036
:1075C00008600020206000200C6000201F60002068
:1075D000B46E002040640020D46C002000E604005B
:1075E000786B002008E6040014E604001CE60400A2
:1075F0001860002060ED0400E1620200F8E504007C
:10760000E4E50400A4E50400F0E5040094E30400CC
:1076100028E60400186A00201A6000201F4B204A48
:107620001B7870B5002604460D46166093B91D49B7
:107630001D48042215F076FF18F08EFA1B4B024607
:107640001A60194800232A46214615F017FB184BEB
:10765000186070BD174A184B1278134803EB820369
:1076600093ED000A13F092FA064628B913490E4822
:10767000042215F06DFFDAE71149124816F026FFD3
:10768000002EB8BF764210490E48B6B206EB460649
:1076900001EB860116F076FFE8E700BF10600020DE
:1076A000D46C0020C9620200B46E0020F470002087
:1076B000FC7000201860002060ED0400E162020010
:1076C00028E60400AC810020186A00202DE9F04F64
:1076D0002DED028BCDB000AF15469B468946064680
:1076E00023F0FEF94FF0000A04465146F22207F15A
:1076F0003C00D7F8608122F0C3FADBF80030404844
:1077000087F83950C7F83A3093FA83FCE4B287F827
:1077100038904546534650F8042FD9B2954203F1AC
:10772000010384BF8A461546642BF4D1354A364B93
:1077300042F82A80D02C43F82AC059D8B9F1010F59
:1077400072D0324823F0CCF95FFA80FC0CF10602CB
:107750005FFA82FE58B12D4D002307F59872D118BB
:107760005A1CEB5C01F8F23CD3B29842F5D807F50D
:1077700098710CF1070307F5987251FA83F372447C
:107780003A2020210CF1080502F8F80CEDB203F8BC
:10779000F81C94B104F108006044013EC0B22B46CD
:1077A00007F598721A440133DBB216F8011F02F88C
:1077B000F81C8342F4D12C44E5B2154B154A1B78D2
:1077C00000211160002B40F0558113491348042219
:1077D00015F0A8FE18F0C0F9114B02461A600F48C8
:1077E00000232A4607F1380115F048FA0D4B1860BE
:1077F00007F59A77BD46BDEC028BBDE8F08F00BF60
:107800008468002088680020F866002068640020F2
:1078100010600020D46C0020C9620200B46E002009
:10782000F4700020FC70002014F00F0818BF4FF017
:10783000010808EB1418DFF804A308F1020C6946EC
:10784000A1EB0C116B464FF0000B8D464FEA0C1567
:10785000DAF80020C7F814B007F1080108EE103A72
:1078600007F12800DAF80C30C7E9015BC7E903BB70
:10787000C7E90ABBC7E90CBBFEF7B0FE07F1080C6D
:10788000BCE80F000090019102920393DAF8002007
:10789000DAF80C309C48C7F808B007F10801C7E9CE
:1078A00003BBC7F814B0FEF799FE07F1080CBCE85B
:1078B0000F00E9460490059106920793B8F1000F76
:1078C00000F0A480D84697F804B02025A5F1200345
:1078D000DBB29C4288BF3378C7E9068888BF3B7615
:1078E000A5F11F03DBB2A3423CBF73787B76A5F101
:1078F0001E03DBB2A3423CBFB378BB76A5F11D03E8
:10790000DBB2A3423CBFF378FB76A5F11C03DBB2EC
:10791000A3423CBF33793B77A5F11B03DBB2A34203
:107920003CBF73797B77A5F11A03DBB2A3423CBF5E
:10793000B379BB77A5F11903DBB2A3423CBFF3795E
:10794000FB77A5F11803DBB2A34238BF337AC7E94E
:10795000088838BF87F82030A5F11703DBB2A342AF
:107960003CBF737A87F82130A5F11603DBB2A3423E
:107970003CBFB37A87F82230A5F11503DBB2A342EE
:107980003CBFF37A87F82330A5F11403DBB2A3429E
:107990003CBF337B87F82430A5F11303DBB29C4254
:1079A00084BF737B87F82530A5F11203DBB29C42BC
:1079B00084BFB37B87F82630A5F11103DBB29C426C
:1079C00084BFF37B87F82730DAF80020DAF80C3030
:1079D000C7F8088007F1080107F11800C7E9038814
:1079E000C7F81480FEF7FAFDBB6849F80530D7E9FF
:1079F000030109EB05031035EDB27A695860AB4518
:107A000006F110069960DA607FF460AF7B68B3F529
:107A1000807F65D0980807F13E020023013359F8B2
:107A2000041B42F8041B9842F8D8384B384A1B789C
:107A300000211160002B41D136493748042215F04E
:107A400071FD18F089F8354B02461A607A683248A1
:107A500007F138010632002315F010F9304B186099
:107A600018EE103A07F59A779D46BD46BDEC028B9D
:107A7000BDE8F08F2B4A2C4B1278274803EB82038A
:107A800093ED000A13F082F8044628B927492248EA
:107A9000042215F05DFD98E62549264816F016FDEE
:107AA00084EAE473A3EBE473234922489BB203EB1B
:107AB000430301EB830116F065FDE7E7194A1A4B12
:107AC0001278154803EB820393ED000A13F05EF879
:107AD000044630B915491048042215F039FDABE7CA
:107AE000FEE71349134816F0F1FC84EAE473A3EBB4
:107AF000E47311490F489BB203EB430301EB83018D
:107B000016F040FDE6E700BF68640020106000202A
:107B1000D46C0020C9620200B46E0020F470002012
:107B2000FC7000201860002060ED0400E16202009B
:107B300028E60400AC810020186A0020B864002008
:107B400030B583B018F008F8264B274C1A689042DD
:107B50002ED82378CBB1254B254D1A78BAB1197898
:107B600001F0FF02D9B9234922702A701A700B78EC
:107B7000002B30D02049214B0968214A0091197807
:107B80001278204B2048FFF7A1FD03B030BD2A78C2
:107B9000002AFAD0197801F0FF020029E3D01B482F
:107BA00000222A701A7003B0BDE8304014F0C4BD42
:107BB00001222270164915484FF0FF3504221D603E
:107BC00015F0B0FC13491148042215F0C1FC0F4810
:107BD00014F0B2FDBDE71048F72103B0BDE8304016
:107BE000FFF71CBD94600020B16E0020F6660020F7
:107BF000EC70002001700020AC6E0020DD6C0020D5
:107C0000DC6C0020E06C0020E46C0020B46E0020EE
:107C1000ED620200F9620200B46D00202DE9F04728
:107C2000C0B002AF0C460546B94907F108009046BE
:107C300017F06AFDB74920460A2222F059FF0028B2
:107C400049D0B5490822204622F052FF0646D0B15D
:107C5000B2490622204622F04BFF00285BD1B04BF0
:107C60001B78002B00F03C81012B00F02182022BBD
:107C700000F027824FF0804357210022C3F81C15E3
:107C80000123009206E0A74907F1080017F044FE1F
:107C900000960123A449A5484FF480621BF03AF9ED
:107CA00007F1EC0407F10801204617F047FDA04951
:107CB000204617F0A9FE0146284617F03FFD204652
:107CC00017F0FCFD07F1080017F0F8FD2846F8371B
:107CD000BD46BDE8F08707F1EC049649204617F051
:107CE00013FD954B07F1E00093ED000A022117F018
:107CF000A7FD07F1E001204617F05AFE014607F103
:107D0000080017F0E3FD07F1E00017F0D7FD20466B
:107D100017F0D4FDC6E789490B22204622F0E8FE81
:107D2000002842D1A8F1030323F007036E46B8F1FF
:107D30000A08ADEB030D02A914D0034642F2014E2E
:107D400022180133D27A0D2ADBB22EFA02FC02D8B5
:107D50001CF0010F04D100F1010C0A545FFA8CF001
:107D60009845EDD807F1EC04204617F0CDFC2046ED
:107D700017F0C2FE8046204617F0A0FDB8F1000FB4
:107D800000F0B7806E4803F053F8664907F1080029
:107D900017F0C2FD002300936349644801234FF4A8
:107DA00080621BF0B7F8B5467CE766490A22204698
:107DB00022F09EFE002800F0A3806349092220469D
:107DC00022F096FE002800F0F58060490822204647
:107DD00022F08EFE002800F093805D490C222046A0
:107DE00022F086FE002840F07C81A8F1040323F0F5
:107DF00007036E46B8F10B02ADEB030D02A917D0D5
:107E00008446034642F2014804EB0C000133007B38
:107E10000D28DBB228FA00FE02D81EF0010F05D1B2
:107E20000CF1010E01F80C005FFA8EFC9A42EBD8BF
:107E300007F1EC04204617F067FC204617F05CFEC3
:107E40008046204617F03AFD5FFA88F3052B00F2D2
:107E5000AA81404A40494148DFF850C130F8130038
:107E60001CF803C002EB83024FF0010812680A609D
:107E70003B4A3C491080C85C3B4A3C4982F800C000
:107E800008703B4A3B493C4BDFF824C13B48C1F8F2
:107E900000C082F800803A4940224FF0DD0C1A7091
:107EA00080F800C0374A384B062008701421117042
:107EB0002348364900221A7003F062F833493448E7
:107EC000424603F01BFA002840F01782314B1B7822
:107ED000002B3FF45AAF3049304816F099FB54E775
:107EE00010492E4816F094FB2D492C4816F090FBB3
:107EF000C0E62C4907F1080017F00EFDB546D1E6A3
:107F0000294907F1080017F007FD07F1EC04C9E65D
:107F100030FE040064E604007CE6040090E6040001
:107F2000B06E002088E60400C1AC0200509C002026
:107F300090FD040070E60400A0600020A8E60400A4
:107F400004710020D0E60400F8E6040040E70400D5
:107F50004CE7040068600020086000208460002076
:107F60001A6000207C6000201F6000200C60002050
:107F700010600020146000201860002020600020A5
:107F80001D6000201E600020426400208CE304007D
:107F9000786B0020F466002094E30400AC8100209C
:107FA00098E60400B4E60400DCE6040098600020D3
:107FB00000C0644408F1FF3323F007036E46B8F1B4
:107FC0000802ADEB030D02A918D0034642F20148A6
:107FD00004EB000C01339CF809C0BCF10D0FDBB2BF
:107FE00028FA0CFE02D81EF0010F05D100F1010E97
:107FF00001F800C05FFA8EF09A42E9D807F1EC046C
:10800000204617F081FB204617F076FD804620467B
:1080100017F054FCB8F1000F5CD0C44800210DF0FB
:1080200025FEC34810F058FD1FFA80F9B9F1000F82
:108030000DD04FF00008DFF8F8A2414608F1010822
:10804000504610F067FD1FFA88F14945F6D3B7484E
:108050000DF0EAFEB74813F097FF4FF00608032033
:108060001BF03EFB642017F083FD08F1FF3313F093
:10807000FF08F4D1B04B1B78002B00F09B80012B44
:1080800000F03881022B7FF48EAEAC49AC4816F07C
:10809000BFFAFA2017F06CFD052104201BF05CFAF2
:1080A000404604211BF058FAFEF70CF9B546F9E5F5
:1080B000A249A44816F0ACFAA349A24816F0A8FABF
:1080C000D8E59E499E4816F0A3FA9F499C4816F0B1
:1080D0009FFACFE59D4907F1080017F01DFCB54652
:1080E000E0E59B490B22204622F002FD00283FF4E8
:1080F00007AF98490822204622F0FAFC002860D1F8
:1081000008F0F8036E46B8F10702ADEB030D02A9C3
:1081100018D04FF0000C634642F2014804EB0C000B
:108120000133007A0D28DBB228FA00FE02D81EF0D7
:10813000010F05D10CF1010E01F80C005FFA8EFC65
:108140009A42EBD807F1EC04204617F0DDFA2046FE
:1081500017F0D2FC804A031E18BF0123204613707B
:1081600017F0ACFB7D497E4802F00AFF7B497D4851
:10817000012203F0C3F8002840F0D0807A4B1B782E
:10818000002B40F0CE806D4907F1080017F0C4FBCA
:10819000002300937549764801234FF480621AF05A
:1081A000B9FEB5467EE5734907F1080017F0B4FB48
:1081B000B54677E5704907F1080017F0ADFBB54605
:1081C00070E56E490722204622F092FC002800F05C
:1081D00097806B490822204622F08AFC82460028BC
:1081E00000F0E48007226749204622F081FC024625
:1081F000002800F00E8164490922204622F078FC14
:108200008246002800F0368160490822204622F08C
:108210006FFC002800F085815D490722204622F08E
:1082200067FC8146002800F0D1810622594920468A
:1082300022F05EFC0246002800F0B7815649082271
:10824000204622F055FC002840F06F8108F0F8022B
:108250006E46ADEB020D0346A8F1070202A942F2F9
:10826000014E10E09CF808C0BCF10D0F2EFA0CF87E
:1082700002D818F0010F05D100F1010801F800C083
:108280005FFA88F001335FFA83F8424504EB000C93
:10829000E8D807F1EC042046796017F035FA20465B
:1082A00017F02AFC8046204617F008FBB8F1100FA3
:1082B00001F3E0837968DFF8F080204617F024FAB4
:1082C000204617F019FC0346204688F8003017F0C6
:1082D000F5FAFEF7EBF998F80020304B194853F8FF
:1082E000221016F013FE154907F1080017F014FBD1
:1082F000B546D7E411491348C9E6FEF753F844E5FB
:1083000007F1EC041349204617F0FEF9124B1978D7
:1083100007F1E0000A2217F05FFAEAE4FEF742F8FC
:1083200031E71F491F4816F073F92CE72895002004
:10833000E88E0020B46E0020B06E002088E60400B5
:10834000186600208897002098E6040024E70400BF
:1083500078E7040084E70400056000208CE3040053
:1083600004710020786B0020F4660020C1AC02008C
:10837000509C00205CE7040004E7040090E7040040
:1083800098E70400ECE70400F4E704000CE80400BC
:1083900018E8040040E8040048E8040024600020D5
:1083A00094E30400AC8100200460002008F0F8038E
:1083B0006E46ADEB030DA8F107080DF1080948461C
:1083C0004246514621F05CFCB8F1000F31D05246D4
:1083D000534642F20140A1180133097A0D29DBB25C
:1083E00020FA01FC02D81CF0010F05D102F1010CAA
:1083F00009F802105FFA8CF29845ECD8202A18D9B7
:10840000C14907F1080017F087FA07F1EC04B546F7
:1084100048E4BE49BE4807F1EC0402F06FFFBD49D5
:10842000204617F071F9BA4907F1E00016F06EFA2C
:108430005FE4B649B84802F0A3FDB449B44801224C
:1084400002F05CFF002861D04946B14816F06CF894
:10845000AF4803F00DF8B14907F1080017F05CFAD6
:1084600000230093AE49AF4801234FF480621AF015
:1084700051FDCAE708F1FF3323F007036E46ADEB69
:10848000030DA8F108080DF1080948464246514677
:1084900021F0F6FBB8F1000F18D05246534642F2D5
:1084A0000140A1180133497A0D29DBB220FA01FC01
:1084B00002D81CF0010F05D102F1010C09F80210DD
:1084C0005FFA8CF29845ECD8102A9ED88F499248D2
:1084D00002F056FD8D498E48012202F00FFFA8B12F
:1084E00091498B4816F020F84946894816F01CF847
:1084F000874802F0BDFF8D49874802F041FD8B4956
:108500008348012202F0FAFE00289DD1884907F134
:10851000080017F001FA78E7864907F1080017F01C
:10852000FBF907F1EC04FFF7BDBB834907222046A6
:1085300022F0DEFA002801F07A82804909222046E2
:1085400022F0D6FA002840F0818008F1FF3323F0B2
:1085500007036E46ADEB030DA8F1080202A903461E
:1085600042F2014E10E09CF809C0BCF10D0F2EFA4A
:108570000CF802D818F0010F05D103F1010801F839
:1085800003C05FFA88F301305FFA80F8424504EBDC
:10859000030CE8D807F1EC04204617F0B5F82046A4
:1085A00017F0AAFA664A00F0A3BD6649584807F1D9
:1085B000EC0402F0A3FE6449204617F0A5F85449E4
:1085C00007F1E00016F0A2F9FFF793BB08F10103F1
:1085D00003F4FC736E46ADEB030DA8F106080DF134
:1085E000080A50464246494621F04AFBB8F1000FBE
:1085F00018D04B4642F2014104EB09020133D27913
:108600000D2ADBB221FA02F001D8C00705D409F126
:1086100001000AF809205FFA80F99845ECD8B9F111
:10862000060F05D0494907F1080017F075F9ECE687
:108630004449394802F0A4FC42493548012202F07D
:108640005DFE00283FF462AF5146FEE64049082235
:10865000204622F04DFA002801F0D7813D4908223A
:10866000204622F045FA002840F0828008F0F80207
:10867000E946ADEB020D0346A8F1070202A942F25A
:10868000014C0DE0367A0D2E2CFA06FE02D81EF0B3
:10869000010F04D100F1010E0E545FFA8EF0013388
:1086A0005FFA83FE724504EB0006EBD807F1EC0499
:1086B000204617F029F8204617F01EFA06462046F5
:1086C00017F0FCF8002E01F0C181234B23481978E4
:1086D00015F0A4FC0646002840F06381204A214B97
:1086E0001178214A03EB81031968204B11600122A4
:1086F0001A70FDF7DBFF094907F1080017F00CF9C4
:10870000CD46FFF7CFBA00BFC0E70400F8E504008C
:10871000786B002098E704000471002088E60400CC
:10872000C1AC0200509C002000E8040000E60400F8
:10873000A4E7040068EA04006CE8040074E804009C
:1087400041640020A4E5040018E8040020E80400C7
:1087500080E804008CE804001A600020B46E002059
:108760001860002060ED04001460002010600020FC
:10877000CA490722204622F0BBF9002801F04E81A9
:10878000C7490622204622F0B3F9C8BB08F102020D
:1087900002F4FC72E946ADEB020D0346A8F10502B6
:1087A00002A942F2014C0DE0B6790D2E2CFA06FE1C
:1087B00002D81EF0010F04D100F1010E0E545FFA31
:1087C0008EF001335FFA83FE724504EB0006EBD8AE
:1087D00007F1EC04204616F097FF204617F08CF9BD
:1087E000B04B024620461A7017F068F8FDF75EFF9E
:1087F000AD4907F1080017F08FF8CD46FFF752BAE0
:10880000AA490522204622F073F9002801F0EE80E3
:10881000A7490822204622F06BF960BB08F0F80255
:10882000E946ADEB020D0346A8F1070202A942F2A8
:10883000014C0DE0367A0D2E2CFA06FE02D81EF001
:10884000010F04D100F1010E0E545FFA8EF00133D6
:108850005FFA83FE724504EB0006EBD8954B1B785C
:10886000E3B1954907F1080017F056F807F1EC0459
:10887000CD46FFF717BA91490722204622F038F972
:10888000002842D18B4B1B787BB38B4907F1080042
:1088900017F042F807F1EC04FFF704BA07F1EC0413
:1088A0002046796016F030FF204617F02BF98448F7
:1088B00012F06CF90646204617F000F8002E70D131
:1088C0007968204616F020FF204617F01BF97D4BF3
:1088D000204683ED000A16F0F1FF734907F1080006
:1088E00017F01AF8CD46FFF7DDB907F1EC0470492F
:1088F000204616F009FF734B07F1E00093ED000AE4
:10890000022116F09DFFFFF7F4B96F4906222046B9
:1089100022F0EEF800285FD108F1020202F4FC72A6
:10892000E946ADEB020D0346A8F1050202A942F2A9
:10893000014C0DE0B6790D2E2CFA06FE02D81EF081
:10894000010F04D100F1010E0E545FFA8EF00133D5
:108950005FFA83FE724504EB0006EBD807F1EC04E6
:10896000204616F0D1FE204617F0C6F88046204675
:1089700016F0A4FF52485FFA88F115F04FFB064647
:1089800078B94C4A514B01211170A3F80080FDF7D2
:108990008DFE454907F1080016F0BEFFCD46FFF7F2
:1089A00081B94B49204616F0AFFE86EAE673494A84
:1089B000A3EBE6739BB20C2101FB0321204616F0CA
:1089C000F7FF014607F1080016F080FF204616F079
:1089D00075FFCD46FFF766B93F490522204622F0D4
:1089E00087F8002851D03D490622204622F080F821
:1089F000002877D108F1020303F4FC73E946ADEBDC
:108A0000030DA8F1050202A9034642F2014C0DE054
:108A1000B6790D2E2CFA06FE02D81EF0010F04D1F5
:108A200003F1010ECE545FFA8EF301305FFA80FE3F
:108A3000724504EB0306EBD807F1EC04204679609D
:108A400016F062FE204617F05DF81D4812F0F8FCA3
:108A50000646204616F032FF002EA2D17968204645
:108A600016F052FE204617F04DF81D4B204683EDC0
:108A7000000A16F023FFFDF719FE0B4907F1080065
:108A800016F04AFFCD46FFF70DB907F1EC040E4989
:108A9000204616F039FE0D4B198839E4A4E804008D
:108AA000ACE804001860002088E60400B4E8040084
:108AB000BCE8040010600020C8E80400ECE80400F2
:108AC000B46E002014600020F4E804001A60002056
:108AD00098E80400186A0020FCE8040004E9040097
:108AE00008600020D3490522204622F001F8002822
:108AF0004AD0D1490622204621F0FAFF002853D15E
:108B000008F1020202F4FC72E946ADEB020D0346E5
:108B1000A8F1050202A942F2014C0DE0B6790D2E32
:108B20002CFA06FE02D81EF0010F04D100F1010E4E
:108B30000E545FFA8EF001335FFA83FE724504EB48
:108B40000006EBD807F1EC04204616F0DDFD2046C8
:108B500016F0D2FF5FFA80F8204616F0AFFEB74855
:108B6000414612F03FFF064600287FF41AAFB44B8F
:108B700083F80080FDF79AFDB24907F1080016F06E
:108B8000CBFECD46FFF78EB807F1EC04AE49204688
:108B900016F0BAFDAD4B07F1E00093ED000A02219B
:108BA00016F04EFEFFF7A5B8A9490522204621F090
:108BB0009FFF002850D0A7490722204621F098FFA8
:108BC000002858D108F1010202F4FC72E946ADEB2D
:108BD000020D0346A8F106020DF1080A014642F211
:108BE00001460EE0C0790D2826FA00FC02D81CF0E0
:108BF000010F05D101F1010C0AF801005FFA8CF1B7
:108C000001335FFA83FC624504EB0100EAD807F107
:108C1000EC045146204616F077FD204616F06CFF16
:108C2000011E18BF01218548002212F005FE0646EC
:108C3000204616F043FE002E7FF4B3AE5146204688
:108C400016F062FD204616F057FF834A031E18BF38
:108C50000123204613700CE707F1EC047649204607
:108C600016F052FD764B07F1E00019780A2216F053
:108C70007FFDFFF73EB879490622204621F038FFF4
:108C800000284FD076490622204621F031FF0028E7
:108C900051D108F1020202F4FC72E946ADEB020D7B
:108CA0000346A8F105020DF1080A014642F2014609
:108CB0000EE080790D2826FA00FC02D81CF0010F86
:108CC00005D101F1010C0AF801005FFA8CF10133C2
:108CD0005FFA83FC624504EB0100EAD807F1EC047B
:108CE0005146204616F010FD204616F00BFFFCEE14
:108CF000C07A5248C7ED017A397912F0D7FC06469E
:108D0000204616F0DBFD002E7FF44BAE5146204688
:108D100016F0FAFC204616F0EFFE524B02462046B3
:108D20001A70A6E607F1EC044A49204616F0ECFC5E
:108D3000494BFFF7ECBA4C490522204621F0D8FEFA
:108D4000002849D049490622204621F0D1FE0028BA
:108D500051D108F1020202F4FC72E946ADEB020DBA
:108D60000346A8F105020DF1080A014642F2014648
:108D70000EE080790D2826FA00FC02D81CF0010FC5
:108D800005D101F1010C0AF801005FFA8CF1013301
:108D90005FFA83FC624504EB0100EAD807F1EC04BA
:108DA0005146204616F0B0FC204616F0A5FEC1B292
:108DB000224814F0E7FB0646204616F07FFD002E01
:108DC0007FF4EFAD5146204616F09EFC204616F08B
:108DD00093FE274B0246A2E707F1EC042049204608
:108DE00016F092FC1F4B07F1E00019780A2216F0EA
:108DF000BFFCFEF77EBF1F490522204621F078FE0A
:108E000000286ED01C490722204621F071FE002860
:108E100076D108F1010303F4FC73E9460021ADEBC0
:108E2000030DA8F106020DF1080A0B4642F20146B5
:108E300033E000BF0CE9040014E90400B46E002024
:108E40001F60002088E6040004E904000860002098
:108E50001CE9040024E90400406400202CE904001B
:108E600034E904000C6000203CE9040044E90400FB
:108E7000206000204CE9040054E90400C0790D286A
:108E800026FA00FC02D81CF0010F05D103F1010CF9
:108E90000AF803005FFA8CF301315FFA81FC624546
:108EA00004EB0300EAD807F1EC045146204616F023
:108EB0002BFC204616F020FE0146CC4813F0A0F80B
:108EC0000646204616F0FAFC002E7FF46AAD5146A5
:108ED000204616F019FC204616F00EFEC44B024642
:108EE0001DE707F1EC04C349204616F00DFCC24B08
:108EF00007F1E00019780A2216F03AFCFEF7F9BEF5
:108F0000BE490622204621F0F3FD002849D0BC4985
:108F10000722204621F0ECFD002851D108F1010282
:108F200002F4FC72E946ADEB020D0346A8F106021D
:108F30000DF1080A014642F201465FFA83FC6245E0
:108F400004EB01000FD9C0790D2826FA00FC02D8E5
:108F50001CF0010F05D101F1010C0AF801005FFAC4
:108F60008CF10133E9E707F1EC045146204616F095
:108F7000CBFB204616F0C0FD41B29C4812F0E2F94E
:108F80000646204616F09AFC002E7FF40AAD5146A4
:108F9000204616F0B9FB204616F0AEFD994B02466E
:108FA000BDE607F1EC049849204616F0ADFB904B66
:108FB00007F1E00019780A2216F0DAFBFEF799BEF5
:108FC00092490622204621F093FD002847D090497F
:108FD0000822204621F08CFD00284FD108F0F8022D
:108FE000E946ADEB020D0346A8F107020DF1080AB0
:108FF000014642F201465FFA83FC624504EB010040
:109000000FD9007A0D2826FA00FC02D81CF0010FB7
:1090100005D101F1010C0AF801005FFA8CF101336E
:10902000E9E707F1EC045146204616F06DFB2046B7
:1090300016F062FDC1B26D4812F068FB064620468C
:1090400016F03CFC002E7FF4ACAC5146204616F0E6
:109050005BFB204616F050FD6E4B02465FE607F1C3
:10906000EC046749204616F04FFB664B07F1E00021
:1090700019780A2216F07CFBFEF73BBE66490722F0
:10908000204621F035FD002843D0644908222046BF
:1090900021F02EFD00284BD108F0F8026E46ADEB12
:1090A000020D0346A8F1070202A942F2014E5FFA3F
:1090B00083F8904504EB000C11D29CF808C0BCF179
:1090C0000D0F2EFA0CF802D818F0010F05D100F19F
:1090D000010801F800C05FFA88F00133E7E707F103
:1090E000EC04204616F010FB204616F005FD4C4A15
:1090F000031E18BF01231370204616F0DFFBFDF797
:10910000D5FA484907F1080016F006FCB546FEF707
:10911000C9BD07F1EC043E49204616F0F5FA3D4B77
:1091200007F1E00019780A2216F022FBFEF7E1BDF4
:109130003D490722204621F0DBFC00284DD03B4969
:109140000722204621F0D4FC002873D108F1010247
:1091500002F4FC726E46ADEB020D0346A8F1060266
:1091600002A942F2014E5FFA83F8904504EB000C2D
:1091700011D29CF807C0BCF10D0F2EFA0CF802D8E2
:1091800018F0010F05D100F1010801F800C05FFAE5
:1091900088F00133E7E707F1EC042046796016F028
:1091A000B3FA204616F0A8FC8046204616F086FB4F
:1091B000B8F1030F00F3AD837968204616F0A4FAE6
:1091C000204616F099FC1A4B024620461A7016F0FB
:1091D00075FBFDF76BFAFEF7D8BD07F1EC040F49FC
:1091E000204616F091FA0E4BFFF791B8B46E0020AE
:1091F0001D60002044E90400206000205CE90400B8
:1092000064E904001E60002054E904006CE90400D5
:1092100074E904004264002080E9040088E9040045
:109220000E60002088E6040094E904009CE9040034
:109230005464002081490622204621F059FC002870
:1092400000F06F837E490C22204621F051FC70BB58
:10925000A8F1040323F007036E46ADEB030DA8F15C
:109260000B0202A9034642F2014E5FFA80F89045D4
:1092700004EB030C11D29CF80CC0BCF10D0F2EFABC
:109280000CF802D818F0010F05D103F1010801F81C
:1092900003C05FFA88F30130E7E707F1EC042046EA
:1092A00016F032FA204616F027FC664A20E7664997
:1092B0000B22204621F01CFC002800F0F4826349B8
:1092C0000B22204621F014FC70BBA8F1030222F00F
:1092D00007026E46ADEB020D0346A8F10A0202A991
:1092E00042F2014E5FFA83F8904504EB000C11D274
:1092F0009CF80BC0BCF10D0F2EFA0CF802D818F038
:10930000010F05D100F1010801F800C05FFA88F0F3
:109310000133E7E707F1EC04204616F0F5F92046A3
:1093200016F0EAFB4A4AE3E64A490A22204621F0BF
:10933000DFFB002800F04B8347490822204621F03C
:10934000D7FB0646002800F0018307224349204648
:1093500021F0CEFB0246002800F0308340490B226A
:10936000204621F0C5FB0646002800F06F820A2245
:109370003C49204621F0BCFB0246002800F0178241
:1093800009223949204621F0B3FB0246002800F0AB
:10939000858036492046062221F0AAFB00287FF46A
:1093A000BBA8334B1B78002B42D0012B03D1314992
:1093B000314815F0B9F8314812F0E6FD03201AF0F3
:1093C0006DF90121064603201AF0C6F83C2403205B
:1093D0001AF086F9013C4FF4FA7016F0C9FB14F04C
:1093E000FF04F4D1311E18BF012103201AF038F90F
:1093F000234B244A1B78146073B1234A234B127801
:109400001E4803EB820393ED000A11F0BFFB2049D5
:109410001A48042214F09CF81E491848042214F03B
:1094200081F8164813F03AFB07F1EC04FEF73ABC5A
:109430001049194815F078F8BDE700BFC4E90400E9
:10944000CCE904000D600020DCE90400E8E9040038
:109450000F600020F4E9040000EA04000CEA0400B4
:1094600014EA04003CEA040048EA040060EA04004C
:10947000B06E002088E6040088970020B46E0020BB
:1094800010600020D46C00201860002060ED040003
:10949000E1620200D5620200AC8100207860D6490A
:1094A000D64801F02BFFD54907F1140015F02EFA2C
:1094B000D24801F0DDFF7A68D149D04801F01EFFA3
:1094C000CE4907F1200015F021FACC4801F0D0FF79
:1094D0007A68CC49C94801F011FFC84907F12C004E
:1094E00015F014FAC54801F0C3FF7A68C649C348AD
:1094F00001F004FFC14907F1380015F007FABF4831
:1095000001F0B6FFC14907F1440016F0FDF807F17C
:10951000140107F1440016F04BFA2C2116F0A4FABE
:10952000BB4B044693ED000A07F15000022116F0F0
:1095300087F907F15001204616F03AFA2C2116F06F
:1095400093FAB44B0A221978044607F15C0016F02E
:1095500043F907F15C01204616F02AFA2C2116F097
:1095600083FAAD4B0A221978044607F1680016F019
:10957000FFF807F16801204616F01AFA2C2116F0C0
:1095800073FAA64B044693ED000A07F1740002211A
:1095900016F056F907F17401204616F009FA2C214D
:1095A00016F062FA9E4B0A221988044607F18000E1
:1095B00016F012F907F18001204616F0F9F92C2176
:1095C00016F052FA974B044693ED000A07F18C000F
:1095D000022116F035F907F18C01204616F0E8F962
:1095E0002C2116F041FA904B0A221978044607F113
:1095F000980016F0BDF807F19801204616F0D8F94A
:109600002C2116F031FA894B0A221978044607F109
:10961000A40016F0ADF807F1A401204616F0C8F931
:109620002C2116F021FA824B0A221978044607F100
:10963000B00016F09DF807F1B001204616F0B8F919
:109640002C2116F011FA7B4B0A221978044607F1F7
:10965000BC0016F08DF807F1BC01204616F0A8F901
:109660002C2116F001FA744B0A221978044607F1EE
:10967000C80016F07DF807F1C801204616F098F9E9
:109680002C2116F0F1F96D4B0A221978044607F1E6
:10969000D40016F06DF807F1D401204616F088F9D1
:1096A0002C2116F0E1F9664B0A221978044607F1DD
:1096B000E00016F091F807F1E001204616F078F985
:1096C0002C2116F0D1F95F4B07F1EC0419780A222E
:1096D0000646204616F04CF82146304616F068F94A
:1096E0002C2116F0C1F907F1200116F061F92C21A7
:1096F00016F0BAF907F12C0116F05AF92C2116F0E0
:10970000B3F907F1380116F053F9014607F10800E3
:1097100016F0DCF8204616F0D1F807F1E00016F05C
:10972000CDF807F1D40016F0C9F807F1C80016F01B
:10973000C5F807F1BC0016F0C1F807F1B00016F04B
:10974000BDF807F1A40016F0B9F807F1980016F07B
:10975000B5F807F18C0016F0B1F807F1800016F0AB
:10976000ADF807F1740016F0A9F807F1680016F0DB
:10977000A5F807F15C0016F0A1F807F1500016F00B
:109780009DF807F1440016F099F807F1380016F03B
:1097900095F807F12C0016F091F807F1200016F06B
:1097A0008DF807F1140016F089F8FEF77BBA154919
:1097B000124801F0A3FD07F1EC042349204615F0FF
:1097C000A3FF07F1E0000D4915F0A0F807F1E00153
:1097D000204616F0EDF8014607F1080016F076F87D
:1097E00007F1E00016F06AF8204616F067F8034823
:1097F00001F03EFEFEF756BAF8E50400786B002053
:1098000000E6040014E60400A4E5040054EA0400A1
:10981000A06000201060002018600020146000206C
:109820001A600020086000201F6000200C600020EB
:10983000206000201D6000201E6000204264002087
:10984000406400205464002014EA0400A8F10303DB
:1098500023F00703E946ADEB030DA8F10A080DF16B
:10986000080A42465046314620F00AFA334632464C
:1098700042F20140DEB2B04504EB02010CD9C97AD4
:109880000D2920FA01F601D8F60703D4561C0AF870
:109890000210F2B20133EDE7402A0DD907F1EC04D2
:1098A000CD46FEF7FFB907F1EC047649204615F0E6
:1098B0002BFF754BFEF72BBD7449754801F060FB1B
:1098C00040220021734820F0DBF94246514671489E
:1098D00020F0AEF96D497048012201F00FFD78B318
:1098E00051466D4814F020FE6B4801F0C1FD504612
:1098F000FCF702FF694907F1080016F00DF8002394
:1099000000936749674801234FF4806219F002FB16
:10991000C4E7654907F1080015F0FEFFB546FEF7FC
:10992000C1B907F1EC046149204615F0EDFE604B2A
:1099300007F1E00019780A2215F01AFFFEF7D9B9ED
:109940005C4907F1080015F0E7FFA7E708F0F80306
:10995000E946ADEB030DA8F107080DF1080A4246F0
:109960003146504620F08CF93346314642F20142EE
:10997000DEB2464504EB01000CD2007A0D2822FA33
:1099800000F601D8F60703D44E1C0AF80100F1B224
:109990000133EDE7102981D847493D4801F0F0FA3D
:1099A00045493D48012201F0A9FCC8B151463A4859
:1099B00014F0BAFD384801F05BFD9BE73E4936489C
:1099C00007F1EC0401F09AFC3C492046F7E607F168
:1099D000EC043B49204615F097FE3A4BFEF797BC46
:1099E000394907F1080015F097FF57E707F1EC0434
:1099F0003649204615F088FE354B07F1E00019780E
:109A00000A2215F0B5FEFEF774B907F1EC043149EE
:109A1000204615F079FE304BFEF779BC07F1EC04D7
:109A20002E49204615F070FE2D4BFEF770BC07F155
:109A3000EC042C49204615F067FE2B4B07F1E000A3
:109A400019780A2215F094FEFEF753B9244B1E70C4
:109A5000FCF72CFE114907F1080015F05DFF009698
:109A60000F49104801234FF4806219F053FACD4694
:109A7000FEF718B91D4907F1080015F04DFFB5466E
:109A8000FEF710B9CCE904000D60002014E60400D4
:109A90000471002078640020786B002088E60400C0
:109AA000C1AC0200509C0020A4E904009CE9040021
:109AB0005464002020EA040000E6040000EA0400E8
:109AC000E8E904000F600020A4E70400ACE804000B
:109AD0001860002074E80400416400208CE8040051
:109AE0001060002048E804000460002054E80400EE
:109AF00038B5164B1B7804460D4673B9144B1B78CA
:109B000023B1012B1AD0022B11D038BD0A46BDE873
:109B1000384001460F4807F08DB90A4601460D4806
:109B200007F088F90C482A46214615F0C5F9214668
:109B30000A48BDE83840F7220FF0EABC0A46BDE803
:109B400038400146044815F0B7B900BF0E60002048
:109B5000B06E0020AC8100208897002000660020B5
:109B600010B5074B044640F8183B0CF05FFA20464E
:109B7000044B40F8083B0EF067FA204610BD00BFCA
:109B8000D0F404003CF4040010B5044B044640F843
:109B9000083B0EF059FA204610BD00BF3CF404000B
:109BA00010B5074B044640F8183B0CF03FFA20462E
:109BB000044B40F8083B0EF047FA204610BD00BFAA
:109BC00024F504003CF4040038B5164B1B78044619
:109BD0000D4673B9144B1B7823B1012B1AD0022BFD
:109BE00011D038BD0A46BDE8384001460F4807F09D
:109BF00021B90A4601460D4807F01CF90C482A46CF
:109C0000214615F059F921460A48BDE83840F722A7
:109C10000FF0F4BA0A46BDE838400146044815F092
:109C20004BB900BF0E600020B06E0020AC81002058
:109C300088970020186600202DE9F041C148F8B04F
:109C400007F0AEF890B9C04815F0E6F8002857D1F3
:109C5000BE480FF033FA002840F09C80BC4B1B78C4
:109C6000002B40F0E98078B0BDE8F08138AEFF22EB
:109C70000021304620F004F8B24DB64B0024642099
:109C80001C7015F075FF284607F08AF8D022C3B281
:109C9000934204AF28BF13462146384698461FF02A
:109CA000EFFF3946D022284614F00EFE01E007F0FF
:109CB0009DF8284607F074F804462846002CF6D193
:109CC0003A8845F241439A4200F0DE81A24B1B786C
:109CD000002B40F09381A14B1B78002B40F0588162
:109CE00041463846FDF79AFC304620F0F9FEC1B2F5
:109CF0003046FFF769FF944815F08EF80028A7D08A
:109D000038AE00213046FF221FF0BAFF8E4D914B36
:109D1000012264201A7015F02BFF284615F07CF8FC
:109D2000D022C3B2934204AF28BF13463846002165
:109D300098461FF0A5FF3946D022284614F0C4FDEE
:109D400001E015F071F8284615F066F8044628463B
:109D5000002CF6D13A8845F241439A4200F08181C5
:109D60007D4B1B78002B40F06B817C4B1B78002BCC
:109D70007CD141463846FDF751FC304620F0B0FE1C
:109D8000C1B23046FFF720FF70480FF097F9002866
:109D90003FF464AF38AD0021FF2228461FF070FF6A
:109DA0006A4E6C4B02224FF47A701A7015F0E0FE86
:109DB00030460FF083F904AF5FFA80F8D022904567
:109DC00038464FF0000128BF90461FF059FF3C462F
:109DD00030460FF0C3F9C0B2FF2818BF207001341D
:109DE000A542F5D1594E01E00FF0B8F930460FF019
:109DF00065F904463046002CF6D13A8845F24143D5
:109E00009A4200F05481544B1B78002B40F007819C
:109E1000524B1B78002B5FD141463846FDF7FEFBC5
:109E2000284620F05DFEC1B22846FFF7CDFE484B24
:109E30001B78002B3FF417AF494C15F08DFE2268BC
:109E400042F20F73801A98427FF60DAF454A464B97
:109E50001278464803EB820393ED000A10F096FE59
:109E600015F07AFE206078B0BDE8F081404B3F48A5
:109E700001221A7012F02CFA03463C488DF8043087
:109E800012F026FA034639488DF8053012F020FA10
:109E9000034636488DF8063012F01AFA354B8DF825
:109EA000070093F8008015F057FE044615F054FEA5
:109EB000314B02461A603946D02230481FF0B8FEB6
:109EC0002F4A30483049314B019D82F800800022F2
:109ED00005600C601A7050E7254B244801221A7067
:109EE00012F0F6F9034621488DF8043012F0F0F92B
:109EF00003461E488DF8053012F0EAF903461B4868
:109F00008DF8063012F0E4F91A4B8DF8070093F83B
:109F1000008015F021FE044615F01EFE164B024689
:109F20001A603946D02215481FF082FE144A15489F
:109F30001549164B019E82F80080002206600C60D5
:109F40001A706DE7AC810020889700200066002021
:109F500010600020B06E0020416400200D600020E1
:109F6000D86C00201860002060ED0400B46E002062
:109F7000017000200F60002094600020E46C00203D
:109F8000DD6C0020E06C0020AC6E0020DC6C00205A
:109F9000504B514801221A7012F09AF903464E486C
:109FA0008DF8043012F094F903464B488DF80530D3
:109FB00012F08EF9034648488DF8063012F088F901
:109FC000464B8DF8070093F8008015F0C5FD044658
:109FD00015F0C2FD424B02461A603946D022414874
:109FE0001FF026FE404A41484149424B019D82F8FC
:109FF0000080002205600C601A7075E6304620F083
:10A000006FFD3D4C84460FCC06EB0C0546F80C006A
:10A01000696003CCAA60EB60286169615BE6284651
:10A0200020F05EFD344C84460FCC05EB0C0645F861
:10A030000C00716003CCB260F36030617161E7E6DF
:10A04000304620F04DFD2C4C84460FCC06EB0C0521
:10A0500046F80C00696003CCAA60EB602861696176
:10A0600083E6BB782B2B7FF47BAE4246394601A8B2
:10A07000FDF7D4FD01A82346FF22314615F022FD4D
:10A0800001A815F01BFC78E6BB782B2B7FF41EAEE5
:10A090004246394601A8FDF7C1FD01A82346FF222B
:10A0A000314615F00FFD01A815F008FC1CE6BB7841
:10A0B0002B2B7FF4A8AE4246394601A8FDF7AEFD32
:10A0C00001A82346FF22294615F0FCFC01A815F043
:10A0D000F5FBA5E601700020B46E00200F600020A3
:10A0E00094600020E46C0020DD6C0020E06C002017
:10A0F000AC6E0020DC6C002088EA04002DE9F04FF3
:10A10000984E3378ADF5677D4FF0000B9BB9964ABA
:10A110001378002B35D1954A1378002B40F0BA8084
:10A12000042019F0BBFA0446002800F0E2800DF587
:10A13000677DBDE8F08F8E488E4C13F07FFF8E4B0D
:10A140001B6890FBF3F202FB13038C4A884802EB76
:10A15000830393ED000A10F019FD2368012B00F032
:10A16000BB820133236015F0F7FC854B0246804823
:10A170001A6013F06DFF00237B4A33701378002BB5
:10A18000C9D000277A4817702CAD13F061FF39460B
:10A19000F722284637701FF073FD3946F7226AA868
:10A1A0001FF06EFD72483A46294612F07FF90028EA
:10A1B00040F0F081734B1C78002C00F001812B786B
:10A1C000002B40F09282F1220DF1B6016AA81FF037
:10A1D0002FFD6D4B95F801801B78D5F80270434533
:10A1E0003FBA47D92646694B03F5C87153F8042F87
:10A1F000BA4208BF00248B42F8D1002C37D0002E81
:10A2000040F0C6832946F722A8A81FF011FD604B35
:10A2100000241C7015F0A0FC0546554812F058F8B3
:10A22000814615F099FCDFF894C1142212FB090352
:10A23000A8A95848CCF8003008F10108F7228DF899
:10A24000A1821FF0F5FC54492346284651F8042FFB
:10A25000DCB2824203F101033CBFA3461046642BEB
:10A26000F4D14E4A4E4B42F82B5043F82B70002E3F
:10A2700040F0B2803F4C4B4B1B7800222260002BF9
:10A2800040F01F823A4812F009FC384A1378002B3C
:10A290003FF446AF0026167015F05EFC424A434D6F
:10A2A000034607CAA8AF3C4603C4314622800DF2DC
:10A2B000AA20ED222B601FF0E3FC354B1B78002B0E
:10A2C00040F0AA812B4C374B1B7800222260002BD8
:10A2D00040F0E78136492648042213F023F9244848
:10A2E00012F0DCFB042019F0D9F9044600287FF4B1
:10A2F0001EAF01462F480BF0B9FC2F480EF0ECFBC7
:10A3000085B245B12C4E2146013430460EF002FC98
:10A31000A1B28D42F8D827480BF086FD144811F001
:10A3200033FE0624032019F0DBF9013C642015F00C
:10A330001FFC14F0FF04F5D12146032019F00CF99D
:10A340002146022019F008F90521042019F004F92A
:10A350002046042119F000F9FBF7B4FF0DF5677DE5
:10A36000BDE8F08F746B00200070002000710020A9
:10A37000B46E0020D46C00209060002060ED0400DA
:10A38000D86C00200D6000201C600020F4660020C6
:10A3900001700020B46D00208468002088680020CF
:10A3A000F86600201060002070EB0400F8700020B8
:10A3B000D562020028950020E88E002094600020DD
:10A3C0002946F7226AA81FF033FC6AA820F088FB10
:10A3D000C1B26AA8FFF78CFBCB4B1B78002B3FF474
:10A3E00049AFCA4B93F80090B9F1000F7FF442AF28
:10A3F000A8AFF722494638461FF042FC384620F005
:10A400006FFBDFF844C3C24C8646BCE80F000EF178
:10A4100001050A2607F80E6078513D44BCF804E0B7
:10A42000DCF800009CF806C0A5F814E00DF1300837
:10A4300085F816C0EB606960AA6028614946202251
:10A4400040461FF01DFC206832464146023017F09E
:10A45000E1FE384620F044FB4146384420F002FB40
:10A46000DFF8E8C20670451C0CF1200E66460FCEE0
:10A47000764528606960AA60EB60B44605F1100576
:10A48000F4D1BCE80300BCF800302B81286069607F
:10A490002022002140461FF0F3FB9E4800220121AC
:10A4A00011F0B8F9FDEEC07A0A2217EE900A414683
:10A4B00017F0B0FE384620F013FB4146384420F038
:10A4C000D1FA954ADFF888C20346106818601E1D4D
:10A4D0000CF1200E65460FCD754530607160B2609D
:10A4E000F360AC4606F11006F4D12B79286833717D
:10A4F00030602022002140461FF0C2FB8548874D76
:10A5000011F05CFCFDEEC07A0A2217EE900A41467B
:10A5100017F080FE384620F0E3FA4146384420F038
:10A52000A1FA06460FCDA6EB070C0CF1010C4FF07B
:10A530000A0986F8009007EB0C0647F80C007160DA
:10A5400003CD2D78F360B26030617161202200216B
:10A55000404635761FF094FB6E48002113F044F816
:10A56000FDEEC07A4A4617EE900A414617F052FEB9
:10A57000384620F0B5FA4146384420F073FA68496D
:10A580000346C21B033208681860D1B23846FFF791
:10A590001BFB70E6634B5E4C93E80700A8AB03C35C
:10A5A00039461A800DF2AA20ED221FF069FB8022A5
:10A5B00039460CA81FF064FB5B4B5C491B68002B01
:10A5C000B8BF5B4203EB430301EB830108A815F01E
:10A5D000B5F8574908A815F017FA014605A815F06F
:10A5E000ADF808A815F06AF9079A3B460132A8AD04
:10A5F0000CA905A815F066FA284620F071FA0CA9F6
:10A60000284420F02FFA401BC1B22846FFF7DCFA9D
:10A6100005A815F053F92EE6434C802231466AA86E
:10A620001FF02EFB23684149002BB8BF5B4203EBB0
:10A63000430301EB83012CA815F080F83C492CA8BA
:10A6400015F0E2F90DF130080146404615F076F8B4
:10A650002CA815F033F9D8F80820334601326AA93E
:10A66000404615F02FFA384620F03AFA6AA93844E5
:10A6700020F0F8F9D4F800900646B9F1000F04D1A3
:10A68000214B1B78002B40F0DE80214C384620F017
:10A6900027FAC1B23846FFF797FA404615F00EF98F
:10A6A00011E6244A244B12781A4803EB820393EDF7
:10A6B000000A10F06BFA21491648042212F048FFF4
:10A6C00008E61C4A1C4B1278124803EB820393EDF8
:10A6D000000A10F05BFAD5E515F03EFA184B194A5E
:10A6E0001B68C01A106023683BE5012B02D0F722DB
:10A6F00029466BE5CDE901B4024601462B461026FA
:10A700000DF13008A8AF2BE0416400200D6000205F
:10A71000D46C0020B46E0020E4EA040014EB0400C2
:10A7200030EB040070EB0400FC700020186A00207D
:10A7300090FD04001860002060ED0400E16202005A
:10A74000F4700020F0700020A0EA0400B8EA0400D1
:10A75000ECEA04000132D2B216F0FF0600F00681E6
:10A7600006F1020CF01C5FFA8CFCC0B215F80CC0AC
:10A7700015F800E093F80EB093F80A90C8F80010AE
:10A7800000206CF3070006F1040C6EF30F205FFA53
:10A790008CFC06F1050E5FFA8EFE15F80CC015F85C
:10A7A0000EA093F806E0C8F804106CF317406AF3A3
:10A7B0001F60AB9093F80FA0C8F80810002006F1B6
:10A7C000010C6BF307006AF30F205FFA8CFC15F89D
:10A7D00006A015F80CC0C8F80C106AF317404FF02B
:10A7E000000A69F3070A93F80B906CF31F600024CA
:10A7F00093F80CC0AA906EF30704587B93F807E017
:10A8000069F30F2A6CF3174A93F808C060F31F6AC4
:10A810006EF30F24587ACDF8A4A26CF3174460F3BA
:10A820001F64A894386810361033002892D10D9810
:10A8300082458FD10E98AA9C84428BD10F98AB9CF5
:10A84000844287D188E76F4B6F4ADFF8D4C1D3F8D1
:10A8500000B02B68D2F800E00193BCE80F00F36071
:10A86000019BBCF804A03060DE44DCF8000071609D
:10A87000664C9CF80610B260A3EB0E033061A6F89C
:10A8800014A0B175202249462CA801931FF0F8F9B5
:10A890000A222CA92068DFF88CB117F0BBFC3846DF
:10A8A00020F01EF92CA9384420F0DCF8DFF878C13C
:10A8B0008646BCE80F00AEEB070601364FF00A0AE9
:10A8C0008EF800A0B8513E44DCF800009CF804C0AB
:10A8D00086F814C07160B2603061F360202249468E
:10A8E0002CA81FF0CDF9484A28681368484D5246F5
:10A8F000C01A2CA917F08EFC384620F0F1F82CA9CC
:10A90000384420F0AFF80646DBF8000030600FCD89
:10A91000F61B033607EB060CB851CCF80410CCF844
:10A92000082007CD2D88CCF81000CCF81410CCF8F6
:10A930001820CCF80C30ACF81C50494620222CA82A
:10A940001FF09EF9019B2068B3FBF0F052462CA942
:10A9500017F060FC384620F0C3F82CA9384420F0EA
:10A9600081F80346DBF8000018608FE6023A12F027
:10A97000FF03DDE901B4039314D1264B95F8018060
:10A980001B78D5F8027043453FBA3FF62CAC71E412
:10A990006AA820F0A5F8C1B26AA8FFF7A9F895F84F
:10A9A00001802FE4DDF8B600DDF8BA10DDF8BE2036
:10A9B000DDF8C230A8960DF1200CACE80F00164B64
:10A9C0007E601A46C7E90266DB68526808A84146FD
:10A9D000FBF704FED8F80020A89B9A4226D00F4B24
:10A9E0001B78002B3FF446AC0A4B95F801801B788E
:10A9F000D5F8027043453FBA7FF63CAC0026FFF71E
:10AA0000F2BB00BFF0700020F4700020D46C002076
:10AA100050EB04001C600020B86400200D60002092
:10AA2000A0EA04004CEB040034EB0400A99A0D9B4F
:10AA30009342D4D1AA9A0E9B9342D0D1AB9A0F9B4A
:10AA40009342CCD1DDF8C600DDF8CA10DDF8CE2087
:10AA5000DDF8D23008AF0FC7964B1A464146526810
:10AA6000DB6808A8FBF7BAFD404620F039F831460C
:10AA70000746F7226AA8FEB21FF002F937B1721E2C
:10AA8000D2B2013241466AA81FF0D2F86AAB6AA975
:10AA90003A223B44CDE901B4CA55023620225FFA7E
:10AAA00086FA5A7000264FF0260909F10C0109F1C7
:10AAB0000D0209F10903C9B2DBB2D2B2695C15F823
:10AAC00003E0AA5C15F80970002361F3070362F341
:10AAD0000F2309F10E02D2B209F10400AA5CC0B240
:10AAE00062F3174309F10F0215F800C009F10804D9
:10AAF00009F1050009F10101D2B2E4B2C0B2C9B254
:10AB0000AA5C15F804B02C5C685C09F10A0162F3D8
:10AB10001F63C9B20B930023695C6BF307036EF3E9
:10AB20000F2361F3174309F10B01C9B209F1020EBA
:10AB3000695C61F31F6300210A936CF3070109F15B
:10AB400003035FFA8EFE64F30F21DBB2002415F8D5
:10AB50000EE0EB5C09F1060267F3070409F1070B4D
:10AB600060F30F24D2B26EF317445FFA8BFBAA5C3A
:10AB700015F80BC063F31F644E4B089462F3174142
:10AB80001A466CF31F61DB685268099108A84146B8
:10AB9000FBF724FD0AF101040DF5D47C98F8007050
:10ABA0000CF80A700AF10200E4B298F801700CF88F
:10ABB00004700AF10301C0B298F802700CF800703A
:10ABC0000AF10402C9B298F803700CF80170D2B20D
:10ABD0000AF1050398F804700CF80270DBB20AF170
:10ABE000060498F805700CF80370E4B20AF1070047
:10ABF00098F806700CF80470C0B20AF1080198F8D1
:10AC000007700CF80070C9B20AF1090298F80870D0
:10AC10000CF80170D2B20AF10A0398F809700CF826
:10AC20000270DBB20AF10B0498F80A700CF803709A
:10AC3000E4B20AF10C0098F80B700CF80470C0B282
:10AC40000AF10D0198F80C400CF80040C9B20AF165
:10AC50000E020AF10F0398F80D400CF80140D2B231
:10AC6000DBB298F80E0098F80F100CF802000136CD
:10AC70000CF80310039BF2B209F110090AF1100A53
:10AC800093425FFA89F95FFA8AFA3FF60EAF0A4BF0
:10AC90001E78DDE901B4002E3FF497AB074B95F821
:10ACA00001801B78D5F8027043453FBA7FF694AB1C
:10ACB000FFF799BAB86400200D6000201C600020E6
:10ACC00000B5234B1B78BFB03BB3012B3BD0022B0D
:10ACD00028D0322014F04CFF1E4B1F4819880DF06D
:10ACE00019FF1E4806F098F81D4814F0ABF81B48F1
:10ACF00006F08CF91A4814F045F81A4800F080F86C
:10AD0000BFF34F8F1849194BCA6802F4E06213432E
:10AD1000CB60BFF34F8F00BFFDE715490F4813F01D
:10AD200077FCD6E7134B0FCB6C4607C4EA22002111
:10AD30000DF10D0023701EF0A3FFF72269460E48A7
:10AD40000EF05CFAC5E70A49054813F061FCC0E75C
:10AD5000B06E0020DC6B0020E88E0020AC8100206B
:10AD6000889700200471002000ED00E00400FA053F
:10AD700098E6040068EC040018660020704700BFE5
:10AD800010B5044617F018FB204610BD38B50A4B25
:10AD900004460D46442240F80C3B00211EF070FF93
:10ADA0000023A560237104F15401012015F0C2F9BC
:10ADB0002065204638BD00BF68EF040070B504462A
:10ADC0000E46006D4FF0FF3115F02CFC257955B97A
:10ADD0008EB1A660314604F10C0005F0D5FBB0FA47
:10ADE00080F56D0925710023206D1A46194614F06F
:10ADF000F1FF284670BDA668002EF4D0EAE700BF38
:10AE000010B504464FF0FF31006D15F00BFC2379AF
:10AE10003BB90023206D1A46BDE81040194614F0D6
:10AE2000D9BF0023237104F10C0005F0C1FCF0E749
:10AE300070B505464FF0FF31006D15F0F3FB2B792F
:10AE400093B1002305F10C062B71304605F0B0FCE0
:10AE5000044680B10023286D1A46194614F0BAFF43
:10AE6000B4FA84F0400970BDA96805F10C0004F043
:10AE70002BFF0446EEE7A968304604F025FF0446A0
:10AE80000028E7D1A968304605F07EFB044600287B
:10AE9000E0D101232B71DDE730B5044695B00D46B6
:10AEA000006D4FF0FF3115F0BDFB294601AA04F1FA
:10AEB0000C0004F0DDFC002302461946206D144608
:10AEC0001A4614F087FFB4FA84F0400915B030BD7B
:10AED0002DE9F04F83B00B7800AF2F2B78600CBFBB
:10AEE0004C1C0C4606460D46006D4FF0FF3115F028
:10AEF00099FB06F10C084FF0000917E0ADEB030DCC
:10AF000068468B4500F8019BEA4601DD1EF0B8FE5D
:10AF100029465A4650461EF08BFE5146404603F0E5
:10AF20000DFD08B1113028D10134B54620462F213E
:10AF30001FF0B0FDA0EB050B0BF108036E460021DE
:10AF4000044623F007035A460028D7D12946404635
:10AF500003F0F4FC60B901247A680023106D1946EF
:10AF60001A4614F037FF20460C37BD46BDE8F08F77
:10AF7000113014BF00240124EEE70024B546EBE7AE
:10AF800038B504460D46006D4FF0FF3115F04AFB11
:10AF9000294604F10C0004F0C3FC002302461946C4
:10AFA000206D14461A4614F015FFB4FA84F04009D7
:10AFB00038BD00BF00207047036970B504460D46D8
:10AFC000186D4FF0FF31164615F02CFB237D4BB169
:10AFD000002522690023106D19461A4614F0FAFE66
:10AFE000284670BD2069A1692A4633460C3003F01B
:10AFF000F3FF20EAE075ECE770B50369044682B020
:10B00000186D4FF0FF3115F00DFB267D4EBB20690A
:10B01000A1690C3004F01EFC05462069A1698DF879
:10B02000076001230DF107020C3004F05FFB0028DC
:10B030002069A169C8BF9DF807602A4600F10C008D
:10B040004FF00003D8BF4FF0FF3604F0D3FB226966
:10B050000023106D19461A4614F0BCFE304602B0AB
:10B0600070BD4FF0FF36F2E738B5036904464FF084
:10B07000FF31186D15F0D6FA237D4BB100252269FA
:10B080000023106D19461A4614F0A4FE284638BD58
:10B090002069A1690C3004F0DFFB05462069A16935
:10B0A0000C3004F0D7FB2D1AE9E700BF036910B597
:10B0B00004464FF0FF31186D15F0B4FA237D43B10B
:10B0C00022690023106DBDE810401A46194614F09D
:10B0D00081BE2069A1690C3004F0E4F9F0E700BFFB
:10B0E00030B50369044683B0186D4FF0FF3115F099
:10B0F00099FA257D55B122690023106D19461A462B
:10B1000014F068FE4FF0FF3003B030BD2069A16934
:10B110000DF1070201230C3004F0E8FA23692A46F6
:10B1200004462946186D2B4614F054FE002CCCBF63
:10B130009DF807004FF0FF3003B030BD30B5036815
:10B14000164A5B6883B093428DF807101ED10369DD
:10B1500004464FF0FF31186D15F064FA237D53B1AA
:10B16000002522690023106D19461A4614F032FE9C
:10B17000284603B030BD2069A1690C3001230DF1D0
:10B18000070203F029FF20EAE075EAE701220DF14A
:10B19000070198470546284603B030BDB9AF020005
:10B1A00030B4074C016100224FF47A75C0E90042C7
:10B1B0008560C0E9062230BC027580F82020704707
:10B1C00084EF0400F0B5836997B004460D46164637
:10B1D00093B1077D006919460C30002F45D003F06C
:10B1E000ADFDA06914F0FAFCE0690023A36108B189
:10B1F00014F0F4FC0023E361206903AA0C30294613
:10B2000004F036FB98B99DF80C30112B34D02C206B
:10B2100014F0CAFC0146A06130B120692A460C3006
:10B2200003F064FD002839D0002017B0F0BD0230D3
:10B23000FAD1012EF8D1382014F0B6FC0146A061F5
:10B240000028F1D0206940F203130C302A4603F0A5
:10B2500011FE06460028E7D12069A1690C300223BF
:10B26000324604F0C7FA267509E004F09DF9A0699A
:10B2700014F0B4FCA761BFE7EEB1012E3AD02F2144
:10B2800028461FF05AFC203400B1451C29462046B0
:10B2900040221FF03FFC012017B0F0BD01232375B1
:10B2A00028461FF01DFC013014F07EFC2946E061A9
:10B2B0001FF0FDFBE3E701233820019314F074FC39
:10B2C000019BA06101460028AED020692A460C30BF
:10B2D00003F0D0FD0028A7D1012E02D00023237552
:10B2E000CDE72369A169024603F10C00022304F0B3
:10B2F00081FAF3E740F20313DEE700BF30B50369DC
:10B3000083B004460D46186D01924FF0FF3115F0E1
:10B3100089F9019A29462046FFF754FF2169002345
:10B3200002461446086D1A46194614F053FD20468D
:10B3300003B030BD70B504460025C4E90655104879
:10B34000236182B0206084F820504FF47A700E465A
:10B35000A0604FF0FF31186D65602575019215F002
:10B3600061F9019A31462046FFF72CFF22692B46EE
:10B37000106D29462A4614F02DFD204602B070BDFE
:10B3800084EF0400036970B504460D46186D4FF054
:10B39000FF31164615F046F9237D4BB10025226991
:10B3A0000023106D19461A4614F014FD284670BD8E
:10B3B0002069A1692A4633460C3004F097F9054606
:10B3C000EDE700BF38B5036904460D46186D4FF030
:10B3D000FF3115F027F9237D4BB1002522690023A9
:10B3E000106D19461A4614F0F5FC284638BD206940
:10B3F000A1692A460C3004F0FDF9C543ED0FEDE7D5
:10B4000038B5036904464FF0FF31186D15F00AF99D
:10B41000237D4BB1002522690023106D19461A4681
:10B4200014F0D8FC284638BD2069A1690C3004F01E
:10B4300011FA0546EFE700BF38B5036904464FF03F
:10B44000FF31186D15F0EEF8237D4BB10025226910
:10B450000023106D19461A4614F0BCFC284638BD6E
:10B460002069A1690C3004F0F7F90546EFE700BF49
:10B47000036970B504464FF0FF31186D15F0D2F82E
:10B48000A16981B12069257D0C30ADB103F056FC76
:10B49000A06914F0A3FBE0690023A36108B114F0D4
:10B4A0009DFB0023E36122690023106DBDE870401D
:10B4B0001A46194614F08EBC04F076F8A06914F010
:10B4C0008DFBA561EFE700BF8069003818BF012040
:10B4D000704700BF2DE9F04F95B00B6906460C464A
:10B4E000186D4FF0FF3100AF904615F09BF8002328
:10B4F0002069337586F82030227D2B4930614FF466
:10B500007A70C6E90013C6E90633B060DAB342F6D2
:10B510002E652069A1690C303A1D03F023FC012837
:10B5200031D1BB892E2BF4D0AB4238D0D4F81C904B
:10B5300048461FF0D5FA054607F10C001FF0D0FA77
:10B540002B18093323F00703EA46ADEB030D6846D9
:10B550006A1C49461EF06CFB99F800302F2BEB4615
:10B5600002D199F801301BB1104B1B882BF8053024
:10B5700007F10C0158461FF07EFA42465946304604
:10B58000FFF720FED54622690023106D19461A46A2
:10B5900014F020FC30465437BD46BDE8F08FBB7B2D
:10B5A000002BB6D0C2E700BF84EF040078EF0400A0
:10B5B0002DE9F04F85B0DDE90E4B109F81460D4619
:10B5C00090461E46002F63D0B8F1000F03D0D8F884
:10B5D0000030B34249D0D9F800002B689E422BD0EE
:10B5E0004369B4FBF3F203FB1242BAB9BB4215D86C
:10B5F000B7FBF3F203FB127AA7EB0A030093039362
:10B60000436822461F4631465B46B84788B9039BCC
:10B6100057469B441C44002FD6D139E00093A21A10
:10B62000C5E90062D0F804A0AB683146D0470028D5
:10B63000CAD005B0BDE8F08F69684369A142D0D88F
:10B64000CA18A242CDD9A2EB040ABA45AB6828BFFA
:10B65000BA46611A524658461944BF1A54441EF05D
:10B66000E7FAD344002FAFD112E0D8F80430A34258
:10B67000B1D8D9F8000082691A44A242ADD9A2EB30
:10B68000040ABA45D8F8081028BFBA46E31AE1E719
:10B69000002005B0BDE8F08F2DE9F04F074687B0D8
:10B6A0000D4672B30368D1F800B090469A69D1E9AB
:10B6B00001104AB3013A01F101098618A9EB00090A
:10B6C000441E4FF0010A08E014F8012F9DF81730CE
:10B6D0009A4223D1A6423B6814D01A6A934509EBDB
:10B6E000040320D20DF11702CDE90032CDF808A0F5
:10B6F0005B46002241463846FFF75AFF0028E3D058
:10B7000009DB3B68A8689A69FF211EF0B9FA4FF07F
:10B71000FF332B60002007B0BDE8F08F6FF03300DF
:10B7200007B0BDE8F08F034B034A044812211EF016
:10B73000DDF900BFA0EF0400C8F10400C0EF040071
:10B740002DE9F04F87B0DDF840A00592002B64D0C2
:10B75000D0F800908B46D9F81C105C1EA1F10808A7
:10B760004445074651D3B4FBF8F001381EF040F8C9
:10B77000D04500F10200A4EB8003B3FBF8F560D8DC
:10B78000BAFBF8F001381EF033F8861CAAEB8606E7
:10B79000B6FBF8F630461EF02BF8AAEB800006FB4D
:10B7A000180AB54243D9D9F82020059B4FF0040967
:10B7B0000DF114080BE0012B45D93A68126A934247
:10B7C00041D8012101FA04F42D1BB54230D9AC1B3C
:10B7D000B4FA84F495FAA5F1C4F11F04B1FA81F129
:10B7E0008C4228BF0C4693424FEA840132D200912A
:10B7F000CDE90189002259463846FFF7D9FE059B5D
:10B800000028D8D007B0BDE8F08FD04588BF1346D8
:10B81000BAFBF8F00CD80025B4E711994FF0FF32CD
:10B820000A60129A1846136007B0BDE8F08F059BB6
:10B83000119A1360129B0020C3F800A007B0BDE866
:10B84000F08F0026ADE7064B064A07484FF48F619C
:10B850001EF04CF9054B064A034812211EF046F92A
:10B860003CF00400E8F10400C0EF0400A0EF040085
:10B87000C8F104002DE9F04F89B00746149C129DD1
:10B880008B4692461E46002C55D0DBF80030B34262
:10B890005CD0013340F0A18038688269B5FBF2F3D7
:10B8A00002FB1353002B4AD1A24248D8B4FBF2F357
:10B8B00002FB13430593E31A009304938468139BDC
:10B8C0002A463146A04700287ED1BAF1000F29D080
:10B8D000049B3BB3139B5C1E049B04EB0309139B6B
:10B8E00005F10108A8EB030807E014F8012F9DF803
:10B8F0001F309A4266D14C4514D03B681A6A964272
:10B9000008EB040363D2012202920DF11F02CDE97C
:10B9100000325146334600223846FFF749FE0028E0
:10B92000E3D051DB139A049B059C114619441391F3
:10B930001D44002CA9D1002009B0BDE8F08FEB1AFE
:10B94000CBE90063DBF80030B342A2D1DBF804108E
:10B95000A9429ED83A6892690A44AA4299D9A2EBB0
:10B960000508A045DBF8080028BFA046691A08446E
:10B97000424613991EF05CF9386813998269454470
:10B980004144B5FBF2F302FB1353A4EB08041391FB
:10B99000002B7FF478AFDBF800104B1C3FF473AF43
:10B9A0000092DBE90123D0F80880C04760B9524615
:10B9B00059463846FFF770FE00283FF464AF09B0DF
:10B9C000BDE8F08F6FF0330009B0BDE8F08F064B93
:10B9D000064A074812211EF089F8064B064A044819
:10B9E000B7211EF083F800BFA0EF0400C8F10400E7
:10B9F000C0EF040068F00400D8F104002DE9F04F16
:10BA00000446D2E9003091B04FF0010B0A930023B5
:10BA10000B90069104F114080DF128090593236891
:10BA200059F8045B1B6A9D427BD210230DF1300A4A
:10BA30000022CDE901A300922B4641462046FFF7A4
:10BA4000B7FD002839D1059B002B60D10D9B23F059
:10BA50000043132B4FD92268D26993424BD84FF041
:10BA6000FF3309A810225146099304F0BFFE0D9B35
:10BA700023F00043102B28D0CDF81C9010260DF198
:10BA80002307994607E001360122394609A804F048
:10BA9000ADFEB14517D023681B6A9D4241D20123F8
:10BAA000CDE9017300962B46002241462046FFF760
:10BAB0007FFD0028E7D0DDF81C9010F1340F1AD07C
:10BAC00011B0BDE8F08FDDF81C90099B9BB99AE896
:10BAD0000F000BF0010610AF07EB860C069F102637
